:020000022000DC
:1060000000000120B5620200DD620200DF620200D2
:10601000E1620200E3620200E562020000000000AB
:10602000000000000000000000000000E762020025
:10603000E962020000000000EB620200ED62020073
:10604000EF620200EF620200EF620200EF62020004
:10605000EF620200EF620200EF620200EF620200F4
:10606000EF620200EF620200EF620200EF620200E4
:10607000EF620200EF620200EF620200EF620200D4
:10608000EF620200EF620200EF620200EF620200C4
:10609000EF620200EF6202009D670200EF62020001
:1060A000EF620200EF620200EF620200EF620200A4
:1060B000EF620200EF62020000000000000000003A
:1060C000EF620200EF620200EF620200EF62020084
:1060D000EF620200EF620200EF62020000000000C7
:1060E00000000000000000000000000000000000B0
:1060F00000000000000000000000000000000000A0
:10610000000000000000000000000000000000008F
:10611000000000000000000000000000000000007F
:10612000000000000000000000000000000000006F
:10613000000000000000000000000000000000005F
:10614000000000000000000000000000000000004F
:10615000000000000000000000000000000000003F
:10616000000000000000000000000000000000002F
:10617000000000000000000000000000000000001F
:10618000000000000000000000000000000000000F
:1061900000000000000000000000000000000000FF
:1061A00000000000000000000000000000000000EF
:1061B00000000000000000000000000000000000DF
:1061C00000000000000000000000000000000000CF
:1061D00000000000000000000000000000000000BF
:1061E00000000000000000000000000000000000AF
:1061F000000000000000000000000000000000009F
:1062000010B5054C237833B9044B13B10448AFF3F0
:1062100000800123237010BDD4590020000000002D
:10622000F068020008B5034B1BB103490348AFF304
:10623000008008BD00000000D8590020F06802006E
:10624000154B002B08BF134B9D46A3F5803A002148
:106250008B460F461348144A121A00F015FB0F4BD9
:10626000002B00D098470E4B002B00D09847002001
:10627000002104000D000D48002802D00C48AFF3A7
:10628000008000F0DDFA2000290000F0B1F800F0F5
:10629000C3FA00BF00000800000001200000000059
:1062A00000000000D4590020F05900200000000038
:1062B000000000000649074A074B9B1A03DD043B18
:1062C000C858D050FBDC00F0ABF8FFF7B9FF000076
:1062D0000469020068590020D4590020FEE7FEE757
:1062E000FEE7FEE7FEE7FEE7FEE7FEE7FEE7FEE786
:1062F000074B4FF0A041185CD1F8043501228240D1
:1063000022EA03001340C1F80805C1F80C357047B4
:10631000B4680200C20730B41AD54FF0A04303227C
:10632000C3F844274FF40035C3F848274FF48024BE
:10633000C3F84C274FF40021C3F850274FF48012C4
:10634000C3F80855C3F80845C3F80815C3F808256D
:1063500083070AD54FF0A0430C22C3F83427C3F8B3
:106360003827C3F83C27C3F8402730BC704700BF2C
:1063700000B585B00346002101AA44F20100CDE931
:106380000111039300F004F805B05DF804FB00BFB1
:1063900072B6094B1B68DB0700D500BEBFF34F8FF9
:1063A0000649074BCA6802F4E0621343CB60BFF3AF
:1063B0004F8F00BFFDE700BFF0ED00E000ED00E013
:1063C0000400FA0501600B6843604A68934204BF09
:1063D00000234360704700BF436843B1026891687F
:1063E0000B4443605268934204BF002343607047EC
:1063F00070B50120094DFFF78DFF45F0010500261E
:106400003046FFF775FF4FF4FA744FF47A40A8470F
:10641000013CFAD10136042EF2D1F0E7C068020047
:1064200030B4A54B1B68591C04BFA44B1B78062B2A
:1064300005D1A34BA34A1B68C3F3042313609F4BEE
:106440001B78062B00F0F8809B4B1B685A1C04BF7E
:106450009A4B1B78062B05D19B4B9C4A1B68C3F3B8
:1064600042331360954B1B78062B00F0D280924B81
:106470001B685D1C04BF914B1B78062B08D14FF0A5
:1064800080430022C3F80C21C3F81021C3F838253B
:106490008A4B1B78062B00F09C80874B1A68541C93
:1064A0001FD08B4B062A1B6823D08A4AD2F888302B
:1064B00043F47003C2F88830BFF34F8FBFF36F8F80
:1064C0004FF01023D3F80022002AC0F22F81D3F816
:1064D0000432002BC0F22A817F4B804A1A6030BC04
:1064E000704776497E4B09781B680629DDD1C3F3D6
:1064F0000313033B032B40F2B6804FF08052794BDD
:10650000D2F80414C3F82015D2F80814C3F82415DF
:10651000D2F80C14C3F82815D2F81014C3F82C15AF
:10652000D2F81414C3F83015D2F81814C3F834157F
:10653000D2F81C14C3F84015D2F82014C3F844153F
:10654000D2F82414C3F84815D2F82814C3F84C150F
:10655000D2F82C14C3F85015D2F83014C3F85415DF
:10656000D2F83414C3F86015D2F83814C3F864159F
:10657000D2F83C14C3F86815D2F840144E48C3F85A
:106580006C15D2F844140268C3F87015501C00F062
:106590008C80062A89D1544B474A1B68534912689C
:1065A00003F04F030B60511C62D0062A7FF47DAFCD
:1065B0004FF08043D3F80034DA0765D4444B1B68AE
:1065C000033B032B49D94A4A136843F480631360A1
:1065D0006BE7434B1B68C3F30313033B032B3FF6EB
:1065E0005CAF444AD25C12B1434A03211160434A72
:1065F000D35C002B3FF451AF414A424C4249434BDC
:1066000005201060012500203F22256008601A60E7
:1066100043E7334B1B68C3F30313033B032B3FF6E2
:1066200026AF3B4AD35C002B3FF421AF394AD368F5
:1066300023F08073D3601AE7294B1B68C3F303135D
:10664000033B032B3FF600AF334AD35C002B3FF4F0
:10665000FBAE324B324A1A60F6E6324AD35C002B6C
:106660003FF423AFAFE73049CB5C002B8ED044E73B
:10667000124B1B78062B7FF418AF4FF08043D3F8F2
:106680000034DB077FF511AF0B4B1B684FF08042E6
:106690006FF00101062BC2F800147FF406AF0C4B1B
:1066A0001B68033B032B8ED8D7E7044B1B78062BC4
:1066B0003FF471AFF9E600BF30010010E00F00F0C9
:1066C0002403001040350140440200103C05004006
:1066D0003401001000ED00E0685900200090D00364
:1066E000E80F00F000C0004058020010E40E004027
:1066F0003C170040D0680200A0050040D0680200AE
:10670000105600408856004018560040145600406D
:10671000D0680200F0ED00E0D068020074C00740CD
:106720000DF0ADBACC680200C8680200184A012317
:10673000C2F80435D2F80034002BFBD04FF0102300
:106740001521134AC3F80012D2F80034002BFBD0F5
:106750004FF0102315210E4AC3F80412D2F800346A
:10676000002BFBD000230A49C2F80435D1F80034CD
:10677000002BFBD0BFF34F8F0649074BCA6802F4CA
:10678000E0621343CB60BFF34F8F00BFFDE700BF54
:1067900000E0014000ED00E00400FA0500B583B020
:1067A00008496846FFF70EFE019B43B1D3E900207C
:1067B00090476846FFF710FE019B002BF6D103B00F
:1067C0005DF804FBD46802004BDF704710B5114C34
:1067D00084B001A8FFF7F8FFA8B9214602A8FFF787
:1067E000F1FD039B002BF4D0D3E9002101989047E1
:1067F00002A8FFF7F1FD039B002BF5D101A8FFF7DD
:10680000E3FF0028E9D0052801D0FFF7B1FD04B06F
:1068100010BD00BFE068020008B5074B044613B185
:106820000021AFF30080054B1868836A03B19847D5
:10683000204600F031F800BF00000000EC680200C4
:1068400070B50D4D0D4C641BA4100026A64209D155
:106850000B4D0C4C00F022F8641BA4100026A6423D
:1068600005D170BD55F8043B98470136EEE755F861
:10687000043B98470136F2E7CC590020CC59002060
:10688000CC590020D059002002440346934200D145
:10689000704703F8011BF9E7FEE700BFF8B500BF3A
:1068A000F8BC08BC9E467047F8B500BFF8BC08BCF1
:1068B0009E467047111213140000000000000000F3
:1068C0000338FDD8704700000000010100000001FE
:1068D00001000000F4680200FC68020008000000EB
:1068E000F4680200F4680200080000006C590020FF
:0468F00000000000A4
:0868F400CD6702000000000066
:0868FC0044F9FF7F01000000D8
:106904000090D00300000000000000000000000020
:106914000000000000000000000000000000000073
:106924000000000000000000000000000000000063
:106934000000000000000000000000000000000053
:106944000000000000000000000000000000000043
:106954000000000000000000000000000000000033
:0C69640000000000256202000162020039
:04000003200062B5C2
:00000001FF
