:1000000000800020B5020000DD020000DF020000D9
:10001000E1020000E3020000E50200000000000031
:10002000000000000000000000000000E7020000E7
:10003000E902000000000000EB020000ED020000F9
:10004000EF020000EF020000EF020000EF020000EC
:10005000EF020000EF020000EF020000EF020000DC
:10006000EF020000EF020000EF020000EF020000CC
:10007000EF020000EF020000EF020000EF020000BC
:10008000EF020000EF020000EF020000EF020000AC
:10009000EF020000EF020000EF020000EF0200009C
:1000A000EF020000EF020000EF020000EF0200008C
:1000B000EF020000EF02000000000000000000005E
:1000C000EF020000EF020000EF020000EF0200006C
:1000D000EF020000EF020000EF020000EF0200005C
:1000E000EF0200000000000000000000000000001F
:1000F00000000000EF02000000000000EF0200001E
:1001000000000000000000000000000000000000EF
:1001100000000000000000000000000000000000DF
:1001200000000000000000000000000000000000CF
:1001300000000000000000000000000000000000BF
:1001400000000000000000000000000000000000AF
:10015000000000000000000000000000000000009F
:10016000000000000000000000000000000000008F
:10017000000000000000000000000000000000007F
:10018000000000000000000000000000000000006F
:10019000000000000000000000000000000000005F
:1001A000000000000000000000000000000000004F
:1001B000000000000000000000000000000000003F
:1001C000000000000000000000000000000000002F
:1001D000000000000000000000000000000000001F
:1001E000000000000000000000000000000000000F
:1001F00000000000000000000000000000000000FF
:1002000010B5054C237833B9044B13B10448AFF350
:1002100000800123237010BD6C000020000000004E
:10022000BC05000008B5034B1BB103490348AFF3FD
:10023000008008BD0000000070000020BC05000028
:10024000154B002B08BF134B9D46A3F5803A0021A8
:100250008B460F461348144A121A00F08BF90F4BC5
:10026000002B00D098470E4B002B00D09847002061
:10027000002104000D000D48002802D00C48AFF307
:10028000008000F053F92000290000F079F800F018
:1002900039F900BF000008000080002000000000C5
:1002A000000000006C00002088000020000000001A
:1002B000000000000649074A074B9B1A03DD043B78
:1002C000C858D050FBDC00F073F8FFF7B9FF00000E
:1002D000C8050000000000206C000020FEE7FEE7DB
:1002E000FEE7FEE7FEE7FEE7FEE7FEE7FEE7FEE7E6
:1002F0000A4B185C1F288ABF09494FF0A04100F043
:100300001F00D1F804350122824022EA0300134085
:10031000C1F80805C1F80C35704700BFA005000002
:1003200000030050C20730B40ED483070AD54FF043
:10033000A0430C22C3F82C27C3F83027C3F860274A
:10034000C3F8642730BC70474FF0A0430322C3F8C2
:1003500034274FF40055C3F838274FF48044C3F8CE
:100360003C274FF40041C3F840274FF48032C3F8D4
:100370000855C3F80845C3F80815C3F80825D4E79D
:1003800070B50120094DFFF7CDFF45F001050026AE
:100390003046FFF7ADFF4FF4FA744FF47A40A847A8
:1003A000013CFAD10136042EF2D1F0E7B00500008D
:1003B0004D4B1B680D2B57D14FF080414FF08052B1
:1003C0000020C1F80C01494BC1F81001C1F83805F3
:1003D000D2F80404C3F82005D2F80804C3F82405B1
:1003E000D2F80C04C3F82805D2F81004C3F82C0581
:1003F000D2F81404C3F83005D2F81804C3F8340551
:10040000D2F81C04C3F84005D2F82004C3F8440510
:10041000D2F82404C3F84805D2F82804C3F84C05E0
:10042000D2F82C04C3F85005D2F83004C3F85405B0
:10043000D2F83404C3F86005D2F83804C3F8640570
:10044000D2F83C04C3F86805D2F84004C3F86C0540
:10045000D2F84424C3F87025D1F80034DB0744BF38
:100460006FF00103C1F800344FF01023D3F80022DD
:10047000002A07DBD3F80432002B03DB1C4B1D4A98
:100480001A6070471C4A0123C2F80435D2F80034C0
:10049000002BFBD04FF010231221174AC3F8001293
:1004A000D2F80034002BFBD04FF010231221124A57
:1004B000C3F80412D2F80034002BFBD000230E49FD
:1004C000C2F80435D1F80034002BFBD0BFF34F8FB6
:1004D0000A490B4BCA6802F4E0621343CB60BFF3D6
:1004E0004F8F00BFFDE700BF3001001000C000408B
:1004F000000000200090D00300E0014000ED00E08B
:100500000400FA0508B5074B044613B10021AFF308
:100510000080054B1868836A03B19847204600F0B5
:1005200031F800BF00000000B805000070B50D4DA7
:100530000D4C641BA4100026A64209D10B4D0C4C97
:1005400000F022F8641BA4100026A64205D170BD5D
:1005500055F8043B98470136EEE755F8043B9847B9
:100560000136F2E7640000206400002064000020EF
:100570006800002002440346934200D1704703F80C
:10058000011BF9E7FEE700BFF8B500BFF8BC08BCE7
:100590009E467047F8B500BFF8BC08BC9E46704741
:1005A0000D0E0F1000000000000000000000000011
:1005B0000338FDD870470000040000200000000050
:0805C00080FCFF7F0100000038
:1005C8000090D003000000000000000000000000C0
:1005D8000000000000000000000000000000000013
:1005E8000000000000000000000000000000000003
:1005F80000000000000000000000000000000000F3
:1006080000000000000000000000000000000000E2
:1006180000000000000000000000000000000000D2
:0C0628000000000025020000010200009C
:04000003000002B542
:00000001FF
