:1000000000000420B5020000DD020000DF02000055
:10001000E1020000E3020000E50200000000000031
:10002000000000000000000000000000E7020000E7
:10003000E902000000000000EB020000ED020000F9
:10004000EF020000EF020000EF020000EF020000EC
:10005000EF020000EF020000EF020000EF020000DC
:10006000EF020000EF020000EF020000EF020000CC
:10007000EF020000EF020000EF020000EF020000BC
:10008000EF020000EF020000EF020000EF020000AC
:10009000EF020000EF020000EF020000EF0200009C
:1000A000EF020000EF020000EF020000EF0200008C
:1000B000EF020000EF02000000000000000000005E
:1000C000EF020000EF020000EF020000EF0200006C
:1000D000EF020000EF020000EF020000EF0200005C
:1000E000EF020000EF020000EF020000000000003D
:1000F00000000000EF02000000000000EF0200001E
:1001000000000000000000000000000000000000EF
:1001100000000000000000000000000000000000DF
:1001200000000000000000000000000000000000CF
:1001300000000000000000000000000000000000BF
:1001400000000000000000000000000000000000AF
:10015000000000000000000000000000000000009F
:10016000000000000000000000000000000000008F
:10017000000000000000000000000000000000007F
:10018000000000000000000000000000000000006F
:10019000000000000000000000000000000000005F
:1001A000000000000000000000000000000000004F
:1001B000000000000000000000000000000000003F
:1001C000000000000000000000000000000000002F
:1001D000000000000000000000000000000000001F
:1001E000000000000000000000000000000000000F
:1001F00000000000000000000000000000000000FF
:1002000010B5054C237833B9044B13B10448AFF350
:1002100000800123237010BD6C000020000000004E
:100220008006000008B5034B1BB103490348AFF338
:10023000008008BD00000000700000208006000063
:10024000154B002B08BF134B9D46A3F5803A0021A8
:100250008B460F461348144A121A00F0F1F90F4B5F
:10026000002B00D098470E4B002B00D09847002061
:10027000002104000D000D48002802D00C48AFF307
:10028000008000F0B9F92000290000F079F800F0B2
:100290009FF900BF000008000000042000000000DB
:1002A000000000006C00002088000020000000001A
:1002B000000000000649074A074B9B1A03DD043B78
:1002C000C858D050FBDC00F073F8FFF7B9FF00000E
:1002D0008C060000000000206C000020FEE7FEE716
:1002E000FEE7FEE7FEE7FEE7FEE7FEE7FEE7FEE7E6
:1002F0000A4B185C1F288ABF09494FF0A04100F043
:100300001F00D1F804350122824022EA0300134085
:10031000C1F80805C1F80C35704700BF6C06000035
:1003200000030050C20730B40ED483070AD54FF043
:10033000A0430C22C3F82C27C3F83027C3F860274A
:10034000C3F8642730BC70474FF0A0430322C3F8C2
:1003500034274FF40055C3F838274FF48044C3F8CE
:100360003C274FF40041C3F840274FF48032C3F8D4
:100370000855C3F80845C3F80815C3F80825D4E79D
:1003800070B50120094DFFF7CDFF45F001050026AE
:100390003046FFF7ADFF4FF4FA744FF47A40A847A8
:1003A000013CFAD10136042EF2D1F0E770060000CC
:1003B00010B4754B1B68082B1CD0744AD2F88830D7
:1003C00043F47003C2F88830BFF34F8FBFF36F8FD1
:1003D0004FF01023D3F80022002AC0F2A380D3F8F4
:1003E0000432002BC0F29E80694B6A4A1A605DF8A5
:1003F000044B70474FF080414FF080520020C1F80D
:100400000C01654BC1F81001C1F83805D2F804148D
:10041000C3F82015D2F80814C3F82415D2F80C1428
:10042000C3F82815D2F81014C3F82C15D2F81414F8
:10043000C3F83015D2F81814C3F83415D2F81C14C8
:10044000C3F84015D2F82014C3F84415D2F8241488
:10045000C3F84815D2F82814C3F84C15D2F82C1458
:10046000C3F85015D2F83014C3F85415D2F8341428
:10047000C3F86015D2F83814C3F86415D2F83C04F8
:10048000C3F868054549D2F84004C3F86C0509680B
:10049000D2F84424C3F87025032937D8404B5B5C5D
:1004A00013B1404B404A1A60404B5B5C63B1364B22
:1004B0003F491B68394AFB20C1F81805082B116811
:1004C0007FF47BAF032921D83A4B5B5C93B13A4868
:1004D0003A4B2D4C02681B682468304922F00F0209
:1004E00003F00F031343082C096803607FF465AF22
:1004F00003290BD8324B5B5C43B1234B314A1B6859
:100500004FF40071082B11607FF457AF4FF0804318
:10051000D3F80024D2077FF550AF6FF00102C3F883
:1005200000244AE7284A0123C2F80435D2F80034EF
:10053000002BFBD04FF010231221234AC3F80012E6
:10054000D2F80034002BFBD04FF0102312211E4AAA
:10055000C3F80412D2F80034002BFBD000231A4950
:10056000C2F80435D1F80034002BFBD0BFF34F8F15
:100570000649164BCA6802F4E0621343CB60BFF32E
:100580004F8F00BFFDE700BF3001001000ED00E01D
:10059000000000200090D00300C000403401001093
:1005A000780600008C560040488103007806000061
:1005B00000F0004078060000E40E004058020010F1
:1005C000780600004096024000E001400400FA0571
:1005D00008B5074B044613B10021AFF30080054B6B
:1005E0001868836A03B19847204600F031F800BFCD
:1005F000000000007C06000070B50D4D0D4C641B22
:10060000A4100026A64209D10B4D0C4C00F022F894
:10061000641BA4100026A64205D170BD55F8043B0A
:1006200098470136EEE755F8043B98470136F2E764
:1006300064000020640000206400002068000020A6
:1006400002440346934200D1704703F8011BF9E7C7
:10065000FEE700BFF8B500BFF8BC08BC9E46704777
:10066000F8B500BFF8BC08BC9E4670470D0E0F10D1
:100670000338FDD87047000001000000040000208E
:040680000000000076
:08068400BCFBFF7F0100000038
:10068C000090D003000000000000000000000000FB
:10069C00000000000000000000000000000000004E
:1006AC00000000000000000000000000000000003E
:1006BC00000000000000000000000000000000002E
:1006CC00000000000000000000000000000000001E
:1006DC00000000000000000000000000000000000E
:0C06EC00000000002502000001020000D8
:04000003000002B542
:00000001FF
