:020000040007F3
:10800000E02B002015C307001DC3070077AA070057
:1080100021C3070023C3070025C307000000000099
:1080200000000000000000000000000027C307005F
:1080300029C30700000000002BC307002DC3070061
:108040002FC307007BB207002FC307002FC3070011
:108050002FC307002FC307002FC307002FC307003C
:108060002FC307002FC307002FC307006990070025
:108070002FC307002FC307002FC307002FC307001C
:108080002FC307002FC307002FC307002FC307000C
:108090003BB207002FC307002FC30700D58207009C
:1080A0002FC307002FC307002FC307002FC30700EC
:1080B0002FC307002FC307000000000000000000CE
:1080C0002FC307002FC307002FC307002FC30700CC
:1080D0002FC307002FC307002FC307002FC30700BC
:1080E0002FC3070000000000000000000000000097
:1080F000000000002FC30700000000002FC307008E
:10810000000000000000000000000000000000006F
:10811000000000000000000000000000000000005F
:10812000000000000000000000000000000000004F
:10813000000000000000000000000000000000003F
:10814000000000000000000000000000000000002F
:10815000000000000000000000000000000000001F
:10816000000000000000000000000000000000000F
:1081700000000000000000000000000000000000FF
:1081800000000000000000000000000000000000EF
:1081900000000000000000000000000000000000DF
:1081A00000000000000000000000000000000000CF
:1081B00000000000000000000000000000000000BF
:1081C00000000000000000000000000000000000AF
:1081D000000000000000000000000000000000009F
:1081E000000000000000000000000000000000008F
:1081F000000000000000000000000000000000007F
:1082000000F002F800F03CF80AA090E8000C82446C
:108210008344AAF10107DA4501D100F031F8AFF249
:10822000090EBAE80F0013F0010F18BFFB1A43F054
:1082300001031847A8460000E8460000103A24BF92
:1082400078C878C1FAD8520724BF30C830C144BFBB
:1082500004680C60704700000023002400250026FD
:10826000103A28BF78C1FBD8520728BF30C148BF99
:108270000B6070471FB504F028FA1FBD10B510BD84
:1082800004F0E9F91146FFF7F5FF02F0F7FB04F0FF
:1082900007FA03B4FFF7F2FF03BC04F00FFA000083
:1082A000056885F308884068FF2464B2EFF305850C
:1082B000002D01D1A64600472546064621273FBA94
:1082C000F0B40024002500260027F0B4F92040B2C5
:1082D0000047000030B58BB000244FF0005551E04E
:1082E0009DF80000641C0128019806D00299A8425C
:1082F0003ED3FF2204F05BF93CE0800702D000206F
:1083000010B104E00120FBE7002002F0B1FB03986C
:10831000800702D0002010B104E00120FBE700201C
:1083200002F0A6FB0298800702D0002010B104E002
:108330000120FBE7002002F09BFB0198A8420DD32F
:108340000146002006E0029B0A781B5C1A4001F8F7
:10835000012B401C039A8242F5D804E0DDE90212A9
:10836000002302F0A9FC60208DF81000029805E0BF
:1083700002F076FC61208DF810000198059004A8A9
:1083800000F094FA6946FE4802F010FB0028A7D0DE
:108390002CB162208DF8100004A800F087FAF8488C
:1083A00002F05EFBF7490978084205D0122000F080
:1083B00017FD006800F094FE0BB030BD00B587B02B
:1083C00002F020FC00280FD081884FF6EF72914216
:1083D0000AD902218DF80010011D01910078C01EFC
:1083E0000290684600F062FA07B000BD7FB504460F
:1083F000122000F0F5FC0546062C0AD003DC44B13F
:10840000012C04D105E0082C27D00A2C01D072B62B
:10841000FEE7002D1CD001F046FE002818D0D848F9
:1084200002F01EFBA8B102F067FA02F081FCD64808
:108430000FC88DE80F00684618DF08B102F018FB7E
:10844000286813DF08B102F013FB286800F048FE2B
:108450007FBDCC49012008707FBD04B00020BDE87D
:10846000704002F005BB00F021BA30B50446007838
:10847000012587B025287DD00EDC22287BD006DCA4
:10848000022879D0202817D0212812D15AE0232899
:1084900073D024280DD1C1E00021602812D004DC63
:1084A00050286BD0512804D1C5E062283DD07028F7
:1084B0003FD0062007B030BD2079FFF797FF01F0CD
:1084C00083FCD7E06846009102F022FB00287DD0B3
:1084D000009802F086FB0098017821F00F01891CBA
:1084E00000F8011B217A0A3100F8091B162100F857
:1084F000011BE42100F8011BFE2100F80319217A79
:10850000C91C00F8041BD4E9011203F0D9FF237B36
:10851000627BA17B009802F0E4FE0446009802F022
:1085200033FB002C04D10320C4E7207902F009FFBB
:10853000A0E0A068954A410CC003002303F00AFFA5
:10854000022168E000F0A3F92079022802D0012876
:1085500007D08FE023208DF80000684600F0A6F9D0
:1085600025716179A01D02F003F980B3022000F0AB
:1085700037FC04E056E02EE020E049E07CE000B16A
:10858000012010B9002002F073FA7D48202118382C
:1085900001704FF0FF31016161790171D4F806106B
:1085A000C0F80510D4F80A10C0F80910E189A0F845
:1085B0000D1007B0BDE8304000F078B920790228EE
:1085C00058D101F070FD10B9022001E04DE01EE02D
:1085D00000F0F1FE4EE0207902284BD100F057F96F
:1085E00021208DF80000D4F80700CDF80500D4F85C
:1085F0000B00CDF80900B4F80F00ADF80D00A0791C
:108600008DF8040060690490684600F04FF931E08D
:1086100001214FF4202000F027F92BE001214FF435
:108620007020F8E76079042801D0012822D10020C9
:10863000FFF7DCFE1EE02079800702D1207A800758
:1086400001D0102036E7207B800701D0092031E7D8
:108650008DF80050241D01AB94E8070083E8070063
:108660006946474802F07AF908B1042022E717204A
:1086700000F0EDF800201DE702208DF80000E9E78A
:1086800070B588B000F011FD18213D4803F0B9FF26
:108690003B493B481831082501601021C0E901150C
:1086A00002F04EF93A49602081F800044FF0E021D1
:1086B000280501260024C1F8000100F099F908B14D
:1086C00002F0D6F933488DF80C6002908DF80D5009
:1086D0008DF800408DF804608DF80E40684600F07B
:1086E000E5F808B102F0C4F92B492C4802F0C9FDA5
:1086F00006A800F042FE9DF81800002801D0284886
:10870000046008B070BDF0B58BB001208DF810008A
:1087100004A800F0CBF802F088FD01F0C4FC30B1F1
:1087200003214FF4A02000F09FF80BB0F0BD04200F
:1087300000F056FB0546122000F052FB07461020C1
:1087400000F04EFB0446022000F035FE0028ECD07D
:108750004FF0FF3600962878400705D53868006846
:10876000401C01D1401F00902878C0071DD0206810
:108770000068401C19D16068B8B1009812E0000090
:108780004800002004000020D4C6070040420F002B
:1087900017E000E06B840700D6BE898EBD8307001A
:1087A0001C05004020F0010000900098401C03D000
:1087B0006946042000F099FB01F04AFC0500B4D0A2
:1087C00000F0F9FD0528B0D1022000F009FB041EDD
:1087D00000D0012010B9002002F04AF9012D0AD082
:1087E000042D0CD00B2002F043F9324601A9284693
:1087F00001F008FB99E72088ADF80400F5E7241D97
:1088000001AB94E8070083E80700EEE730B5244D9C
:10881000002487B06878012811D0022809D00328E5
:1088200011D0082002F024F96C70684600F03EF880
:1088300040E603208DF800008DF80440F4E7232083
:108840008DF80000F0E70020FFF7D0FD32E60028A9
:1088500009DB00F01F02012191404009800000F176
:10886000E020C0F8001270470E4A0023C2F84431DD
:108870000D4B1B6818440C4B20F07F4040331860B0
:108880004FF40030C2F804030548417070470549B1
:108890004FF40030C1F808030149002048707047C8
:1088A0000400002000B0004004B5004030B504468C
:1088B000007889B04FF4FE25232869D012DC764970
:1088C00004284DD007DC18B301283CD002283DD045
:1088D000032817D141E020284ED0212852D0222849
:1088E00010D112E032286AD006DC242853D0302878
:1088F00055D0312806D159E0602866D061286AD069
:1089000062286DD0062002F0B3F8062009B030BD11
:10891000A0684860A07B40B100200870207B10B1A7
:10892000607B022803D20720F0E70120F5E74FF42F
:10893000FC21284600F015FA08B10320E6E7607B29
:1089400001F02DFA52E001F03FFA4FE020890122B8
:1089500081B2606801F087FAD8E701F053FB45E087
:108960000020241D8DF800001DCC01AD85E81D0000
:10897000496868468847C9E72079611D226901F086
:1089800041FAC3E72079611D226901F051FABDE780
:1089900001F0A8FB2AE0207900F00DFDB6E7A088E1
:1089A00000F01EFAA06008BB0520AFE7D4E9021270
:1089B000A08800F030FAA84218D21020A6E7A088BC
:1089C00000F0A9FA0028A1D110E0606801F036FE9D
:1089D0000120616801E00220616800F0AAFA05E068
:1089E00000F0D3FA00F007FD01F07EFB00208DE7D8
:1089F0004FF08050D0F80C01284901EB8020AFF2F5
:108A00005311016024490120087000207047224959
:108A1000496801B108470820704700B589B0202196
:108A20008DF804008DF800106846FFF7F0FF09B0DC
:108A300000BD70B58AB016460D460446242218497A
:108A4000684603F082FD01A9684681E87000FFF7DF
:108A5000DEFF0AB070BD30B50D46114989B004463D
:108A600024222431684603F070FD6846CDE90145B3
:108A7000FFF7CDFF4AE700B589B062218DF8040009
:108A80008DF800106846FFF7C2FFD0E70248007873
:108A900080F001007047000000FD0120FCFFFF1F77
:108AA000E4C6070070B504460078FF2815D02044BE
:108AB000002347F6FF754FF4006604F580540EE07E
:108AC000028800EB8200A04207D84288AA4201D166
:108AD0008A4202D15B1CB34201D9002070BD42889A
:108AE0008A42EDD1001D70BD2DE9F041F74D0446DD
:108AF0002869844202D0102001F0BAFFEFF3108001
:108B000000F0010272B628694FF6FF7300889842A0
:108B1000E868018801D1491C01E0268831440180C0
:108B20002088EB4904EB8000A1F180042861884291
:108B300000D12C6128694688A6F5FE47FF3F07D182
:108B400006889E4204D1001D2861884200D12C6114
:108B5000002A00D162B6BDE8F0810188DC4A00EB52
:108B60008100DA499042C86002D1A2F18000C86059
:108B70000969884209D00A1AC2F38F020280814231
:108B800001D2203202800021418070472DE9F0415E
:108B90000146EFF3108000F0010572B6CB4FFC6880
:108BA000B4F800C0B1EB8C0F01D8608818B105B9DA
:108BB00062B60020CFE7C64E38690023803EC1F37D
:108BC0008F02844204D1FE603E610FE062B614E081
:108BD000301B8030814212D9C0EB8C0C8C45E6D31F
:108BE00047F6FF71618080082080FE6032807380CC
:108BF0003046FFF7B2FF002DE8D03046ABE72280C9
:108C000063802046FFF7A9FF05B962B62046A2E7B8
:108C100010B5AF4C022004222070D4E90101FFF707
:108C200008FF002801D00120207610BD70B5A84DA6
:108C300027E04888A0F57F42FF3A28D0E0B10988B4
:108C40008C00A0F5FE41FF3900D1042428690119E8
:108C5000686800F58050814202D9032001F008FFC6
:108C6000D5E903102246FFF7E4FE002813D1E86897
:108C70006861286920442861E868018800EB810068
:108C8000E860D5E9020100F580508142D1D301208E
:108C900028760420287070BD70B58D4C22780AB1FA
:108CA000082070BDC4E90101012121708749012517
:108CB000497819B92903FFF7CEFE00B125760020C7
:108CC00070BD70B5054681480C460078012802D079
:108CD000002212B104E00122FBE7002001F0C8FEEF
:108CE00021462846FFF7DEFE00F076F918B1BDE810
:108CF000704000F063B9052070BD2DE9F047DB1C22
:108D0000089E824623F0030505EB860091468846BF
:108D1000001DFFF73BFF040021D046B16019074654
:108D2000FF22082103F043FC47F6FF70F880EF1D97
:108D3000B8082080A4F802802A464946201D03F086
:108D400004FC27F0030000EB860221465046FFF7A3
:108D500070FE08B101F08CFE0020BDE8F087042011
:108D6000FBE770B5594C002540EA01022570120559
:108D700001D0102070BD0646C4E90101544880218D
:108D8000803803F03EFC524820218038E0602061AA
:108D90000180304600F02DF9064660611C214C48E8
:108DA00003F02FFC6570AEB9A06800F022F9050051
:108DB00014D04FF480516068FFF74DFE08B101F008
:108DC00057FEA16860686A1A121DFFF732FE08B1EB
:108DD00001F04EFE01202070002070BD0B2070BD00
:108DE00001464FF4FE205DE610B5384C207801288E
:108DF00000D0002010B9002001F03AFE04202070BD
:108E00006168081D6061A068FFF746FF002801D176
:108E10000321217010BD2DE9F8432C4E81461546E3
:108E200030788846012800D0002010B9002001F0D9
:108E30001FFE542D01D8012000E0002010B90020B1
:108E400001F016FE307D800702D0002010B104E052
:108E50000120FBE7002001F00BFE7069B0F5FE2F4A
:108E600001D9012000E0002010B9002001F000FE2F
:108E70004846FFF7B5FF00F0AFF87469074644B104
:108E800071686019083001F58051884203D30820C9
:108E900017E00E2015E00120707000902B4642462E
:108EA00049462046FFF729FF50B9ED1D716925F0AD
:108EB0000300084470616FB1384600F07FF848B194
:108EC000042001F0D5FD0020BDE8F88308FD012055
:108ED000B8FD012070697168583001F580518842F1
:108EE00001D3FFF781FF201DEEE738B50C4605469C
:108EF000FFF776FF00F070F858B101886FF00302B9
:108F000002EB81030021009122462946FFF7F5FE7E
:108F100038BD052038BD01464FF4FE20D1E64F484C
:108F20000178012901D1407808B100207047012063
:108F3000704770B505460C46012808D14848844260
:108F400005D38030844202D20846FFF7CDFD21468A
:108F5000284600F059F842488030007800280BD1AC
:108F60003E4C2078032808D0052805D1606800F021
:108F700040F860610120207070BDD4E90101FFF765
:108F80008BFE0028F8D10520F5E73448002234494B
:108F90004270C06880314280087800280DD00B7E76
:108FA000002B0AD00A76012802D0022805D12FE62C
:108FB00048684FF48051FFF74EBD704710B5044626
:108FC000810702D0102001F053FD2046BDE810407B
:108FD00004222449FFF72DBD48B1B0F5002F06D07B
:108FE0001E4949684978494200EB810070470020DA
:108FF000704710B547F6FF71FFF754FD002802D007
:10900000BDE81040E8E710BD30B4154C803423466D
:1090100022785B68012A0ED0022A12D0032A1BD0C4
:10902000042A06D1012804D16069884201D10020B8
:10903000207030BC70470228FBD18B42F9D130BC84
:10904000E6E50128F5D1A0688842F2D10321001D90
:1090500021701B1DC4E9030330BCE7E508FD0120B6
:1090600038FD01202CC7070070B51A4CD4F8400118
:10907000002538B1D4F80403C00303D5C4F8405127
:1090800002F078F9D4F8440100280DD0D4F8040394
:10909000800309D5C4F844514FF40030C4F80803E4
:1090A000BDE87040FFF7B2BB70BD0B4900200860FF
:1090B00008484FF44031C0F8441301218160016039
:1090C0000649202081F800044FF0E0218001C1F81A
:1090D0000001704700B0004008B500400BE000E020
:1090E000FFF7DEB82DE9F041CB4E04468AB0307868
:1090F0008846C043099009A90420FFF7F6FE30789E
:109100000127012828D0002502280FD0042843D0A9
:109110000B2001F0ADFCFC2188F81310307841469B
:109120002030FFF7E2FE0AB0BDE8F0811120FFF722
:1091300057FE0168D4E9000203F096F90028EAD04E
:1091400001F0DAFB62B60095206801906068800843
:109150000290684618DF18E01020FFF741FEC8B102
:1091600001686268206803F07FF90028D3D001F01D
:10917000C3FB62B600972068019060688008039086
:109180004FF480500290684618DF0028CBD001F0E1
:109190006FFCC8E70E20FAE7FFF778FCA0B101F0FA
:1091A000ABFB9E494FF00F1008609D480560BFF370
:1091B0004F8F9C4908689C4A00F4E06010430860A7
:1091C000BFF34F8F00BFFDE71220FFF709FE051E1A
:1091D00000D0012010B9002001F04AFC28880005C9
:1091E00002D0002010B104E00120FBE7002001F0D4
:1091F0003FFC50208DF8000028680190606800F660
:10920000FF706FF30B0002906846FFF700FC68B92F
:1092100051208DF800002068029060680390286853
:1092200001906846FFF7F3FB002888D077707AE753
:109230002DE9F043784EBFB07468002C6DD0EFF389
:10924000108000F0010872B654222146684603F0EF
:109250007CF9E07C0125F82855D0FC2813D0FE28A5
:109260000BD0FF2855D17570FE208DF81300307893
:1092700069462030FFF739FE4BE07570694620469D
:10928000FFF730FF45E00220FFF7AAFD81460420EA
:10929000FFF7A6FD07465FEA090000D0012010B9DC
:1092A000002001F0E5FB0E2249462AA803F04DF903
:1092B000B7B3386815903078012838D002283ED0EE
:1092C000042848D000270B2001F0D2FB0E222AA947
:1092D0000220FFF7A0FDD8B1A07C30B1402204F1FC
:1092E00014013846FFF797FD90B1042215A91046E6
:1092F000FFF791FD60B1F8208DF8130030786946D2
:109300002030FFF7F2FD30782030FFF704FE80B305
:109310007570B8F1000F00D162B63FB0BDE8F083C0
:10932000FFE7FF22042115A803F041F9C3E72089D4
:10933000ADF8A80015981A2740F0010009E0207A3E
:109340008DF8AA00607A8DF8AB0015981B2740F0C5
:1093500002001590BAE7A0682B90A089ADF8B00084
:10936000D4F80E00CDF8B20015981C2740F0040088
:10937000EFE7FFE700207060CBE770B5264E0546AB
:10938000012404F1200080B2FFF72AFD50B1C17C16
:10939000FF2907D034707060FFF74AFF002D09D015
:1093A000012006E06400042CEBD900207060002D41
:1093B00000D0287070BD70B50446012805D0042C7B
:1093C00003D0022C01D0072070BD134D686808B18E
:1093D000082070BD04F12000FFF702FD48B10168CC
:1093E0000968491C05D02C706860FFF721FF002038
:1093F00070BD052070BD08484168002905D041783E
:10940000002902D00021417012E7704702484068ED
:10941000002800D00120704720FD012000040040FA
:109420001C0500400CED00E00400FA0510B5042016
:10943000FFF7D6FCFE4C20610220FFF7D1FC206034
:109440001220FFF7CDFCE0601120FFF7C9FCA060FF
:109450001020FFF7C5FC60600120FFF7C1FC6061D0
:1094600020694FF4FE2188420BD32068884208D33C
:10947000E068884205D36068884202D3A0688842C9
:1094800004D2BDE810400820FFF7C7BA10BD01465E
:109490008068421C00D10020CA6800F00F0000EB79
:1094A00082000122401E098A02EB101009B100EB74
:1094B0001110B0F5803F01D34FF6FF70704770B5C3
:1094C000DC4D8AB06C78EE78B44200D20CB901243D
:1094D0006C7060248DF80040CDE901018DF80C20FE
:1094E0008DF80D3068788DF80E006846FFF78FFA1A
:1094F000002802D16978491C69700AB070BD30B586
:10950000CB4CA5B06069E8B3A4F17405E869002804
:109510003BD0684602F05DFD0122691D684602F0FD
:1095200071FD0422A4F16401684602F06BFD04227F
:10953000A4F15C01684602F065FD00208DF8900002
:10954000012224A9684602F05DFD6879A4F10E01AC
:1095500001281CD002281AD0042803D10A22684608
:1095600002F050FD684601F05CF800221CA9684634
:1095700002F072FDAE4A1CA9543A606902F0FEFA8C
:10958000002800E000E000D0012025B030BD02221C
:10959000E5E7F0B58FB007461821684603F031F8CB
:1095A0000F260225002427B34FF6FD70ADF800000A
:1095B0009F489DF803107438027990F8713062F377
:1095C000020163F3C3018DF8031003680193994B03
:1095D0001B78072B17D021F010018DF8031050F8DD
:1095E000661F02914168039100890326ADF81000BF
:1095F000012538006F4609D0012813D0022818D061
:1096000003281ED12EE041F01001E6E74FF6FE7070
:10961000ADF80000864810240E220168B81C02F044
:109620004FFF0EE09DF80200122420F00F00001DF5
:1096300005E09DF802000A2420F00F00401C8DF880
:10964000020060208DF81800CDE907748DF82450D1
:109650008DF8256000208DF8260006A8FFF7D7F9C1
:109660000FB0F0BD9DF802000A2420F00F00801C0E
:10967000E5E770B5044600880323A0F57F42FC3A75
:1096800002D1608800B9062300222046FFF717FFA9
:10969000050002D1204601F006F9284670BD70B5DC
:1096A000634B0024743B05461C719C614FF6FF70B0
:1096B0009C60A3F86200A3F8644083F87040DC610A
:1096C0001C605D712A4603F1660000F0C9FF59492C
:1096D00002200870284600F02CFDBDE8704058E7D5
:1096E0002DE9F0475349A8B0042008700146FF2235
:1096F000684602F05CFF4E4E743E7079012839D006
:10970000022840D0042839D0072001F0B1F9D6E969
:109710000201DFF81C814FF00109814266D0464802
:109720004FF0FF350024D0E90210CDE915100DF1FE
:10973000540A3AF81400FFF753FB070013D0D7E997
:109740000001B369F26801F0C9F840B109FA04F008
:10975000203080B2FFF7DFFB08B101F089F93868EB
:10976000A84200D20546641C032CE2D3B169F0681C
:10977000431837E0009820F0010002E0009820F044
:1097800004000090C3E7009820F00200F9E70168A8
:10979000491C26D0D8F8041044460A68824207D2F1
:1097A00049681144814203D9009921F001010091D7
:1097B000A1680A68824207D249681144814203D9EC
:1097C000009921F002010091D8F80C100A68824239
:1097D00007D249681144814203D9009921F004015C
:1097E0000091001D834201D9A842D0D3104CD6E984
:1097F00002010E3C88420CD1D8F810004546E8B171
:1098000069460420FFF771FB18B170792146FFF714
:1098100046FF96F87030D6E90201B26900F0D6FD35
:1098200098B170792146FFF73AFF28B0BDE8F0877C
:1098300048FE012028FD012030C7070004226946A8
:109840001046FFF7E8FA2861E3E762208DF8780018
:1098500000208DF87C001EA8FFF7D9F823208DF892
:1098600054008DF8589070798DF85900D6F866003C
:10987000CDF85A00D6F86A00CDF85E00B6F86E0052
:10988000ADF8620015A8FFF7C2F8CEE700B589B0C1
:1098900021218DF80010817801F00F018DF805105D
:1098A000FA4909788DF80410817801F00F0200F16F
:1098B00008010DF1060000F0D3FE6846FFF7A7F897
:1098C00009B000BD2DE9F047F14E04468946707994
:1098D00006F1740801280BD002280CD0042804D00B
:1098E000062001F0C5F80620A0E7D8F80C5004E0E7
:1098F000D8F8045001E0D8F80850A0683061A76893
:10990000781C00D12F682046FFF7C1FDA6F8620041
:10991000A6F86400B760E06810218000B061208A7A
:10992000F061A07CC0F3C00086F870000020706178
:1099300086F86000D6489C3002F041FE00F0C4FF7B
:10994000F0684FF01021421C06D0B26949691044FA
:10995000884216D90C201EE07079022801D0B06828
:109960000EE0D8F80C00D0E9002010444A69824289
:1099700000D24869B1696FF30B01401AA0F580501D
:10998000F060D6E9020290420BD0B1690B4600F0BC
:10999000A5FF30B10D20FFF740F800F022FC0920B0
:1099A00044E7B068296888420BD3B26910446A68FA
:1099B0001144884205D8FFF793FE012189F8001071
:1099C00007E0606800F04EFFB14970796631FFF73B
:1099D00066FE00202AE72DE9F04FAC4F8846054689
:1099E0004088F98889B09346884209D10020F880E0
:1099F00062218DF804008DF800106846FFF707F823
:109A0000A34E05F108039A46B6F86400F169A8F17F
:109A10000804A0EB111268884FF0010982420ED3AE
:109A2000B16800F09BFEB8F1080F01D2092434E0C0
:109A3000A2B2514600F0FFFC04002ED11DE0801AB6
:109A4000401EB0EB111F06D296F8602009FA00F80C
:109A500012EA080F01D008241FE0112CE6D206EB11
:109A6000001022461946203002F02AFD96F86000C8
:109A7000002440EA080086F86000B6F864106888A0
:109A8000623600F064FB3088401E30808BF8009016
:109A9000F88810B9688800F0DAFB09B02046BDE804
:109AA000F08F2DE9F0437A4E8946054640683168CB
:109AB0008BB0884203D00B200BB0BDE8F083284662
:109AC00000F0DBFEC0B9714F4FF000088DF8248024
:109AD0003878032808D0042830D04FF00108072830
:109AE0004AD008281CD170E0688838B13879401C09
:109AF000C0B238710A2809D20020DDE787F8048057
:109B000009A92846FFF7DEFE04460AE087F804802C
:109B1000306800F0A7FE5E4970796631FFF7BFFD3F
:109B200008249DF82410002029B149462846FFF753
:109B3000A0FDE0B30020204359D05BE0688850B11D
:109B4000B6F86410884206D809AA49462846FFF7A5
:109B500042FF002400E00B24B6F862000028E0D1A8
:109B600070208DF800004B48CDE901806846FEF773
:109B70004EFF05203870D4E7688820B92846FFF7E3
:109B800086FCA6F86400082038700020FEF773FFFA
:109B900023208DF8000002208DF8040056F8660F8F
:109BA000CDF806007068CDF80A00308900E01CE0AE
:109BB000ADF80E0016F8610C8DF805006846FEF74A
:109BC00026FF04468DF82480ABE7688820B9284634
:109BD000FFF75DFCA6F86400B6F86410688800F032
:109BE000B6FA8DF8248000249BE70120A3E72846DD
:109BF00000F059FE20465FE72DE9F0410446234876
:109C0000007801283DD0224D04F1080705F16606D1
:109C10006979022806D0032804D007283CD0082000
:109C2000BDE8F0813246204600F077FDD8B1E078FB
:109C3000297900F00700884204D84ED1606829686D
:109C400088424AD9A07800F00F006871A068C5F872
:109C50006600E068C5F86A00208AA5F86E00204614
:109C600000F0CCFA39E0A0786A7900F00F00824267
:109C700004D13146384600F017FD70BBE07840074C
:109C80002BD02046BDE8F04100E6000028FD012071
:109C9000D4FD012080C3C901A07800F00F008142EB
:109CA0001BD10A463946304600F0EAFCA8B1E178FB
:109CB000287901F00701884204D30ED12868616831
:109CC00088420AD260682860E07800F007002871B6
:109CD000687900F02EFAFFF75CFC0020A0E7F0B5F1
:109CE00005464168FC4887B00068814255D1FB4F6A
:109CF0003878082810D00024F74E698820469C3612
:109D000036F820208A4214D106EB80046088411C7A
:109D10006180082804D30FE0284600F0AEFD10B1A2
:109D2000002007B0F0BD07B02846BDE8F04008218C
:109D30009FE4401C0428E3D3E74869888068012930
:109D400004D020F00F0000EB01101038102202A9FF
:109D500000F002FC78B14FF6FA70ADF800006888A8
:109D6000ADF80200686801900323002218216846BC
:109D7000FFF7A5FB00E0052050EA040108D1B978FF
:109D800001F00302491C06EB8204B9706988218046
:109D9000002CC6D000216180C3E70B20C1E770B55D
:109DA000CE4C0021054621707421CB4802F029FCDD
:109DB000C94810219C3002F002FC0020A070E57020
:109DC000BDE87040FFF732BB10B57421C24802F005
:109DD00018FCC14810219C3002F0F1FBBF4C002060
:109DE000A070E080FFF722FB00F0BEF900F06CFDF0
:109DF000FFF70CFB10B10020207010BDBDE8104033
:109E000000F0EFB9B54B10B51B78012B01D008203D
:109E100010BD4FF010235B69934203D8531C01D04F
:109E2000102010BDAC4BDA60FFF739FC002010BDEC
:109E300070B5AA4C15462378012B03D0022B01D014
:109E4000082070BD07222270A34C0246607104F105
:109E50006600256000F004FC607900F06AF9FFF705
:109E600098FB002070BD70B50288A2F57F42FA3AD7
:109E7000052A2DD2DFE802F0100D0A070300BDE825
:109E8000704000F029BABDE87040B5E6BDE870400A
:109E900007E6BDE8704022E7044690480D4600788A
:109EA00008282046F2D100F0E8FC08B1002070BD7F
:109EB0008948B0F86410B0F86200081A401C80B2FB
:109EC00000F045F929462046BDE87040FFF7D1BBB8
:109ED0000B2070BDF0B5804DABB074350E2215A8C7
:109EE000296802F0EDFA7C4C002704F12006D4E941
:109EF0000201814235D0FF225421684602F057FB0F
:109F0000627904F1660102A800F0AAFBA069019041
:109F1000E0680090FF208DF8130000208DF81200FB
:109F2000E069142240B14022314605A802F00DFB41
:109F300001208DF812005422607901280ED00228E9
:109F400007D0042802D00B202BB0F0BD6946242096
:109F500001E069462220FEF75EFF40E069462120CD
:109F6000F9E7286910B90E2000F082FD2869006821
:109F700000906079012812D002283AD0042817D125
:109F8000D4F866001690D4F86A001790B4F86E0002
:109F9000ADF8600000981C2740F0040007E0B4F81A
:109FA0006600ADF8540000981A2740F001000090B8
:109FB000E06920B1402231463846FEF72CFF0020F0
:109FC000401C0E28FCD30E2215A90220FEF723FF09
:109FD0000422286069461046FEF71DFF28613F49AC
:109FE00006200870FEF700FF08B100F041FD0020D8
:109FF000AAE7B4F86600ADF8560000981B2740F0B9
:10A000000200D4E7354810B5007809281FD2DFE8F0
:10A0100000F01E05070709111E1C1C00012010E09E
:10A0200005200EE02C482C494079BDE810406631EF
:10A03000FFF735BBFFF763FA10B1BDE8104049E701
:10A040000420BDE81040FEF7E8BC0020F9E710BD91
:10A0500070B50220FEF7C4FE06460420FEF7C0FEDF
:10A0600004461020FEF7BCFE05461220FEF7B8FE9F
:10A0700056B1318841B114B12178C9070FD01DB153
:10A0800029680968491C0AD014B12178490708D504
:10A0900018B100680068401C03D0002070BD01208A
:10A0A00070BD042070BD10B50220FEF799FE044675
:10A0B0001220FEF795FE9CB190B10068411C0FD0B4
:10A0C0000068401C0CD0D4F80A0048B100F0BAFB7C
:10A0D00030B1012010BD0000D4FD012028FD012079
:10A0E0000020F7E700F07DB800B5A44889B00078FB
:10A0F00006281CD1FEF713FF002818D025208DF864
:10A10000000001208DF804009D4800F166014279AD
:10A110008DF805200DF1060000F0A2FA6846FEF762
:10A1200076FC00F08AFAFFF781F9FFF74DFE09B0DF
:10A1300000BD012809D0022805D0042801D0002044
:10A14000704701207047032070470220704700B518
:10A1500089B02422ADF804008DF80020ADF8061077
:10A160006846FEF754FCE2E7F0B586488FB00CAFC6
:10A17000D0E90010CDE90C1083A000680E90804853
:10A1800074300068811CCDE90910001D00240B907B
:10A1900037F81400FEF724FE05001DD002208DF8CC
:10A1A00000000EAE05F10801325D8DF804200DF1BE
:10A1B000060000F055FA09A8325D50F8241004A8F2
:10A1C00000F04EFA2868079068680890A87C8DF81F
:10A1D00005006846FEF71BFC641C032CD8D30FB0A7
:10A1E000F0BD10B50020FFF7D4F9644901200870D4
:10A1F000BDE810407421624802F003BA70B504460D
:10A2000000885F4DA0F57F41FD3908D1E078400717
:10A2100005D0A078697900F00F00884202D00720AD
:10A2200000F026FC60682860E078544900F00700E0
:10A230002871E078C0F3C00085F871000320087031
:10A240006879FFF776FFBDE87040FFF7A2B970B5F7
:10A2500092B000264A4C05460F96109610AA0FA9F8
:10A26000606900F0ABF9002834D0A06820F00F013D
:10A270000F98401A66EB06010A0742EA1011491CC2
:10A28000A5F10100814203D3B4F86400A84221D1B2
:10A290004FF6FB70ADF82400ADF8261020680A9048
:10A2A00060208DF8000009A801900820029002208B
:10A2B0008DF80C00FF208DF80D008DF80E606846BB
:10A2C000FEF7A5FB002805D10F982C496061BDF869
:10A2D0002600C88012B070BD70B5284D04468AB003
:10A2E0002878012802D008200AB070BDA088ADF8F7
:10A2F0000000009800F093FA212658B102208DF852
:10A3000000608DF8050020798DF8060060798DF8E1
:10A31000070016E0A01D00F06AFA60B36088A0F59F
:10A320007F41FE3914D01649743109680988884282
:10A330000ED001208DF800608DF805006088ADF822
:10A34000060028788DF804006846FEF760FBCBE72E
:10A3500004208DF800608DF8050028788DF8040041
:10A3600054F8060FCDF806006068CDF80A00208981
:10A37000ADF80E00E8E70B20B6E7000028FD01204D
:10A38000D4FD012030C707000201040010B5B34C12
:10A39000218D81420CD30A1A402A0BDC01200021B6
:10A3A00002F04FF8D4E9042310401940084301D0CB
:10A3B000012010BD002010BD10B53021A74802F0CB
:10A3C00020F9A6494FF6FF70088510BD2DE9F0472A
:10A3D0009946164688460446FFF7EEFF301920F0EE
:10A3E0000F0024F00F01401AC0F30F1744EA0800D1
:10A3F000000502D01020BDE8F087984DB8F1000F9D
:10A4000017D0C5F8048006F6FF70010B68680903D1
:10A410006FF30B00FEF71FFB2C602F8185F80A906D
:10A420000022EE60C5E904224FF6FF7169852A8596
:10A43000E1E76C60E7E72DE9F74F884E05464FF6F8
:10A44000FF71308D934688424DD0280708D130687F
:10A45000A84205D8F268831805EB0B02934202D29A
:10A460001020BDE8FE8FBBF1100F02D85FEA8B729F
:10A4700001D00920F5E7728D8A4201D01120F0E762
:10A4800020F00F000021281A61EB0101000940EAC9
:10A490000170401C84B22046FFF778FF18B36F4864
:10A4A000008DA04231D2201A82B26C4F904601201A
:10A4B000002101F0C6FFB0F1010941F1FF31D7E9F8
:10A4C00004674020D8EB00028A46484601F0B9FFF5
:10A4D00006EA000207EA0100024306D0032000F06A
:10A4E000B6F80520BDE70820BBE7424630463946AE
:10A4F00001F0A7FF40EA090020F00102574841EAB5
:10A500000A01C0E9042104850EE0DFF85081001B38
:10A5100082B2D8E904670120002101F092FFC24312
:10A5200016408F43C8E904674C4E5A4606F118009E
:10A5300074850446019901F0C3FFD6E90010691A39
:10A5400008445A462146FEF774FA002889D00720AD
:10A5500000F07DF8032084E72DE9F0413F4F0346EA
:10A560000D46388D1646A0F57F41FF3911D0396868
:10A57000002221F00F01591A62EB0202090941EA97
:10A580000271491C8CB2A04203D32046FFF7FEFEA5
:10A5900010B10020BDE8F08165B15EB1012C0BD097
:10A5A000786820F00F0000EB04111039324628467D
:10A5B00001F086FF0120EDE77968F7E72DE9F74F15
:10A5C000824626488B46018DA1F57F428946FF3A97
:10A5D00025D0D0E9046705683F2425F00F082246FE
:10A5E0000120002101F02DFF06EA000207EA010028
:10A5F000024312D0A9EB040080B201280BD008EB73
:10A6000000101038504508D3CBF8000002981021F4
:10A610000160012025E72846F4E7641EDFD500200D
:10A620001FE70E490A8DA2F57F43FF3B03D0CA689E
:10A63000496801F0E7BC08207047BDE607491831BA
:10A64000884203D118394FF6FF7048857047034A96
:10A650004FF6FF711185FEF7E0B9000080FE012082
:10A66000012A0AD0022A08D0042A05D10A68026009
:10A670004A684260098901817047098801807047F2
:10A6800010B5012A08D0022A02D0042A0AD10A22CF
:10A6900001F0EAFE20B105E000880988884201D176
:10A6A000012010BD002010BD012A0DD0022A0ED0BD
:10A6B000042A0FD182888B889A420BD100680968DE
:10A6C000884207D10120704700880988F8E70078A0
:10A6D0000978F5E700207047012A0AD0022A0BD03A
:10A6E000042A01D000207047D0F80600D1F80610E7
:10A6F00004E00088098801E000780978401A704772
:10A700008D4A002152F82130834201D10120704747
:10A71000491C0829F6D30020704770B5044680789C
:10A720000D4600F00F001646A84200D0A5B960689B
:10A73000FFF7E6FF80B904F108002A4631460446D7
:10A74000FFF7B2FF40B12A4631462046FFF7C4FF6B
:10A75000002801DB012070BD002070BD012805D05C
:10A76000000121F00F011038084470470846704777
:10A7700070B505460E460220FEF732FB0446042063
:10A78000FEF72EFB012E25D0022E14D0042E2AD146
:10A79000FCB1A9882289914225D129686268914239
:10A7A00021D1D5F80610D4F80A2091421DD880B1E5
:10A7B000007840070BE064B12978A278914212D169
:10A7C0006978E278914210D818B1007880070028A3
:10A7D0000BDA08E03CB129882288914203D110B1FC
:10A7E0000078C00701D0002070BD012070BD10B5F9
:10A7F00004460220FEF7F4FA68B1A188028991426A
:10A800000BD121684268914207D1D4F80610D0F8E4
:10A810000A00814201D9012010BD002010BD10B5F1
:10A8200004460220FEF7DCFA40B18278E1B29142A0
:10A8300006D1C078C4F30721814201D9012010BD9F
:10A84000002010BD10B50420FEF7CAFA30B1006830
:10A85000C10705D0410703D5800701D5012010BDF0
:10A86000002010BD354A10B51178334C01F00703B4
:10A87000491C44F82300117010BD30B52E4A002148
:10A880000388203232F821409C4207D102EB810438
:10A8900045886488AC4201D1012030BD491C102993
:10A8A000F0D3002030BD30B5244C234B05886168BF
:10A8B000203301F00F02491C23F8225003EB8202DF
:10A8C00040885080616030BD1B4810B54021203069
:10A8D00001F075FE19490020486010BD904202D376
:10A8E0001344834204D8824204D30844904201D3E3
:10A8F000012070470020704730B54FF0E020D0F8BD
:10A9000000310020012404FA00F21A4210D041B2B2
:10A9100000290DDB01F01F0504FA05F24909890041
:10A9200001F1E021C1F88021BFF34F8FBFF36F8F9A
:10A93000401C2028E7D330BDB0FE012030FD0120AF
:10A9400083682021491E23FA01F2D207FAD001229E
:10A950008A400021C0E902210161704770B50446B8
:10A9600061B1EFF3108000F0010572B6A2682069B2
:10A970008318E068834206D115B102E00E2070BD55
:10A9800062B6042070BD521E1040D4E9003202FBB2
:10A99000003063690BB1984701E001F091FDE06878
:10A9A000401CE06005B962B6002070BD70B50E466F
:10A9B0000446EFF3108000F0010572B6D4E90310ED
:10A9C000884203D105B962B60E2070BD6EB1A16890
:10A9D0006369491E0840D4E9001202FB00113046A9
:10A9E0000BB1984701E001F06BFD2069401C20612C
:10A9F00005B962B6002070BDD0E90310081A70478F
:10AA000070B50D000BD0EFF3108101F0010472B6A8
:10AA1000D0E903315B1A934203D804B962B60E2021
:10AA200070BD11448268521E1140D0E9003202FB11
:10AA30000131436928460BB1984701E001F040FD20
:10AA400004B962B6002070BD0022D9E782680169AE
:10AA5000C0681144814201D1012070470020704735
:10AA60000169C068814201D1012070470020704710
:10AA700072B600BEFEE772B600BEFEE71D48016872
:10AA80000122C006002431B90260D0F8001100296B
:10AA9000FBD0C0F8004117490C31096831B9826018
:10AAA000D0F804110029FBD0C0F804410261D0F8AD
:10AAB0000C110029FBD0C0F80C410F49402081F84F
:10AAC00000044FF0E0210004C1F8000162B6FDF778
:10AAD000D7FD00E020BFFEF799FC0028FAD1074D12
:10AAE000286810B90020FDF781FC2C60FDF70BFEF3
:10AAF00020BFFDE70804004016E000E01C05004010
:10AB00000020544A01461154401C2028FBD37047B2
:10AB100010B5504B0021EFF3108202F0010272B623
:10AB20005C5C0CB162B10CE001245C544A4B01EB5B
:10AB3000810103EBC101016002B962B6012010BDC1
:10AB400062B6491C2029E6D3002010BD70B54249E9
:10AB5000401A2821B0FBF1F4202C01D3002070BD55
:10AB6000EFF3108000F0010572B63A4E305D08B187
:10AB7000FF2802D10420FFF77BFF305D401C3055D9
:10AB800005B962B6012070BD334910B5401A2821BD
:10AB9000B0FBF1F0202816D2EFF3108101F0010490
:10ABA00072B62C4A115C21B1491EC9B2115434B19C
:10ABB00006E00820FFF75CFF2CB962B603E062B63E
:10ABC00009B1012010BD002010BD2349401A2821E1
:10ABD000B0FBF1F0202801D3002070471D49085C2C
:10ABE00070471E490A68C0F803208988A0F807103A
:10ABF0004FF08051D1F8A010027861F386120270F4
:10AC00000020704730B5010004D04C78062C01D9E3
:10AC1000252C01D9002030BD002201F10900C91CFA
:10AC20004FF6E4630C440DE04578162D08D1032956
:10AC300006D91F2904D845889D4201D1024606E065
:10AC4000401C0844844202D901780029ECD1104606
:10AC500030BD0000E0050020E0000020A40000104E
:10AC6000F0B54FF08056326911FA82F13269491E0F
:10AC700092B2B1FBF2F1CDB200212A4C2A4B02274D
:10AC800004F1040C8E4614E027601A68002AFCD0F8
:10AC9000CCF800001A68002AFCD0C4F800E01A685A
:10ACA000002AFCD03269491CC2F38D0200EB8200FD
:10ACB000C9B2A942E8D3F0BD2DE9F043002423F046
:10ACC0000303034425462046184EDFF85890DFF86A
:10ACD00058C023E011F8017B3755641C65EA07086A
:10ACE000E4B208F0FF05042C17D100249DB1012522
:10ACF0004F46C9F80050DCF80050002DFBD03568F5
:10AD00001D60DCF80050002DFBD000253D60DCF814
:10AD10000050002DFBD000251B1D401C9042D9D3B4
:10AD2000BDE8F08304E5014000E401400800002094
:10AD3000BD480021C0F800124A1EC0F808230122B5
:10AD40000261BA480160BA49022008707047FEB536
:10AD5000B54B1321C3F80012B44C8179241D0A2984
:10AD600001D8042202E0242903D8062202EB410282
:10AD700008E0B04A64CA8DE864006A4602EB8102CA
:10AD800052F8942C2260A94A01F07F0150321160E0
:10AD9000A64A016811600821C3F804130025C3F80E
:10ADA0000C51A24C20342668A14A51680F0E46EA85
:10ADB000072626609D4E0C021C363460467901241D
:10ADC0003EB19A489C4E2C30B1420DD00321016017
:10ADD0000BE0964D0179283529609449C0790831F6
:10ADE00008601C601470FEBD04605C601570FEBDE0
:10ADF0002DE9F04780469148002491460F460460B3
:10AE00004FF0010CC0F800C0884808300460874942
:10AE100003200C31086085480226001D0660834827
:10AE200025215030016081488E21203001607F4A09
:10AE300083491832116002687D4D69680B0E42EA41
:10AE400003220260080279491C31086077482830E3
:10AE50000460001DC0F800C074497A4810310860D1
:10AE6000091D79480860714940F25B60343108601F
:10AE7000091F40F2031008606C49744838310860BB
:10AE80006A499420403108602878032809D1704825
:10AE9000082100F1180244618160C0E90021FFF738
:10AEA0004FFD61482E70C0F80C414FF0E020C0F813
:10AEB00080628430C667C5F81090C5E9028764488F
:10AEC000FFF7CEFD18B1A868BDE8F047004700F0D5
:10AED000D6F9002804D0BDE8F047012000F097B86B
:10AEE000BDE8F08710B510B1417911B106E00E2030
:10AEF00010BD0179012901D9102010BD0146544827
:10AF0000FFF72CFD08B1042010BDEFF3108000F016
:10AF1000010472B600F0B3F910B1012000F077F827
:10AF200004B962B6002010BD2DE9FC473E4ED6F8AC
:10AF30000C013F4D002770B34648006800B1012066
:10AF4000814644480C30D0F80080D6F81C016424B7
:10AF500028B1C6F81C71354844300068C4B2C6F840
:10AF60000C7169463A48FFF721FD08B1FFF780FDF3
:10AF70009DF80500012807D0022805D0296900980E
:10AF800088470220287035E02346EC68424649464F
:10AF90000098A047F5E7FFE72D48FFF72DFDDFF804
:10AFA0008C90044609F14C09B8464FF0FF3A1AE07C
:10AFB00069462748FFF748FDB8B99DF80500022803
:10AFC00013D100212248FFF7F1FCFFF7B1FE4846FC
:10AFD00001680029FCD1C6F80C81EF686423524651
:10AFE0000098B847641E012CE2D82878022801D0C6
:10AFF000032806D169461648FFF726FD18B1A86850
:10B000008047BDE8FC876846FFF7A1FEF9E7002806
:10B0100009DB00F01F02012191404009800000F18E
:10B02000E020C0F8001270470010004004150040F6
:10B030000C00002040C70700D6BE898EFC1F0040D0
:10B0400000D6BE89060102002500030255555500B1
:10B05000000600200014004010B5D0E900138268FB
:10B06000A1EB731183EAF2330360C46822444260A7
:10B0700062181944C0E90221084610BD70B5174A8C
:10B08000012414600025164E09E0D2F80031002B8F
:10B09000FBD03368491E89B24354C2F800510029DD
:10B0A000F3D15460002070BD38B5054600200090F3
:10B0B00004216846FFF7E2FF00280DD10948286007
:10B0C00000986860A8600024E8602846FFF7C4FF85
:10B0D000641C142CF9D3002038BD000000D00040BF
:10B0E00008D50040ED5EEAF170B50446807BE0B122
:10B0F000022835D00125F048FFF7AEFF014640F6A3
:10B10000CD4015FB00F0B1FBF0F200FB1211627BA9
:10B11000084441F69A1315FB03F3A16802FB0311DF
:10B12000084420F07F40606070BD607B40F6CD41F8
:10B1300001FA00F5401C8140A1F6CD41A5F6CD45B0
:10B14000481B20F07F46DC48FFF786FF7108B0FB04
:10B15000F1F201FB1200A16800EB56002944DFE781
:10B160000A25C8E71CB502208DF805006846FFF7E0
:10B17000CFFC002168B18DF8041025208DF8060061
:10B180006846FFF7AFFE002802D06846FFF7FCFCD8
:10B190001CBDCA4801701CBDFFF7F6BC1FB529B124
:10B1A000C54869469838FFF7D9FB18B10098FFF7F2
:10B1B000EBFC1FBD4FF0E0214FF48010C1F80002FE
:10B1C0001FBDBE480078002800D0CBE77047F0B51F
:10B1D000BB480268BB4C501E20F07F410D4600204A
:10B1E00004EB00131E6856B15B688F1A9E1A26F096
:10B1F0007F4627F07F47BE4201D223F07F41401CAB
:10B200000828EDD3B0484FF480338D420AD0C0F8FF
:10B2100004330023C0F84031A9483C300160A748FE
:10B220008260F0BDC0F80833F0BDA4480178002961
:10B2300002D10121017095E7704738B59F4C0FE0AE
:10B240000098FFF7C2FC012800D0002010B90020B0
:10B25000FFF70EFC6168009888470098FFF794FCA0
:10B26000984869468030FFF7A1FB0028E8D0207895
:10B27000002801D1FFF7D9FF38BDFFF755BE0120E7
:10B28000704710B58D4900240C7048604C808021B7
:10B290008C4801F0B6F988498039A1F118000160A5
:10B2A00004214160202144618160FFF749FBFFF7E1
:10B2B00027FC8148FFF7F8FE08B1FFF7D9FB022110
:10B2C000142000F0E9F8142000F0C8F80021012053
:10B2D00000F0E2F8BDE810407C4A7D497D48FFF768
:10B2E00087BD2DE9F0411D001646074601D10C2E01
:10B2F00002D80FB1082902D30020BDE8F081EFF396
:10B30000108000F0010872B66E4800EB011420684E
:10B3100008B1FFF739FC3846FFF718FC27602673A1
:10B320000020607366480068A060A5732046FFF7A0
:10B33000DBFEFFF74CFFB8F1000F00D162B6012031
:10B34000DBE710B504460B2000F095F8082C0CD272
:10B350005C4800EB04142068FFF716FC0020206016
:10B360006060A060E060FFF732FFBDE810400B2096
:10B3700000F074B82DE9FC41514806680025DFF85B
:10B3800044812F46B61C08EB05142068F0B34B4AE5
:10B3900061689268711AB21A21F07F4122F07F42EF
:10B3A000914236D88DF805708DF8047000908DF8B4
:10B3B0000770E07B032811D225208DF8060068462F
:10B3C000FFF790FD10B92068FFF7C0FB9DF806005D
:10B3D000401CC0B28DF806002728F0D9E773607BC7
:10B3E000411CC9B26173FF2805D13B4AA0681044D3
:10B3F00020F07F40A060207B814210D3FF280ED038
:10B400002068FFF7C1FB2760676000E001E0A760EC
:10B41000E7606D1C082DB6D3BDE8FC41D7E6204699
:10B42000FFF762FEF5E7254B012210308240588875
:10B4300092B209B1104300E09043588070474FF634
:10B44000F071884208D30121103081401B484088A8
:10B45000014201D00120704700207047002809DB1D
:10B4600000F01F02012191404009800000F1E0201E
:10B47000C0F80011704700280DDB00F01F02012109
:10B4800091404009800000F1E020C0F88011BFF336
:10B490004F8FBFF36F8F70474907090E002804DBF9
:10B4A00000F1E02080F80014704700F00F0000F178
:10B4B000E02080F8141D7047700700202000002055
:10B4C00004B500405806002000B0004099B10700C4
:10B4D0009DB10700C3B10700009A19000246491E3A
:10B4E00003D452F82130002BF9D0491C05D002EBCF
:10B4F0008100002250F8040C03E00020704740084F
:10B50000521C0028FBD1480120381044704770B508
:10B5100006460020034651F8235052F823402C449D
:10B520000444A54205D002D94FF0010001E04FF0DC
:10B53000000046F8234003F10103082BEBD370BD54
:10B5400070B506460020034651F8235052F82340B8
:10B550002C1B241AA54205D002D24FF0010001E0B5
:10B560004FF0000046F8234003F10103082BEBD312
:10B5700070BDF0B51C681568A0FB017CE0FB0154B0
:10B58000059EE91B74EB0C01306801D2012100E03B
:10B590000021084430601C601560F0BD2DE9FF47B4
:10B5A0008046002015460E460190029007460DF198
:10B5B0000C098246039000240BE0381BCDF8009064
:10B5C00055F8201056F8240002AB01AAFFF7D1FF6E
:10B5D000641CBC42F1D9019948F8271002980190E7
:10B5E000039802907F1C5046CDF80CA0082FE2D3A0
:10B5F00008278246FC1F0BE0381BCDF8009055F859
:10B60000201056F8240002AB01AAFFF7B2FF641C19
:10B61000082CF1D3019948F827100298019003985B
:10B62000CDE9020A7F1C0F2FE4D30199C8F83C1022
:10B63000BDE8FF87F0B589B00C46064600F0C8FBB0
:10B640000025029501950095E06A0390206B049017
:10B65000606B0590A06B0690E06B6A461146079000
:10B660000846FFF754FF074631466A460846FFF78B
:10B670004EFF0744206B0390606B0490A06B059015
:10B68000E06BCDE906056A4611460846FFF73FFF25
:10B69000074431466A460846FFF739FF0744206AE7
:10B6A0000090606A0190A06ACDE9020505950495B5
:10B6B000A06B0690E06B314607906A460846FFF79C
:10B6C00026FF0744606A0090A06A0190E06A029039
:10B6D000606B0390A06B0490E06B0590606B06902C
:10B6E000206A314607906A460846FFF710FF074474
:10B6F000E06A0090206B0190606BCDE90205059532
:10B700000495206A0690A06A314607906A4608466A
:10B71000FFF716FF3F1A206B0090606B0190A06B43
:10B720000290E06B0595CDE90305606A0690E06A3A
:10B73000314607906A460846FFF702FF3F1A606BE2
:10B740000090A06B0190E06B0290206A0390606A09
:10B750000490A06ACDE90505206B314607906A4642
:10B760000846FFF7EDFE3F1AA06B0090E06BCDE9B5
:10B770000105606A0390A06A0490E06ACDE90505BE
:10B78000606B314607906A460846FFF7D9FE3C1ABF
:10B790000ED53146F84A0846FFF7B9FE0419F8D429
:10B7A00009B0F0BD3146F44A0846FFF7C9FE241A35
:10B7B000002CF7D13146F04800F013FB0128F1D1FD
:10B7C000EEE770B50646A0B015460C46084600F0F8
:10B7D000EBFA20B1304600F0DFFA20B070BD214610
:10B7E00010A800F0F5FA294618A800F0F1FA68460A
:10B7F00000F0D2FA0120009008A800F0CDFA64E031
:10B8000010990024C9072ED01899C9072FD00028F5
:10B8100038DD10A918AA0846FFF792FE10A800F01C
:10B82000F3FA08A9684600F0DCFA002804DA694651
:10B830002A460846FFF76BFE694608AA0846FFF746
:10B840007FFE0098C00705D069462A460846FFF7E4
:10B850005EFE0446684600F0D7FAB4B3079840F09D
:10B860000040079031E010A800F0CEFAE9E718A8F0
:10B8700000F0CAFA1EE008A92A460846FFF747FE6C
:10B8800004461AE018A910AA0846FFF759FE18A89E
:10B8900000F0BAFA694608A800F0A3FA002804DA12
:10B8A00008A92A460846FFF732FE08A96A46084654
:10B8B000FFF746FE0898C007DDD108A800F0A4FAFB
:10B8C0001CB10F9840F000400F9018A910A800F08C
:10B8D00088FA002894D16946304600F079FA7CE76E
:10B8E000F0B5044691B00E461546104600F05CFADD
:10B8F00000287DD132461146684600F0B6FA6A4605
:10B90000214608A800F0B1FA6A461146084600F040
:10B91000ACFA31462A46084600F0A7FA2A461146F4
:10B92000084600F0A2FA2146934B2A46084600F04A
:10B9300079FA2A461146904B084600F073FA2A46D7
:10B940008D4B2146104600F081FA21462A460846D2
:10B9500000F08BFA2246884B1146284600F062FA26
:10B960002146854B2A46084600F05CFA0021204615
:10B9700000F025FA68B121467F4A0846FFF7C7FD67
:10B980000746204600F040FAE06940EAC770E061EF
:10B9900002E0204600F038FA22461146284600F020
:10B9A00064FA2946744B08AA084600F04FFA294663
:10B9B000714B08AA084600F049FA08A96E4B2A46BE
:10B9C000084600F043FA214608AA084600F04DFA5E
:10B9D0006A46694B2146104600F038FA294620464F
:10B9E00000F0F6F93146284600F0F2F9694600E029
:10B9F00002E0304600F0ECF911B0F0BD70B588B04F
:10BA00000E46044615461146684600F02EFA2146B9
:10BA10006A46084600F029FA69462A46084600F0B8
:10BA200024FA31466A46084600F01FFA08B070BD95
:10BA3000F0B5174689B01E460C46054602464E4BE9
:10BA40003946684600F002FA6A461146084600F098
:10BA50000CFA29466A46084600F007FA39466A4653
:10BA6000084600F002FA3146434B2246084600F0F1
:10BA7000EDF932461146684600F0F7F969463E4B4B
:10BA80002A46084600F0E2F969463B4B3A4608462A
:10BA900000F0DCF93946384B2A46084600F0D6F962
:10BAA00021463A46084600F0E0F9334B6A462946FB
:10BAB000384600F0CBF931463A46084600F0D5F951
:10BAC00031462D4B2246084600F0C0F969463846FB
:10BAD00000F07EF964E62DE9F047B2B0814620A877
:10BAE000309010A83190FFF759FD234908A8603124
:10BAF000824600F06DF9684600F04EF901240025F9
:10BB00000DF1C008C4F1010158F8247058F821C0A3
:10BB100000216E46084657F8203056F820209A1A21
:10BB2000521A934205D002D24FF0010101E04FF0CA
:10BB300000014CF8202000F101001028EBD38C42CA
:10BB400001D1012400E00024304600F05DF9DDE978
:10BB5000070140EAC1700790504600F055F96D1C8E
:10BB6000B5F5807FCEDD58F82410484600F030F956
:10BB700032B0BDE8F08700004CC70700F0B5F5B063
:10BB80000F460024064601461546479420A85794C0
:10BB900000F077F906F1200128A8064600F071F9B7
:10BBA000294640A800F06DF905F1200150A800F0E9
:10BBB00068F940A800F0F8F800287CD150A800F0FF
:10BBC000F3F80028F9D140A9B74800F00AF9012894
:10BBD000F3D150A9B44800F004F90128EDD1B24ADC
:10BBE00050A96846FFF7EDFD394638A83F9400F0AC
:10BBF00048F938A96A460846FFF76DFF6A4640A92A
:10BC000058A8FFF768FF20A908A800F0E1F810A8DD
:10BC10003146044600F0DCF8A34930A8403900F072
:10BC2000D7F8A14948A8203900F0D2F89E4B30AA95
:10BC3000603B08A9684600F009F9234608AA48A90C
:10BC400030A8FFF7F5FE984A6946603A0846FFF7C4
:10BC5000B8FD6A46214608A8FFF7D0FE924820307A
:10BC6000D0E90010CDE9701020A8729008A8739058
:10BC7000082138A8FFF732FC0446082158A8FFF72E
:10BC80002DFC844200DD20460446411E38A800F009
:10BC900096F808B1012500E00025611E58A800F0C3
:10BCA0008EF800B1012045EA400070AE56F82050F1
:10BCB00018A8294600E06AE000F08AF805F12001A2
:10BCC00060A800F085F8684600F066F80120009052
:10BCD000A41E39D46A4660A918A8FFF701FE2146C0
:10BCE00038A800F06CF808B1012500E000252146D5
:10BCF00058A800F064F800B1012045EA400056F869
:10BD00002050FDB1294630A800F062F805F120016D
:10BD100048A800F05DF86A4648A930A8FFF76EFE13
:10BD2000614B30AA603B18A968A800F08FF860AB9F
:10BD300018AA48A930A8FFF77BFE694668AA0846FA
:10BD400000F093F8641EC5D5574A6946603A084624
:10BD5000FFF737FD6A4660A918A8FFF74FFE18A93C
:10BD6000514800F03EF8012804D018A94E4A084670
:10BD7000FFF7E6FB002118AC40AB072054F8202069
:10BD800053F820506A401143401EF7D511B10020EE
:10BD900075B0F0BD0120FBE700210A4640F82120E4
:10BDA000491C0829FAD37047002150F821200AB114
:10BDB00000207047491C0829F7D3012070474A1119
:10BDC00050F8220001F01F02012191400840704705
:10BDD000002251F8223040F82230521C082AF8D3B1
:10BDE000704710B5072250F8223051F82240A34284
:10BDF00002D94FF0010010BD02D24FF0FF3010BD4C
:10BE0000521EF0D5002010BD03460022203004E071
:10BE1000016842EA51020260CA070146001F9942C6
:10BE2000F6D8704770B51C460546FFF770FB28B979
:10BE300021462846FFF7D5FF002806DB2946224683
:10BE4000BDE870400846FFF77BBB70BD70B51C466F
:10BE50000546FFF775FB002806D029462246BDE8B7
:10BE600070400846FFF753BB70BD10B590B0044654
:10BE70006846FFF793FB69462046FFF7DBFB10B0EF
:10BE800010BD10B50022C2F1070301EB83031C684B
:10BE9000DB7824BA24F0FF041C4340F82240521CF3
:10BEA000082AF0D310BD0000ACC707002DE9F04F01
:10BEB000C8B0002213466F46CC181B1D2568E478D5
:10BEC0002DBA25F0FF05254347F82250521C102AB1
:10BED000F2D31BE007EB820151F8083C4FEA7344B0
:10BEE00084EAF34484EA932451F83C3C4FEAF31586
:10BEF00085EAB34585EAD303234451F81C4C51F835
:10BF0000401C2144194447F82210521C402AE1D316
:10BF1000026D4792446D4694856D4595C16D44917F
:10BF20008B46016E4391436E4293866E99464196CD
:10BF3000C36E40939A4600234FEAB11787EAF12770
:10BF400087EA716C01EA090726EA010887EA08070F
:10BF5000BC44854F57F8238008EB0A07BC445DF8C2
:10BF60002370B2460CEB070E4FEAB20787EA72372E
:10BF700087EAB25C84EA05074E4604EA050889466A
:10BF800017400BEB0E01AB4687EA080725466744CE
:10BF900014465B1C0EEB0702402BCDD3479B1A4483
:10BFA0000265469A22444265459A2A448265449A2B
:10BFB0005A44C265439A1144016642994944416614
:10BFC00041993144816640995144C16648B0BDE809
:10BFD000F08FA8B100210164C0E912116349016525
:10BFE00063494165634981656349C1656349016688
:10BFF00063494166634981666349C16600207047B1
:10C000000E2070472DE9F04116460F46040004D07B
:10C0100006B117B10025A8461AE00E20BDE8F08150
:10C02000216C785D6054206C401C206440280ED147
:10C0300021460846FFF73AFFD4E912014FF4007297
:10C04000801841F10001C4F84080C4E912016D1C60
:10C05000B542E5D30020E1E770B516460D46040071
:10C0600007D035B1206C802200213828225403D318
:10C0700007E00E2070BD2154401C3828FBD30BE094
:10C080002154401C4028FBD321460846FFF70EFFF1
:10C090003821204600F0B5FA216CD4E912304A0F5D
:10C0A000C900383459185041C4E90410227CE271A7
:10C0B0000A0A42EA0062A2710A0C42EA0042627174
:10C0C000020242EA116020716069E070010AA17009
:10C0D000010C6170000E04F8380921460846FFF78C
:10C0E000E5FE4FF00002EEB1E16ED000C140A95470
:10C0F000A36EC340A9180B71636EC3400B72236E0D
:10C10000C3400B73E36DC3400B74A36DC3400B7549
:10C11000636DC3400B76236DC340521C0B77042A1A
:10C12000E2D31FE018265042216D06EBC000C1404B
:10C13000A954636DC340A9180B71A36DC3400B7262
:10C14000E36DC3400B73236EC3400B74636EC34037
:10C150000B75A36EC3400B76E36EC340521C0B7786
:10C16000042AE0D3002070BDDCC7070067E6096A37
:10C1700085AE67BB72F36E3C3AF54FA57F520E5108
:10C180008C68059BABD9831F19CDE05B5849574894
:10C190000860704730B54FF080510124D1E94C015F
:10C1A00000220D2806D18307C3F80C21C3F8102103
:10C1B000504B1A600D2855D14F4B1B684F4D2B60CB
:10C1C0004D4B1B1D1B682D1D2B604B4B08331B68F3
:10C1D0002D1D2B60484B0C331B682D1D2B60464BCF
:10C1E00010331B682D1D2B60434B14331B682D1D12
:10C1F0002B60414B18331B68404D20352B603E4B64
:10C200001C331B682D1D2B603B4B20331B682D1DE1
:10C210002B60394B24331B682D1D2B60364B283384
:10C220001B682D1D2B60344B2C331B682D1D2B6080
:10C23000314B30331B68314D40352B602E4B34333E
:10C240001B682D1D2B602C4B38331B682D1D2B605C
:10C25000294B3C331B682D1D2B60274B40331B683B
:10C260002D1D2B600D2806D125480168C90702D075
:10C270006FF0010101602348016841F47001016021
:10C28000BFF34F8FBFF36F8F4FF01025D5F800022B
:10C29000002803DBD5F80402002822DA1A4B1C60C0
:10C2A0001A4801680029FCD01224C5F80042016830
:10C2B0000029FCD0C5F8044201680029FCD01A60AE
:10C2C00001680029FCD0BFF34F8F0E487C3801680D
:10C2D0000F4A01F4E06111430160BFF34F8F00BFCB
:10C2E000FDE703490148086030BD00000090D0031D
:10C2F0002C000020380500400404001020C5004038
:10C300000004004088ED00E004E5014000E4014045
:10C310000400FA050948804709480047FEE7FEE7A0
:10C32000FEE7FEE7FEE7FEE7FEE7FEE7FEE7FEE7E5
:10C3300004480549054A064B7047000095C10700AF
:10C3400001820700E0070020E02B0020E00B002026
:10C35000E00B002053EA020C00F069802DE9F04B5D
:10C360004FF00006002B1FBFB3FA83F503FA05F464
:10C3700024FA05F65E4012BF1643B2FA82F502FABD
:10C3800005F4C5F120051EBF22FA05FC44EA0C04A1
:10C39000203556EA044C4FEA144418BF641C4FF091
:10C3A00000084FF00009904271EB030C39D30029CB
:10C3B00019BFB1FA81F701FA07F6B0FA80F700FA6F
:10C3C00007F6C7F120071EBF20FA07FC46EA0C0655
:10C3D0002037B6FBF4FCA7EB0507103F07F01F0B57
:10C3E000CBF120060CFA0BFB2CFA06F644BFB34641
:10C3F0000026202FA4BF5E464FF0000B5BEA060C20
:10C4000008BF4FF0010B19EB0B09ABFB027C48EBAB
:10C410000608C01B06FB02CC0BFB03CC71EB0C0126
:10C42000C1E70B46024641464846BDE8F08B13B5CE
:10C430004FF000004FF00001AFF30080BDE81C405A
:10C440007047B2F120030AD5C2F1200301FA02F1CC
:10C4500020FA03F300FA02F041EA0301704700FA00
:10C4600003F14FF00000704740EA010310B59B074D
:10C470000FD1042A0DD310C808C9121F9C42F8D04E
:10C4800020BA19BA884201D9012010BD4FF0FF30FF
:10C4900010BD1AB1D30703D0521C07E0002010BD15
:10C4A00010F8013B11F8014B1B1B07D110F8013BA1
:10C4B00011F8014B1B1B01D1921EF1D1184610BD82
:10C4C000032A40F2308010F0030C00F0158011F8C0
:10C4D000013BBCF1020F624498BF11F801CB00F898
:10C4E000013B38BF11F8013BA2F1040298BF00F8EC
:10C4F00001CB38BF00F8013B11F0030300F02580A9
:10C50000083AC0F0088051F8043B083A51F804CBCF
:10C51000A0E80810F5E7121D5CBF51F8043B40F895
:10C52000043BAFF30080D20724BF11F8013B11F8A0
:10C5300001CB48BF11F8012B24BF00F8013B00F8E4
:10C5400001CB48BF00F8012B704710B5203AC0F06E
:10C550000B80B1E81850203AA0E81850B1E8185004
:10C56000A0E81850BFF4F5AF5FEA027C24BFB1E841
:10C570001850A0E8185044BF18C918C0BDE81040B2
:10C580005FEA827C24BF51F8043B40F8043B08BFBB
:10C590007047D20728BF31F8023B48BF11F8012B82
:10C5A00028BF20F8023B48BF00F8012B704702F07B
:10C5B000FF0343EA032242EA024200F002B84FF0CE
:10C5C00000020429C0F0128010F0030C00F01B8060
:10C5D000CCF1040CBCF1020F18BF00F8012BA8BF6E
:10C5E00020F8022BA1EB0C0100F00DB85FEAC17C32
:10C5F00024BF00F8012B00F8012B48BF00F8012BE5
:10C6000070474FF0000200B5134694469646203915
:10C6100022BFA0E80C50A0E80C50B1F12001BFF4FB
:10C62000F7AF090728BFA0E80C5048BF0CC05DF861
:10C6300004EB890028BF40F8042B08BF704748BFAF
:10C6400020F8022B11F0804F18BF00F8012B704723
:10C65000704770477047754600F02CF8AE460500ED
:10C660006946534620F00700854618B020B5FFF70D
:10C670005FFEBDE820404FF000064FF000074FF08E
:10C6800000084FF0000B21F00701AC46ACE8C009F0
:10C69000ACE8C009ACE8C009ACE8C0098D467047F9
:10C6A00010B50446AFF300802046BDE81040FBF70C
:10C6B000F0BD0000004870478007002001491820A5
:10C6C000ABBEFEE72600020070474FF04070E1EE7F
:10C6D000100A704702000000000000000000000087
:10C6E00000000000510000000000000000000000F9
:10C6F000000000000000000000000000000000003A
:10C7000000000000000000005000000000000000D9
:10C710000000000000000000000000000000000019
:10C72000000000000000000000000000FFFF00000B
:10C73000220021002400000021002200240000002B
:10C74000020000001A00000050000000FFFFFFFF81
:10C75000FFFFFFFFFFFFFFFF0000000000000000E1
:10C760000000000001000000FFFFFFFF96C298D804
:10C770004539A1F4A033EB2D817D0377F240A4630A
:10C78000E5E6BCF847422CE1F2D1176BF551BF3713
:10C790006840B6CBCE5E316B5733CE2B169E0F7CE6
:10C7A0004AEBE78E9B7F1AFEE242E34F512563FC82
:10C7B000C2CAB9F3849E17A7ADFAE6BCFFFFFFFF1C
:10C7C000FFFFFFFF00000000FFFFFFFF0000000071
:10C7D0006CC707000000000000000000982F8A428C
:10C7E00091443771CFFBC0B5A5DBB5E95BC25639C3
:10C7F000F111F159A4823F92D55E1CAB98AA07D8DB
:10C80000015B8312BE853124C37D0C55745DBE72FD
:10C81000FEB1DE80A706DC9B74F19BC1C1699BE47D
:10C820008647BEEFC69DC10FCCA10C246F2CE92D0D
:10C83000AA84744ADCA9B05CDA88F97652513E9831
:10C840006DC631A8C82703B0C77F59BFF30BE0C638
:10C850004791A7D55163CA0667292914850AB727C6
:10C8600038211B2EFC6D2C4D130D385354730A6563
:10C87000BB0A6A762EC9C281852C7292A1E8BFA23A
:10C880004B661AA8708B4BC2A3516CC719E892D1A2
:10C89000240699D685350EF470A06A1016C1A41925
:10C8A000086C371E4C774827B5BCB034B30C1C3924
:10C8B0004AAAD84E4FCA9C5BF36F2E68EE828F74E3
:10C8C0006F63A5781478C8840802C78CFAFFBE90FD
:10C8D000EB6C50A4F7A3F9BEF27871C61CC907002F
:10C8E000040000202C0000003C82070048C907001B
:10C8F00000FD0120380000003C82070048C9070005
:10C9000030000020B02B00005882070080C90700CB
:10C9100038FD0120D8010000588207000000000007
:10C920000000000003000000D6BE898E0000000059
:10C9300000000000000000000000000000000000F7
:10C94000000000000090D003000000000000000084
:10C9500000000000000000000000000000000000D7
:10C9600000000000000000000000000000000000C7
:10C9700001010000000000000000000000000000B5
:020000041000EA
:041014000080070051
:020000041000EA
:04101800007007005D
:04000005000782016D
:00000001FF
