:020000040007F3
:10800000A82D002005C907000DC90700E7AA070031
:1080100011C9070013C9070015C9070000000000B7
:1080200000000000000000000000000017C9070069
:1080300019C90700000000001BC907001DC907007F
:108040001FC9070029B30700B3C207001FC90700F3
:108050001FC907001FC907001FC907001FC9070064
:108060001FC907001FC907001FC90700A590070007
:108070001FC907001FC907001FC907001FC9070044
:108080001FC907001FC907001FC907001FC9070034
:10809000E9B2070045C20700D5820700D982070070
:1080A0001FC907001FC907001FC907001FC9070014
:1080B0001FC907001FC907000000000000000000E2
:1080C0001FC907001FC907001FC907001FC90700F4
:1080D0001FC907001FC907001FC907001FC90700E4
:1080E0001FC90700000000000000000000000000A1
:1080F000000000001FC90700000000001FC90700A2
:10810000000000000000000000000000000000006F
:10811000000000000000000000000000000000005F
:10812000000000000000000000000000000000004F
:10813000000000000000000000000000000000003F
:10814000000000000000000000000000000000002F
:10815000000000000000000000000000000000001F
:10816000000000000000000000000000000000000F
:1081700000000000000000000000000000000000FF
:1081800000000000000000000000000000000000EF
:1081900000000000000000000000000000000000DF
:1081A00000000000000000000000000000000000CF
:1081B00000000000000000000000000000000000BF
:1081C00000000000000000000000000000000000AF
:1081D000000000000000000000000000000000009F
:1081E000000000000000000000000000000000008F
:1081F000000000000000000000000000000000007F
:1082000000F002F800F03CF80AA090E8000C82446C
:108210008344AAF10107DA4501D100F031F8AFF249
:10822000090EBAE80F0013F0010F18BFFB1A43F054
:1082300001031847984C0000D84C0000103A24BFA6
:1082400078C878C1FAD8520724BF30C830C144BFBB
:1082500004680C60704700000023002400250026FD
:10826000103A28BF78C1FBD8520728BF30C148BF99
:108270000B6070471FB504F020FD1FBD10B510BD89
:1082800004F0E1FC1146FFF7F5FF02F02FFC04F0CB
:10829000FFFC03B4FFF7F2FF03BC04F007FD00008E
:1082A000056885F308884068FF2464B2EFF305850C
:1082B000002D01D1A64600472546064621273FBA94
:1082C000F0B40024002500260027F0B4F92040B2C5
:1082D0000047000004F018BA30B58BB000244FF00E
:1082E000005551E09DF80000641C0128019806D05B
:1082F0000299A8423ED3FF2204F051FC3CE08007E3
:1083000002D0002010B104E00120FBE7002002F0C1
:10831000E7FB0398800702D0002010B104E00120A1
:10832000FBE7002002F0DCFB0298800702D000206F
:1083300010B104E00120FBE7002002F0D1FB01981E
:10834000A8420DD30146002006E0029B0A781B5C80
:108350001A4001F8012B401C039A8242F5D804E030
:10836000DDE90212002302F0DFFC60208DF810002E
:10837000029805E002F0ACFC61208DF81000019835
:10838000059004A800F0B0FA6946F84802F046FBF0
:108390000028A7D02CB162208DF8100004A800F0AE
:1083A000A3FAF24802F094FBF1490978084208D098
:1083B000122000F033FD044604F03DF8206800F080
:1083C000ADFE0BB030BD00B587B002F053FC002805
:1083D0000FD081884FF6EF7291420AD902218DF8B1
:1083E0000010011D01910078C01E0290684600F047
:1083F0007BFA07B000BD7FB50446122000F00EFDE9
:108400000546062C0AD003DC44B1012C04D105E05A
:10841000082C29D00A2C01D072B6FEE7002D1ED000
:1084200001F07EFE00281AD0D04802F051FBB8B10E
:1084300002F09AFA02F0B4FCCE480FC88DE80F00A3
:10844000684618DF08B102F04BFB286813DF08B15B
:1084500002F046FB03F0EFFF286800F05FFE7FBDEF
:10846000C349012008707FBD04B00020BDE8704002
:1084700002F036BB00F038BA30B50446007801256A
:1084800089B0252870D00EDC22286ED006DC0228A8
:108490006CD0202819D0212814D173E023286FD064
:1084A00024280FD1D4E00021612849D006DC5028CF
:1084B00067D051287ED0602804D10CE062283BD0E0
:1084C000702854D0062009B030BD2079FFF793FF03
:1084D00001F0B2FCE8E06846009102F051FB002890
:1084E00069D0009802F0B5FB0098017821F00F01E7
:1084F000891C00F8011B217A0A3100F8091B16219A
:1085000000F8011BE42100F8011BFE2100F803190B
:10851000217AC91C00F8041BD4E9011204F0C8FA3E
:10852000237B627BA17B009802F032FF0446009817
:1085300002F062FBB4B1B7E0207902F059FFB3E07A
:1085400078208DF80100D4E901120DF1020004F049
:10855000AFFA207A401C8DF80000684603F08AFECE
:10856000002816D10320AEE776E04EE043E0A06895
:10857000814A410CC003002304F0E4F9022164E0C5
:1085800060E093E000F0A1F92079022802D00128F0
:1085900007D089E023208DF80000684600F0A4F998
:1085A00025716179A01D02F01BF968B3022000F06B
:1085B00035FC01E059E072E000B1012010B9002063
:1085C00002F08EFA69482021183801704FF0FF310F
:1085D000016161790171D4F80610C0F80510D4F872
:1085E0000A10C0F80910E189A0F80D1009B0BDE823
:1085F000304000F079B92079022855D101F090FD82
:1086000010B9022000F0F5FE4EE0207902284BD18F
:1086100000F05BF921208DF80000D4F80700CDF8B8
:108620000500D4F80B00CDF80900B4F80F00ADF840
:108630000D00A0798DF8040060690490684600F090
:1086400053F931E001214FF4202000F02BF92BE009
:1086500001214FF47020F8E76079042801D0012847
:1086600022D10020FFF7C7FE1EE02079800702D14B
:10867000207A800701D0102025E7207B800701D0D9
:10868000092020E78DF80050241D01AB94E8070075
:1086900083E807006946354802F098F908B10420DC
:1086A00011E7172000F0F1F800200CE702208DF808
:1086B0000000E9E770B588B000F015FD18212B48DF
:1086C00004F097FA2949294818310825016010213A
:1086D000C0E9011502F06CF92849602081F8000416
:1086E0004FF0E021280501260024C1F8000100F028
:1086F0009DF908B102F0F4F921488DF80C60029060
:108700008DF80D508DF800408DF804608DF80E4006
:10871000684600F0E9F808B102F0E2F903F0CAFF98
:108720001849194802F004FE06A800F044FE9DF81E
:108730001800002801D01548046008B070BDF0B5DD
:108740008BB003F0C3FF01208DF8100004A800F0E7
:10875000CBF802F0C1FD01F0E3FCC8B103214FF4F6
:10876000A02000F09FF80BB0F0BD000058000020E2
:1087700004000020C4CC070040420F0017E000E0D6
:1087800079840700D6BE898EC78307001C05004088
:10879000042000F043FB0546122000F03FFB074693
:1087A000102000F03BFB0446022000F022FE0028CF
:1087B000D9D04FF0FF3600962878400705D53868A5
:1087C0000068401C01D1401F00902878C00709D0E4
:1087D00020680068401C05D1606818B1009820F03E
:1087E000010000900098401C03D06946042000F06E
:1087F0009AFB01F065FC0500B5D000F0FAFD0528F4
:10880000B1D1022000F00AFB041E00D0012010B9F3
:10881000002002F065F9012D0AD0042D0CD00B20A8
:1088200002F05EF9324601A9284601F023FB9AE7DF
:108830002088ADF80400F5E7241D01AB94E807009B
:1088400083E80700EEE730B5244D002487B0687850
:10885000012812D002280AD0032812D0082002F0E2
:108860003FF96C70684600F03FF807B030BD032058
:108870008DF800008DF80440F3E723208DF8000008
:10888000EFE70020FFF7B7FDEFE7002809DB00F076
:108890001F02012191404009800000F1E020C0F852
:1088A000001270470E4A0023C2F844310D4B1B687A
:1088B00018440C4B20F07F40403318604FF40030D8
:1088C000C2F8040305484170704705494FF4003071
:1088D000C1F80803014900204870704704000020D7
:1088E00000B0004004B5004030B50446007889B0BF
:1088F0004FF4FE25232869D012DC764904284DD098
:1089000007DC18B301283CD002283DD0032817D13A
:1089100041E020284ED0212852D0222810D112E048
:1089200032286AD006DC242853D0302855D031288C
:1089300006D159E0602866D061286AD062286DD0DF
:10894000062002F0CDF8062009B030BDA0684860CE
:10895000A07B40B100200870207B10B1607B022812
:1089600003D20720F0E70120F5E74FF4FC21284669
:1089700000F015FA08B10320E6E7607B01F047FA42
:1089800052E001F059FA4FE02089012281B260687B
:1089900001F0A1FAD8E701F06DFB45E00020241DAD
:1089A0008DF800001DCC01AD85E81D0049686846C2
:1089B0008847C9E72079611D226901F05BFAC3E7A6
:1089C0002079611D226901F06BFABDE701F0C2FB5D
:1089D0002AE0207900F00DFDB6E7A08800F01EFA2D
:1089E000A06008BB0520AFE7D4E90212A08800F020
:1089F00030FAA84218D21020A6E7A08800F0A9FA01
:108A00000028A1D110E0606801F050FE01206168EB
:108A100001E00220616800F0AAFA05E000F0D3FA54
:108A200000F007FD01F098FB00208DE74FF080502B
:108A3000D0F80C01284901EB8020AFF253110160FE
:108A4000244901200870002070472249496801B17B
:108A500008470820704700B589B020218DF8040030
:108A60008DF800106846FFF7F0FF09B000BD70B543
:108A70008AB016460D46044624221849684604F07A
:108A80005CF801A9684681E87000FFF7DEFF0AB0D4
:108A900070BD30B50D46114989B0044624222431F9
:108AA000684604F04AF86846CDE90145FFF7CDFF76
:108AB0004AE700B589B062218DF804008DF80010F6
:108AC0006846FFF7C2FFD0E70248007880F0010057
:108AD0007047000000FD0120FCFFFF1FD4CC070001
:108AE00070B504460078FF2815D02044002347F6CF
:108AF000FF754FF4006604F580540EE0028800EB29
:108B00008200A04207D84288AA4201D18A4202D1FB
:108B10005B1CB34201D9002070BD42888A42EDD16E
:108B2000001D70BD2DE9F041F74D044628698442CF
:108B300002D0102001F0D4FFEFF3108000F001020A
:108B400072B628694FF6FF7300889842E86801887A
:108B500001D1491C01E02688314401802088EB497D
:108B600004EB8000A1F180042861884200D12C61CF
:108B700028694688A6F5FE47FF3F07D106889E4232
:108B800004D1001D2861884200D12C61002A00D147
:108B900062B6BDE8F0810188DC4A00EB8100DA4969
:108BA0009042C86002D1A2F18000C8600969884281
:108BB00009D00A1AC2F38F020280814201D2203208
:108BC00002800021418070472DE9F0410146EFF31A
:108BD000108000F0010572B6CB4FFC68B4F800C0FD
:108BE000B1EB8C0F01D8608818B105B962B60020CE
:108BF000CFE7C64E38690023803EC1F38F0284421E
:108C000004D1FE603E610FE062B614E0301B80309C
:108C1000814212D9C0EB8C0C8C45E6D347F6FF712C
:108C2000618080082080FE60328073803046FFF7CC
:108C3000B2FF002DE8D03046ABE7228063802046AB
:108C4000FFF7A9FF05B962B62046A2E710B5AF4C01
:108C5000022004222070D4E90101FFF708FF002858
:108C600001D00120207610BD70B5A84D27E04888BE
:108C7000A0F57F42FF3A28D0E0B109888C00A0F52A
:108C8000FE41FF3900D1042428690119686800F504
:108C90008050814202D9032001F022FFD5E9031060
:108CA0002246FFF7E4FE002813D1E86868612869CE
:108CB00020442861E868018800EB8100E860D5E97C
:108CC000020100F580508142D1D301202876042092
:108CD000287070BD70B58D4C22780AB1082070BD27
:108CE000C4E901010121217087490125497819B999
:108CF0002903FFF7CEFE00B12576002070BD70B5C8
:108D0000054681480C460078012802D0002212B1A5
:108D100004E00122FBE7002001F0E2FE21462846A4
:108D2000FFF7DEFE00F076F918B1BDE8704000F004
:108D300063B9052070BD2DE9F047DB1C089E824613
:108D400023F0030505EB860091468846001DFFF7DA
:108D50003BFF040021D046B160190746FF220821DD
:108D600003F01DFF47F6FF70F880EF1DB808208064
:108D7000A4F802802A464946201D03F0DEFE27F0B3
:108D8000030000EB860221465046FFF770FE08B153
:108D900001F0A6FE0020BDE8F0870420FBE770B5D7
:108DA000594C002540EA01022570120501D010201F
:108DB00070BD0646C4E9010154488021803803F0A3
:108DC00018FF524820218038E06020610180304641
:108DD00000F02DF9064660611C214C4803F009FFA4
:108DE0006570AEB9A06800F022F9050014D04FF408
:108DF00080516068FFF74DFE08B101F071FEA16877
:108E000060686A1A121DFFF732FE08B101F068FEB1
:108E100001202070002070BD0B2070BD01464FF472
:108E2000FE205DE610B5384C2078012800D00020E7
:108E300010B9002001F054FE042020706168081D64
:108E40006061A068FFF746FF002801D1032121706F
:108E500010BD2DE9F8432C4E8146154630788846E2
:108E6000012800D0002010B9002001F039FE542D57
:108E700001D8012000E0002010B9002001F030FEF0
:108E8000307D800702D0002010B104E00120FBE714
:108E9000002001F025FE7069B0F5FE2F01D90120F8
:108EA00000E0002010B9002001F01AFE4846FFF74C
:108EB000B5FF00F0AFF87469074644B171686019F6
:108EC000083001F58051884203D3082017E00E20B6
:108ED00015E00120707000902B464246494620461E
:108EE000FFF729FF50B9ED1D716925F00300084413
:108EF00070616FB1384600F07FF848B1042001F08E
:108F0000EFFD0020BDE8F88308FD0120B8FD012039
:108F100070697168583001F58051884201D3FFF7BC
:108F200081FF201DEEE738B50C460546FFF776FFBA
:108F300000F070F858B101886FF0030202EB810372
:108F40000021009122462946FFF7F5FE38BD052095
:108F500038BD01464FF4FE20D1E64F480178012983
:108F600001D1407808B1002070470120704770B5EA
:108F700005460C46012808D14848844205D3803074
:108F8000844202D20846FFF7CDFD2146284600F074
:108F900059F842488030007800280BD13E4C2078A8
:108FA000032808D0052805D1606800F040F860610A
:108FB0000120207070BDD4E90101FFF78BFE00286D
:108FC000F8D10520F5E73448002234494270C068E2
:108FD00080314280087800280DD00B7E002B0AD00B
:108FE0000A76012802D0022805D12FE648684FF4FE
:108FF0008051FFF74EBD704710B50446810702D07F
:10900000102001F06DFD2046BDE8104004222449E7
:10901000FFF72DBD48B1B0F5002F06D01E494968B5
:109020004978494200EB810070470020704710B535
:1090300047F6FF71FFF754FD002802D0BDE810404D
:10904000E8E710BD30B4154C8034234622785B68C5
:10905000012A0ED0022A12D0032A1BD0042A06D1DC
:10906000012804D16069884201D10020207030BC01
:1090700070470228FBD18B42F9D130BCE6E50128CC
:10908000F5D1A0688842F2D10321001D21701B1D7B
:10909000C4E9030330BCE7E508FD012038FD0120E9
:1090A0001CCD070070B51A4CD4F84001002538B12A
:1090B000D4F80403C00303D5C4F8405102F0B1F959
:1090C000D4F8440100280DD0D4F80403800309D556
:1090D000C4F844514FF40030C4F80803BDE87040B0
:1090E000FFF7B1BB70BD0B490020086008484FF482
:1090F0004031C0F8441301218160016006492020FD
:1091000081F800044FF0E0218001C1F800017047B0
:1091100000B0004008B500400BE000E0FFF7C0B829
:109120002DE9F041CB4E04468AB030788846C043E2
:10913000099009A90420FFF7F6FE307801270128DD
:1091400028D0002502280FD0042843D00B2001F09E
:10915000C7FCFC2188F81310307841462030FFF717
:10916000E2FE0AB0BDE8F0811120FFF757FE01686A
:10917000D4E9000203F070FC0028EAD001F0F4FB0F
:1091800062B6009520680190606880080290684689
:1091900018DF18E01020FFF741FEC8B101686268CF
:1091A000206803F059FC0028D3D001F0DDFB62B643
:1091B0000097206801906068800803904FF4805009
:1091C0000290684618DF0028CBD001F089FCC8E780
:1091D0000E20FAE7FFF778FCA0B101F0C5FB9E492D
:1091E0004FF00F1008609D480560BFF34F8F9C49FA
:1091F00008689C4A00F4E06010430860BFF34F8F9A
:1092000000BFFDE71220FFF709FE051E00D0012078
:1092100010B9002001F064FC2888000502D000206D
:1092200010B104E00120FBE7002001F059FC5020C0
:109230008DF8000028680190606800F6FF706FF3F9
:109240000B0002906846FFF700FC68B951208DF8CA
:1092500000002068029060680390286801906846CA
:10926000FFF7F3FB002888D077707AE72DE9F04309
:10927000784EBFB07468002C6DD0EFF3108000F012
:10928000010872B654222146684603F056FCE07C81
:109290000125F82855D0FC2813D0FE280BD0FF2834
:1092A00055D17570FE208DF8130030786946203056
:1092B000FFF739FE4BE0757069462046FFF730FF37
:1092C00045E00220FFF7AAFD81460420FFF7A6FD36
:1092D00007465FEA090000D0012010B9002001F024
:1092E000FFFB0E2249462AA803F027FCB7B33868D3
:1092F00015903078012838D002283ED0042848D074
:1093000000270B2001F0ECFB0E222AA90220FFF718
:10931000A0FDD8B1A07C30B1402204F11401384640
:10932000FFF797FD90B1042215A91046FFF791FDB4
:1093300060B1F8208DF81300307869462030FFF7CF
:10934000F2FD30782030FFF704FE80B37570B8F17D
:10935000000F00D162B63FB0BDE8F083FFE7FF2207
:10936000042115A803F01BFCC3E72089ADF8A80071
:1093700015981A2740F0010009E0207A8DF8AA001C
:10938000607A8DF8AB0015981B2740F0020015900D
:10939000BAE7A0682B90A089ADF8B000D4F80E0011
:1093A000CDF8B20015981C2740F00400EFE7FFE766
:1093B00000207060CBE770B5264E0546012404F10D
:1093C000200080B2FFF72AFD50B1C17CFF2907D0F1
:1093D00034707060FFF74AFF002D09D0012006E0CD
:1093E0006400042CEBD900207060002D00D02870A0
:1093F00070BD70B50446012805D0042C03D0022CA2
:1094000001D0072070BD134D686808B1082070BDF9
:1094100004F12000FFF702FD48B101680968491C0A
:1094200005D02C706860FFF721FF002070BD05207B
:1094300070BD08484168002905D04178002902D054
:109440000021417012E7704702484068002800D0B0
:109450000120704720FD0120000400401C05004051
:109460000CED00E00400FA0510B50420FFF7D6FC6F
:10947000FE4C20610220FFF7D1FC20601220FFF794
:10948000CDFCE0601120FFF7C9FCA0601020FFF7C1
:10949000C5FC60600120FFF7C1FC606120694FF4EA
:1094A000FE2188420BD32068884208D3E0688842B6
:1094B00005D36068884202D3A068884204D2BDE820
:1094C00010400820FFF7C7BA10BD01468068421C53
:1094D00000D10020CA6800F00F0000EB82000122DA
:1094E000401E098A02EB101009B100EB1110B0F513
:1094F000803F01D34FF6FF70704770B5DC4D8AB0E6
:109500006C78EE78B44200D20CB901246C706024FF
:109510008DF80040CDE901018DF80C208DF80D305B
:1095200068788DF80E006846FFF78FFA002802D1A0
:109530006978491C69700AB070BD30B5CB4CA5B0D4
:109540006069E8B3A4F17405E86900283BD0684677
:1095500002F09BFD0122691D684602F0AFFD042266
:10956000A4F16401684602F0A9FD0422A4F15C01A3
:10957000684602F0A3FD00208DF89000012224A986
:10958000684602F09BFD6879A4F10E0101281CD009
:1095900002281AD0042803D10A22684602F08EFD60
:1095A000684601F076F800221CA9684602F0B0FD7A
:1095B000AE4A1CA9543A606902F03CFB002800E066
:1095C00000E000D0012025B030BD0222E5E7F0B573
:1095D0008FB007461821684603F00BFB0F260225C3
:1095E000002427B34FF6FD70ADF800009F489DF8AA
:1095F00003107438027990F8713062F3020163F35A
:10960000C3018DF8031003680193994B1B78072B56
:1096100017D021F010018DF8031050F8661F029149
:109620004168039100890326ADF810000125380038
:109630006F4609D0012813D0022818D003281ED164
:1096400036E041F01001E6E74FF6FE70ADF800009D
:10965000864810240E220168B81C03F029FA0EE097
:109660009DF80200122420F00F00001D05E09DF877
:1096700002000A2420F00F00401C8DF80200602038
:109680008DF81800CDE907748DF824508DF8256009
:1096900000208DF8260006A8FFF7D7F961208DF885
:1096A0001800CDE9077406A8FFF7CFF90FB0F0BD99
:1096B0009DF802000A2420F00F00801CDDE770B541
:1096C000044600880323A0F57F42FC3A02D160885B
:1096D00000B9062300222046FFF70FFF050002D144
:1096E000204601F018F9284670BD70B55F4B002484
:1096F000743B05461C719C614FF6FF709C60A3F89B
:109700006200A3F8644083F87040DC611C605D7106
:109710002A4603F1660000F0DBFF5549022008707D
:10972000284600F03EFDBDE8704050E72DE9F047C7
:109730004F49A8B0042008700146FF22684603F094
:109740002EFA4A4E743E7079012839D0022840D052
:10975000042839D0072001F0C3F9D6E90201DFF867
:109760000C814FF00109814266D042484FF0FF352D
:109770000024D0E90210CDE915100DF1540A3AF891
:109780001400FFF74BFB070013D0D7E90001B369C2
:10979000F26801F0DBF840B109FA04F0203080B241
:1097A000FFF7D7FB08B101F09BF93868A84200D257
:1097B0000546641C032CE2D3B169F068431837E016
:1097C000009820F0010002E0009820F004000090D2
:1097D000C3E7009820F00200F9E70168491C26D091
:1097E000D8F8041044460A68824207D249681144F6
:1097F000814203D9009921F001010091A1680A6812
:10980000824207D249681144814203D9009921F06C
:1098100002010091D8F80C100A68824207D2496808
:109820001144814203D9009921F004010091001DE7
:10983000834201D9A842D0D30C4CD6E902010E3C98
:1098400088420CD1D8F810004546F8B1694604208A
:10985000FFF769FB18B170792146FFF746FF96F8CC
:109860007030D6E90201B26906E0000048FE01202E
:1098700028FD012020CD070000F0E0FD68B17079DF
:109880002146FFF732FF28B0BDE8F0870422694681
:109890001046FFF7DEFA2861E1E762208DF87800D4
:1098A00000208DF87C001EA8FFF7CFF823208DF84C
:1098B00054008DF8589070798DF85900D6F86600EC
:1098C000CDF85A00D6F86A00CDF85E00B6F86E0002
:1098D000ADF8620015A8FFF7B8F8D4E700B589B075
:1098E00021218DF80010817801F00F018DF805100D
:1098F000FA4909788DF80410817801F00F0200F11F
:1099000008010DF1060000F0E3FE6846FFF79DF840
:1099100009B000BD2DE9F047F14E04468946707943
:1099200006F1740801280BD002280CD0042804D0BA
:10993000062001F0D5F80620A6E7D8F80C5004E080
:10994000D8F8045001E0D8F80850A0683061A76842
:10995000781C00D12F682046FFF7B7FDA6F86200FB
:10996000A6F86400B760E06810218000B061208A2A
:10997000F061A07CC0F3C00086F870000020706128
:1099800086F86000D6489C3003F011F900F0D4FF4F
:10999000F0684FF01021421C06D0B26949691044AA
:1099A000884216D90C201EE07079022801D0B068D8
:1099B0000EE0D8F80C00D0E9002010444A69824239
:1099C00000D24869B1696FF30B01401AA0F58050CD
:1099D000F060D6E9020290420BD0B1690B4600F06C
:1099E000B5FF30B10D20FFF736F800F032FC09204A
:1099F0004AE7B068296888420BD3B26910446A68A4
:109A00001144884205D8FFF791FE012189F8001022
:109A100007E0606800F05EFFB14970796631FFF7DA
:109A200064FE002030E72DE9F04FAC4F8846054634
:109A30004088F98889B09346884209D10020F8808F
:109A400062218DF804008DF800106846FEF7FDFFD6
:109A5000A34E05F108039A46B6F86400F169A8F12F
:109A60000804A0EB111268884FF0010982420ED35E
:109A7000B16800F0ABFEB8F1080F01D2092434E060
:109A8000A2B2514600F00FFD04002ED11DE0801A55
:109A9000401EB0EB111F06D296F8602009FA00F8BC
:109AA00012EA080F01D008241FE0112CE6D206EBC1
:109AB000001022461946203002F0FAFF96F86000A6
:109AC000002440EA080086F86000B6F86410688850
:109AD000623600F074FB3088401E30808BF80090B6
:109AE000F88810B9688800F0EAFB09B02046BDE8A4
:109AF000F08F2DE9F0437A4E89460546406831687B
:109B00008BB0884203D00B200BB0BDE8F083284611
:109B100000F0EBFEC0B9714F4FF000088DF82480C3
:109B20003878032808D0042830D04FF001080728DF
:109B30004AD008281CD170E0688838B13879401CB8
:109B4000C0B238710A2809D20020DDE787F8048006
:109B500009A92846FFF7DEFE04460AE087F80480DC
:109B6000306800F0B7FE5E4970796631FFF7BDFDE1
:109B700008249DF82410002029B149462846FFF703
:109B80009EFDE0B30020204359D05BE0688850B1CF
:109B9000B6F86410884206D809AA49462846FFF755
:109BA00042FF002400E00B24B6F862000028E0D158
:109BB00070208DF800004B48CDE901806846FEF723
:109BC00044FF05203870D4E7688820B92846FFF79D
:109BD0007CFCA6F86400082038700020FEF769FFBE
:109BE00023208DF8000002208DF8040056F8660F3F
:109BF000CDF806007068CDF80A00308900E01CE05E
:109C0000ADF80E0016F8610C8DF805006846FEF7F9
:109C10001CFF04468DF82480ABE7688820B92846ED
:109C2000FFF753FCA6F86400B6F86410688800F0EB
:109C3000C6FA8DF8248000249BE70120A3E728467C
:109C400000F069FE20465FE72DE9F0410446234815
:109C5000007801283DD0224D04F1080705F1660681
:109C60006979022806D0032804D007283CD00820B0
:109C7000BDE8F0813246204600F087FDD8B1E0789B
:109C8000297900F00700884204D84ED1606829681D
:109C900088424AD9A07800F00F006871A068C5F822
:109CA0006600E068C5F86A00208AA5F86E002046C4
:109CB00000F0DCFA39E0A0786A7900F00F00824207
:109CC00004D13146384600F027FD70BBE0784007EC
:109CD0002BD02046BDE8F04100E6000028FD012021
:109CE000D4FD012080C3C901A07800F00F0081429B
:109CF0001BD10A463946304600F0FAFCA8B1E1789B
:109D0000287901F00701884204D30ED128686168E0
:109D100088420AD260682860E07800F00700287165
:109D2000687900F03EFAFFF752FC0020A0E72DE929
:109D3000F04105464168F8488AB00068814263D125
:109D4000DFF8D88398F80000082812D00024F24EDB
:109D5000688821469C3636F8212082421ED106EBC7
:109D600081046088411C618008281AD200200AB052
:109D70007EE7284600F0B9FD08B1002745E008213C
:109D80002846FFF79CFC074661208DF8000008205C
:109D9000CDE901506846FEF758FE36E0491C04291B
:109DA000D9D3DD4869888068012904D020F00F00EC
:109DB00000EB01101038102202A900F005FC80B160
:109DC0004FF6FA70ADF800006888ADF802006868D8
:109DD00001900323002218216846FFF78EFB0746F7
:109DE00000E0052757EA04000AD198F8020000F0C5
:109DF0000302401C06EB820488F802006888208079
:109E00001CB10020608000E00B273846AFE770B53A
:109E1000C24C0021054621707421BF4802F0E9FEC2
:109E2000BD4810219C3002F0C2FE0020A070E570F9
:109E3000BDE87040FFF718BB10B57421B64802F0BA
:109E4000D8FEB54810219C3002F0B1FEB34C002082
:109E5000A070E080FFF708FB00F0BEF900F06CFD99
:109E6000FFF7F2FA10B10020207010BDBDE81040DD
:109E700000F0EFB9A94B10B51B78012B01D00820D9
:109E800010BD4FF010235B69934203D8531C01D0DF
:109E9000102010BDA04BDA60FFF727FC002010BD9A
:109EA00070B59E4C15462378012B03D0022B01D0B0
:109EB000082070BD07222270974C0246607104F1A1
:109EC0006600256000F004FC607900F06AF9FFF795
:109ED0007EFB002070BD70B50288A2F57F42FA3A81
:109EE000052A2DD2DFE802F0100D0A070300BDE8B5
:109EF000704000F029BABDE87040A5E6BDE87040AA
:109F0000F7E5BDE8704012E7044684480D46007846
:109F100008282046F2D100F0E8FC08B1002070BD0E
:109F20007D48B0F86410B0F86200081A401C80B296
:109F300000F045F929462046BDE87040FFF7BFBB59
:109F40000B2070BDF0B5744DABB074350E2215A862
:109F5000296802F0ADFD704C002704F12006D4E919
:109F60000201814235D0FF225421684602F017FEDB
:109F7000627904F1660102A800F0AAFBA0690190D1
:109F8000E0680090FF208DF8130000208DF812008B
:109F9000E069142240B14022314605A802F0CDFD0F
:109FA00001208DF812005422607901280ED0022879
:109FB00007D0042802D00B202BB0F0BD6946242026
:109FC00001E069462220FEF744FF40E06946212077
:109FD000F9E7286910B90E2000F082FD28690068B1
:109FE00000906079012812D002283AD0042817D1B5
:109FF000D4F866001690D4F86A001790B4F86E0092
:10A00000ADF8600000981C2740F0040007E0B4F8A9
:10A010006600ADF8540000981A2740F00100009047
:10A02000E06920B1402231463846FEF712FF002099
:10A03000401C0E28FCD30E2215A90220FEF709FFB2
:10A040000422286069461046FEF703FF2861334961
:10A0500006200870FEF7E6FE08B100F041FD002082
:10A06000AAE7B4F86600ADF8560000981B2740F048
:10A070000200D4E7294810B5007809281FD2DFE88C
:10A0800000F01E05070709111E1C1C00012010E02E
:10A0900005200EE0204820494079BDE81040663197
:10A0A000FFF723BBFFF749FA10B1BDE8104049E7BD
:10A0B0000420BDE81040FEF7CEBC0020F9E710BD3B
:10A0C00070B50220FEF7AAFE06460420FEF7A6FEA3
:10A0D00004461020FEF7A2FE05461220FEF79EFE63
:10A0E00056B1318841B114B12178C9070FD01DB1E3
:10A0F00029680968491C0AD014B12178490708D594
:10A1000018B100680068401C03D0002070BD012019
:10A1100070BD042070BD0000D4FD012028FD012089
:10A1200010B50220FEF77AFE04461220FEF776FEF6
:10A1300074B168B10068411C0AD00068401C07D0A7
:10A14000D4F80A0020B100F0B5FB08B1012010BD21
:10A15000002010BD00F07DB800B5A44889B000789B
:10A1600006281CD1FEF7F9FE002818D025208DF80E
:10A17000000001208DF804009D4800F1660142793D
:10A180008DF805200DF1060000F0A2FA6846FEF7F2
:10A190005CFC00F08AFAFFF767F9FFF74DFE09B0A3
:10A1A00000BD012809D0022805D0042801D00020D4
:10A1B000704701207047032070470220704700B5A8
:10A1C00089B02422ADF804008DF80020ADF8061007
:10A1D0006846FEF73AFCE2E7F0B586488FB00CAF70
:10A1E000D0E90010CDE90C1083A000680E908048E3
:10A1F00074300068811CCDE90910001D00240B900B
:10A2000037F81400FEF70AFE05001DD002208DF875
:10A2100000000EAE05F10801325D8DF804200DF14D
:10A22000060000F055FA09A8325D50F8241004A881
:10A2300000F04EFA2868079068680890A87C8DF8AE
:10A2400005006846FEF701FC641C032CD8D30FB050
:10A25000F0BD10B50020FFF7BAF96449012008707D
:10A26000BDE810407421624802F0C3BC70B50446DA
:10A2700000885F4DA0F57F41FD3908D1E0784007A7
:10A2800005D0A078697900F00F00884202D007203D
:10A2900000F026FC60682860E078544900F0070070
:10A2A0002871E078C0F3C00085F8710003200870C1
:10A2B0006879FFF776FFBDE87040FFF788B970B5A1
:10A2C00092B000264A4C05460F96109610AA0FA988
:10A2D000606900F0ABF9002834D0A06820F00F01CD
:10A2E0000F98401A66EB06010A0742EA1011491C52
:10A2F000A5F10100814203D3B4F86400A84221D142
:10A300004FF6FB70ADF82400ADF8261020680A90D7
:10A3100060208DF8000009A801900820029002201A
:10A320008DF80C00FF208DF80D008DF80E6068464A
:10A33000FEF78BFB002805D10F982C496061BDF812
:10A340002600C88012B0E5E670B5284D04468AB0F4
:10A350002878012802D008200AB0DBE6A088ADF8F2
:10A360000000009800F093FA212658B102208DF8E1
:10A3700000608DF8050020798DF8060060798DF871
:10A38000070016E0A01D00F06AFA60B36088A0F52F
:10A390007F41FE3914D01649743109680988884212
:10A3A0000ED001208DF800608DF805006088ADF8B2
:10A3B000060028788DF804006846FEF746FBCBE7D8
:10A3C00004208DF800608DF8050028788DF80400D1
:10A3D00054F8060FCDF806006068CDF80A00208911
:10A3E000ADF80E00E8E70B20B6E7000028FD0120DD
:10A3F000D4FD012020CD07000201040010B5B34CAC
:10A40000218D81420CD30A1A402A0BDC0120002145
:10A4100002F00FFBD4E9042310401940084301D097
:10A42000012010BD002010BD10B53021A74802F05A
:10A43000E0FBA6494FF6FF70088510BD2DE9F047F7
:10A440009946164688460446FFF7EEFF301920F07D
:10A450000F0024F00F01401AC0F30F1744EA080060
:10A46000000502D01020BDE8F087984DB8F1000F2C
:10A4700017D0C5F8048006F6FF70010B6868090361
:10A480006FF30B00FEF705FB2C602F8185F80A9017
:10A490000022EE60C5E904224FF6FF7169852A8526
:10A4A000E1E76C60E7E72DE9F74F884E05464FF688
:10A4B000FF71308D934688424DD0280708D130680F
:10A4C000A84205D8F268831805EB0B02934202D22A
:10A4D0001020BDE8FE8FBBF1100F02D85FEA8B722F
:10A4E00001D00920F5E7728D8A4201D01120F0E7F2
:10A4F00020F00F000021281A61EB0101000940EA59
:10A500000170401C84B22046FFF778FF18B36F48F3
:10A51000008DA04231D2201A82B26C4F90460120A9
:10A52000002102F086FAB0F1010941F1FF31D7E9CB
:10A5300004674020D8EB00028A46484602F079FAC8
:10A5400006EA000207EA0100024306D0032000F0F9
:10A55000B6F80520BDE70820BBE74246304639463D
:10A5600002F067FA40EA090020F00102574841EA88
:10A570000A01C0E9042104850EE0DFF85081001BC8
:10A5800082B2D8E904670120002102F052FAC243E6
:10A5900016408F43C8E904674C4E5A4606F118002E
:10A5A00074850446019902F083FAD6E90010691A0D
:10A5B00008445A462146FEF75AFA002889D0072057
:10A5C00000F07DF8032084E72DE9F0413F4F03467A
:10A5D0000D46388D1646A0F57F41FF3911D03968F8
:10A5E000002221F00F01591A62EB0202090941EA27
:10A5F0000271491C8CB2A04203D32046FFF7FEFE35
:10A6000010B10020BDE8F08165B15EB1012C0BD026
:10A61000786820F00F0000EB04111039324628460C
:10A6200002F046FA0120EDE77968F7E72DE9F74FE8
:10A63000824626488B46018DA1F57F428946FF3A26
:10A6400025D0D0E9046705683F2425F00F0822468D
:10A650000120002102F0EDF906EA000207EA0100FC
:10A66000024312D0A9EB040080B201280BD008EB02
:10A6700000101038504508D3CBF800000298102184
:10A680000160012025E72846F4E7641EDFD500209D
:10A690001FE70E490A8DA2F57F43FF3B03D0CA682E
:10A6A000496801F00BBD08207047BDE60749183125
:10A6B000884203D118394FF6FF7048857047034A26
:10A6C0004FF6FF711185FEF7C6B9000080FE01202C
:10A6D000012A0AD0022A08D0042A05D10A68026099
:10A6E0004A68426009890181704709880180704782
:10A6F00010B5012A08D0022A02D0042A0AD10A225F
:10A7000002F0AAF920B105E000880988884201D149
:10A71000012010BD002010BD012A0DD0022A0ED04C
:10A72000042A0FD182888B889A420BD1006809686D
:10A73000884207D10120704700880988F8E700782F
:10A740000978F5E700207047012A0AD0022A0BD0C9
:10A75000042A01D000207047D0F80600D1F8061076
:10A7600004E00088098801E000780978401A704701
:10A770008D4A002152F82130834201D101207047D7
:10A78000491C0829F6D30020704770B5044680782C
:10A790000D4600F00F001646A84200D0A5B960682B
:10A7A000FFF7E6FF80B904F108002A463146044667
:10A7B000FFF7B2FF40B12A4631462046FFF7C4FFFB
:10A7C000002801DB012070BD002070BD012805D0EC
:10A7D000000121F00F011038084470470846704707
:10A7E00070B505460E460220FEF718FB044604200D
:10A7F000FEF714FB012E25D0022E14D0042E2AD1F0
:10A80000FCB1A9882289914225D1296862689142C8
:10A8100021D1D5F80610D4F80A2091421DD880B174
:10A82000007840070BE064B12978A278914212D1F8
:10A830006978E278914210D818B100788007002832
:10A840000BDA08E03CB129882288914203D110B18B
:10A850000078C00701D0002070BD012070BD10B588
:10A8600004460220FEF7DAFA68B1A1880289914213
:10A870000BD121684268914207D1D4F80610D0F874
:10A880000A00814201D9012010BD002010BD10B581
:10A8900004460220FEF7C2FA40B18278E1B291424A
:10A8A00006D1C078C4F30721814201D9012010BD2F
:10A8B000002010BD10B50420FEF7B0FA30B10068DA
:10A8C000C10705D0410703D5800701D5012010BD80
:10A8D000002010BD354A10B51178334C01F0070344
:10A8E000491C44F82300117010BD30B52E4A0021D8
:10A8F0000388203232F821409C4207D102EB8104C8
:10A9000045886488AC4201D1012030BD491C102922
:10A91000F0D3002030BD30B5244C234B058861684E
:10A92000203301F00F02491C23F8225003EB82026E
:10A9300040885080616030BD1B4810B540212030F8
:10A9400002F035F919490020486010BD904202D349
:10A950001344834204D8824204D30844904201D372
:10A96000012070470020704730B54FF0E020D0F84C
:10A9700000310020012404FA00F21A4210D041B242
:10A9800000290DDB01F01F0504FA05F249098900D1
:10A9900001F1E021C1F88021BFF34F8FBFF36F8F2A
:10A9A000401C2028E7D330BDB0FE012030FD01203F
:10A9B00083682021491E23FA01F2D207FAD001222E
:10A9C0008A400021C0E902210161704770B5044648
:10A9D00061B1EFF3108000F0010572B6A268206942
:10A9E0008318E068834206D115B102E00E2070BDE5
:10A9F00062B6042070BD521E1040D4E9003202FB42
:10AA0000003063690BB1984701E002F051F8E0684B
:10AA1000401CE06005B962B6002070BD70B50E46FE
:10AA20000446EFF3108000F0010572B6D4E903107C
:10AA3000884203D105B962B60E2070BD6EB1A1681F
:10AA40006369491E0840D4E9001202FB0011304638
:10AA50000BB1984701E002F02BF82069401C2061FF
:10AA600005B962B6002070BDD0E90310081A70471E
:10AA700070B50D000BD0EFF3108101F0010472B638
:10AA8000D0E903315B1A934203D804B962B60E20B1
:10AA900070BD11448268521E1140D0E9003202FBA1
:10AAA0000131436928460BB1984701E002F000F8F4
:10AAB00004B962B6002070BD0022D9E7826801693E
:10AAC000C0681144814201D10120704700207047C5
:10AAD0000169C068814201D10120704700207047A0
:10AAE00072B600BEFEE772B600BEFEE71D48016802
:10AAF0000122C006002431B90260D0F800110029FB
:10AB0000FBD0C0F8004117490C31096831B98260A7
:10AB1000D0F804110029FBD0C0F804410261D0F83C
:10AB20000C110029FBD0C0F80C410F49402081F8DE
:10AB300000044FF0E0210004C1F8000162B6FDF707
:10AB4000B9FD00E020BFFEF77FFC0028FAD1074DD9
:10AB5000286810B90020FDF74EFC2C60FDF7EFFDD2
:10AB600020BFFDE70804004016E000E01C0500409F
:10AB70000020544A01461154401C2028FBD3704742
:10AB800010B5504B0021EFF3108202F0010272B6B3
:10AB90005C5C0CB162B10CE001245C544A4B01EBEB
:10ABA000810103EBC101016002B962B6012010BD51
:10ABB00062B6491C2029E6D3002010BD70B5424979
:10ABC000401A2821B0FBF1F4202C01D3002070BDE5
:10ABD000EFF3108000F0010572B63A4E305D08B117
:10ABE000FF2802D10420FFF77BFF305D401C305569
:10ABF00005B962B6012070BD334910B5401A28214D
:10AC0000B0FBF1F0202816D2EFF3108101F001041F
:10AC100072B62C4A115C21B1491EC9B2115434B12B
:10AC200006E00820FFF75CFF2CB962B603E062B6CD
:10AC300009B1012010BD002010BD2349401A282170
:10AC4000B0FBF1F0202801D3002070471D49085CBB
:10AC500070471E490A68C0F803208988A0F80710C9
:10AC60004FF08051D1F8A010027861F38612027083
:10AC70000020704730B5010004D04C78062C01D973
:10AC8000252C01D9002030BD002201F10900C91C8A
:10AC90004FF6E4630C440DE04578162D08D10329E6
:10ACA00006D91F2904D845889D4201D1024606E0F5
:10ACB000401C0844844202D901780029ECD1104696
:10ACC00030BD0000F0050020F0000020A4000010BE
:10ACD000F0B54FF08056326911FA82F13269491E9F
:10ACE00092B2B1FBF2F1CDB200212A4C2A4B0227DD
:10ACF00004F1040C8E4614E027601A68002AFCD088
:10AD0000CCF800001A68002AFCD0C4F800E01A68E9
:10AD1000002AFCD03269491CC2F38D0200EB82008C
:10AD2000C9B2A942E8D3F0BD2DE9F043002423F0D5
:10AD30000303034425462046184EDFF85890DFF8F9
:10AD400058C023E011F8017B3755641C65EA0708F9
:10AD5000E4B208F0FF05042C17D100249DB10125B1
:10AD60004F46C9F80050DCF80050002DFBD0356884
:10AD70001D60DCF80050002DFBD000253D60DCF8A4
:10AD80000050002DFBD000251B1D401C9042D9D344
:10AD9000BDE8F08304E5014000E401400800002024
:10ADA000BD480021C0F800124A1EC0F80823012245
:10ADB0000261BA480160BA49022008707047FEB5C6
:10ADC000B54B1321C3F80012B44C8179241D0A2914
:10ADD00001D8042202E0242903D8062202EB410212
:10ADE00008E0B04A64CA8DE864006A4602EB81025A
:10ADF00052F8942C2260A94A01F07F015032116070
:10AE0000A64A016811600821C3F804130025C3F89D
:10AE10000C51A24C20342668A14A51680F0E46EA14
:10AE2000072626609D4E0C021C36346046790124AC
:10AE30003EB19A489C4E2C30B1420DD003210160A6
:10AE40000BE0964D0179283529609449C079083185
:10AE500008601C601470FEBD04605C601570FEBD6F
:10AE60002DE9F04780469148002491460F46046042
:10AE70004FF0010CC0F800C08848083004608749D2
:10AE800003200C31086085480226001D06608348B7
:10AE900025215030016081488E21203001607F4A99
:10AEA00083491832116002687D4D69680B0E42EAD1
:10AEB00003220260080279491C3108607748283073
:10AEC0000460001DC0F800C074497A481031086061
:10AED000091D79480860714940F25B6034310860AF
:10AEE000091F40F2031008606C497448383108604B
:10AEF0006A499420403108602878032809D17048B5
:10AF0000082100F1180244618160C0E90021FFF7C7
:10AF10004FFD61482E70C0F80C414FF0E020C0F8A2
:10AF200080628430C667C5F81090C5E9028764481E
:10AF3000FFF7CEFD18B1A868BDE8F047004700F064
:10AF4000F5F9002804D0BDE8F047012000F097B8DB
:10AF5000BDE8F08710B510B1417911B106E00E20BF
:10AF600010BD0179012901D9102010BD01465448B6
:10AF7000FFF72CFD08B1042010BDEFF3108000F0A6
:10AF8000010472B600F0D2F910B1012000F077F898
:10AF900004B962B6002010BD2DE9FC473E4ED6F83C
:10AFA0000C013F4D002770B34648006800B10120F6
:10AFB000814644480C30D0F80080D6F81C01642447
:10AFC00028B1C6F81C71354844300068C4B2C6F8D0
:10AFD0000C7169463A48FFF721FD08B1FFF780FD83
:10AFE0009DF80500012807D0022805D0296900989E
:10AFF00088470220287035E02346EC6842464946DF
:10B000000098A047F5E7FFE72D48FFF72DFDDFF893
:10B010008C90044609F14C09B8464FF0FF3A1AE00B
:10B0200069462748FFF748FDB8B99DF80500022892
:10B0300013D100212248FFF7F1FCFFF7B1FE48468B
:10B0400001680029FCD1C6F80C81EF6864235246E0
:10B050000098B847641E012CE2D82878022801D055
:10B06000032806D169461648FFF726FD18B1A868DF
:10B070008047BDE8FC876846FFF7A1FEF9E7002896
:10B0800009DB00F01F02012191404009800000F11E
:10B09000E020C0F800127047001000400415004086
:10B0A0000C00002030CD0700D6BE898EFC1F00406A
:10B0B00000D6BE8906010200250003025555550041
:10B0C000100600200014004010B5D0E9001382687B
:10B0D000A1EB731183EAF2330360C4682244426037
:10B0E00062181944C0E90221084610BD70B5174A1C
:10B0F000012414600025164E09E0D2F80031002B1F
:10B10000FBD03368491E89B24354C2F8005100296C
:10B11000F3D15460002070BD38B505460020009082
:10B1200004216846FFF7E2FF00280DD10948286096
:10B1300000986860A8600024E8602846FFF7C4FF14
:10B14000641C142CF9D3002038BD000000D000404E
:10B1500008D50040ED5EEAF170B50446807BE0B1B1
:10B16000022835D00125F248FFF7AEFF014640F630
:10B17000CD4015FB00F0B1FBF0F200FB1211627B39
:10B18000084441F69A1315FB03F3A16802FB03116F
:10B19000084420F07F40606070BD607B40F6CD4188
:10B1A00001FA00F5401C8140A1F6CD41A5F6CD4540
:10B1B000481B20F07F46DE48FFF786FF7108B0FB92
:10B1C000F1F201FB1200A16800EB56002944DFE711
:10B1D0000A25C8E71CB502208DF805006846FFF770
:10B1E000CFFC002168B18DF8041025208DF80600F1
:10B1F0006846FFF7AFFE002802D06846FFF7FCFC68
:10B200001CBDCC4801701CBD10B588B00446FFF7CA
:10B2100031FD020013D090884FF6F07188420ED3B2
:10B2200000F098F958B1B6208DF801009088ADF87B
:10B23000020003208DF80000684601F01BF808B0FA
:10B240002046BDE81040FFF7D7BC1FB529B1B8486C
:10B2500069469838FFF7BAFB18B10098FFF7CCFCA5
:10B260001FBD4FF0E0214FF48010C1F800021FBD58
:10B27000B0480078002800D0ACE77047F0B5AE4881
:10B280000268AE4C501E20F07F410D46002004EBBA
:10B2900000131E6856B15B688F1A9E1A26F07F460F
:10B2A00027F07F47BE4201D223F07F41401C08288F
:10B2B000EDD3A3484FF480338D420AD0C0F8043355
:10B2C0000023C0F840319C483C30016099488260BE
:10B2D000F0BDC0F80833F0BD96480178002902D1CE
:10B2E0000121017076E7704738B5924C0FE0009865
:10B2F000FFF7A3FC012800D0002010B90020FFF7C1
:10B30000EFFB6168009888470098FFF775FC8B4851
:10B3100069468030FFF782FB0028E8D020780028BB
:10B3200001D1FFF7D9FF38BDFFF736BE01207047C6
:10B3300010B5804900240C7048604C8080217F4803
:10B3400001F057FC7A498039A1F11800016004210D
:10B350004160202144618160FFF72AFBFFF708FC70
:10B360007348FFF7D9FE08B1FFF7BAFB022114209A
:10B3700000F0CEF8142000F0ADF80021012000F01C
:10B38000C7F8BDE810406F4A6F497048FFF768BDC5
:10B390002DE9F0411D001646074601D10C2E02D8BA
:10B3A0000FB1082902D30020BDE8F081EFF310802F
:10B3B00000F0010872B6614800EB0114206808B182
:10B3C000FFF71AFC3846FFF7F9FB276026730020C9
:10B3D000607359480068A060A5732046FFF7BCFE63
:10B3E000FFF74CFFB8F1000F00D162B60120DBE798
:10B3F00010B504460B2000F07AF8082C0CD24F4808
:10B4000000EB04142068FFF7F7FB00202060606069
:10B41000A060E060FFF732FFBDE810400B2000F0B5
:10B4200059B82DE9FC41444806680025DFF80C8135
:10B430002F46B61C08EB05142068E8B33D4A616846
:10B440009268711AB21A21F07F4122F07F42914234
:10B4500036D88DF805708DF8047000908DF807705F
:10B46000E07B032811D225208DF806006846FFF7FF
:10B4700071FD10B92068FFF7A1FB9DF80600401C84
:10B48000C0B28DF806002728F0D9E773607B411C15
:10B49000C9B26173FF2805D12D4AA068104420F07D
:10B4A0007F40A060207B814210D3FF280ED020680F
:10B4B000FFF7A2FB276000E002E06760A760E7609B
:10B4C0006D1C082DB6D3BDE8FC41D7E62046FFF73A
:10B4D00043FEF5E7002809DB00F01F02012191403F
:10B4E0004009800000F1E020C0F8001170470028FA
:10B4F0000DDB00F01F02012191404009800000F1A6
:10B50000E020C0F88011BFF34F8FBFF36F8F7047FB
:10B510004907090E002804DB00F1E02080F8001440
:10B52000704700F00F0000F1E02080F8141D704714
:10B53000800700202000002004B50040680600209D
:10B5400000B0004009B207004BB2070071B207001B
:10B55000009A19004FF6F071884208D3012110308B
:10B56000814004484088014201D0012070470020FA
:10B570007047000020000020054B0122103082405F
:10B58000588892B209B1104300E090435880704748
:10B59000200000200246491E03D452F82130002B1F
:10B5A000F9D0491C05D002EB8100002250F8040CB0
:10B5B00003E0002070474008521C0028FBD14801DE
:10B5C00020381044704770B506460020034651F8F5
:10B5D000235052F823402C440444A54205D002D9FC
:10B5E0004FF0010001E04FF0000046F8234003F166
:10B5F0000103082BEBD370BD70B50646002003464F
:10B6000051F8235052F823402C1B241AA54205D090
:10B6100002D24FF0010001E04FF0000046F8234055
:10B6200003F10103082BEBD370BDF0B51C6815685E
:10B63000A0FB017CE0FB0154059EE91B74EB0C01AF
:10B64000306801D2012100E00021084430601C6014
:10B650001560F0BD2DE9FF478046002015460E46D7
:10B660000190029007460DF10C09824603900024D8
:10B670000BE0381BCDF8009055F8201056F8240048
:10B6800002AB01AAFFF7D1FF641CBC42F1D90199BA
:10B6900048F8271002980190039802907F1C5046AA
:10B6A000CDF80CA0082FE2D308278246FC1F0BE040
:10B6B000381BCDF8009055F8201056F8240002AB46
:10B6C00001AAFFF7B2FF641C082CF1D3019948F8D6
:10B6D0002710029801900398CDE9020A7F1C0F2FD2
:10B6E000E4D30199C8F83C10BDE8FF87F0B589B0F4
:10B6F0000C46064600F0C8FB002502950195009512
:10B70000E06A0390206B0490606B0590A06B06903C
:10B71000E06B6A46114607900846FFF754FF07465C
:10B7200031466A460846FFF74EFF0744206B0390F8
:10B73000606B0490A06B0590E06BCDE906056A464E
:10B7400011460846FFF73FFF074431466A46084660
:10B75000FFF739FF0744206A0090606A0190A06AF1
:10B76000CDE9020505950495A06B0690E06B314686
:10B7700007906A460846FFF726FF0744606A009074
:10B78000A06A0190E06A0290606B0390A06B049045
:10B79000E06B0590606B0690206A314607906A4620
:10B7A0000846FFF710FF0744E06A0090206B019005
:10B7B000606BCDE9020505950495206A0690A06AA4
:10B7C000314607906A460846FFF716FF3F1A206B7E
:10B7D0000090606B0190A06B0290E06B0595CDE945
:10B7E0000305606A0690E06A314607906A4608469B
:10B7F000FFF702FF3F1A606B0090A06B0190E06BB7
:10B800000290206A0390606A0490A06ACDE9050561
:10B81000206B314607906A460846FFF7EDFE3F1A57
:10B82000A06B0090E06BCDE90105606A0390A06A0F
:10B830000490E06ACDE90505606B314607906A46E1
:10B840000846FFF7D9FE3C1A0ED53146F84A08469D
:10B85000FFF7B9FE0419F8D409B0F0BD3146F44A37
:10B860000846FFF7C9FE241A002CF7D13146F048EC
:10B8700000F013FB0128F1D1EEE770B50646A0B049
:10B8800015460C46084600F0EBFA20B1304600F0B1
:10B89000DFFA20B070BD214610A800F0F5FA294665
:10B8A00018A800F0F1FA684600F0D2FA01200090E2
:10B8B00008A800F0CDFA64E010990024C9072ED042
:10B8C0001899C9072FD0002838DD10A918AA0846F2
:10B8D000FFF792FE10A800F0F3FA08A9684600F0FE
:10B8E000DCFA002804DA69462A460846FFF76BFEB0
:10B8F000694608AA0846FFF77FFE0098C00705D0F2
:10B9000069462A460846FFF75EFE0446684600F090
:10B91000D7FAB4B3079840F00040079031E010A880
:10B9200000F0CEFAE9E718A800F0CAFA1EE008A96C
:10B930002A460846FFF747FE04461AE018A910AA4F
:10B940000846FFF759FE18A800F0BAFA694608A899
:10B9500000F0A3FA002804DA08A92A460846FFF7EF
:10B9600032FE08A96A460846FFF746FE0898C00757
:10B97000DDD108A800F0A4FA1CB10F9840F00040F7
:10B980000F9018A910A800F088FA002894D16946F1
:10B99000304600F079FA7CE7F0B5044691B00E46E7
:10B9A0001546104600F05CFA00287DD1324611465B
:10B9B000684600F0B6FA6A46214608A800F0B1FAD7
:10B9C0006A461146084600F0ACFA31462A46084657
:10B9D00000F0A7FA2A461146084600F0A2FA2146CE
:10B9E000934B2A46084600F079FA2A461146904BB6
:10B9F000084600F073FA2A468D4B2146104600F0A7
:10BA000081FA21462A46084600F08BFA2246884BE6
:10BA10001146284600F062FA2146854B2A46084620
:10BA200000F05CFA0021204600F025FA68B12146BA
:10BA30007F4A0846FFF7C7FD0746204600F040FA58
:10BA4000E06940EAC770E06102E0204600F038FAA1
:10BA500022461146284600F064FA2946744B08AA8B
:10BA6000084600F04FFA2946714B08AA084600F034
:10BA700049FA08A96E4B2A46084600F043FA2146C7
:10BA800008AA084600F04DFA6A46694B214610465E
:10BA900000F038FA2946204600F0F6F931462846EB
:10BAA00000F0F2F9694600E002E0304600F0ECF9FF
:10BAB00011B0F0BD70B588B00E460446154611466B
:10BAC000684600F02EFA21466A46084600F029FA38
:10BAD00069462A46084600F024FA31466A46084676
:10BAE00000F01FFA08B070BDF0B5174689B01E46C9
:10BAF0000C46054602464E4B3946684600F002FAAF
:10BB00006A461146084600F00CFA29466A4608467D
:10BB100000F007FA39466A46084600F002FA314654
:10BB2000434B2246084600F0EDF93246114668467E
:10BB300000F0F7F969463E4B2A46084600F0E2F964
:10BB400069463B4B3A46084600F0DCF93946384B2B
:10BB50002A46084600F0D6F921463A46084600F043
:10BB6000E0F9334B6A462946384600F0CBF93146B6
:10BB70003A46084600F0D5F931462D4B2246084694
:10BB800000F0C0F96946384600F07EF964E62DE918
:10BB9000F047B2B0814620A8309010A83190FFF74E
:10BBA00059FD234908A86031824600F06DF96846C6
:10BBB00000F04EF9012400250DF1C008C4F1010187
:10BBC00058F8247058F821C000216E46084657F8EE
:10BBD000203056F820209A1A521A934205D002D2E9
:10BBE0004FF0010101E04FF000014CF8202000F17E
:10BBF00001001028EBD38C4201D1012400E0002485
:10BC0000304600F05DF9DDE9070140EAC1700790B8
:10BC1000504600F055F96D1CB5F5807FCEDD58F823
:10BC20002410484600F030F932B0BDE8F08700003B
:10BC30003CCD0700F0B5F5B00F460024064601469E
:10BC40001546479420A8579400F077F906F1200193
:10BC500028A8064600F071F9294640A800F06DF9C1
:10BC600005F1200150A800F068F940A800F0F8F8AC
:10BC700000287CD150A800F0F3F80028F9D140A9A1
:10BC8000B74800F00AF90128F3D150A9B44800F0F0
:10BC900004F90128EDD1B24A50A96846FFF7EDFD3D
:10BCA000394638A83F9400F048F938A96A46084652
:10BCB000FFF76DFF6A4640A958A8FFF768FF20A963
:10BCC00008A800F0E1F810A83146044600F0DCF8BE
:10BCD000A34930A8403900F0D7F8A14948A8203935
:10BCE00000F0D2F89E4B30AA603B08A9684600F0ED
:10BCF00009F9234608AA48A930A8FFF7F5FE984A93
:10BD00006946603A0846FFF7B8FD6A46214608A82A
:10BD1000FFF7D0FE92482030D0E90010CDE9701036
:10BD200020A8729008A87390082138A8FFF732FC69
:10BD30000446082158A8FFF72DFC844200DD204668
:10BD40000446411E38A800F096F808B1012500E02D
:10BD50000025611E58A800F08EF800B1012045EAC8
:10BD6000400070AE56F8205018A8294600E06AE05E
:10BD700000F08AF805F1200160A800F085F8684617
:10BD800000F066F801200090A41E39D46A4660A92C
:10BD900018A8FFF701FE214638A800F06CF808B19A
:10BDA000012500E00025214658A800F064F800B104
:10BDB000012045EA400056F82050FDB1294630A840
:10BDC00000F062F805F1200148A800F05DF86A462D
:10BDD00048A930A8FFF76EFE614B30AA603B18A956
:10BDE00068A800F08FF860AB18AA48A930A8FFF740
:10BDF0007BFE694668AA084600F093F8641EC5D524
:10BE0000574A6946603A0846FFF737FD6A4660A917
:10BE100018A8FFF74FFE18A9514800F03EF8012876
:10BE200004D018A94E4A0846FFF7E6FB002118ACDB
:10BE300040AB072054F8202053F820506A401143AB
:10BE4000401EF7D511B1002075B0F0BD0120FBE711
:10BE500000210A4640F82120491C0829FAD37047DE
:10BE6000002150F821200AB100207047491C082900
:10BE7000F7D3012070474A1150F8220001F01F0249
:10BE80000121914008407047002251F8223040F8CB
:10BE90002230521C082AF8D3704710B5072250F8F8
:10BEA000223051F82240A34202D94FF0010010BDC8
:10BEB00002D24FF0FF3010BD521EF0D5002010BD51
:10BEC00003460022203004E0016842EA5102026089
:10BED000CA070146001F9942F6D8704770B51C4644
:10BEE0000546FFF770FB28B921462846FFF7D5FF26
:10BEF000002806DB29462246BDE870400846FFF7C9
:10BF00007BBB70BD70B51C460546FFF775FB00286E
:10BF100006D029462246BDE870400846FFF753BBCD
:10BF200070BD10B590B004466846FFF793FB6946B4
:10BF30002046FFF7DBFB10B010BD10B50022C2F1A8
:10BF4000070301EB83031C68DB7824BA24F0FF04A9
:10BF50001C4340F82240521C082AF0D310BD0000B8
:10BF60009CCD07002DE9F04FC8B0002213466F4664
:10BF7000CC181B1D2568E4782DBA25F0FF05254354
:10BF800047F82250521C102AF2D31BE007EB820123
:10BF900051F8083C4FEA734484EAF34484EA93245A
:10BFA00051F83C3C4FEAF31585EAB34585EAD303E3
:10BFB000234451F81C4C51F8401C2144194447F8C3
:10BFC0002210521C402AE1D3026D4792446D4694E0
:10BFD000856D4595C16D44918B46016E4391436ECD
:10BFE0004293866E99464196C36E40939A460023CB
:10BFF0004FEAB11787EAF12787EA716C01EA09076E
:10C0000026EA010887EA0807BC44854F57F82380D1
:10C0100008EB0A07BC445DF82370B2460CEB070E30
:10C020004FEAB20787EA723787EAB25C84EA05070B
:10C030004E4604EA0508894617400BEB0E01AB4655
:10C0400087EA08072546674414465B1C0EEB070287
:10C05000402BCDD3479B1A440265469A2244426541
:10C06000459A2A448265449A5A44C265439A1144C7
:10C07000016642994944416641993144816640993B
:10C080005144C16648B0BDE8F08FA8B100210164F9
:10C09000C0E91211634901656349416563498165DE
:10C0A0006349C165634901666349416663498166C5
:10C0B0006349C166002070470E2070472DE9F041AA
:10C0C00016460F46040004D006B117B10025A84655
:10C0D0001AE00E20BDE8F081216C785D6054206C80
:10C0E000401C206440280ED121460846FFF73AFF45
:10C0F000D4E912014FF40072801841F10001C4F834
:10C100004080C4E912016D1CB542E5D30020E1E78F
:10C1100070B516460D46040007D035B1206C80225C
:10C1200000213828225403D307E00E2070BD21548B
:10C13000401C3828FBD30BE02154401C4028FBD383
:10C1400021460846FFF70EFF3821204600F051FD3A
:10C15000216CD4E912304A0FC900383459185041C3
:10C16000C4E90410227CE2710A0A42EA0062A27168
:10C170000A0C42EA00426271020242EA1160207136
:10C180006069E070010AA170010C6170000E04F892
:10C19000380921460846FFF7E5FE4FF00002EEB1F0
:10C1A000E16ED000C140A954A36EC340A9180B7121
:10C1B000636EC3400B72236EC3400B73E36DC340C9
:10C1C0000B74A36DC3400B75636DC3400B76236D79
:10C1D000C340521C0B77042AE2D31FE018265042BA
:10C1E000216D06EBC000C140A954636DC340A9187E
:10C1F0000B71A36DC3400B72E36DC3400B73236ED1
:10C20000C3400B74636EC3400B75A36EC3400B76C3
:10C21000E36EC340521C0B77042AE0D3002070BDAC
:10C22000CCCD070067E6096A85AE67BB72F36E3C4A
:10C230003AF54FA57F520E518C68059BABD9831FF1
:10C2400019CDE05BB24910B5A1F5A870FEF7E6FB89
:10C2500000280ED1AE48AF4BAD49AF4A4078891C9B
:10C2600000249860C2F81C4101249460AB4A10601D
:10C27000D96010BD10B504468AB0A948FEF71EFC6F
:10C2800000284FF0000012D18DF8000022782146DE
:10C290000DF10100521C00F00BFC6946A048FEF7AE
:10C2A00095FB9C48007808B900F0DAF801200AB044
:10C2B00010BD70B5994E0025974C361F07E0C4F8A5
:10C2C0000851D4F808013068C0B200F0D6F8D4F8AC
:10C2D00008010028F3D1D4F81C0100280DD0C4F8BF
:10C2E0001C518C498868401E8860401C06D0C86874
:10C2F0008A4A10F8013B1360C86070BD0120E060FD
:10C300000878012800D00D708548FEF7E1FB002871
:10C31000F3D1BDE8704000F0A3B870B580480425A3
:10C320000024856000F1B40127264461C0E90016AD
:10C33000FEF73EFB7A48183800F130018560446111
:10C34000C0E90016FEF734FB7248A9014470754835
:10C3500001608021016074490C200860091F086099
:10C3600070494020143908606E49091F0860202078
:10C3700008606A49062010390860684908200839B1
:10C3800008600720091F0860644905201439086007
:10C390006248012150300160604A644808321060F0
:10C3A0005E481C3805605C488422C0F80423C0F84D
:10C3B0000841C0F81C4101605D49E02081F800049B
:10C3C000881EC0F8005170BD55481838FEF74CBBA8
:10C3D00070B5EFF3108000F0010572B601204D4CEE
:10C3E000607001E0FFF765FF20780028FAD16070E7
:10C3F000002D00D162B670BD10B5044648488AB021
:10C4000069461838FEF70AFB08B100204FE79DF88F
:10C4100001202AB120460DF10101521C00F048FB19
:10C420003C480178012904D1002101703A490120DA
:10C43000086001203BE704204FF0E02301210022A7
:10C44000C3F88001BFF34F8FBFF36F8F431F324894
:10C45000C0F808334160C16030481C380260704742
:10C460002C484178002907D10178022904D0022103
:10C470000170152000F03FB8704770B5254D284E6B
:10C4800088B06968403E741C01F8010B881B696024
:10C490007178401E272902D96C6008B070BD27282A
:10C4A00004D20128F9D9491C8142F6D81C494039E7
:10C4B00001F12800FEF78AFA78B103208DF8000018
:10C4C00084208DF80100B0788DF8020086208DF868
:10C4D00003006846FFF7CEFE02E0162000F00BF8DE
:10C4E0000F481838FEF7EAFA0028D5D00A4901208B
:10C4F00028704860D0E7002809DB00F01F02012106
:10C5000091404009800000F1E020C0F8001270471F
:10C51000200900202C000020002000401C250040A5
:10C52000D00700201C0500502007005000E0D70174
:10C5300002E000E0122818D2DFE800F0090F0F1720
:10C54000150B0D130F1113131117131513150020CD
:10C550007047902070478220704783207047842066
:10C56000704785207047862070478020704710B53F
:10C57000044640788223032284218EB0762838D066
:10C5800004DC022810D00E2804D11CE0772855D0F6
:10C59000782878D08DF8011060788DF802008DF839
:10C5A00000208DF8033044E08DF8013020788DF8BC
:10C5B00000002278012A3CD9A11C0DF10200521E74
:10C5C00000F076FA35E0FFF703FF67494FF0FF30E0
:10C5D0000860664801210160BFF34F8F644801681D
:10C5E000644A01F4E06111430160BFF34F8F00BF63
:10C5F000FDE78DF8011060788DF802008DF80020BD
:10C600002078052802D08DF8031012E0207908B1B7
:10C61000012801D0072008E0607908B1012100E07D
:10C6200000216088FEF7A8FF0020FFF783FF8DF848
:10C6300003006846FFF71EFE0EB010BD8DF8011016
:10C6400060788DF8020007208DF80000207804281B
:10C65000D9D12079002170B101280ED007208DF8A2
:10C6600000206288ADF8042022798DF806208DF82C
:10C670000710DAE707E00720F3E76088FEF76AFFB4
:10C6800001460020EDE78DF8011060788DF802007A
:10C6900005208DF8000002208DF82000A01C0990D4
:10C6A0002078401E0A9008A8FBF7E4FE6188ADF8E8
:10C6B0000410BAE73049602081F800044FF0E0210F
:10C6C0004FF40010C1F80001FFF727BE00B589B094
:10C6D00004208DF8000081208DF8010001208DF8E4
:10C6E000020021480068C0F3C0008DF80300FFF786
:10C6F0006BFE8DF804006846FFF7BCFD10B100200A
:10C7000009B000BD0420FBE700B589B002E068462F
:10C71000FFF72DFF6846FFF76FFE0028F7D1EFE720
:10C7200000B5017889B0D9B1012904D0022904D01B
:10C73000042905D116E0B52100E0B3218DF80110E0
:10C74000017BC91C8DF800108188ADF80210027BB6
:10C75000816801A800F0ACF96846FFF78BFDCFE7D0
:10C76000B421EBE7B621E9E7000400401C050040D6
:10C770000CED00E00400FA0515E000E058495748C8
:10C780000860704730B54FF080510124D1E94C0169
:10C7900000220D2806D18307C3F80C21C3F810210D
:10C7A000504B1A600D2855D14F4B1B684F4D2B60D5
:10C7B0004D4B1B1D1B682D1D2B604B4B08331B68FD
:10C7C0002D1D2B60484B0C331B682D1D2B60464BD9
:10C7D00010331B682D1D2B60434B14331B682D1D1C
:10C7E0002B60414B18331B68404D20352B603E4B6E
:10C7F0001C331B682D1D2B603B4B20331B682D1DEC
:10C800002B60394B24331B682D1D2B60364B28338E
:10C810001B682D1D2B60344B2C331B682D1D2B608A
:10C82000314B30331B68314D40352B602E4B343348
:10C830001B682D1D2B602C4B38331B682D1D2B6066
:10C84000294B3C331B682D1D2B60274B40331B6845
:10C850002D1D2B600D2806D125480168C90702D07F
:10C860006FF0010101602348016841F4700101602B
:10C87000BFF34F8FBFF36F8F4FF01025D5F8000235
:10C88000002803DBD5F80402002822DA1A4B1C60CA
:10C890001A4801680029FCD01224C5F8004201683A
:10C8A0000029FCD0C5F8044201680029FCD01A60B8
:10C8B00001680029FCD0BFF34F8F0E487C38016817
:10C8C0000F4A01F4E06111430160BFF34F8F00BFD5
:10C8D000FDE703490148086030BD00000090D00327
:10C8E0003C000020380500400404001020C5004032
:10C8F0000004004088ED00E004E5014000E4014050
:10C900000400FA050948804709480047FEE7FEE7AA
:10C91000FEE7FEE7FEE7FEE7FEE7FEE7FEE7FEE7EF
:10C9200004480549054A064B7047000085C70700C3
:10C9300001820700A8090020A82D0020A80D0020D2
:10C94000A80D002053EA020C00F069802DE9F04B9D
:10C950004FF00006002B1FBFB3FA83F503FA05F46E
:10C9600024FA05F65E4012BF1643B2FA82F502FAC7
:10C9700005F4C5F120051EBF22FA05FC44EA0C04AB
:10C98000203556EA044C4FEA144418BF641C4FF09B
:10C9900000084FF00009904271EB030C39D30029D5
:10C9A00019BFB1FA81F701FA07F6B0FA80F700FA79
:10C9B00007F6C7F120071EBF20FA07FC46EA0C065F
:10C9C0002037B6FBF4FCA7EB0507103F07F01F0B61
:10C9D000CBF120060CFA0BFB2CFA06F644BFB3464B
:10C9E0000026202FA4BF5E464FF0000B5BEA060C2A
:10C9F00008BF4FF0010B19EB0B09ABFB027C48EBB6
:10CA00000608C01B06FB02CC0BFB03CC71EB0C0130
:10CA1000C1E70B46024641464846BDE8F08B13B5D8
:10CA20004FF000004FF00001AFF30080BDE81C4064
:10CA30007047B2F120030AD5C2F1200301FA02F1D6
:10CA400020FA03F300FA02F041EA0301704700FA0A
:10CA500003F14FF00000704740EA010310B59B0757
:10CA60000FD1042A0DD310C808C9121F9C42F8D058
:10CA700020BA19BA884201D9012010BD4FF0FF3009
:10CA800010BD1AB1D30703D0521C07E0002010BD1F
:10CA900010F8013B11F8014B1B1B07D110F8013BAB
:10CAA00011F8014B1B1B01D1921EF1D1184610BD8C
:10CAB000032A40F2308010F0030C00F0158011F8CA
:10CAC000013BBCF1020F624498BF11F801CB00F8A2
:10CAD000013B38BF11F8013BA2F1040298BF00F8F6
:10CAE00001CB38BF00F8013B11F0030300F02580B3
:10CAF000083AC0F0088051F8043B083A51F804CBDA
:10CB0000A0E80810F5E7121D5CBF51F8043B40F89F
:10CB1000043BAFF30080D20724BF11F8013B11F8AA
:10CB200001CB48BF11F8012B24BF00F8013B00F8EE
:10CB300001CB48BF00F8012B704710B5203AC0F078
:10CB40000B80B1E81850203AA0E81850B1E818500E
:10CB5000A0E81850BFF4F5AF5FEA027C24BFB1E84B
:10CB60001850A0E8185044BF18C918C0BDE81040BC
:10CB70005FEA827C24BF51F8043B40F8043B08BFC5
:10CB80007047D20728BF31F8023B48BF11F8012B8C
:10CB900028BF20F8023B48BF00F8012B704702F085
:10CBA000FF0343EA032242EA024200F002B84FF0D8
:10CBB00000020429C0F0128010F0030C00F01B806A
:10CBC000CCF1040CBCF1020F18BF00F8012BA8BF78
:10CBD00020F8022BA1EB0C0100F00DB85FEAC17C3C
:10CBE00024BF00F8012B00F8012B48BF00F8012BEF
:10CBF00070474FF0000200B5134694469646203920
:10CC000022BFA0E80C50A0E80C50B1F12001BFF405
:10CC1000F7AF090728BFA0E80C5048BF0CC05DF86B
:10CC200004EB890028BF40F8042B08BF704748BFB9
:10CC300020F8022B11F0804F18BF00F8012B70472D
:10CC4000704770477047754600F02CF8AE460500F7
:10CC50006946534620F00700854618B020B5FFF717
:10CC60005FFEBDE820404FF000064FF000074FF098
:10CC700000084FF0000B21F00701AC46ACE8C009FA
:10CC8000ACE8C009ACE8C009ACE8C0098D46704703
:10CC900010B50446AFF300802046BDE81040FBF716
:10CCA000F8BA0000004870474809002001491820E0
:10CCB000ABBEFEE72600020070474FF04070E1EE89
:10CCC000100A704702000000000000000000000091
:10CCD0000000000051000000000000000000000003
:10CCE0000000000000000000000000000000000044
:10CCF00000000000000000005000000000000000E4
:10CD00000000000000000000000000000000000023
:10CD1000000000000000000000000000FFFF000015
:10CD20002200210024000000210022002400000035
:10CD3000020000001A00000050000000FFFFFFFF8B
:10CD4000FFFFFFFFFFFFFFFF0000000000000000EB
:10CD50000000000001000000FFFFFFFF96C298D80E
:10CD60004539A1F4A033EB2D817D0377F240A46314
:10CD7000E5E6BCF847422CE1F2D1176BF551BF371D
:10CD80006840B6CBCE5E316B5733CE2B169E0F7CF0
:10CD90004AEBE78E9B7F1AFEE242E34F512563FC8C
:10CDA000C2CAB9F3849E17A7ADFAE6BCFFFFFFFF26
:10CDB000FFFFFFFF00000000FFFFFFFF000000007B
:10CDC0005CCD07000000000000000000982F8A42A0
:10CDD00091443771CFFBC0B5A5DBB5E95BC25639CD
:10CDE000F111F159A4823F92D55E1CAB98AA07D8E5
:10CDF000015B8312BE853124C37D0C55745DBE7208
:10CE0000FEB1DE80A706DC9B74F19BC1C1699BE487
:10CE10008647BEEFC69DC10FCCA10C246F2CE92D17
:10CE2000AA84744ADCA9B05CDA88F97652513E983B
:10CE30006DC631A8C82703B0C77F59BFF30BE0C642
:10CE40004791A7D55163CA0667292914850AB727D0
:10CE500038211B2EFC6D2C4D130D385354730A656D
:10CE6000BB0A6A762EC9C281852C7292A1E8BFA244
:10CE70004B661AA8708B4BC2A3516CC719E892D1AC
:10CE8000240699D685350EF470A06A1016C1A4192F
:10CE9000086C371E4C774827B5BCB034B30C1C392E
:10CEA0004AAAD84E4FCA9C5BF36F2E68EE828F74ED
:10CEB0006F63A5781478C8840802C78CFAFFBE9007
:10CEC000EB6C50A4F7A3F9BEF27871C60CCF070043
:10CED000040000203C0000003C82070048CF07000F
:10CEE00000FD0120380000003C82070048CF070009
:10CEF00040000020682D00005882070080CF070006
:10CF000038FD0120D8010000588207000000000011
:10CF10000000000003000000D6BE898E0000000063
:10CF20000000000000000000000000000000000001
:10CF30000000000000000000910700200000000039
:10CF4000000000000090D00300000000000000007E
:10CF500000000000000000000000000000000000D1
:10CF600000000000000000000000000000000000C1
:10CF700001010000000000000000000000000000AF
:020000041000EA
:041014000080070051
:020000041000EA
:04101800007007005D
:04000005000782016D
:00000001FF
