Archive member included to satisfy reference by file (symbol)

c:/nordic/gcc-arm-none-eabi-9-2019-q4-major/bin/../lib/gcc/arm-none-eabi/9.2.1/thumb/v7e-m+fp/hard\libgcc.a(_aeabi_ldivmod.o)
                              mesh/bootloader/CMakeFiles/mesh_bootloader_serial_gccarmemb_nrf52840_xxAA.dir/src/bootloader.c.obj (__aeabi_ldivmod)
c:/nordic/gcc-arm-none-eabi-9-2019-q4-major/bin/../lib/gcc/arm-none-eabi/9.2.1/thumb/v7e-m+fp/hard\libgcc.a(_aeabi_uldivmod.o)
                              mesh/bootloader/CMakeFiles/mesh_bootloader_serial_gccarmemb_nrf52840_xxAA.dir/src/bootloader.c.obj (__aeabi_uldivmod)
c:/nordic/gcc-arm-none-eabi-9-2019-q4-major/bin/../lib/gcc/arm-none-eabi/9.2.1/thumb/v7e-m+fp/hard\libgcc.a(_udivmoddi4.o)
                              c:/nordic/gcc-arm-none-eabi-9-2019-q4-major/bin/../lib/gcc/arm-none-eabi/9.2.1/thumb/v7e-m+fp/hard\libgcc.a(_aeabi_ldivmod.o) (__udivmoddi4)
c:/nordic/gcc-arm-none-eabi-9-2019-q4-major/bin/../lib/gcc/arm-none-eabi/9.2.1/thumb/v7e-m+fp/hard\libgcc.a(_dvmd_tls.o)
                              c:/nordic/gcc-arm-none-eabi-9-2019-q4-major/bin/../lib/gcc/arm-none-eabi/9.2.1/thumb/v7e-m+fp/hard\libgcc.a(_aeabi_ldivmod.o) (__aeabi_ldiv0)
c:/nordic/gcc-arm-none-eabi-9-2019-q4-major/bin/../lib/gcc/arm-none-eabi/9.2.1/../../../../arm-none-eabi/lib/thumb/v7e-m+fp/hard\libg_nano.a(lib_a-exit.o)
                              c:/nordic/gcc-arm-none-eabi-9-2019-q4-major/bin/../lib/gcc/arm-none-eabi/9.2.1/../../../../arm-none-eabi/lib/thumb/v7e-m+fp/hard/crt0.o (exit)
c:/nordic/gcc-arm-none-eabi-9-2019-q4-major/bin/../lib/gcc/arm-none-eabi/9.2.1/../../../../arm-none-eabi/lib/thumb/v7e-m+fp/hard\libg_nano.a(lib_a-impure.o)
                              c:/nordic/gcc-arm-none-eabi-9-2019-q4-major/bin/../lib/gcc/arm-none-eabi/9.2.1/../../../../arm-none-eabi/lib/thumb/v7e-m+fp/hard\libg_nano.a(lib_a-exit.o) (_global_impure_ptr)
c:/nordic/gcc-arm-none-eabi-9-2019-q4-major/bin/../lib/gcc/arm-none-eabi/9.2.1/../../../../arm-none-eabi/lib/thumb/v7e-m+fp/hard\libg_nano.a(lib_a-init.o)
                              c:/nordic/gcc-arm-none-eabi-9-2019-q4-major/bin/../lib/gcc/arm-none-eabi/9.2.1/../../../../arm-none-eabi/lib/thumb/v7e-m+fp/hard/crt0.o (__libc_init_array)
c:/nordic/gcc-arm-none-eabi-9-2019-q4-major/bin/../lib/gcc/arm-none-eabi/9.2.1/../../../../arm-none-eabi/lib/thumb/v7e-m+fp/hard\libg_nano.a(lib_a-memcmp.o)
                              mesh/bootloader/CMakeFiles/mesh_bootloader_serial_gccarmemb_nrf52840_xxAA.dir/src/dfu_bank.c.obj (memcmp)
c:/nordic/gcc-arm-none-eabi-9-2019-q4-major/bin/../lib/gcc/arm-none-eabi/9.2.1/../../../../arm-none-eabi/lib/thumb/v7e-m+fp/hard\libg_nano.a(lib_a-memcpy-stub.o)
                              mesh/bootloader/CMakeFiles/mesh_bootloader_serial_gccarmemb_nrf52840_xxAA.dir/src/bootloader.c.obj (memcpy)
c:/nordic/gcc-arm-none-eabi-9-2019-q4-major/bin/../lib/gcc/arm-none-eabi/9.2.1/../../../../arm-none-eabi/lib/thumb/v7e-m+fp/hard\libg_nano.a(lib_a-memset.o)
                              c:/nordic/gcc-arm-none-eabi-9-2019-q4-major/bin/../lib/gcc/arm-none-eabi/9.2.1/../../../../arm-none-eabi/lib/thumb/v7e-m+fp/hard/crt0.o (memset)
c:/nordic/gcc-arm-none-eabi-9-2019-q4-major/bin/../lib/gcc/arm-none-eabi/9.2.1/../../../../arm-none-eabi/lib/thumb/v7e-m+fp/hard\libnosys.a(_exit.o)
                              c:/nordic/gcc-arm-none-eabi-9-2019-q4-major/bin/../lib/gcc/arm-none-eabi/9.2.1/../../../../arm-none-eabi/lib/thumb/v7e-m+fp/hard\libg_nano.a(lib_a-exit.o) (_exit)

Allocating common symbols
Common symbol       size              file

m_tx_evt_bitfield   0x2               mesh/bootloader/CMakeFiles/mesh_bootloader_serial_gccarmemb_nrf52840_xxAA.dir/src/transport.c.obj

Discarded input sections

 .text          0x00000000        0x0 c:/nordic/gcc-arm-none-eabi-9-2019-q4-major/bin/../lib/gcc/arm-none-eabi/9.2.1/thumb/v7e-m+fp/hard/crti.o
 .data          0x00000000        0x0 c:/nordic/gcc-arm-none-eabi-9-2019-q4-major/bin/../lib/gcc/arm-none-eabi/9.2.1/thumb/v7e-m+fp/hard/crti.o
 .bss           0x00000000        0x0 c:/nordic/gcc-arm-none-eabi-9-2019-q4-major/bin/../lib/gcc/arm-none-eabi/9.2.1/thumb/v7e-m+fp/hard/crti.o
 .data          0x00000000        0x4 c:/nordic/gcc-arm-none-eabi-9-2019-q4-major/bin/../lib/gcc/arm-none-eabi/9.2.1/thumb/v7e-m+fp/hard/crtbegin.o
 .data          0x00000000        0x0 c:/nordic/gcc-arm-none-eabi-9-2019-q4-major/bin/../lib/gcc/arm-none-eabi/9.2.1/../../../../arm-none-eabi/lib/thumb/v7e-m+fp/hard/crt0.o
 .bss           0x00000000        0x0 c:/nordic/gcc-arm-none-eabi-9-2019-q4-major/bin/../lib/gcc/arm-none-eabi/9.2.1/../../../../arm-none-eabi/lib/thumb/v7e-m+fp/hard/crt0.o
 .ARM.extab     0x00000000        0x0 c:/nordic/gcc-arm-none-eabi-9-2019-q4-major/bin/../lib/gcc/arm-none-eabi/9.2.1/../../../../arm-none-eabi/lib/thumb/v7e-m+fp/hard/crt0.o
 .text          0x00000000        0x0 mesh/bootloader/CMakeFiles/mesh_bootloader_serial_gccarmemb_nrf52840_xxAA.dir/src/bootloader.c.obj
 .data          0x00000000        0x0 mesh/bootloader/CMakeFiles/mesh_bootloader_serial_gccarmemb_nrf52840_xxAA.dir/src/bootloader.c.obj
 .bss           0x00000000        0x0 mesh/bootloader/CMakeFiles/mesh_bootloader_serial_gccarmemb_nrf52840_xxAA.dir/src/bootloader.c.obj
 .text          0x00000000        0x0 mesh/bootloader/CMakeFiles/mesh_bootloader_serial_gccarmemb_nrf52840_xxAA.dir/src/bootloader_app_bridge.c.obj
 .data          0x00000000        0x0 mesh/bootloader/CMakeFiles/mesh_bootloader_serial_gccarmemb_nrf52840_xxAA.dir/src/bootloader_app_bridge.c.obj
 .bss           0x00000000        0x0 mesh/bootloader/CMakeFiles/mesh_bootloader_serial_gccarmemb_nrf52840_xxAA.dir/src/bootloader_app_bridge.c.obj
 .text.bootloader_error_post
                0x00000000       0x1a mesh/bootloader/CMakeFiles/mesh_bootloader_serial_gccarmemb_nrf52840_xxAA.dir/src/bootloader_app_bridge.c.obj
 .text          0x00000000        0x0 mesh/bootloader/CMakeFiles/mesh_bootloader_serial_gccarmemb_nrf52840_xxAA.dir/src/bootloader_info.c.obj
 .data          0x00000000        0x0 mesh/bootloader/CMakeFiles/mesh_bootloader_serial_gccarmemb_nrf52840_xxAA.dir/src/bootloader_info.c.obj
 .bss           0x00000000        0x0 mesh/bootloader/CMakeFiles/mesh_bootloader_serial_gccarmemb_nrf52840_xxAA.dir/src/bootloader_info.c.obj
Memory Configuration

Name             Origin             Length             Attributes
FLASH            0x000f8000         0x00006000         xr
RAM              0x20000004         0x0003fcfc         rw
CORE_BL_RAM      0x2003fd00         0x00000300         rw
UICR_BOOTADDR    0x10001014         0x00000004         r
UICR_MBRPARAMADDR 0x10001018         0x00000004         r
*default*        0x00000000         0xffffffff

Linker script and memory map

LOAD c:/nordic/gcc-arm-none-eabi-9-2019-q4-major/bin/../lib/gcc/arm-none-eabi/9.2.1/thumb/v7e-m+fp/hard/crti.o
LOAD c:/nordic/gcc-arm-none-eabi-9-2019-q4-major/bin/../lib/gcc/arm-none-eabi/9.2.1/thumb/v7e-m+fp/hard/crtbegin.o
LOAD c:/nordic/gcc-arm-none-eabi-9-2019-q4-major/bin/../lib/gcc/arm-none-eabi/9.2.1/../../../../arm-none-eabi/lib/thumb/v7e-m+fp/hard/crt0.o
LOAD mesh/bootloader/CMakeFiles/mesh_bootloader_serial_gccarmemb_nrf52840_xxAA.dir/src/bootloader.c.obj
LOAD mesh/bootloader/CMakeFiles/mesh_bootloader_serial_gccarmemb_nrf52840_xxAA.dir/src/bootloader_app_bridge.c.obj
LOAD mesh/bootloader/CMakeFiles/mesh_bootloader_serial_gccarmemb_nrf52840_xxAA.dir/src/bootloader_info.c.obj
LOAD mesh/bootloader/CMakeFiles/mesh_bootloader_serial_gccarmemb_nrf52840_xxAA.dir/src/bootloader_rtc.c.obj
LOAD mesh/bootloader/CMakeFiles/mesh_bootloader_serial_gccarmemb_nrf52840_xxAA.dir/src/bootloader_util.c.obj
LOAD mesh/bootloader/CMakeFiles/mesh_bootloader_serial_gccarmemb_nrf52840_xxAA.dir/src/dfu_bank.c.obj
LOAD mesh/bootloader/CMakeFiles/mesh_bootloader_serial_gccarmemb_nrf52840_xxAA.dir/src/dfu_mesh.c.obj
LOAD mesh/bootloader/CMakeFiles/mesh_bootloader_serial_gccarmemb_nrf52840_xxAA.dir/src/dfu_transfer_mesh.c.obj
LOAD mesh/bootloader/CMakeFiles/mesh_bootloader_serial_gccarmemb_nrf52840_xxAA.dir/src/dfu_util.c.obj
LOAD mesh/bootloader/CMakeFiles/mesh_bootloader_serial_gccarmemb_nrf52840_xxAA.dir/src/fifo.c.obj
LOAD mesh/bootloader/CMakeFiles/mesh_bootloader_serial_gccarmemb_nrf52840_xxAA.dir/src/main.c.obj
LOAD mesh/bootloader/CMakeFiles/mesh_bootloader_serial_gccarmemb_nrf52840_xxAA.dir/src/mesh_packet.c.obj
LOAD mesh/bootloader/CMakeFiles/mesh_bootloader_serial_gccarmemb_nrf52840_xxAA.dir/src/nrf_flash.c.obj
LOAD mesh/bootloader/CMakeFiles/mesh_bootloader_serial_gccarmemb_nrf52840_xxAA.dir/src/radio_control.c.obj
LOAD mesh/bootloader/CMakeFiles/mesh_bootloader_serial_gccarmemb_nrf52840_xxAA.dir/src/rand.c.obj
LOAD mesh/bootloader/CMakeFiles/mesh_bootloader_serial_gccarmemb_nrf52840_xxAA.dir/src/transport.c.obj
LOAD mesh/bootloader/CMakeFiles/mesh_bootloader_serial_gccarmemb_nrf52840_xxAA.dir/src/uECC.c.obj
LOAD mesh/bootloader/CMakeFiles/mesh_bootloader_serial_gccarmemb_nrf52840_xxAA.dir/C_/nordic/nRF5_SDK/nRF5_SDK_17.0.2_d674dde/components/libraries/sha256/sha256.c.obj
LOAD mesh/bootloader/CMakeFiles/mesh_bootloader_serial_gccarmemb_nrf52840_xxAA.dir/src/serial_handler_uart.c.obj
LOAD mesh/bootloader/CMakeFiles/mesh_bootloader_serial_gccarmemb_nrf52840_xxAA.dir/src/mesh_aci.c.obj
LOAD mesh/bootloader/CMakeFiles/mesh_bootloader_serial_gccarmemb_nrf52840_xxAA.dir/C_/nordic/nRF5_SDK/nRF5_SDK_17.0.2_d674dde/modules/nrfx/mdk/system_nrf52840.c.obj
LOAD mesh/bootloader/CMakeFiles/mesh_bootloader_serial_gccarmemb_nrf52840_xxAA.dir/C_/nordic/nRF5_SDK/nRF5_SDK_17.0.2_d674dde/modules/nrfx/mdk/gcc_startup_nrf52840.S.obj
LOAD external/rtt/librtt_nrf52840_xxAA.a
START GROUP
LOAD c:/nordic/gcc-arm-none-eabi-9-2019-q4-major/bin/../lib/gcc/arm-none-eabi/9.2.1/thumb/v7e-m+fp/hard\libgcc.a
LOAD c:/nordic/gcc-arm-none-eabi-9-2019-q4-major/bin/../lib/gcc/arm-none-eabi/9.2.1/../../../../arm-none-eabi/lib/thumb/v7e-m+fp/hard\libg_nano.a
LOAD c:/nordic/gcc-arm-none-eabi-9-2019-q4-major/bin/../lib/gcc/arm-none-eabi/9.2.1/../../../../arm-none-eabi/lib/thumb/v7e-m+fp/hard\libc_nano.a
END GROUP
START GROUP
LOAD c:/nordic/gcc-arm-none-eabi-9-2019-q4-major/bin/../lib/gcc/arm-none-eabi/9.2.1/thumb/v7e-m+fp/hard\libgcc.a
LOAD c:/nordic/gcc-arm-none-eabi-9-2019-q4-major/bin/../lib/gcc/arm-none-eabi/9.2.1/../../../../arm-none-eabi/lib/thumb/v7e-m+fp/hard\libc_nano.a
END GROUP
LOAD c:/nordic/gcc-arm-none-eabi-9-2019-q4-major/bin/../lib/gcc/arm-none-eabi/9.2.1/thumb/v7e-m+fp/hard/crtend.o
LOAD c:/nordic/gcc-arm-none-eabi-9-2019-q4-major/bin/../lib/gcc/arm-none-eabi/9.2.1/thumb/v7e-m+fp/hard/crtn.o
START GROUP
LOAD c:/nordic/gcc-arm-none-eabi-9-2019-q4-major/bin/../lib/gcc/arm-none-eabi/9.2.1/thumb/v7e-m+fp/hard\libgcc.a
LOAD c:/nordic/gcc-arm-none-eabi-9-2019-q4-major/bin/../lib/gcc/arm-none-eabi/9.2.1/../../../../arm-none-eabi/lib/thumb/v7e-m+fp/hard\libc.a
LOAD c:/nordic/gcc-arm-none-eabi-9-2019-q4-major/bin/../lib/gcc/arm-none-eabi/9.2.1/../../../../arm-none-eabi/lib/thumb/v7e-m+fp/hard\libnosys.a
END GROUP

.core_data      0x2003fd00        0x4
                0x2003fd08                __core_ram_start__ = .
                0x2003fd00                . = ALIGN (0x4)
 *sha256.c.obj(.data*)
 *bootloader_app_bridge.c.obj(.data*)
 *bootloader_info.c.obj(.data*)
 *uECC.c.obj(.data*)
 *dfu_mesh.c.obj(.data*)
 .data.m_state  0x2003fd00        0x1 mesh/bootloader/CMakeFiles/mesh_bootloader_serial_gccarmemb_nrf52840_xxAA.dir/src/dfu_mesh.c.obj
 .data.tx_slot.11886
                0x2003fd01        0x1 mesh/bootloader/CMakeFiles/mesh_bootloader_serial_gccarmemb_nrf52840_xxAA.dir/src/dfu_mesh.c.obj
 *dfu_transfer_mesh.c.obj(.data*)
 *dfu_bank.c.obj(.data*)
 *dfu_util.c.obj(.data*)
                0x2003fd04                . = ALIGN (0x4)
 *fill*         0x2003fd02        0x2 
                0x2003ff20                __core_ram_end__ = .

.core_bss       0x2003fd08      0x218
                0x2003fd08                __core_ram_start__ = .
                0x2003fd08                . = ALIGN (0x4)
 *sha256.c.obj(.bss*)
 *bootloader_app_bridge.c.obj(.bss*)
 .bss.m_evt_handler
                0x2003fd08        0x4 mesh/bootloader/CMakeFiles/mesh_bootloader_serial_gccarmemb_nrf52840_xxAA.dir/src/bootloader_app_bridge.c.obj
 .bss.m_in_bl   0x2003fd0c        0x1 mesh/bootloader/CMakeFiles/mesh_bootloader_serial_gccarmemb_nrf52840_xxAA.dir/src/bootloader_app_bridge.c.obj
 *bootloader_info.c.obj(.bss*)
 *fill*         0x2003fd0d        0x3 
 .bss.m_info_copy
                0x2003fd10       0x1c mesh/bootloader/CMakeFiles/mesh_bootloader_serial_gccarmemb_nrf52840_xxAA.dir/src/bootloader_info.c.obj
 .bss.m_state   0x2003fd2c        0x1 mesh/bootloader/CMakeFiles/mesh_bootloader_serial_gccarmemb_nrf52840_xxAA.dir/src/bootloader_info.c.obj
 .bss.m_write_in_progress
                0x2003fd2d        0x1 mesh/bootloader/CMakeFiles/mesh_bootloader_serial_gccarmemb_nrf52840_xxAA.dir/src/bootloader_info.c.obj
 *fill*         0x2003fd2e        0x2 
 .bss.mp_bl_info_bank_page
                0x2003fd30        0x4 mesh/bootloader/CMakeFiles/mesh_bootloader_serial_gccarmemb_nrf52840_xxAA.dir/src/bootloader_info.c.obj
 .bss.mp_bl_info_page
                0x2003fd34        0x4 mesh/bootloader/CMakeFiles/mesh_bootloader_serial_gccarmemb_nrf52840_xxAA.dir/src/bootloader_info.c.obj
 .bss.mp_info_entry_buffer
                0x2003fd38       0x80 mesh/bootloader/CMakeFiles/mesh_bootloader_serial_gccarmemb_nrf52840_xxAA.dir/src/bootloader_info.c.obj
 .bss.mp_info_entry_head
                0x2003fdb8        0x4 mesh/bootloader/CMakeFiles/mesh_bootloader_serial_gccarmemb_nrf52840_xxAA.dir/src/bootloader_info.c.obj
 .bss.mp_info_entry_tail
                0x2003fdbc        0x4 mesh/bootloader/CMakeFiles/mesh_bootloader_serial_gccarmemb_nrf52840_xxAA.dir/src/bootloader_info.c.obj
 .bss.mp_write_pos
                0x2003fdc0        0x4 mesh/bootloader/CMakeFiles/mesh_bootloader_serial_gccarmemb_nrf52840_xxAA.dir/src/bootloader_info.c.obj
 *uECC.c.obj(.bss*)
 *dfu_mesh.c.obj(.bss*)
 .bss.m_bl_info_pointers
                0x2003fdc4       0x28 mesh/bootloader/CMakeFiles/mesh_bootloader_serial_gccarmemb_nrf52840_xxAA.dir/src/dfu_mesh.c.obj
 .bss.m_data_req_segment
                0x2003fdec        0x2 mesh/bootloader/CMakeFiles/mesh_bootloader_serial_gccarmemb_nrf52840_xxAA.dir/src/dfu_mesh.c.obj
 .bss.m_lost_start_edge
                0x2003fdee        0x1 mesh/bootloader/CMakeFiles/mesh_bootloader_serial_gccarmemb_nrf52840_xxAA.dir/src/dfu_mesh.c.obj
 *fill*         0x2003fdef        0x1 
 .bss.m_req_cache
                0x2003fdf0       0x10 mesh/bootloader/CMakeFiles/mesh_bootloader_serial_gccarmemb_nrf52840_xxAA.dir/src/dfu_mesh.c.obj
 .bss.m_req_index
                0x2003fe00        0x1 mesh/bootloader/CMakeFiles/mesh_bootloader_serial_gccarmemb_nrf52840_xxAA.dir/src/dfu_mesh.c.obj
 *fill*         0x2003fe01        0x3 
 .bss.m_transaction
                0x2003fe04       0x74 mesh/bootloader/CMakeFiles/mesh_bootloader_serial_gccarmemb_nrf52840_xxAA.dir/src/dfu_mesh.c.obj
 .bss.m_tx_slots
                0x2003fe78        0x1 mesh/bootloader/CMakeFiles/mesh_bootloader_serial_gccarmemb_nrf52840_xxAA.dir/src/dfu_mesh.c.obj
 *dfu_transfer_mesh.c.obj(.bss*)
 *fill*         0x2003fe79        0x7 
 .bss.m_transfer
                0x2003fe80       0x30 mesh/bootloader/CMakeFiles/mesh_bootloader_serial_gccarmemb_nrf52840_xxAA.dir/src/dfu_transfer_mesh.c.obj
 *dfu_bank.c.obj(.bss*)
 .bss.m_dfu_type
                0x2003feb0        0x1 mesh/bootloader/CMakeFiles/mesh_bootloader_serial_gccarmemb_nrf52840_xxAA.dir/src/dfu_bank.c.obj
 .bss.m_waiting_for_idle
                0x2003feb1        0x1 mesh/bootloader/CMakeFiles/mesh_bootloader_serial_gccarmemb_nrf52840_xxAA.dir/src/dfu_bank.c.obj
 *fill*         0x2003feb2        0x2 
 .bss.mp_bank_entry
                0x2003feb4        0x4 mesh/bootloader/CMakeFiles/mesh_bootloader_serial_gccarmemb_nrf52840_xxAA.dir/src/dfu_bank.c.obj
 *dfu_util.c.obj(.bss*)
 .bss.m_packet_cache
                0x2003feb8       0x40 mesh/bootloader/CMakeFiles/mesh_bootloader_serial_gccarmemb_nrf52840_xxAA.dir/src/dfu_util.c.obj
 .bss.m_packet_cache_index
                0x2003fef8        0x4 mesh/bootloader/CMakeFiles/mesh_bootloader_serial_gccarmemb_nrf52840_xxAA.dir/src/dfu_util.c.obj
 .bss.m_tid_cache
                0x2003fefc       0x20 mesh/bootloader/CMakeFiles/mesh_bootloader_serial_gccarmemb_nrf52840_xxAA.dir/src/dfu_util.c.obj
 .bss.m_tid_index
                0x2003ff1c        0x1 mesh/bootloader/CMakeFiles/mesh_bootloader_serial_gccarmemb_nrf52840_xxAA.dir/src/dfu_util.c.obj
                0x2003ff20                . = ALIGN (0x4)
 *fill*         0x2003ff1d        0x3 
                0x2003ff20                __core_ram_end__ = .

.uicrBootStartAddress
                0x10001014        0x4
 *(.uicrBootStartAddress)
 .uicrBootStartAddress
                0x10001014        0x4 mesh/bootloader/CMakeFiles/mesh_bootloader_serial_gccarmemb_nrf52840_xxAA.dir/src/main.c.obj
                0x10001014                m_uicr_bootloader_start_address

.uicrBootMBRParamAddress
                0x10001018        0x4
 *(.uicrBootMBRParamAddress)
 .uicrBootMBRParamAddress
                0x10001018        0x4 mesh/bootloader/CMakeFiles/mesh_bootloader_serial_gccarmemb_nrf52840_xxAA.dir/src/main.c.obj
                0x10001018                m_uicr_bootloader_mbrparam_address

.text           0x000f8000     0x5114
 *(.isr_vector)
 .isr_vector    0x000f8000      0x200 mesh/bootloader/CMakeFiles/mesh_bootloader_serial_gccarmemb_nrf52840_xxAA.dir/C_/nordic/nRF5_SDK/nRF5_SDK_17.0.2_d674dde/modules/nrfx/mdk/gcc_startup_nrf52840.S.obj
                0x000f8000                __isr_vector
 *(.text*)
 .text          0x000f8200       0x40 c:/nordic/gcc-arm-none-eabi-9-2019-q4-major/bin/../lib/gcc/arm-none-eabi/9.2.1/thumb/v7e-m+fp/hard/crtbegin.o
 .text          0x000f8240       0x74 c:/nordic/gcc-arm-none-eabi-9-2019-q4-major/bin/../lib/gcc/arm-none-eabi/9.2.1/../../../../arm-none-eabi/lib/thumb/v7e-m+fp/hard/crt0.o
                0x000f8240                _start
                0x000f8240                _mainCRTStartup
 .text.sd_softdevice_vector_table_base_set
                0x000f82b4        0x4 mesh/bootloader/CMakeFiles/mesh_bootloader_serial_gccarmemb_nrf52840_xxAA.dir/src/bootloader.c.obj
 .text.sd_mbr_command
                0x000f82b8        0x4 mesh/bootloader/CMakeFiles/mesh_bootloader_serial_gccarmemb_nrf52840_xxAA.dir/src/bootloader.c.obj
 .text.set_timeout
                0x000f82bc       0x2c mesh/bootloader/CMakeFiles/mesh_bootloader_serial_gccarmemb_nrf52840_xxAA.dir/src/bootloader.c.obj
 .text.rx_cb    0x000f82e8       0x2e mesh/bootloader/CMakeFiles/mesh_bootloader_serial_gccarmemb_nrf52840_xxAA.dir/src/bootloader.c.obj
 .text.SWI2_EGU2_IRQHandler
                0x000f8316        0x4 mesh/bootloader/CMakeFiles/mesh_bootloader_serial_gccarmemb_nrf52840_xxAA.dir/src/bootloader.c.obj
                0x000f8316                SWI2_EGU2_IRQHandler
 *fill*         0x000f831a        0x2 
 .text.SWI3_EGU3_IRQHandler
                0x000f831c       0xdc mesh/bootloader/CMakeFiles/mesh_bootloader_serial_gccarmemb_nrf52840_xxAA.dir/src/bootloader.c.obj
                0x000f831c                SWI3_EGU3_IRQHandler
 .text.bootloader_init
                0x000f83f8       0xa8 mesh/bootloader/CMakeFiles/mesh_bootloader_serial_gccarmemb_nrf52840_xxAA.dir/src/bootloader.c.obj
                0x000f83f8                bootloader_init
 .text.bootloader_enable
                0x000f84a0       0xe2 mesh/bootloader/CMakeFiles/mesh_bootloader_serial_gccarmemb_nrf52840_xxAA.dir/src/bootloader.c.obj
                0x000f84a0                bootloader_enable
 .text.bootloader_cmd_send
                0x000f8582        0x4 mesh/bootloader/CMakeFiles/mesh_bootloader_serial_gccarmemb_nrf52840_xxAA.dir/src/bootloader.c.obj
                0x000f8582                bootloader_cmd_send
 *fill*         0x000f8586        0x2 
 .text.bootloader_abort
                0x000f8588       0x88 mesh/bootloader/CMakeFiles/mesh_bootloader_serial_gccarmemb_nrf52840_xxAA.dir/src/bootloader.c.obj
                0x000f8588                bootloader_abort
 .text.bl_evt_handler
                0x000f8610      0x258 mesh/bootloader/CMakeFiles/mesh_bootloader_serial_gccarmemb_nrf52840_xxAA.dir/src/bootloader.c.obj
 .text.bootloader_timeout
                0x000f8868       0x4c mesh/bootloader/CMakeFiles/mesh_bootloader_serial_gccarmemb_nrf52840_xxAA.dir/src/bootloader.c.obj
                0x000f8868                bootloader_timeout
 .text.bl_cmd_handler
                0x000f88b4      0x188 mesh/bootloader/CMakeFiles/mesh_bootloader_serial_gccarmemb_nrf52840_xxAA.dir/src/bootloader_app_bridge.c.obj
                0x000f88b4                bl_cmd_handler
 .text.bootloader_app_bridge_init
                0x000f8a3c       0x28 mesh/bootloader/CMakeFiles/mesh_bootloader_serial_gccarmemb_nrf52840_xxAA.dir/src/bootloader_app_bridge.c.obj
                0x000f8a3c                bootloader_app_bridge_init
 .text.bootloader_evt_send
                0x000f8a64       0x10 mesh/bootloader/CMakeFiles/mesh_bootloader_serial_gccarmemb_nrf52840_xxAA.dir/src/bootloader_app_bridge.c.obj
                0x000f8a64                bootloader_evt_send
 .text.send_end_evt
                0x000f8a74       0x1a mesh/bootloader/CMakeFiles/mesh_bootloader_serial_gccarmemb_nrf52840_xxAA.dir/src/bootloader_app_bridge.c.obj
                0x000f8a74                send_end_evt
 .text.flash_write
                0x000f8a8e       0x2a mesh/bootloader/CMakeFiles/mesh_bootloader_serial_gccarmemb_nrf52840_xxAA.dir/src/bootloader_app_bridge.c.obj
                0x000f8a8e                flash_write
 .text.flash_erase
                0x000f8ab8       0x26 mesh/bootloader/CMakeFiles/mesh_bootloader_serial_gccarmemb_nrf52840_xxAA.dir/src/bootloader_app_bridge.c.obj
                0x000f8ab8                flash_erase
 .text.tx_abort
                0x000f8ade       0x1a mesh/bootloader/CMakeFiles/mesh_bootloader_serial_gccarmemb_nrf52840_xxAA.dir/src/bootloader_app_bridge.c.obj
                0x000f8ade                tx_abort
 .text.bootloader_is_in_application
                0x000f8af8       0x10 mesh/bootloader/CMakeFiles/mesh_bootloader_serial_gccarmemb_nrf52840_xxAA.dir/src/bootloader_app_bridge.c.obj
                0x000f8af8                bootloader_is_in_application
 .text.info_entry_get
                0x000f8b08       0x40 mesh/bootloader/CMakeFiles/mesh_bootloader_serial_gccarmemb_nrf52840_xxAA.dir/src/bootloader_info.c.obj
 .text.bootloader_info_header_get
                0x000f8b48       0x1c mesh/bootloader/CMakeFiles/mesh_bootloader_serial_gccarmemb_nrf52840_xxAA.dir/src/bootloader_info.c.obj
 .text.bootloader_info_first_unused_get
                0x000f8b64       0x16 mesh/bootloader/CMakeFiles/mesh_bootloader_serial_gccarmemb_nrf52840_xxAA.dir/src/bootloader_info.c.obj
 *fill*         0x000f8b7a        0x2 
 .text.entry_header_invalidate
                0x000f8b7c       0x20 mesh/bootloader/CMakeFiles/mesh_bootloader_serial_gccarmemb_nrf52840_xxAA.dir/src/bootloader_info.c.obj
 .text.copy_page_write_meta
                0x000f8b9c       0x20 mesh/bootloader/CMakeFiles/mesh_bootloader_serial_gccarmemb_nrf52840_xxAA.dir/src/bootloader_info.c.obj
 .text.copy_page_write_next_data
                0x000f8bbc       0x74 mesh/bootloader/CMakeFiles/mesh_bootloader_serial_gccarmemb_nrf52840_xxAA.dir/src/bootloader_info.c.obj
 .text.copy_page
                0x000f8c30       0x34 mesh/bootloader/CMakeFiles/mesh_bootloader_serial_gccarmemb_nrf52840_xxAA.dir/src/bootloader_info.c.obj
 .text.place_head_after_entry.constprop.0
                0x000f8c64       0x40 mesh/bootloader/CMakeFiles/mesh_bootloader_serial_gccarmemb_nrf52840_xxAA.dir/src/bootloader_info.c.obj
 .text.entry_invalidate
                0x000f8ca4       0x38 mesh/bootloader/CMakeFiles/mesh_bootloader_serial_gccarmemb_nrf52840_xxAA.dir/src/bootloader_info.c.obj
                0x000f8ca4                entry_invalidate
 .text.entry_write
                0x000f8cdc      0x110 mesh/bootloader/CMakeFiles/mesh_bootloader_serial_gccarmemb_nrf52840_xxAA.dir/src/bootloader_info.c.obj
                0x000f8cdc                entry_write
 .text.bootloader_info_init
                0x000f8dec       0xc0 mesh/bootloader/CMakeFiles/mesh_bootloader_serial_gccarmemb_nrf52840_xxAA.dir/src/bootloader_info.c.obj
                0x000f8dec                bootloader_info_init
 .text.bootloader_info_entry_get
                0x000f8eac        0xa mesh/bootloader/CMakeFiles/mesh_bootloader_serial_gccarmemb_nrf52840_xxAA.dir/src/bootloader_info.c.obj
                0x000f8eac                bootloader_info_entry_get
 .text.bootloader_info_entry_overwrite
                0x000f8eb6       0x2a mesh/bootloader/CMakeFiles/mesh_bootloader_serial_gccarmemb_nrf52840_xxAA.dir/src/bootloader_info.c.obj
                0x000f8eb6                bootloader_info_entry_overwrite
 .text.bootloader_info_entry_invalidate
                0x000f8ee0        0xa mesh/bootloader/CMakeFiles/mesh_bootloader_serial_gccarmemb_nrf52840_xxAA.dir/src/bootloader_info.c.obj
                0x000f8ee0                bootloader_info_entry_invalidate
 *fill*         0x000f8eea        0x2 
 .text.bootloader_info_reset
                0x000f8eec       0x40 mesh/bootloader/CMakeFiles/mesh_bootloader_serial_gccarmemb_nrf52840_xxAA.dir/src/bootloader_info.c.obj
                0x000f8eec                bootloader_info_reset
 .text.bootloader_info_entry_put
                0x000f8f2c       0xd4 mesh/bootloader/CMakeFiles/mesh_bootloader_serial_gccarmemb_nrf52840_xxAA.dir/src/bootloader_info.c.obj
                0x000f8f2c                bootloader_info_entry_put
 .text.bootloader_info_stable
                0x000f9000       0x20 mesh/bootloader/CMakeFiles/mesh_bootloader_serial_gccarmemb_nrf52840_xxAA.dir/src/bootloader_info.c.obj
                0x000f9000                bootloader_info_stable
 .text.bootloader_info_on_flash_op_end
                0x000f9020      0x118 mesh/bootloader/CMakeFiles/mesh_bootloader_serial_gccarmemb_nrf52840_xxAA.dir/src/bootloader_info.c.obj
                0x000f9020                bootloader_info_on_flash_op_end
 .text.bootloader_info_on_flash_idle
                0x000f9138       0x40 mesh/bootloader/CMakeFiles/mesh_bootloader_serial_gccarmemb_nrf52840_xxAA.dir/src/bootloader_info.c.obj
                0x000f9138                bootloader_info_on_flash_idle
 .text.RTC0_IRQHandler
                0x000f9178       0x48 mesh/bootloader/CMakeFiles/mesh_bootloader_serial_gccarmemb_nrf52840_xxAA.dir/src/bootloader_rtc.c.obj
                0x000f9178                RTC0_IRQHandler
 .text.rtc_init
                0x000f91c0       0x30 mesh/bootloader/CMakeFiles/mesh_bootloader_serial_gccarmemb_nrf52840_xxAA.dir/src/bootloader_rtc.c.obj
                0x000f91c0                rtc_init
 .text.bootloader_util_app_start
                0x000f91f0       0x3c mesh/bootloader/CMakeFiles/mesh_bootloader_serial_gccarmemb_nrf52840_xxAA.dir/src/bootloader_util.c.obj
                0x000f91f0                bootloader_util_app_start
 .text.sd_mbr_command
                0x000f922c        0x4 mesh/bootloader/CMakeFiles/mesh_bootloader_serial_gccarmemb_nrf52840_xxAA.dir/src/dfu_bank.c.obj
 .text.flash_bank_entry
                0x000f9230      0x2b4 mesh/bootloader/CMakeFiles/mesh_bootloader_serial_gccarmemb_nrf52840_xxAA.dir/src/dfu_bank.c.obj
 .text.dfu_bank_scan
                0x000f94e4       0x4c mesh/bootloader/CMakeFiles/mesh_bootloader_serial_gccarmemb_nrf52840_xxAA.dir/src/dfu_bank.c.obj
                0x000f94e4                dfu_bank_scan
 .text.dfu_bank_flash
                0x000f9530       0x48 mesh/bootloader/CMakeFiles/mesh_bootloader_serial_gccarmemb_nrf52840_xxAA.dir/src/dfu_bank.c.obj
                0x000f9530                dfu_bank_flash
 .text.dfu_bank_on_flash_idle
                0x000f9578       0x20 mesh/bootloader/CMakeFiles/mesh_bootloader_serial_gccarmemb_nrf52840_xxAA.dir/src/dfu_bank.c.obj
                0x000f9578                dfu_bank_on_flash_idle
 .text.dfu_bank_transfer_in_progress
                0x000f9598       0x10 mesh/bootloader/CMakeFiles/mesh_bootloader_serial_gccarmemb_nrf52840_xxAA.dir/src/dfu_bank.c.obj
                0x000f9598                dfu_bank_transfer_in_progress
 .text.segment_count_from_start_packet
                0x000f95a8       0x2c mesh/bootloader/CMakeFiles/mesh_bootloader_serial_gccarmemb_nrf52840_xxAA.dir/src/dfu_mesh.c.obj
 .text.get_info_pointers
                0x000f95d4       0x6c mesh/bootloader/CMakeFiles/mesh_bootloader_serial_gccarmemb_nrf52840_xxAA.dir/src/dfu_mesh.c.obj
 .text.beacon_set
                0x000f9640      0x11c mesh/bootloader/CMakeFiles/mesh_bootloader_serial_gccarmemb_nrf52840_xxAA.dir/src/dfu_mesh.c.obj
 .text.start_find_fwid
                0x000f975c       0x24 mesh/bootloader/CMakeFiles/mesh_bootloader_serial_gccarmemb_nrf52840_xxAA.dir/src/dfu_mesh.c.obj
 .text.notify_state_packet
                0x000f9780       0x3c mesh/bootloader/CMakeFiles/mesh_bootloader_serial_gccarmemb_nrf52840_xxAA.dir/src/dfu_mesh.c.obj
 .text.packet_tx_dynamic.constprop.0
                0x000f97bc       0x4c mesh/bootloader/CMakeFiles/mesh_bootloader_serial_gccarmemb_nrf52840_xxAA.dir/src/dfu_mesh.c.obj
 .text.relay_packet
                0x000f9808       0x30 mesh/bootloader/CMakeFiles/mesh_bootloader_serial_gccarmemb_nrf52840_xxAA.dir/src/dfu_mesh.c.obj
 .text.start_req
                0x000f9838       0x58 mesh/bootloader/CMakeFiles/mesh_bootloader_serial_gccarmemb_nrf52840_xxAA.dir/src/dfu_mesh.c.obj
 .text.handle_data_packet
                0x000f9890      0x55c mesh/bootloader/CMakeFiles/mesh_bootloader_serial_gccarmemb_nrf52840_xxAA.dir/src/dfu_mesh.c.obj
 .text.dfu_mesh_init
                0x000f9dec       0x44 mesh/bootloader/CMakeFiles/mesh_bootloader_serial_gccarmemb_nrf52840_xxAA.dir/src/dfu_mesh.c.obj
                0x000f9dec                dfu_mesh_init
 .text.dfu_mesh_start
                0x000f9e30       0xe0 mesh/bootloader/CMakeFiles/mesh_bootloader_serial_gccarmemb_nrf52840_xxAA.dir/src/dfu_mesh.c.obj
                0x000f9e30                dfu_mesh_start
 .text.dfu_mesh_req
                0x000f9f10       0x34 mesh/bootloader/CMakeFiles/mesh_bootloader_serial_gccarmemb_nrf52840_xxAA.dir/src/dfu_mesh.c.obj
                0x000f9f10                dfu_mesh_req
 .text.dfu_mesh_relay
                0x000f9f44       0x4c mesh/bootloader/CMakeFiles/mesh_bootloader_serial_gccarmemb_nrf52840_xxAA.dir/src/dfu_mesh.c.obj
                0x000f9f44                dfu_mesh_relay
 .text.dfu_mesh_rx
                0x000f9f90      0x300 mesh/bootloader/CMakeFiles/mesh_bootloader_serial_gccarmemb_nrf52840_xxAA.dir/src/dfu_mesh.c.obj
                0x000f9f90                dfu_mesh_rx
 .text.dfu_mesh_missing_type_get
                0x000fa290       0x5e mesh/bootloader/CMakeFiles/mesh_bootloader_serial_gccarmemb_nrf52840_xxAA.dir/src/dfu_mesh.c.obj
                0x000fa290                dfu_mesh_missing_type_get
 .text.dfu_mesh_app_is_valid
                0x000fa2ee       0x34 mesh/bootloader/CMakeFiles/mesh_bootloader_serial_gccarmemb_nrf52840_xxAA.dir/src/dfu_mesh.c.obj
                0x000fa2ee                dfu_mesh_app_is_valid
 *fill*         0x000fa322        0x2 
 .text.dfu_mesh_finalize
                0x000fa324      0x14c mesh/bootloader/CMakeFiles/mesh_bootloader_serial_gccarmemb_nrf52840_xxAA.dir/src/dfu_mesh.c.obj
                0x000fa324                dfu_mesh_finalize
 .text.dfu_mesh_timeout
                0x000fa470       0xd8 mesh/bootloader/CMakeFiles/mesh_bootloader_serial_gccarmemb_nrf52840_xxAA.dir/src/dfu_mesh.c.obj
                0x000fa470                dfu_mesh_timeout
 .text.dfu_mesh_restart
                0x000fa548        0x4 mesh/bootloader/CMakeFiles/mesh_bootloader_serial_gccarmemb_nrf52840_xxAA.dir/src/dfu_mesh.c.obj
                0x000fa548                dfu_mesh_restart
 .text.dfu_mesh_on_flash_idle
                0x000fa54c       0x50 mesh/bootloader/CMakeFiles/mesh_bootloader_serial_gccarmemb_nrf52840_xxAA.dir/src/dfu_mesh.c.obj
                0x000fa54c                dfu_mesh_on_flash_idle
 .text.dfu_transfer_init
                0x000fa59c       0x1c mesh/bootloader/CMakeFiles/mesh_bootloader_serial_gccarmemb_nrf52840_xxAA.dir/src/dfu_transfer_mesh.c.obj
                0x000fa59c                dfu_transfer_init
 .text.dfu_transfer_start
                0x000fa5b8       0x78 mesh/bootloader/CMakeFiles/mesh_bootloader_serial_gccarmemb_nrf52840_xxAA.dir/src/dfu_transfer_mesh.c.obj
                0x000fa5b8                dfu_transfer_start
 .text.dfu_transfer_data
                0x000fa630      0x194 mesh/bootloader/CMakeFiles/mesh_bootloader_serial_gccarmemb_nrf52840_xxAA.dir/src/dfu_transfer_mesh.c.obj
                0x000fa630                dfu_transfer_data
 .text.dfu_transfer_has_entry
                0x000fa7c4       0x78 mesh/bootloader/CMakeFiles/mesh_bootloader_serial_gccarmemb_nrf52840_xxAA.dir/src/dfu_transfer_mesh.c.obj
                0x000fa7c4                dfu_transfer_has_entry
 .text.dfu_transfer_get_oldest_missing_entry
                0x000fa83c       0x7c mesh/bootloader/CMakeFiles/mesh_bootloader_serial_gccarmemb_nrf52840_xxAA.dir/src/dfu_transfer_mesh.c.obj
                0x000fa83c                dfu_transfer_get_oldest_missing_entry
 .text.dfu_transfer_sha256
                0x000fa8b8       0x1c mesh/bootloader/CMakeFiles/mesh_bootloader_serial_gccarmemb_nrf52840_xxAA.dir/src/dfu_transfer_mesh.c.obj
                0x000fa8b8                dfu_transfer_sha256
 .text.dfu_transfer_end
                0x000fa8d4        0x4 mesh/bootloader/CMakeFiles/mesh_bootloader_serial_gccarmemb_nrf52840_xxAA.dir/src/dfu_transfer_mesh.c.obj
                0x000fa8d4                dfu_transfer_end
 .text.dfu_transfer_flash_write_complete
                0x000fa8d8       0x18 mesh/bootloader/CMakeFiles/mesh_bootloader_serial_gccarmemb_nrf52840_xxAA.dir/src/dfu_transfer_mesh.c.obj
                0x000fa8d8                dfu_transfer_flash_write_complete
 .text.fwid_union_cpy
                0x000fa8f0       0x1e mesh/bootloader/CMakeFiles/mesh_bootloader_serial_gccarmemb_nrf52840_xxAA.dir/src/dfu_util.c.obj
                0x000fa8f0                fwid_union_cpy
 .text.fwid_union_cmp
                0x000fa90e       0x2c mesh/bootloader/CMakeFiles/mesh_bootloader_serial_gccarmemb_nrf52840_xxAA.dir/src/dfu_util.c.obj
                0x000fa90e                fwid_union_cmp
 .text.fwid_union_id_cmp
                0x000fa93a       0x30 mesh/bootloader/CMakeFiles/mesh_bootloader_serial_gccarmemb_nrf52840_xxAA.dir/src/dfu_util.c.obj
                0x000fa93a                fwid_union_id_cmp
 .text.fwid_union_version_cmp
                0x000fa96a       0x28 mesh/bootloader/CMakeFiles/mesh_bootloader_serial_gccarmemb_nrf52840_xxAA.dir/src/dfu_util.c.obj
                0x000fa96a                fwid_union_version_cmp
 .text.addr_from_seg
                0x000fa992       0x14 mesh/bootloader/CMakeFiles/mesh_bootloader_serial_gccarmemb_nrf52840_xxAA.dir/src/dfu_util.c.obj
                0x000fa992                addr_from_seg
 .text.is_upgrade
                0x000fa9a6       0x9a mesh/bootloader/CMakeFiles/mesh_bootloader_serial_gccarmemb_nrf52840_xxAA.dir/src/dfu_util.c.obj
                0x000fa9a6                is_upgrade
 .text.app_is_newer
                0x000faa40       0x36 mesh/bootloader/CMakeFiles/mesh_bootloader_serial_gccarmemb_nrf52840_xxAA.dir/src/dfu_util.c.obj
                0x000faa40                app_is_newer
 .text.bootloader_is_newer
                0x000faa76       0x34 mesh/bootloader/CMakeFiles/mesh_bootloader_serial_gccarmemb_nrf52840_xxAA.dir/src/dfu_util.c.obj
                0x000faa76                bootloader_is_newer
 .text.fw_is_verified
                0x000faaaa       0x1c mesh/bootloader/CMakeFiles/mesh_bootloader_serial_gccarmemb_nrf52840_xxAA.dir/src/dfu_util.c.obj
                0x000faaaa                fw_is_verified
 *fill*         0x000faac6        0x2 
 .text.tid_cache_entry_put
                0x000faac8       0x1c mesh/bootloader/CMakeFiles/mesh_bootloader_serial_gccarmemb_nrf52840_xxAA.dir/src/dfu_util.c.obj
                0x000faac8                tid_cache_entry_put
 .text.tid_cache_has_entry
                0x000faae4       0x20 mesh/bootloader/CMakeFiles/mesh_bootloader_serial_gccarmemb_nrf52840_xxAA.dir/src/dfu_util.c.obj
                0x000faae4                tid_cache_has_entry
 .text.ready_packet_matches_our_req
                0x000fab04       0x42 mesh/bootloader/CMakeFiles/mesh_bootloader_serial_gccarmemb_nrf52840_xxAA.dir/src/dfu_util.c.obj
                0x000fab04                ready_packet_matches_our_req
 *fill*         0x000fab46        0x2 
 .text.packet_in_cache
                0x000fab48       0x2c mesh/bootloader/CMakeFiles/mesh_bootloader_serial_gccarmemb_nrf52840_xxAA.dir/src/dfu_util.c.obj
                0x000fab48                packet_in_cache
 .text.packet_cache_put
                0x000fab74       0x28 mesh/bootloader/CMakeFiles/mesh_bootloader_serial_gccarmemb_nrf52840_xxAA.dir/src/dfu_util.c.obj
                0x000fab74                packet_cache_put
 .text.packet_cache_flush
                0x000fab9c       0x1c mesh/bootloader/CMakeFiles/mesh_bootloader_serial_gccarmemb_nrf52840_xxAA.dir/src/dfu_util.c.obj
                0x000fab9c                packet_cache_flush
 .text.section_overlap
                0x000fabb8       0x22 mesh/bootloader/CMakeFiles/mesh_bootloader_serial_gccarmemb_nrf52840_xxAA.dir/src/dfu_util.c.obj
                0x000fabb8                section_overlap
 *fill*         0x000fabda        0x2 
 .text.interrupts_disable
                0x000fabdc       0x2c mesh/bootloader/CMakeFiles/mesh_bootloader_serial_gccarmemb_nrf52840_xxAA.dir/src/dfu_util.c.obj
                0x000fabdc                interrupts_disable
 .text.fifo_init
                0x000fac08       0x1e mesh/bootloader/CMakeFiles/mesh_bootloader_serial_gccarmemb_nrf52840_xxAA.dir/src/fifo.c.obj
                0x000fac08                fifo_init
 .text.fifo_push
                0x000fac26       0x4e mesh/bootloader/CMakeFiles/mesh_bootloader_serial_gccarmemb_nrf52840_xxAA.dir/src/fifo.c.obj
                0x000fac26                fifo_push
 .text.fifo_pop
                0x000fac74       0x4a mesh/bootloader/CMakeFiles/mesh_bootloader_serial_gccarmemb_nrf52840_xxAA.dir/src/fifo.c.obj
                0x000fac74                fifo_pop
 .text.fifo_peek_at
                0x000facbe       0x4e mesh/bootloader/CMakeFiles/mesh_bootloader_serial_gccarmemb_nrf52840_xxAA.dir/src/fifo.c.obj
                0x000facbe                fifo_peek_at
 .text.fifo_peek
                0x000fad0c        0x6 mesh/bootloader/CMakeFiles/mesh_bootloader_serial_gccarmemb_nrf52840_xxAA.dir/src/fifo.c.obj
                0x000fad0c                fifo_peek
 .text.fifo_get_len
                0x000fad12        0x8 mesh/bootloader/CMakeFiles/mesh_bootloader_serial_gccarmemb_nrf52840_xxAA.dir/src/fifo.c.obj
                0x000fad12                fifo_get_len
 .text.fifo_is_full
                0x000fad1a       0x10 mesh/bootloader/CMakeFiles/mesh_bootloader_serial_gccarmemb_nrf52840_xxAA.dir/src/fifo.c.obj
                0x000fad1a                fifo_is_full
 .text.fifo_is_empty
                0x000fad2a        0xc mesh/bootloader/CMakeFiles/mesh_bootloader_serial_gccarmemb_nrf52840_xxAA.dir/src/fifo.c.obj
                0x000fad2a                fifo_is_empty
 .text.app_error_handler_bare
                0x000fad36        0x6 mesh/bootloader/CMakeFiles/mesh_bootloader_serial_gccarmemb_nrf52840_xxAA.dir/src/main.c.obj
                0x000fad36                app_error_handler_bare
 .text.HardFault_Handler
                0x000fad3c        0x6 mesh/bootloader/CMakeFiles/mesh_bootloader_serial_gccarmemb_nrf52840_xxAA.dir/src/main.c.obj
                0x000fad3c                HardFault_Handler
 *fill*         0x000fad42        0x2 
 .text.startup.main
                0x000fad44       0x90 mesh/bootloader/CMakeFiles/mesh_bootloader_serial_gccarmemb_nrf52840_xxAA.dir/src/main.c.obj
                0x000fad44                main
 .text.mesh_packet_init
                0x000fadd4       0x18 mesh/bootloader/CMakeFiles/mesh_bootloader_serial_gccarmemb_nrf52840_xxAA.dir/src/mesh_packet.c.obj
                0x000fadd4                mesh_packet_init
 .text.mesh_packet_acquire
                0x000fadec       0x40 mesh/bootloader/CMakeFiles/mesh_bootloader_serial_gccarmemb_nrf52840_xxAA.dir/src/mesh_packet.c.obj
                0x000fadec                mesh_packet_acquire
 .text.mesh_packet_ref_count_inc
                0x000fae2c       0x44 mesh/bootloader/CMakeFiles/mesh_bootloader_serial_gccarmemb_nrf52840_xxAA.dir/src/mesh_packet.c.obj
                0x000fae2c                mesh_packet_ref_count_inc
 .text.mesh_packet_ref_count_dec
                0x000fae70       0x4c mesh/bootloader/CMakeFiles/mesh_bootloader_serial_gccarmemb_nrf52840_xxAA.dir/src/mesh_packet.c.obj
                0x000fae70                mesh_packet_ref_count_dec
 .text.mesh_packet_ref_count_get
                0x000faebc       0x24 mesh/bootloader/CMakeFiles/mesh_bootloader_serial_gccarmemb_nrf52840_xxAA.dir/src/mesh_packet.c.obj
                0x000faebc                mesh_packet_ref_count_get
 .text.mesh_packet_set_local_addr
                0x000faee0       0x28 mesh/bootloader/CMakeFiles/mesh_bootloader_serial_gccarmemb_nrf52840_xxAA.dir/src/mesh_packet.c.obj
                0x000faee0                mesh_packet_set_local_addr
 .text.mesh_packet_adv_data_get
                0x000faf08       0x3c mesh/bootloader/CMakeFiles/mesh_bootloader_serial_gccarmemb_nrf52840_xxAA.dir/src/mesh_packet.c.obj
                0x000faf08                mesh_packet_adv_data_get
 .text.nrf_flash_erase
                0x000faf44       0x60 mesh/bootloader/CMakeFiles/mesh_bootloader_serial_gccarmemb_nrf52840_xxAA.dir/src/nrf_flash.c.obj
                0x000faf44                nrf_flash_erase
 .text.nrf_flash_store
                0x000fafa4       0x70 mesh/bootloader/CMakeFiles/mesh_bootloader_serial_gccarmemb_nrf52840_xxAA.dir/src/nrf_flash.c.obj
                0x000fafa4                nrf_flash_store
 .text.radio_init
                0x000fb014      0x118 mesh/bootloader/CMakeFiles/mesh_bootloader_serial_gccarmemb_nrf52840_xxAA.dir/src/radio_control.c.obj
                0x000fb014                radio_init
 .text.radio_order
                0x000fb12c       0x4c mesh/bootloader/CMakeFiles/mesh_bootloader_serial_gccarmemb_nrf52840_xxAA.dir/src/radio_control.c.obj
                0x000fb12c                radio_order
 .text.radio_disable
                0x000fb178       0x28 mesh/bootloader/CMakeFiles/mesh_bootloader_serial_gccarmemb_nrf52840_xxAA.dir/src/radio_control.c.obj
                0x000fb178                radio_disable
 .text.radio_event_handler
                0x000fb1a0      0x1b4 mesh/bootloader/CMakeFiles/mesh_bootloader_serial_gccarmemb_nrf52840_xxAA.dir/src/radio_control.c.obj
                0x000fb1a0                radio_event_handler
 .text.rand_prng_get
                0x000fb354       0x24 mesh/bootloader/CMakeFiles/mesh_bootloader_serial_gccarmemb_nrf52840_xxAA.dir/src/rand.c.obj
                0x000fb354                rand_prng_get
 .text.rand_hw_rng_get
                0x000fb378       0x30 mesh/bootloader/CMakeFiles/mesh_bootloader_serial_gccarmemb_nrf52840_xxAA.dir/src/rand.c.obj
                0x000fb378                rand_hw_rng_get
 .text.rand_prng_seed
                0x000fb3a8       0x38 mesh/bootloader/CMakeFiles/mesh_bootloader_serial_gccarmemb_nrf52840_xxAA.dir/src/rand.c.obj
                0x000fb3a8                rand_prng_seed
 .text.order_next_rtc
                0x000fb3e0       0x68 mesh/bootloader/CMakeFiles/mesh_bootloader_serial_gccarmemb_nrf52840_xxAA.dir/src/transport.c.obj
 .text.radio_rx_cb
                0x000fb448       0x30 mesh/bootloader/CMakeFiles/mesh_bootloader_serial_gccarmemb_nrf52840_xxAA.dir/src/transport.c.obj
 .text.order_scan
                0x000fb478       0x3c mesh/bootloader/CMakeFiles/mesh_bootloader_serial_gccarmemb_nrf52840_xxAA.dir/src/transport.c.obj
 .text.radio_idle_cb
                0x000fb4b4       0x10 mesh/bootloader/CMakeFiles/mesh_bootloader_serial_gccarmemb_nrf52840_xxAA.dir/src/transport.c.obj
 .text.set_next_tx
                0x000fb4c4       0x74 mesh/bootloader/CMakeFiles/mesh_bootloader_serial_gccarmemb_nrf52840_xxAA.dir/src/transport.c.obj
 .text.RADIO_IRQHandler
                0x000fb538        0x4 mesh/bootloader/CMakeFiles/mesh_bootloader_serial_gccarmemb_nrf52840_xxAA.dir/src/transport.c.obj
                0x000fb538                RADIO_IRQHandler
 .text.timeslot_is_in_ts
                0x000fb53c        0x4 mesh/bootloader/CMakeFiles/mesh_bootloader_serial_gccarmemb_nrf52840_xxAA.dir/src/transport.c.obj
                0x000fb53c                timeslot_is_in_ts
 .text.transport_init
                0x000fb540       0x8c mesh/bootloader/CMakeFiles/mesh_bootloader_serial_gccarmemb_nrf52840_xxAA.dir/src/transport.c.obj
                0x000fb540                transport_init
 .text.transport_start
                0x000fb5cc       0x14 mesh/bootloader/CMakeFiles/mesh_bootloader_serial_gccarmemb_nrf52840_xxAA.dir/src/transport.c.obj
                0x000fb5cc                transport_start
 .text.SWI0_EGU0_IRQHandler
                0x000fb5e0       0x4c mesh/bootloader/CMakeFiles/mesh_bootloader_serial_gccarmemb_nrf52840_xxAA.dir/src/transport.c.obj
                0x000fb5e0                SWI0_EGU0_IRQHandler
 .text.transport_tx
                0x000fb62c       0x70 mesh/bootloader/CMakeFiles/mesh_bootloader_serial_gccarmemb_nrf52840_xxAA.dir/src/transport.c.obj
                0x000fb62c                transport_tx
 .text.transport_tx_abort
                0x000fb69c       0x48 mesh/bootloader/CMakeFiles/mesh_bootloader_serial_gccarmemb_nrf52840_xxAA.dir/src/transport.c.obj
                0x000fb69c                transport_tx_abort
 .text.transport_rtc_irq_handler
                0x000fb6e4       0xc8 mesh/bootloader/CMakeFiles/mesh_bootloader_serial_gccarmemb_nrf52840_xxAA.dir/src/transport.c.obj
                0x000fb6e4                transport_rtc_irq_handler
 .text.transport_tx_evt_set
                0x000fb7ac       0x24 mesh/bootloader/CMakeFiles/mesh_bootloader_serial_gccarmemb_nrf52840_xxAA.dir/src/transport.c.obj
                0x000fb7ac                transport_tx_evt_set
 .text.transport_tx_evt_get
                0x000fb7d0       0x24 mesh/bootloader/CMakeFiles/mesh_bootloader_serial_gccarmemb_nrf52840_xxAA.dir/src/transport.c.obj
                0x000fb7d0                transport_tx_evt_get
 .text.radio_tx_cb
                0x000fb7f4       0x3a mesh/bootloader/CMakeFiles/mesh_bootloader_serial_gccarmemb_nrf52840_xxAA.dir/src/transport.c.obj
 .text.vli_clear
                0x000fb82e       0x10 mesh/bootloader/CMakeFiles/mesh_bootloader_serial_gccarmemb_nrf52840_xxAA.dir/src/uECC.c.obj
 .text.vli_isZero
                0x000fb83e       0x16 mesh/bootloader/CMakeFiles/mesh_bootloader_serial_gccarmemb_nrf52840_xxAA.dir/src/uECC.c.obj
 .text.vli_testBit
                0x000fb854       0x14 mesh/bootloader/CMakeFiles/mesh_bootloader_serial_gccarmemb_nrf52840_xxAA.dir/src/uECC.c.obj
 .text.vli_set  0x000fb868       0x12 mesh/bootloader/CMakeFiles/mesh_bootloader_serial_gccarmemb_nrf52840_xxAA.dir/src/uECC.c.obj
 .text.vli_cmp  0x000fb87a       0x28 mesh/bootloader/CMakeFiles/mesh_bootloader_serial_gccarmemb_nrf52840_xxAA.dir/src/uECC.c.obj
 .text.vli_rshift1
                0x000fb8a2       0x1a mesh/bootloader/CMakeFiles/mesh_bootloader_serial_gccarmemb_nrf52840_xxAA.dir/src/uECC.c.obj
 .text.vli_add  0x000fb8bc       0x2a mesh/bootloader/CMakeFiles/mesh_bootloader_serial_gccarmemb_nrf52840_xxAA.dir/src/uECC.c.obj
 .text.vli_sub  0x000fb8e6       0x2a mesh/bootloader/CMakeFiles/mesh_bootloader_serial_gccarmemb_nrf52840_xxAA.dir/src/uECC.c.obj
 .text.vli_bytesToNative
                0x000fb910       0x18 mesh/bootloader/CMakeFiles/mesh_bootloader_serial_gccarmemb_nrf52840_xxAA.dir/src/uECC.c.obj
 .text.vli_modInv
                0x000fb928      0x128 mesh/bootloader/CMakeFiles/mesh_bootloader_serial_gccarmemb_nrf52840_xxAA.dir/src/uECC.c.obj
 .text.vli_modSub.constprop.0
                0x000fba50       0x20 mesh/bootloader/CMakeFiles/mesh_bootloader_serial_gccarmemb_nrf52840_xxAA.dir/src/uECC.c.obj
 .text.vli_modAdd.constprop.0
                0x000fba70       0x2c mesh/bootloader/CMakeFiles/mesh_bootloader_serial_gccarmemb_nrf52840_xxAA.dir/src/uECC.c.obj
 .text.vli_numBits.constprop.0
                0x000fba9c       0x22 mesh/bootloader/CMakeFiles/mesh_bootloader_serial_gccarmemb_nrf52840_xxAA.dir/src/uECC.c.obj
 .text.vli_mult
                0x000fbabe       0xba mesh/bootloader/CMakeFiles/mesh_bootloader_serial_gccarmemb_nrf52840_xxAA.dir/src/uECC.c.obj
 .text.vli_modMult_fast
                0x000fbb78      0x190 mesh/bootloader/CMakeFiles/mesh_bootloader_serial_gccarmemb_nrf52840_xxAA.dir/src/uECC.c.obj
 .text.apply_z  0x000fbd08       0x34 mesh/bootloader/CMakeFiles/mesh_bootloader_serial_gccarmemb_nrf52840_xxAA.dir/src/uECC.c.obj
 .text.XYcZ_add
                0x000fbd3c       0x9a mesh/bootloader/CMakeFiles/mesh_bootloader_serial_gccarmemb_nrf52840_xxAA.dir/src/uECC.c.obj
 *fill*         0x000fbdd6        0x2 
 .text.vli_modMult_n
                0x000fbdd8       0xa0 mesh/bootloader/CMakeFiles/mesh_bootloader_serial_gccarmemb_nrf52840_xxAA.dir/src/uECC.c.obj
 .text.uECC_verify
                0x000fbe78      0x31c mesh/bootloader/CMakeFiles/mesh_bootloader_serial_gccarmemb_nrf52840_xxAA.dir/src/uECC.c.obj
                0x000fbe78                uECC_verify
 .text.sha256_transform
                0x000fc194      0x13c mesh/bootloader/CMakeFiles/mesh_bootloader_serial_gccarmemb_nrf52840_xxAA.dir/C_/nordic/nRF5_SDK/nRF5_SDK_17.0.2_d674dde/components/libraries/sha256/sha256.c.obj
                0x000fc194                sha256_transform
 .text.sha256_init
                0x000fc2d0       0x60 mesh/bootloader/CMakeFiles/mesh_bootloader_serial_gccarmemb_nrf52840_xxAA.dir/C_/nordic/nRF5_SDK/nRF5_SDK_17.0.2_d674dde/components/libraries/sha256/sha256.c.obj
                0x000fc2d0                sha256_init
 .text.sha256_update
                0x000fc330       0x46 mesh/bootloader/CMakeFiles/mesh_bootloader_serial_gccarmemb_nrf52840_xxAA.dir/C_/nordic/nRF5_SDK/nRF5_SDK_17.0.2_d674dde/components/libraries/sha256/sha256.c.obj
                0x000fc330                sha256_update
 .text.sha256_final
                0x000fc376       0xfc mesh/bootloader/CMakeFiles/mesh_bootloader_serial_gccarmemb_nrf52840_xxAA.dir/C_/nordic/nRF5_SDK/nRF5_SDK_17.0.2_d674dde/components/libraries/sha256/sha256.c.obj
                0x000fc376                sha256_final
 *fill*         0x000fc472        0x2 
 .text.schedule_transmit
                0x000fc474       0x2c mesh/bootloader/CMakeFiles/mesh_bootloader_serial_gccarmemb_nrf52840_xxAA.dir/src/serial_handler_uart.c.obj
 .text.SWI1_EGU1_IRQHandler
                0x000fc4a0       0x40 mesh/bootloader/CMakeFiles/mesh_bootloader_serial_gccarmemb_nrf52840_xxAA.dir/src/serial_handler_uart.c.obj
                0x000fc4a0                SWI1_EGU1_IRQHandler
 .text.serial_handler_init
                0x000fc4e0       0xc0 mesh/bootloader/CMakeFiles/mesh_bootloader_serial_gccarmemb_nrf52840_xxAA.dir/src/serial_handler_uart.c.obj
                0x000fc4e0                serial_handler_init
 .text.serial_handler_credit_available
                0x000fc5a0        0xc mesh/bootloader/CMakeFiles/mesh_bootloader_serial_gccarmemb_nrf52840_xxAA.dir/src/serial_handler_uart.c.obj
                0x000fc5a0                serial_handler_credit_available
 .text.serial_handler_event_send
                0x000fc5ac       0x44 mesh/bootloader/CMakeFiles/mesh_bootloader_serial_gccarmemb_nrf52840_xxAA.dir/src/serial_handler_uart.c.obj
                0x000fc5ac                serial_handler_event_send
 .text.UARTE0_UART0_IRQHandler
                0x000fc5f0       0xf4 mesh/bootloader/CMakeFiles/mesh_bootloader_serial_gccarmemb_nrf52840_xxAA.dir/src/serial_handler_uart.c.obj
                0x000fc5f0                UARTE0_UART0_IRQHandler
 .text.serial_wait_for_completion
                0x000fc6e4       0x2c mesh/bootloader/CMakeFiles/mesh_bootloader_serial_gccarmemb_nrf52840_xxAA.dir/src/serial_handler_uart.c.obj
                0x000fc6e4                serial_wait_for_completion
 .text.serial_handler_command_get
                0x000fc710       0x4c mesh/bootloader/CMakeFiles/mesh_bootloader_serial_gccarmemb_nrf52840_xxAA.dir/src/serial_handler_uart.c.obj
                0x000fc710                serial_handler_command_get
 .text.serial_handler_uart_disable
                0x000fc75c       0x30 mesh/bootloader/CMakeFiles/mesh_bootloader_serial_gccarmemb_nrf52840_xxAA.dir/src/serial_handler_uart.c.obj
                0x000fc75c                serial_handler_uart_disable
 .text.mesh_aci_init
                0x000fc78c       0x18 mesh/bootloader/CMakeFiles/mesh_bootloader_serial_gccarmemb_nrf52840_xxAA.dir/src/mesh_aci.c.obj
                0x000fc78c                mesh_aci_init
 .text.mesh_aci_start
                0x000fc7a4       0x3e mesh/bootloader/CMakeFiles/mesh_bootloader_serial_gccarmemb_nrf52840_xxAA.dir/src/mesh_aci.c.obj
                0x000fc7a4                mesh_aci_start
 *fill*         0x000fc7e2        0x2 
 .text.mesh_aci_command_check
                0x000fc7e4      0x168 mesh/bootloader/CMakeFiles/mesh_bootloader_serial_gccarmemb_nrf52840_xxAA.dir/src/mesh_aci.c.obj
                0x000fc7e4                mesh_aci_command_check
 .text.nrf52_errata_36
                0x000fc94c       0x14 mesh/bootloader/CMakeFiles/mesh_bootloader_serial_gccarmemb_nrf52840_xxAA.dir/C_/nordic/nRF5_SDK/nRF5_SDK_17.0.2_d674dde/modules/nrfx/mdk/system_nrf52840.c.obj
 .text.nrf52_errata_98
                0x000fc960       0x28 mesh/bootloader/CMakeFiles/mesh_bootloader_serial_gccarmemb_nrf52840_xxAA.dir/C_/nordic/nRF5_SDK/nRF5_SDK_17.0.2_d674dde/modules/nrfx/mdk/system_nrf52840.c.obj
 .text.SystemInit
                0x000fc988      0x1d0 mesh/bootloader/CMakeFiles/mesh_bootloader_serial_gccarmemb_nrf52840_xxAA.dir/C_/nordic/nRF5_SDK/nRF5_SDK_17.0.2_d674dde/modules/nrfx/mdk/system_nrf52840.c.obj
                0x000fc988                SystemInit
 .text          0x000fcb58       0x3c mesh/bootloader/CMakeFiles/mesh_bootloader_serial_gccarmemb_nrf52840_xxAA.dir/C_/nordic/nRF5_SDK/nRF5_SDK_17.0.2_d674dde/modules/nrfx/mdk/gcc_startup_nrf52840.S.obj
                0x000fcb58                Reset_Handler
                0x000fcb80                NMI_Handler
                0x000fcb84                MemoryManagement_Handler
                0x000fcb86                BusFault_Handler
                0x000fcb88                UsageFault_Handler
                0x000fcb8a                SVC_Handler
                0x000fcb8c                DebugMon_Handler
                0x000fcb8e                PendSV_Handler
                0x000fcb90                SysTick_Handler
                0x000fcb92                QDEC_IRQHandler
                0x000fcb92                TIMER3_IRQHandler
                0x000fcb92                PDM_IRQHandler
                0x000fcb92                FPU_IRQHandler
                0x000fcb92                USBD_IRQHandler
                0x000fcb92                SPIM0_SPIS0_TWIM0_TWIS0_SPI0_TWI0_IRQHandler
                0x000fcb92                PWM3_IRQHandler
                0x000fcb92                TEMP_IRQHandler
                0x000fcb92                TIMER4_IRQHandler
                0x000fcb92                CRYPTOCELL_IRQHandler
                0x000fcb92                I2S_IRQHandler
                0x000fcb92                SWI4_EGU4_IRQHandler
                0x000fcb92                TIMER0_IRQHandler
                0x000fcb92                POWER_CLOCK_IRQHandler
                0x000fcb92                UARTE1_IRQHandler
                0x000fcb92                TIMER1_IRQHandler
                0x000fcb92                SPIM3_IRQHandler
                0x000fcb92                PWM2_IRQHandler
                0x000fcb92                ECB_IRQHandler
                0x000fcb92                SPIM1_SPIS1_TWIM1_TWIS1_SPI1_TWI1_IRQHandler
                0x000fcb92                Default_Handler
                0x000fcb92                SAADC_IRQHandler
                0x000fcb92                CCM_AAR_IRQHandler
                0x000fcb92                WDT_IRQHandler
                0x000fcb92                PWM1_IRQHandler
                0x000fcb92                SWI5_EGU5_IRQHandler
                0x000fcb92                RNG_IRQHandler
                0x000fcb92                RTC2_IRQHandler
                0x000fcb92                PWM0_IRQHandler
                0x000fcb92                RTC1_IRQHandler
                0x000fcb92                SPIM2_SPIS2_SPI2_IRQHandler
                0x000fcb92                NFCT_IRQHandler
                0x000fcb92                GPIOTE_IRQHandler
                0x000fcb92                MWU_IRQHandler
                0x000fcb92                TIMER2_IRQHandler
                0x000fcb92                QSPI_IRQHandler
                0x000fcb92                COMP_LPCOMP_IRQHandler
 .text          0x000fcb94       0x30 c:/nordic/gcc-arm-none-eabi-9-2019-q4-major/bin/../lib/gcc/arm-none-eabi/9.2.1/thumb/v7e-m+fp/hard\libgcc.a(_aeabi_uldivmod.o)
                0x000fcb94                __aeabi_uldivmod
 .text          0x000fcbc4      0x2c4 c:/nordic/gcc-arm-none-eabi-9-2019-q4-major/bin/../lib/gcc/arm-none-eabi/9.2.1/thumb/v7e-m+fp/hard\libgcc.a(_udivmoddi4.o)
                0x000fcbc4                __udivmoddi4
 .text          0x000fce88        0x4 c:/nordic/gcc-arm-none-eabi-9-2019-q4-major/bin/../lib/gcc/arm-none-eabi/9.2.1/thumb/v7e-m+fp/hard\libgcc.a(_dvmd_tls.o)
                0x000fce88                __aeabi_idiv0
                0x000fce88                __aeabi_ldiv0
 .text.exit     0x000fce8c       0x28 c:/nordic/gcc-arm-none-eabi-9-2019-q4-major/bin/../lib/gcc/arm-none-eabi/9.2.1/../../../../arm-none-eabi/lib/thumb/v7e-m+fp/hard\libg_nano.a(lib_a-exit.o)
                0x000fce8c                exit
 .text.__libc_init_array
                0x000fceb4       0x48 c:/nordic/gcc-arm-none-eabi-9-2019-q4-major/bin/../lib/gcc/arm-none-eabi/9.2.1/../../../../arm-none-eabi/lib/thumb/v7e-m+fp/hard\libg_nano.a(lib_a-init.o)
                0x000fceb4                __libc_init_array
 .text.memcmp   0x000fcefc       0x1c c:/nordic/gcc-arm-none-eabi-9-2019-q4-major/bin/../lib/gcc/arm-none-eabi/9.2.1/../../../../arm-none-eabi/lib/thumb/v7e-m+fp/hard\libg_nano.a(lib_a-memcmp.o)
                0x000fcefc                memcmp
 .text.memcpy   0x000fcf18       0x1c c:/nordic/gcc-arm-none-eabi-9-2019-q4-major/bin/../lib/gcc/arm-none-eabi/9.2.1/../../../../arm-none-eabi/lib/thumb/v7e-m+fp/hard\libg_nano.a(lib_a-memcpy-stub.o)
                0x000fcf18                memcpy
 .text.memset   0x000fcf34       0x10 c:/nordic/gcc-arm-none-eabi-9-2019-q4-major/bin/../lib/gcc/arm-none-eabi/9.2.1/../../../../arm-none-eabi/lib/thumb/v7e-m+fp/hard\libg_nano.a(lib_a-memset.o)
                0x000fcf34                memset
 .text._exit    0x000fcf44        0x4 c:/nordic/gcc-arm-none-eabi-9-2019-q4-major/bin/../lib/gcc/arm-none-eabi/9.2.1/../../../../arm-none-eabi/lib/thumb/v7e-m+fp/hard\libnosys.a(_exit.o)
                0x000fcf44                _exit
 *(.init)
 .init          0x000fcf48        0x4 c:/nordic/gcc-arm-none-eabi-9-2019-q4-major/bin/../lib/gcc/arm-none-eabi/9.2.1/thumb/v7e-m+fp/hard/crti.o
                0x000fcf48                _init
 .init          0x000fcf4c        0x8 c:/nordic/gcc-arm-none-eabi-9-2019-q4-major/bin/../lib/gcc/arm-none-eabi/9.2.1/thumb/v7e-m+fp/hard/crtn.o
 *(.fini)
 .fini          0x000fcf54        0x4 c:/nordic/gcc-arm-none-eabi-9-2019-q4-major/bin/../lib/gcc/arm-none-eabi/9.2.1/thumb/v7e-m+fp/hard/crti.o
                0x000fcf54                _fini
 .fini          0x000fcf58        0x8 c:/nordic/gcc-arm-none-eabi-9-2019-q4-major/bin/../lib/gcc/arm-none-eabi/9.2.1/thumb/v7e-m+fp/hard/crtn.o
 *crtbegin.o(.ctors)
 *crtbegin?.o(.ctors)
 *(EXCLUDE_FILE(*crtend.o *crtend?.o) .ctors)
 *(SORT_BY_NAME(.ctors.*))
 *(.ctors)
 *crtbegin.o(.dtors)
 *crtbegin?.o(.dtors)
 *(EXCLUDE_FILE(*crtend.o *crtend?.o) .dtors)
 *(SORT_BY_NAME(.dtors.*))
 *(.dtors)
 *(.rodata*)
 .rodata.m_invalid_header
                0x000fcf60        0x4 mesh/bootloader/CMakeFiles/mesh_bootloader_serial_gccarmemb_nrf52840_xxAA.dir/src/bootloader_info.c.obj
 .rodata.CSWTCH.47
                0x000fcf64        0x4 mesh/bootloader/CMakeFiles/mesh_bootloader_serial_gccarmemb_nrf52840_xxAA.dir/src/dfu_mesh.c.obj
 .rodata        0x000fcf68        0xc mesh/bootloader/CMakeFiles/mesh_bootloader_serial_gccarmemb_nrf52840_xxAA.dir/src/radio_control.c.obj
 .rodata.curve_G
                0x000fcf74       0x40 mesh/bootloader/CMakeFiles/mesh_bootloader_serial_gccarmemb_nrf52840_xxAA.dir/src/uECC.c.obj
 .rodata.curve_n
                0x000fcfb4       0x20 mesh/bootloader/CMakeFiles/mesh_bootloader_serial_gccarmemb_nrf52840_xxAA.dir/src/uECC.c.obj
 .rodata.curve_p
                0x000fcfd4       0x20 mesh/bootloader/CMakeFiles/mesh_bootloader_serial_gccarmemb_nrf52840_xxAA.dir/src/uECC.c.obj
 .rodata.k      0x000fcff4      0x100 mesh/bootloader/CMakeFiles/mesh_bootloader_serial_gccarmemb_nrf52840_xxAA.dir/C_/nordic/nRF5_SDK/nRF5_SDK_17.0.2_d674dde/components/libraries/sha256/sha256.c.obj
 .rodata.CSWTCH.7
                0x000fd0f4       0x12 mesh/bootloader/CMakeFiles/mesh_bootloader_serial_gccarmemb_nrf52840_xxAA.dir/src/mesh_aci.c.obj
 .rodata.CSWTCH.6
                0x000fd106        0x4 mesh/bootloader/CMakeFiles/mesh_bootloader_serial_gccarmemb_nrf52840_xxAA.dir/C_/nordic/nRF5_SDK/nRF5_SDK_17.0.2_d674dde/modules/nrfx/mdk/system_nrf52840.c.obj
 *fill*         0x000fd10a        0x2 
 .rodata._global_impure_ptr
                0x000fd10c        0x4 c:/nordic/gcc-arm-none-eabi-9-2019-q4-major/bin/../lib/gcc/arm-none-eabi/9.2.1/../../../../arm-none-eabi/lib/thumb/v7e-m+fp/hard\libg_nano.a(lib_a-impure.o)
                0x000fd10c                _global_impure_ptr
 *(.eh_frame*)
 .eh_frame      0x000fd110        0x0 c:/nordic/gcc-arm-none-eabi-9-2019-q4-major/bin/../lib/gcc/arm-none-eabi/9.2.1/thumb/v7e-m+fp/hard/crtbegin.o
 .eh_frame      0x000fd110        0x4 c:/nordic/gcc-arm-none-eabi-9-2019-q4-major/bin/../lib/gcc/arm-none-eabi/9.2.1/thumb/v7e-m+fp/hard/crtend.o

.glue_7         0x000fd114        0x0
 .glue_7        0x000fd114        0x0 linker stubs

.glue_7t        0x000fd114        0x0
 .glue_7t       0x000fd114        0x0 linker stubs

.vfp11_veneer   0x000fd114        0x0
 .vfp11_veneer  0x000fd114        0x0 linker stubs

.v4_bx          0x000fd114        0x0
 .v4_bx         0x000fd114        0x0 linker stubs

.iplt           0x000fd114        0x0
 .iplt          0x000fd114        0x0 c:/nordic/gcc-arm-none-eabi-9-2019-q4-major/bin/../lib/gcc/arm-none-eabi/9.2.1/thumb/v7e-m+fp/hard/crtbegin.o

.ARM.extab
 *(.ARM.extab* .gnu.linkonce.armextab.*)
                0x000fd114                __exidx_start = .

.ARM.exidx      0x000fd114        0x8
 *(.ARM.exidx* .gnu.linkonce.armexidx.*)
 .ARM.exidx     0x000fd114        0x8 c:/nordic/gcc-arm-none-eabi-9-2019-q4-major/bin/../lib/gcc/arm-none-eabi/9.2.1/../../../../arm-none-eabi/lib/thumb/v7e-m+fp/hard/crt0.o
 .ARM.exidx     0x000fd11c        0x0 c:/nordic/gcc-arm-none-eabi-9-2019-q4-major/bin/../lib/gcc/arm-none-eabi/9.2.1/thumb/v7e-m+fp/hard\libgcc.a(_udivmoddi4.o)
                                  0x8 (size before relaxing)
                0x000fd11c                __exidx_end = .

.rel.dyn        0x000fd11c        0x0
 .rel.iplt      0x000fd11c        0x0 c:/nordic/gcc-arm-none-eabi-9-2019-q4-major/bin/../lib/gcc/arm-none-eabi/9.2.1/thumb/v7e-m+fp/hard/crtbegin.o
                0x000fd11c                . = ALIGN (0x4)
                0x000fd11c                __etext = .

.data           0x20000004       0x78 load address 0x000fd11c
                0x20000004                __data_start__ = .
 *(vtable)
 *(.data*)
 .data.m_alt_aa
                0x20000004        0x4 mesh/bootloader/CMakeFiles/mesh_bootloader_serial_gccarmemb_nrf52840_xxAA.dir/src/radio_control.c.obj
 .data.m_radio_state
                0x20000008        0x1 mesh/bootloader/CMakeFiles/mesh_bootloader_serial_gccarmemb_nrf52840_xxAA.dir/src/radio_control.c.obj
 *fill*         0x20000009        0x3 
 .data.pp.11616
                0x2000000c        0x4 mesh/bootloader/CMakeFiles/mesh_bootloader_serial_gccarmemb_nrf52840_xxAA.dir/src/serial_handler_uart.c.obj
 .data.SystemCoreClock
                0x20000010        0x4 mesh/bootloader/CMakeFiles/mesh_bootloader_serial_gccarmemb_nrf52840_xxAA.dir/C_/nordic/nRF5_SDK/nRF5_SDK_17.0.2_d674dde/modules/nrfx/mdk/system_nrf52840.c.obj
                0x20000010                SystemCoreClock
 .data.impure_data
                0x20000014       0x60 c:/nordic/gcc-arm-none-eabi-9-2019-q4-major/bin/../lib/gcc/arm-none-eabi/9.2.1/../../../../arm-none-eabi/lib/thumb/v7e-m+fp/hard\libg_nano.a(lib_a-impure.o)
                0x20000074                . = ALIGN (0x4)
                0x20000074                PROVIDE (__preinit_array_start = .)
 *(.preinit_array)
                0x20000074                PROVIDE (__preinit_array_end = .)
                0x20000074                . = ALIGN (0x4)
                0x20000074                PROVIDE (__init_array_start = .)
 *(SORT_BY_NAME(.init_array.*))
 *(.init_array)
 .init_array    0x20000074        0x4 c:/nordic/gcc-arm-none-eabi-9-2019-q4-major/bin/../lib/gcc/arm-none-eabi/9.2.1/thumb/v7e-m+fp/hard/crtbegin.o
                0x20000078                PROVIDE (__init_array_end = .)
                0x20000078                . = ALIGN (0x4)
                [!provide]                PROVIDE (__fini_array_start = .)
 *(SORT_BY_NAME(.fini_array.*))
 *(.fini_array)
 .fini_array    0x20000078        0x4 c:/nordic/gcc-arm-none-eabi-9-2019-q4-major/bin/../lib/gcc/arm-none-eabi/9.2.1/thumb/v7e-m+fp/hard/crtbegin.o
                [!provide]                PROVIDE (__fini_array_end = .)
 *(.jcr*)
                0x2000007c                . = ALIGN (0x4)
                0x2000007c                __data_end__ = .

.igot.plt       0x2000007c        0x0 load address 0x000fd194
 .igot.plt      0x2000007c        0x0 c:/nordic/gcc-arm-none-eabi-9-2019-q4-major/bin/../lib/gcc/arm-none-eabi/9.2.1/thumb/v7e-m+fp/hard/crtbegin.o

.bss            0x2000007c      0x954 load address 0x000fd194
                0x2000007c                . = ALIGN (0x4)
                0x2000007c                __bss_start__ = .
 *(.bss*)
 .bss           0x2000007c       0x1c c:/nordic/gcc-arm-none-eabi-9-2019-q4-major/bin/../lib/gcc/arm-none-eabi/9.2.1/thumb/v7e-m+fp/hard/crtbegin.o
 .bss.m_flash_fifo
                0x20000098       0x18 mesh/bootloader/CMakeFiles/mesh_bootloader_serial_gccarmemb_nrf52840_xxAA.dir/src/bootloader.c.obj
 .bss.m_flash_fifo_buf
                0x200000b0       0x80 mesh/bootloader/CMakeFiles/mesh_bootloader_serial_gccarmemb_nrf52840_xxAA.dir/src/bootloader.c.obj
 .bss.m_go_to_app
                0x20000130        0x1 mesh/bootloader/CMakeFiles/mesh_bootloader_serial_gccarmemb_nrf52840_xxAA.dir/src/bootloader.c.obj
 .bss.m_timeout_action
                0x20000131        0x1 mesh/bootloader/CMakeFiles/mesh_bootloader_serial_gccarmemb_nrf52840_xxAA.dir/src/bootloader.c.obj
 *fill*         0x20000132        0x2 
 .bss.rsp_cmd.12142
                0x20000134       0x18 mesh/bootloader/CMakeFiles/mesh_bootloader_serial_gccarmemb_nrf52840_xxAA.dir/src/bootloader.c.obj
 .bss.g_packet_pool
                0x2000014c      0x500 mesh/bootloader/CMakeFiles/mesh_bootloader_serial_gccarmemb_nrf52840_xxAA.dir/src/mesh_packet.c.obj
 .bss.g_packet_refs
                0x2000064c       0x20 mesh/bootloader/CMakeFiles/mesh_bootloader_serial_gccarmemb_nrf52840_xxAA.dir/src/mesh_packet.c.obj
 .bss.buffer.7464
                0x2000066c        0x4 mesh/bootloader/CMakeFiles/mesh_bootloader_serial_gccarmemb_nrf52840_xxAA.dir/src/nrf_flash.c.obj
 .bss.m_idle_cb
                0x20000670        0x4 mesh/bootloader/CMakeFiles/mesh_bootloader_serial_gccarmemb_nrf52840_xxAA.dir/src/radio_control.c.obj
 .bss.m_radio_fifo
                0x20000674       0x18 mesh/bootloader/CMakeFiles/mesh_bootloader_serial_gccarmemb_nrf52840_xxAA.dir/src/radio_control.c.obj
 .bss.m_radio_fifo_queue
                0x2000068c       0x40 mesh/bootloader/CMakeFiles/mesh_bootloader_serial_gccarmemb_nrf52840_xxAA.dir/src/radio_control.c.obj
 .bss.m_rx_cb   0x200006cc        0x4 mesh/bootloader/CMakeFiles/mesh_bootloader_serial_gccarmemb_nrf52840_xxAA.dir/src/radio_control.c.obj
 .bss.m_tx_cb   0x200006d0        0x4 mesh/bootloader/CMakeFiles/mesh_bootloader_serial_gccarmemb_nrf52840_xxAA.dir/src/radio_control.c.obj
 .bss.m_prng    0x200006d4       0x10 mesh/bootloader/CMakeFiles/mesh_bootloader_serial_gccarmemb_nrf52840_xxAA.dir/src/transport.c.obj
 .bss.m_running
                0x200006e4        0x1 mesh/bootloader/CMakeFiles/mesh_bootloader_serial_gccarmemb_nrf52840_xxAA.dir/src/transport.c.obj
 *fill*         0x200006e5        0x3 
 .bss.m_rx_cb   0x200006e8        0x4 mesh/bootloader/CMakeFiles/mesh_bootloader_serial_gccarmemb_nrf52840_xxAA.dir/src/transport.c.obj
 .bss.m_rx_fifo
                0x200006ec       0x18 mesh/bootloader/CMakeFiles/mesh_bootloader_serial_gccarmemb_nrf52840_xxAA.dir/src/transport.c.obj
 .bss.m_rx_fifo_buf
                0x20000704       0x80 mesh/bootloader/CMakeFiles/mesh_bootloader_serial_gccarmemb_nrf52840_xxAA.dir/src/transport.c.obj
 .bss.m_ticks_at_order_time
                0x20000784        0x4 mesh/bootloader/CMakeFiles/mesh_bootloader_serial_gccarmemb_nrf52840_xxAA.dir/src/transport.c.obj
 .bss.m_tx      0x20000788       0x80 mesh/bootloader/CMakeFiles/mesh_bootloader_serial_gccarmemb_nrf52840_xxAA.dir/src/transport.c.obj
 .bss.m_rx_fifo
                0x20000808       0x18 mesh/bootloader/CMakeFiles/mesh_bootloader_serial_gccarmemb_nrf52840_xxAA.dir/src/serial_handler_uart.c.obj
 .bss.m_rx_fifo_buffer
                0x20000820       0x9c mesh/bootloader/CMakeFiles/mesh_bootloader_serial_gccarmemb_nrf52840_xxAA.dir/src/serial_handler_uart.c.obj
 .bss.m_serial_state
                0x200008bc        0x1 mesh/bootloader/CMakeFiles/mesh_bootloader_serial_gccarmemb_nrf52840_xxAA.dir/src/serial_handler_uart.c.obj
 .bss.m_suspend
                0x200008bd        0x1 mesh/bootloader/CMakeFiles/mesh_bootloader_serial_gccarmemb_nrf52840_xxAA.dir/src/serial_handler_uart.c.obj
 .bss.m_tx_buffer
                0x200008be       0x27 mesh/bootloader/CMakeFiles/mesh_bootloader_serial_gccarmemb_nrf52840_xxAA.dir/src/serial_handler_uart.c.obj
 *fill*         0x200008e5        0x3 
 .bss.m_tx_fifo
                0x200008e8       0x18 mesh/bootloader/CMakeFiles/mesh_bootloader_serial_gccarmemb_nrf52840_xxAA.dir/src/serial_handler_uart.c.obj
 .bss.m_tx_fifo_buffer
                0x20000900       0x9c mesh/bootloader/CMakeFiles/mesh_bootloader_serial_gccarmemb_nrf52840_xxAA.dir/src/serial_handler_uart.c.obj
 .bss.m_tx_len  0x2000099c        0x4 mesh/bootloader/CMakeFiles/mesh_bootloader_serial_gccarmemb_nrf52840_xxAA.dir/src/serial_handler_uart.c.obj
 .bss.mp_tx_ptr
                0x200009a0        0x4 mesh/bootloader/CMakeFiles/mesh_bootloader_serial_gccarmemb_nrf52840_xxAA.dir/src/serial_handler_uart.c.obj
 .bss.rx_buf.11615
                0x200009a4       0x27 mesh/bootloader/CMakeFiles/mesh_bootloader_serial_gccarmemb_nrf52840_xxAA.dir/src/serial_handler_uart.c.obj
 *(COMMON)
 *fill*         0x200009cb        0x1 
 COMMON         0x200009cc        0x2 mesh/bootloader/CMakeFiles/mesh_bootloader_serial_gccarmemb_nrf52840_xxAA.dir/src/transport.c.obj
                0x200009cc                m_tx_evt_bitfield
                0x200009d0                . = ALIGN (0x4)
 *fill*         0x200009ce        0x2 
                0x200009d0                __bss_end__ = .

.heap           0x200009d0     0x4000
                0x200009d0                __HeapBase = .
                0x200009d0                __end__ = .
                [!provide]                PROVIDE (end = .)
 *(.heap*)
 .heap          0x200009d0     0x4000 mesh/bootloader/CMakeFiles/mesh_bootloader_serial_gccarmemb_nrf52840_xxAA.dir/C_/nordic/nRF5_SDK/nRF5_SDK_17.0.2_d674dde/modules/nrfx/mdk/gcc_startup_nrf52840.S.obj
                0x200049d0                __HeapLimit = .

.stack_dummy    0x200009d0     0x4000
 *(.stack*)
 .stack         0x200009d0     0x4000 mesh/bootloader/CMakeFiles/mesh_bootloader_serial_gccarmemb_nrf52840_xxAA.dir/C_/nordic/nRF5_SDK/nRF5_SDK_17.0.2_d674dde/modules/nrfx/mdk/gcc_startup_nrf52840.S.obj
                0x2003fd00                __StackTop = (ORIGIN (RAM) + LENGTH (RAM))
                0x2003bd00                __StackLimit = (__StackTop - SIZEOF (.stack_dummy))
                0x2003fd00                PROVIDE (__stack = __StackTop)
                0x00000001                ASSERT ((__StackLimit >= __HeapLimit), region RAM overflowed with stack)
                0x00000078                DataInitFlashUsed = (__bss_start__ - __data_start__)
                0x0000511c                CodeFlashUsed = (__etext - ORIGIN (FLASH))
                0x00005194                TotalFlashUsed = (CodeFlashUsed + DataInitFlashUsed)
                0x00000001                ASSERT ((TotalFlashUsed <= LENGTH (FLASH)), region FLASH overflowed with .data and user data)
OUTPUT(mesh\bootloader\mesh_bootloader_serial_gccarmemb_nrf52840_xxAA.elf elf32-littlearm)

.ARM.attributes
                0x00000000       0x30
 .ARM.attributes
                0x00000000       0x1e c:/nordic/gcc-arm-none-eabi-9-2019-q4-major/bin/../lib/gcc/arm-none-eabi/9.2.1/thumb/v7e-m+fp/hard/crti.o
 .ARM.attributes
                0x0000001e       0x34 c:/nordic/gcc-arm-none-eabi-9-2019-q4-major/bin/../lib/gcc/arm-none-eabi/9.2.1/thumb/v7e-m+fp/hard/crtbegin.o
 .ARM.attributes
                0x00000052       0x1c c:/nordic/gcc-arm-none-eabi-9-2019-q4-major/bin/../lib/gcc/arm-none-eabi/9.2.1/../../../../arm-none-eabi/lib/thumb/v7e-m+fp/hard/crt0.o
 .ARM.attributes
                0x0000006e       0x34 mesh/bootloader/CMakeFiles/mesh_bootloader_serial_gccarmemb_nrf52840_xxAA.dir/src/bootloader.c.obj
 .ARM.attributes
                0x000000a2       0x34 mesh/bootloader/CMakeFiles/mesh_bootloader_serial_gccarmemb_nrf52840_xxAA.dir/src/bootloader_app_bridge.c.obj
 .ARM.attributes
                0x000000d6       0x34 mesh/bootloader/CMakeFiles/mesh_bootloader_serial_gccarmemb_nrf52840_xxAA.dir/src/bootloader_info.c.obj
 .ARM.attributes
                0x0000010a       0x34 mesh/bootloader/CMakeFiles/mesh_bootloader_serial_gccarmemb_nrf52840_xxAA.dir/src/bootloader_rtc.c.obj
 .ARM.attributes
                0x0000013e       0x34 mesh/bootloader/CMakeFiles/mesh_bootloader_serial_gccarmemb_nrf52840_xxAA.dir/src/bootloader_util.c.obj
 .ARM.attributes
                0x00000172       0x34 mesh/bootloader/CMakeFiles/mesh_bootloader_serial_gccarmemb_nrf52840_xxAA.dir/src/dfu_bank.c.obj
 .ARM.attributes
                0x000001a6       0x34 mesh/bootloader/CMakeFiles/mesh_bootloader_serial_gccarmemb_nrf52840_xxAA.dir/src/dfu_mesh.c.obj
 .ARM.attributes
                0x000001da       0x34 mesh/bootloader/CMakeFiles/mesh_bootloader_serial_gccarmemb_nrf52840_xxAA.dir/src/dfu_transfer_mesh.c.obj
 .ARM.attributes
                0x0000020e       0x34 mesh/bootloader/CMakeFiles/mesh_bootloader_serial_gccarmemb_nrf52840_xxAA.dir/src/dfu_util.c.obj
 .ARM.attributes
                0x00000242       0x34 mesh/bootloader/CMakeFiles/mesh_bootloader_serial_gccarmemb_nrf52840_xxAA.dir/src/fifo.c.obj
 .ARM.attributes
                0x00000276       0x34 mesh/bootloader/CMakeFiles/mesh_bootloader_serial_gccarmemb_nrf52840_xxAA.dir/src/main.c.obj
 .ARM.attributes
                0x000002aa       0x34 mesh/bootloader/CMakeFiles/mesh_bootloader_serial_gccarmemb_nrf52840_xxAA.dir/src/mesh_packet.c.obj
 .ARM.attributes
                0x000002de       0x34 mesh/bootloader/CMakeFiles/mesh_bootloader_serial_gccarmemb_nrf52840_xxAA.dir/src/nrf_flash.c.obj
 .ARM.attributes
                0x00000312       0x34 mesh/bootloader/CMakeFiles/mesh_bootloader_serial_gccarmemb_nrf52840_xxAA.dir/src/radio_control.c.obj
 .ARM.attributes
                0x00000346       0x34 mesh/bootloader/CMakeFiles/mesh_bootloader_serial_gccarmemb_nrf52840_xxAA.dir/src/rand.c.obj
 .ARM.attributes
                0x0000037a       0x34 mesh/bootloader/CMakeFiles/mesh_bootloader_serial_gccarmemb_nrf52840_xxAA.dir/src/transport.c.obj
 .ARM.attributes
                0x000003ae       0x34 mesh/bootloader/CMakeFiles/mesh_bootloader_serial_gccarmemb_nrf52840_xxAA.dir/src/uECC.c.obj
 .ARM.attributes
                0x000003e2       0x34 mesh/bootloader/CMakeFiles/mesh_bootloader_serial_gccarmemb_nrf52840_xxAA.dir/C_/nordic/nRF5_SDK/nRF5_SDK_17.0.2_d674dde/components/libraries/sha256/sha256.c.obj
 .ARM.attributes
                0x00000416       0x34 mesh/bootloader/CMakeFiles/mesh_bootloader_serial_gccarmemb_nrf52840_xxAA.dir/src/serial_handler_uart.c.obj
 .ARM.attributes
                0x0000044a       0x34 mesh/bootloader/CMakeFiles/mesh_bootloader_serial_gccarmemb_nrf52840_xxAA.dir/src/mesh_aci.c.obj
 .ARM.attributes
                0x0000047e       0x34 mesh/bootloader/CMakeFiles/mesh_bootloader_serial_gccarmemb_nrf52840_xxAA.dir/C_/nordic/nRF5_SDK/nRF5_SDK_17.0.2_d674dde/modules/nrfx/mdk/system_nrf52840.c.obj
 .ARM.attributes
                0x000004b2       0x20 mesh/bootloader/CMakeFiles/mesh_bootloader_serial_gccarmemb_nrf52840_xxAA.dir/C_/nordic/nRF5_SDK/nRF5_SDK_17.0.2_d674dde/modules/nrfx/mdk/gcc_startup_nrf52840.S.obj
 .ARM.attributes
                0x000004d2       0x1e c:/nordic/gcc-arm-none-eabi-9-2019-q4-major/bin/../lib/gcc/arm-none-eabi/9.2.1/thumb/v7e-m+fp/hard\libgcc.a(_aeabi_uldivmod.o)
 .ARM.attributes
                0x000004f0       0x34 c:/nordic/gcc-arm-none-eabi-9-2019-q4-major/bin/../lib/gcc/arm-none-eabi/9.2.1/thumb/v7e-m+fp/hard\libgcc.a(_udivmoddi4.o)
 .ARM.attributes
                0x00000524       0x1e c:/nordic/gcc-arm-none-eabi-9-2019-q4-major/bin/../lib/gcc/arm-none-eabi/9.2.1/thumb/v7e-m+fp/hard\libgcc.a(_dvmd_tls.o)
 .ARM.attributes
                0x00000542       0x34 c:/nordic/gcc-arm-none-eabi-9-2019-q4-major/bin/../lib/gcc/arm-none-eabi/9.2.1/../../../../arm-none-eabi/lib/thumb/v7e-m+fp/hard\libg_nano.a(lib_a-exit.o)
 .ARM.attributes
                0x00000576       0x32 c:/nordic/gcc-arm-none-eabi-9-2019-q4-major/bin/../lib/gcc/arm-none-eabi/9.2.1/../../../../arm-none-eabi/lib/thumb/v7e-m+fp/hard\libg_nano.a(lib_a-impure.o)
 .ARM.attributes
                0x000005a8       0x34 c:/nordic/gcc-arm-none-eabi-9-2019-q4-major/bin/../lib/gcc/arm-none-eabi/9.2.1/../../../../arm-none-eabi/lib/thumb/v7e-m+fp/hard\libg_nano.a(lib_a-init.o)
 .ARM.attributes
                0x000005dc       0x34 c:/nordic/gcc-arm-none-eabi-9-2019-q4-major/bin/../lib/gcc/arm-none-eabi/9.2.1/../../../../arm-none-eabi/lib/thumb/v7e-m+fp/hard\libg_nano.a(lib_a-memcmp.o)
 .ARM.attributes
                0x00000610       0x34 c:/nordic/gcc-arm-none-eabi-9-2019-q4-major/bin/../lib/gcc/arm-none-eabi/9.2.1/../../../../arm-none-eabi/lib/thumb/v7e-m+fp/hard\libg_nano.a(lib_a-memcpy-stub.o)
 .ARM.attributes
                0x00000644       0x34 c:/nordic/gcc-arm-none-eabi-9-2019-q4-major/bin/../lib/gcc/arm-none-eabi/9.2.1/../../../../arm-none-eabi/lib/thumb/v7e-m+fp/hard\libg_nano.a(lib_a-memset.o)
 .ARM.attributes
                0x00000678       0x32 c:/nordic/gcc-arm-none-eabi-9-2019-q4-major/bin/../lib/gcc/arm-none-eabi/9.2.1/thumb/v7e-m+fp/hard/crtend.o
 .ARM.attributes
                0x000006aa       0x1e c:/nordic/gcc-arm-none-eabi-9-2019-q4-major/bin/../lib/gcc/arm-none-eabi/9.2.1/thumb/v7e-m+fp/hard/crtn.o
 .ARM.attributes
                0x000006c8       0x34 c:/nordic/gcc-arm-none-eabi-9-2019-q4-major/bin/../lib/gcc/arm-none-eabi/9.2.1/../../../../arm-none-eabi/lib/thumb/v7e-m+fp/hard\libnosys.a(_exit.o)

.comment        0x00000000       0x79
 .comment       0x00000000       0x79 mesh/bootloader/CMakeFiles/mesh_bootloader_serial_gccarmemb_nrf52840_xxAA.dir/src/bootloader.c.obj
                                 0x7a (size before relaxing)
 .comment       0x00000079       0x7a mesh/bootloader/CMakeFiles/mesh_bootloader_serial_gccarmemb_nrf52840_xxAA.dir/src/bootloader_app_bridge.c.obj
 .comment       0x00000079       0x7a mesh/bootloader/CMakeFiles/mesh_bootloader_serial_gccarmemb_nrf52840_xxAA.dir/src/bootloader_info.c.obj
 .comment       0x00000079       0x7a mesh/bootloader/CMakeFiles/mesh_bootloader_serial_gccarmemb_nrf52840_xxAA.dir/src/bootloader_rtc.c.obj
 .comment       0x00000079       0x7a mesh/bootloader/CMakeFiles/mesh_bootloader_serial_gccarmemb_nrf52840_xxAA.dir/src/bootloader_util.c.obj
 .comment       0x00000079       0x7a mesh/bootloader/CMakeFiles/mesh_bootloader_serial_gccarmemb_nrf52840_xxAA.dir/src/dfu_bank.c.obj
 .comment       0x00000079       0x7a mesh/bootloader/CMakeFiles/mesh_bootloader_serial_gccarmemb_nrf52840_xxAA.dir/src/dfu_mesh.c.obj
 .comment       0x00000079       0x7a mesh/bootloader/CMakeFiles/mesh_bootloader_serial_gccarmemb_nrf52840_xxAA.dir/src/dfu_transfer_mesh.c.obj
 .comment       0x00000079       0x7a mesh/bootloader/CMakeFiles/mesh_bootloader_serial_gccarmemb_nrf52840_xxAA.dir/src/dfu_util.c.obj
 .comment       0x00000079       0x7a mesh/bootloader/CMakeFiles/mesh_bootloader_serial_gccarmemb_nrf52840_xxAA.dir/src/fifo.c.obj
 .comment       0x00000079       0x7a mesh/bootloader/CMakeFiles/mesh_bootloader_serial_gccarmemb_nrf52840_xxAA.dir/src/main.c.obj
 .comment       0x00000079       0x7a mesh/bootloader/CMakeFiles/mesh_bootloader_serial_gccarmemb_nrf52840_xxAA.dir/src/mesh_packet.c.obj
 .comment       0x00000079       0x7a mesh/bootloader/CMakeFiles/mesh_bootloader_serial_gccarmemb_nrf52840_xxAA.dir/src/nrf_flash.c.obj
 .comment       0x00000079       0x7a mesh/bootloader/CMakeFiles/mesh_bootloader_serial_gccarmemb_nrf52840_xxAA.dir/src/radio_control.c.obj
 .comment       0x00000079       0x7a mesh/bootloader/CMakeFiles/mesh_bootloader_serial_gccarmemb_nrf52840_xxAA.dir/src/rand.c.obj
 .comment       0x00000079       0x7a mesh/bootloader/CMakeFiles/mesh_bootloader_serial_gccarmemb_nrf52840_xxAA.dir/src/transport.c.obj
 .comment       0x00000079       0x7a mesh/bootloader/CMakeFiles/mesh_bootloader_serial_gccarmemb_nrf52840_xxAA.dir/src/uECC.c.obj
 .comment       0x00000079       0x7a mesh/bootloader/CMakeFiles/mesh_bootloader_serial_gccarmemb_nrf52840_xxAA.dir/C_/nordic/nRF5_SDK/nRF5_SDK_17.0.2_d674dde/components/libraries/sha256/sha256.c.obj
 .comment       0x00000079       0x7a mesh/bootloader/CMakeFiles/mesh_bootloader_serial_gccarmemb_nrf52840_xxAA.dir/src/serial_handler_uart.c.obj
 .comment       0x00000079       0x7a mesh/bootloader/CMakeFiles/mesh_bootloader_serial_gccarmemb_nrf52840_xxAA.dir/src/mesh_aci.c.obj
 .comment       0x00000079       0x7a mesh/bootloader/CMakeFiles/mesh_bootloader_serial_gccarmemb_nrf52840_xxAA.dir/C_/nordic/nRF5_SDK/nRF5_SDK_17.0.2_d674dde/modules/nrfx/mdk/system_nrf52840.c.obj

.debug_info     0x00000000    0x2454e
 .debug_info    0x00000000     0x3e7d mesh/bootloader/CMakeFiles/mesh_bootloader_serial_gccarmemb_nrf52840_xxAA.dir/src/bootloader.c.obj
 .debug_info    0x00003e7d     0x265a mesh/bootloader/CMakeFiles/mesh_bootloader_serial_gccarmemb_nrf52840_xxAA.dir/src/bootloader_app_bridge.c.obj
 .debug_info    0x000064d7     0x1eec mesh/bootloader/CMakeFiles/mesh_bootloader_serial_gccarmemb_nrf52840_xxAA.dir/src/bootloader_info.c.obj
 .debug_info    0x000083c3      0x809 mesh/bootloader/CMakeFiles/mesh_bootloader_serial_gccarmemb_nrf52840_xxAA.dir/src/bootloader_rtc.c.obj
 .debug_info    0x00008bcc      0x98a mesh/bootloader/CMakeFiles/mesh_bootloader_serial_gccarmemb_nrf52840_xxAA.dir/src/bootloader_util.c.obj
 .debug_info    0x00009556     0x25a1 mesh/bootloader/CMakeFiles/mesh_bootloader_serial_gccarmemb_nrf52840_xxAA.dir/src/dfu_bank.c.obj
 .debug_info    0x0000baf7     0x3be4 mesh/bootloader/CMakeFiles/mesh_bootloader_serial_gccarmemb_nrf52840_xxAA.dir/src/dfu_mesh.c.obj
 .debug_info    0x0000f6db     0x1017 mesh/bootloader/CMakeFiles/mesh_bootloader_serial_gccarmemb_nrf52840_xxAA.dir/src/dfu_transfer_mesh.c.obj
 .debug_info    0x000106f2     0x194d mesh/bootloader/CMakeFiles/mesh_bootloader_serial_gccarmemb_nrf52840_xxAA.dir/src/dfu_util.c.obj
 .debug_info    0x0001203f      0xda2 mesh/bootloader/CMakeFiles/mesh_bootloader_serial_gccarmemb_nrf52840_xxAA.dir/src/fifo.c.obj
 .debug_info    0x00012de1     0x1752 mesh/bootloader/CMakeFiles/mesh_bootloader_serial_gccarmemb_nrf52840_xxAA.dir/src/main.c.obj
 .debug_info    0x00014533     0x1623 mesh/bootloader/CMakeFiles/mesh_bootloader_serial_gccarmemb_nrf52840_xxAA.dir/src/mesh_packet.c.obj
 .debug_info    0x00015b56      0x812 mesh/bootloader/CMakeFiles/mesh_bootloader_serial_gccarmemb_nrf52840_xxAA.dir/src/nrf_flash.c.obj
 .debug_info    0x00016368     0x1a06 mesh/bootloader/CMakeFiles/mesh_bootloader_serial_gccarmemb_nrf52840_xxAA.dir/src/radio_control.c.obj
 .debug_info    0x00017d6e      0x387 mesh/bootloader/CMakeFiles/mesh_bootloader_serial_gccarmemb_nrf52840_xxAA.dir/src/rand.c.obj
 .debug_info    0x000180f5     0x27f2 mesh/bootloader/CMakeFiles/mesh_bootloader_serial_gccarmemb_nrf52840_xxAA.dir/src/transport.c.obj
 .debug_info    0x0001a8e7     0x212d mesh/bootloader/CMakeFiles/mesh_bootloader_serial_gccarmemb_nrf52840_xxAA.dir/src/uECC.c.obj
 .debug_info    0x0001ca14      0xd27 mesh/bootloader/CMakeFiles/mesh_bootloader_serial_gccarmemb_nrf52840_xxAA.dir/C_/nordic/nRF5_SDK/nRF5_SDK_17.0.2_d674dde/components/libraries/sha256/sha256.c.obj
 .debug_info    0x0001d73b     0x24d9 mesh/bootloader/CMakeFiles/mesh_bootloader_serial_gccarmemb_nrf52840_xxAA.dir/src/serial_handler_uart.c.obj
 .debug_info    0x0001fc14     0x335f mesh/bootloader/CMakeFiles/mesh_bootloader_serial_gccarmemb_nrf52840_xxAA.dir/src/mesh_aci.c.obj
 .debug_info    0x00022f73     0x15db mesh/bootloader/CMakeFiles/mesh_bootloader_serial_gccarmemb_nrf52840_xxAA.dir/C_/nordic/nRF5_SDK/nRF5_SDK_17.0.2_d674dde/modules/nrfx/mdk/system_nrf52840.c.obj

.debug_abbrev   0x00000000     0x4f5d
 .debug_abbrev  0x00000000      0x517 mesh/bootloader/CMakeFiles/mesh_bootloader_serial_gccarmemb_nrf52840_xxAA.dir/src/bootloader.c.obj
 .debug_abbrev  0x00000517      0x40d mesh/bootloader/CMakeFiles/mesh_bootloader_serial_gccarmemb_nrf52840_xxAA.dir/src/bootloader_app_bridge.c.obj
 .debug_abbrev  0x00000924      0x5a0 mesh/bootloader/CMakeFiles/mesh_bootloader_serial_gccarmemb_nrf52840_xxAA.dir/src/bootloader_info.c.obj
 .debug_abbrev  0x00000ec4      0x1c2 mesh/bootloader/CMakeFiles/mesh_bootloader_serial_gccarmemb_nrf52840_xxAA.dir/src/bootloader_rtc.c.obj
 .debug_abbrev  0x00001086      0x214 mesh/bootloader/CMakeFiles/mesh_bootloader_serial_gccarmemb_nrf52840_xxAA.dir/src/bootloader_util.c.obj
 .debug_abbrev  0x0000129a      0x4ed mesh/bootloader/CMakeFiles/mesh_bootloader_serial_gccarmemb_nrf52840_xxAA.dir/src/dfu_bank.c.obj
 .debug_abbrev  0x00001787      0x550 mesh/bootloader/CMakeFiles/mesh_bootloader_serial_gccarmemb_nrf52840_xxAA.dir/src/dfu_mesh.c.obj
 .debug_abbrev  0x00001cd7      0x3e3 mesh/bootloader/CMakeFiles/mesh_bootloader_serial_gccarmemb_nrf52840_xxAA.dir/src/dfu_transfer_mesh.c.obj
 .debug_abbrev  0x000020ba      0x4cf mesh/bootloader/CMakeFiles/mesh_bootloader_serial_gccarmemb_nrf52840_xxAA.dir/src/dfu_util.c.obj
 .debug_abbrev  0x00002589      0x335 mesh/bootloader/CMakeFiles/mesh_bootloader_serial_gccarmemb_nrf52840_xxAA.dir/src/fifo.c.obj
 .debug_abbrev  0x000028be      0x37e mesh/bootloader/CMakeFiles/mesh_bootloader_serial_gccarmemb_nrf52840_xxAA.dir/src/main.c.obj
 .debug_abbrev  0x00002c3c      0x3dc mesh/bootloader/CMakeFiles/mesh_bootloader_serial_gccarmemb_nrf52840_xxAA.dir/src/mesh_packet.c.obj
 .debug_abbrev  0x00003018      0x1f8 mesh/bootloader/CMakeFiles/mesh_bootloader_serial_gccarmemb_nrf52840_xxAA.dir/src/nrf_flash.c.obj
 .debug_abbrev  0x00003210      0x4da mesh/bootloader/CMakeFiles/mesh_bootloader_serial_gccarmemb_nrf52840_xxAA.dir/src/radio_control.c.obj
 .debug_abbrev  0x000036ea      0x1a3 mesh/bootloader/CMakeFiles/mesh_bootloader_serial_gccarmemb_nrf52840_xxAA.dir/src/rand.c.obj
 .debug_abbrev  0x0000388d      0x584 mesh/bootloader/CMakeFiles/mesh_bootloader_serial_gccarmemb_nrf52840_xxAA.dir/src/transport.c.obj
 .debug_abbrev  0x00003e11      0x2dd mesh/bootloader/CMakeFiles/mesh_bootloader_serial_gccarmemb_nrf52840_xxAA.dir/src/uECC.c.obj
 .debug_abbrev  0x000040ee      0x28b mesh/bootloader/CMakeFiles/mesh_bootloader_serial_gccarmemb_nrf52840_xxAA.dir/C_/nordic/nRF5_SDK/nRF5_SDK_17.0.2_d674dde/components/libraries/sha256/sha256.c.obj
 .debug_abbrev  0x00004379      0x502 mesh/bootloader/CMakeFiles/mesh_bootloader_serial_gccarmemb_nrf52840_xxAA.dir/src/serial_handler_uart.c.obj
 .debug_abbrev  0x0000487b      0x47d mesh/bootloader/CMakeFiles/mesh_bootloader_serial_gccarmemb_nrf52840_xxAA.dir/src/mesh_aci.c.obj
 .debug_abbrev  0x00004cf8      0x265 mesh/bootloader/CMakeFiles/mesh_bootloader_serial_gccarmemb_nrf52840_xxAA.dir/C_/nordic/nRF5_SDK/nRF5_SDK_17.0.2_d674dde/modules/nrfx/mdk/system_nrf52840.c.obj

.debug_loc      0x00000000     0x7535
 .debug_loc     0x00000000      0x688 mesh/bootloader/CMakeFiles/mesh_bootloader_serial_gccarmemb_nrf52840_xxAA.dir/src/bootloader.c.obj
 .debug_loc     0x00000688      0x3e8 mesh/bootloader/CMakeFiles/mesh_bootloader_serial_gccarmemb_nrf52840_xxAA.dir/src/bootloader_app_bridge.c.obj
 .debug_loc     0x00000a70      0xce4 mesh/bootloader/CMakeFiles/mesh_bootloader_serial_gccarmemb_nrf52840_xxAA.dir/src/bootloader_info.c.obj
 .debug_loc     0x00001754       0x42 mesh/bootloader/CMakeFiles/mesh_bootloader_serial_gccarmemb_nrf52840_xxAA.dir/src/bootloader_rtc.c.obj
 .debug_loc     0x00001796       0x37 mesh/bootloader/CMakeFiles/mesh_bootloader_serial_gccarmemb_nrf52840_xxAA.dir/src/bootloader_util.c.obj
 .debug_loc     0x000017cd      0x3b6 mesh/bootloader/CMakeFiles/mesh_bootloader_serial_gccarmemb_nrf52840_xxAA.dir/src/dfu_bank.c.obj
 .debug_loc     0x00001b83     0x13bc mesh/bootloader/CMakeFiles/mesh_bootloader_serial_gccarmemb_nrf52840_xxAA.dir/src/dfu_mesh.c.obj
 .debug_loc     0x00002f3f      0x53f mesh/bootloader/CMakeFiles/mesh_bootloader_serial_gccarmemb_nrf52840_xxAA.dir/src/dfu_transfer_mesh.c.obj
 .debug_loc     0x0000347e      0x761 mesh/bootloader/CMakeFiles/mesh_bootloader_serial_gccarmemb_nrf52840_xxAA.dir/src/dfu_util.c.obj
 .debug_loc     0x00003bdf      0x3c4 mesh/bootloader/CMakeFiles/mesh_bootloader_serial_gccarmemb_nrf52840_xxAA.dir/src/fifo.c.obj
 .debug_loc     0x00003fa3       0x57 mesh/bootloader/CMakeFiles/mesh_bootloader_serial_gccarmemb_nrf52840_xxAA.dir/src/main.c.obj
 .debug_loc     0x00003ffa      0x685 mesh/bootloader/CMakeFiles/mesh_bootloader_serial_gccarmemb_nrf52840_xxAA.dir/src/mesh_packet.c.obj
 .debug_loc     0x0000467f      0x1c1 mesh/bootloader/CMakeFiles/mesh_bootloader_serial_gccarmemb_nrf52840_xxAA.dir/src/nrf_flash.c.obj
 .debug_loc     0x00004840      0x302 mesh/bootloader/CMakeFiles/mesh_bootloader_serial_gccarmemb_nrf52840_xxAA.dir/src/radio_control.c.obj
 .debug_loc     0x00004b42      0x11e mesh/bootloader/CMakeFiles/mesh_bootloader_serial_gccarmemb_nrf52840_xxAA.dir/src/rand.c.obj
 .debug_loc     0x00004c60      0x719 mesh/bootloader/CMakeFiles/mesh_bootloader_serial_gccarmemb_nrf52840_xxAA.dir/src/transport.c.obj
 .debug_loc     0x00005379     0x1733 mesh/bootloader/CMakeFiles/mesh_bootloader_serial_gccarmemb_nrf52840_xxAA.dir/src/uECC.c.obj
 .debug_loc     0x00006aac      0x698 mesh/bootloader/CMakeFiles/mesh_bootloader_serial_gccarmemb_nrf52840_xxAA.dir/C_/nordic/nRF5_SDK/nRF5_SDK_17.0.2_d674dde/components/libraries/sha256/sha256.c.obj
 .debug_loc     0x00007144      0x19f mesh/bootloader/CMakeFiles/mesh_bootloader_serial_gccarmemb_nrf52840_xxAA.dir/src/serial_handler_uart.c.obj
 .debug_loc     0x000072e3      0x16a mesh/bootloader/CMakeFiles/mesh_bootloader_serial_gccarmemb_nrf52840_xxAA.dir/src/mesh_aci.c.obj
 .debug_loc     0x0000744d       0xe8 mesh/bootloader/CMakeFiles/mesh_bootloader_serial_gccarmemb_nrf52840_xxAA.dir/C_/nordic/nRF5_SDK/nRF5_SDK_17.0.2_d674dde/modules/nrfx/mdk/system_nrf52840.c.obj

.debug_aranges  0x00000000      0x7f0
 .debug_aranges
                0x00000000       0x78 mesh/bootloader/CMakeFiles/mesh_bootloader_serial_gccarmemb_nrf52840_xxAA.dir/src/bootloader.c.obj
 .debug_aranges
                0x00000078       0x60 mesh/bootloader/CMakeFiles/mesh_bootloader_serial_gccarmemb_nrf52840_xxAA.dir/src/bootloader_app_bridge.c.obj
 .debug_aranges
                0x000000d8       0xc0 mesh/bootloader/CMakeFiles/mesh_bootloader_serial_gccarmemb_nrf52840_xxAA.dir/src/bootloader_info.c.obj
 .debug_aranges
                0x00000198       0x28 mesh/bootloader/CMakeFiles/mesh_bootloader_serial_gccarmemb_nrf52840_xxAA.dir/src/bootloader_rtc.c.obj
 .debug_aranges
                0x000001c0       0x20 mesh/bootloader/CMakeFiles/mesh_bootloader_serial_gccarmemb_nrf52840_xxAA.dir/src/bootloader_util.c.obj
 .debug_aranges
                0x000001e0       0x50 mesh/bootloader/CMakeFiles/mesh_bootloader_serial_gccarmemb_nrf52840_xxAA.dir/src/dfu_bank.c.obj
 .debug_aranges
                0x00000230       0xb8 mesh/bootloader/CMakeFiles/mesh_bootloader_serial_gccarmemb_nrf52840_xxAA.dir/src/dfu_mesh.c.obj
 .debug_aranges
                0x000002e8       0x58 mesh/bootloader/CMakeFiles/mesh_bootloader_serial_gccarmemb_nrf52840_xxAA.dir/src/dfu_transfer_mesh.c.obj
 .debug_aranges
                0x00000340       0xa0 mesh/bootloader/CMakeFiles/mesh_bootloader_serial_gccarmemb_nrf52840_xxAA.dir/src/dfu_util.c.obj
 .debug_aranges
                0x000003e0       0x60 mesh/bootloader/CMakeFiles/mesh_bootloader_serial_gccarmemb_nrf52840_xxAA.dir/src/fifo.c.obj
 .debug_aranges
                0x00000440       0x38 mesh/bootloader/CMakeFiles/mesh_bootloader_serial_gccarmemb_nrf52840_xxAA.dir/src/main.c.obj
 .debug_aranges
                0x00000478       0x80 mesh/bootloader/CMakeFiles/mesh_bootloader_serial_gccarmemb_nrf52840_xxAA.dir/src/mesh_packet.c.obj
 .debug_aranges
                0x000004f8       0x28 mesh/bootloader/CMakeFiles/mesh_bootloader_serial_gccarmemb_nrf52840_xxAA.dir/src/nrf_flash.c.obj
 .debug_aranges
                0x00000520       0x40 mesh/bootloader/CMakeFiles/mesh_bootloader_serial_gccarmemb_nrf52840_xxAA.dir/src/radio_control.c.obj
 .debug_aranges
                0x00000560       0x30 mesh/bootloader/CMakeFiles/mesh_bootloader_serial_gccarmemb_nrf52840_xxAA.dir/src/rand.c.obj
 .debug_aranges
                0x00000590       0xa8 mesh/bootloader/CMakeFiles/mesh_bootloader_serial_gccarmemb_nrf52840_xxAA.dir/src/transport.c.obj
 .debug_aranges
                0x00000638       0xb0 mesh/bootloader/CMakeFiles/mesh_bootloader_serial_gccarmemb_nrf52840_xxAA.dir/src/uECC.c.obj
 .debug_aranges
                0x000006e8       0x38 mesh/bootloader/CMakeFiles/mesh_bootloader_serial_gccarmemb_nrf52840_xxAA.dir/C_/nordic/nRF5_SDK/nRF5_SDK_17.0.2_d674dde/components/libraries/sha256/sha256.c.obj
 .debug_aranges
                0x00000720       0x60 mesh/bootloader/CMakeFiles/mesh_bootloader_serial_gccarmemb_nrf52840_xxAA.dir/src/serial_handler_uart.c.obj
 .debug_aranges
                0x00000780       0x38 mesh/bootloader/CMakeFiles/mesh_bootloader_serial_gccarmemb_nrf52840_xxAA.dir/src/mesh_aci.c.obj
 .debug_aranges
                0x000007b8       0x38 mesh/bootloader/CMakeFiles/mesh_bootloader_serial_gccarmemb_nrf52840_xxAA.dir/C_/nordic/nRF5_SDK/nRF5_SDK_17.0.2_d674dde/modules/nrfx/mdk/system_nrf52840.c.obj

.debug_ranges   0x00000000     0x1250
 .debug_ranges  0x00000000      0x138 mesh/bootloader/CMakeFiles/mesh_bootloader_serial_gccarmemb_nrf52840_xxAA.dir/src/bootloader.c.obj
 .debug_ranges  0x00000138       0x50 mesh/bootloader/CMakeFiles/mesh_bootloader_serial_gccarmemb_nrf52840_xxAA.dir/src/bootloader_app_bridge.c.obj
 .debug_ranges  0x00000188      0x1f0 mesh/bootloader/CMakeFiles/mesh_bootloader_serial_gccarmemb_nrf52840_xxAA.dir/src/bootloader_info.c.obj
 .debug_ranges  0x00000378       0x18 mesh/bootloader/CMakeFiles/mesh_bootloader_serial_gccarmemb_nrf52840_xxAA.dir/src/bootloader_rtc.c.obj
 .debug_ranges  0x00000390       0x10 mesh/bootloader/CMakeFiles/mesh_bootloader_serial_gccarmemb_nrf52840_xxAA.dir/src/bootloader_util.c.obj
 .debug_ranges  0x000003a0      0x118 mesh/bootloader/CMakeFiles/mesh_bootloader_serial_gccarmemb_nrf52840_xxAA.dir/src/dfu_bank.c.obj
 .debug_ranges  0x000004b8      0x3c8 mesh/bootloader/CMakeFiles/mesh_bootloader_serial_gccarmemb_nrf52840_xxAA.dir/src/dfu_mesh.c.obj
 .debug_ranges  0x00000880       0xb0 mesh/bootloader/CMakeFiles/mesh_bootloader_serial_gccarmemb_nrf52840_xxAA.dir/src/dfu_transfer_mesh.c.obj
 .debug_ranges  0x00000930       0xc8 mesh/bootloader/CMakeFiles/mesh_bootloader_serial_gccarmemb_nrf52840_xxAA.dir/src/dfu_util.c.obj
 .debug_ranges  0x000009f8       0x68 mesh/bootloader/CMakeFiles/mesh_bootloader_serial_gccarmemb_nrf52840_xxAA.dir/src/fifo.c.obj
 .debug_ranges  0x00000a60       0x40 mesh/bootloader/CMakeFiles/mesh_bootloader_serial_gccarmemb_nrf52840_xxAA.dir/src/main.c.obj
 .debug_ranges  0x00000aa0       0xe0 mesh/bootloader/CMakeFiles/mesh_bootloader_serial_gccarmemb_nrf52840_xxAA.dir/src/mesh_packet.c.obj
 .debug_ranges  0x00000b80       0x70 mesh/bootloader/CMakeFiles/mesh_bootloader_serial_gccarmemb_nrf52840_xxAA.dir/src/nrf_flash.c.obj
 .debug_ranges  0x00000bf0      0x130 mesh/bootloader/CMakeFiles/mesh_bootloader_serial_gccarmemb_nrf52840_xxAA.dir/src/radio_control.c.obj
 .debug_ranges  0x00000d20       0x38 mesh/bootloader/CMakeFiles/mesh_bootloader_serial_gccarmemb_nrf52840_xxAA.dir/src/rand.c.obj
 .debug_ranges  0x00000d58      0x190 mesh/bootloader/CMakeFiles/mesh_bootloader_serial_gccarmemb_nrf52840_xxAA.dir/src/transport.c.obj
 .debug_ranges  0x00000ee8      0x198 mesh/bootloader/CMakeFiles/mesh_bootloader_serial_gccarmemb_nrf52840_xxAA.dir/src/uECC.c.obj
 .debug_ranges  0x00001080       0x28 mesh/bootloader/CMakeFiles/mesh_bootloader_serial_gccarmemb_nrf52840_xxAA.dir/C_/nordic/nRF5_SDK/nRF5_SDK_17.0.2_d674dde/components/libraries/sha256/sha256.c.obj
 .debug_ranges  0x000010a8       0xe8 mesh/bootloader/CMakeFiles/mesh_bootloader_serial_gccarmemb_nrf52840_xxAA.dir/src/serial_handler_uart.c.obj
 .debug_ranges  0x00001190       0x98 mesh/bootloader/CMakeFiles/mesh_bootloader_serial_gccarmemb_nrf52840_xxAA.dir/src/mesh_aci.c.obj
 .debug_ranges  0x00001228       0x28 mesh/bootloader/CMakeFiles/mesh_bootloader_serial_gccarmemb_nrf52840_xxAA.dir/C_/nordic/nRF5_SDK/nRF5_SDK_17.0.2_d674dde/modules/nrfx/mdk/system_nrf52840.c.obj

.debug_line     0x00000000     0xb3d0
 .debug_line    0x00000000      0xf3d mesh/bootloader/CMakeFiles/mesh_bootloader_serial_gccarmemb_nrf52840_xxAA.dir/src/bootloader.c.obj
 .debug_line    0x00000f3d      0x682 mesh/bootloader/CMakeFiles/mesh_bootloader_serial_gccarmemb_nrf52840_xxAA.dir/src/bootloader_app_bridge.c.obj
 .debug_line    0x000015bf      0xe90 mesh/bootloader/CMakeFiles/mesh_bootloader_serial_gccarmemb_nrf52840_xxAA.dir/src/bootloader_info.c.obj
 .debug_line    0x0000244f      0x2cd mesh/bootloader/CMakeFiles/mesh_bootloader_serial_gccarmemb_nrf52840_xxAA.dir/src/bootloader_rtc.c.obj
 .debug_line    0x0000271c      0x1a4 mesh/bootloader/CMakeFiles/mesh_bootloader_serial_gccarmemb_nrf52840_xxAA.dir/src/bootloader_util.c.obj
 .debug_line    0x000028c0      0x9d1 mesh/bootloader/CMakeFiles/mesh_bootloader_serial_gccarmemb_nrf52840_xxAA.dir/src/dfu_bank.c.obj
 .debug_line    0x00003291     0x1984 mesh/bootloader/CMakeFiles/mesh_bootloader_serial_gccarmemb_nrf52840_xxAA.dir/src/dfu_mesh.c.obj
 .debug_line    0x00004c15      0x6cc mesh/bootloader/CMakeFiles/mesh_bootloader_serial_gccarmemb_nrf52840_xxAA.dir/src/dfu_transfer_mesh.c.obj
 .debug_line    0x000052e1      0x7d4 mesh/bootloader/CMakeFiles/mesh_bootloader_serial_gccarmemb_nrf52840_xxAA.dir/src/dfu_util.c.obj
 .debug_line    0x00005ab5      0x52c mesh/bootloader/CMakeFiles/mesh_bootloader_serial_gccarmemb_nrf52840_xxAA.dir/src/fifo.c.obj
 .debug_line    0x00005fe1      0x4ba mesh/bootloader/CMakeFiles/mesh_bootloader_serial_gccarmemb_nrf52840_xxAA.dir/src/main.c.obj
 .debug_line    0x0000649b      0x840 mesh/bootloader/CMakeFiles/mesh_bootloader_serial_gccarmemb_nrf52840_xxAA.dir/src/mesh_packet.c.obj
 .debug_line    0x00006cdb      0x3e4 mesh/bootloader/CMakeFiles/mesh_bootloader_serial_gccarmemb_nrf52840_xxAA.dir/src/nrf_flash.c.obj
 .debug_line    0x000070bf      0x7cc mesh/bootloader/CMakeFiles/mesh_bootloader_serial_gccarmemb_nrf52840_xxAA.dir/src/radio_control.c.obj
 .debug_line    0x0000788b      0x32e mesh/bootloader/CMakeFiles/mesh_bootloader_serial_gccarmemb_nrf52840_xxAA.dir/src/rand.c.obj
 .debug_line    0x00007bb9      0xc5d mesh/bootloader/CMakeFiles/mesh_bootloader_serial_gccarmemb_nrf52840_xxAA.dir/src/transport.c.obj
 .debug_line    0x00008816      0xdbf mesh/bootloader/CMakeFiles/mesh_bootloader_serial_gccarmemb_nrf52840_xxAA.dir/src/uECC.c.obj
 .debug_line    0x000095d5      0x95f mesh/bootloader/CMakeFiles/mesh_bootloader_serial_gccarmemb_nrf52840_xxAA.dir/C_/nordic/nRF5_SDK/nRF5_SDK_17.0.2_d674dde/components/libraries/sha256/sha256.c.obj
 .debug_line    0x00009f34      0x879 mesh/bootloader/CMakeFiles/mesh_bootloader_serial_gccarmemb_nrf52840_xxAA.dir/src/serial_handler_uart.c.obj
 .debug_line    0x0000a7ad      0x705 mesh/bootloader/CMakeFiles/mesh_bootloader_serial_gccarmemb_nrf52840_xxAA.dir/src/mesh_aci.c.obj
 .debug_line    0x0000aeb2      0x51e mesh/bootloader/CMakeFiles/mesh_bootloader_serial_gccarmemb_nrf52840_xxAA.dir/C_/nordic/nRF5_SDK/nRF5_SDK_17.0.2_d674dde/modules/nrfx/mdk/system_nrf52840.c.obj

.debug_str      0x00000000     0x57b3
 .debug_str     0x00000000     0x291d mesh/bootloader/CMakeFiles/mesh_bootloader_serial_gccarmemb_nrf52840_xxAA.dir/src/bootloader.c.obj
                               0x2bb1 (size before relaxing)
 .debug_str     0x0000291d      0x320 mesh/bootloader/CMakeFiles/mesh_bootloader_serial_gccarmemb_nrf52840_xxAA.dir/src/bootloader_app_bridge.c.obj
                               0x19e5 (size before relaxing)
 .debug_str     0x00002c3d      0x51d mesh/bootloader/CMakeFiles/mesh_bootloader_serial_gccarmemb_nrf52840_xxAA.dir/src/bootloader_info.c.obj
                               0x10ae (size before relaxing)
 .debug_str     0x0000315a       0x52 mesh/bootloader/CMakeFiles/mesh_bootloader_serial_gccarmemb_nrf52840_xxAA.dir/src/bootloader_rtc.c.obj
                                0x706 (size before relaxing)
 .debug_str     0x000031ac       0x3f mesh/bootloader/CMakeFiles/mesh_bootloader_serial_gccarmemb_nrf52840_xxAA.dir/src/bootloader_util.c.obj
                                0x61a (size before relaxing)
 .debug_str     0x000031eb      0x189 mesh/bootloader/CMakeFiles/mesh_bootloader_serial_gccarmemb_nrf52840_xxAA.dir/src/dfu_bank.c.obj
                               0x1824 (size before relaxing)
 .debug_str     0x00003374      0x7f5 mesh/bootloader/CMakeFiles/mesh_bootloader_serial_gccarmemb_nrf52840_xxAA.dir/src/dfu_mesh.c.obj
                               0x1bbf (size before relaxing)
 .debug_str     0x00003b69      0x114 mesh/bootloader/CMakeFiles/mesh_bootloader_serial_gccarmemb_nrf52840_xxAA.dir/src/dfu_transfer_mesh.c.obj
                                0xa51 (size before relaxing)
 .debug_str     0x00003c7d      0x148 mesh/bootloader/CMakeFiles/mesh_bootloader_serial_gccarmemb_nrf52840_xxAA.dir/src/dfu_util.c.obj
                               0x1171 (size before relaxing)
 .debug_str     0x00003dc5       0x68 mesh/bootloader/CMakeFiles/mesh_bootloader_serial_gccarmemb_nrf52840_xxAA.dir/src/fifo.c.obj
                                0x709 (size before relaxing)
 .debug_str     0x00003e2d      0x1ef mesh/bootloader/CMakeFiles/mesh_bootloader_serial_gccarmemb_nrf52840_xxAA.dir/src/main.c.obj
                                0xf7d (size before relaxing)
 .debug_str     0x0000401c      0x17a mesh/bootloader/CMakeFiles/mesh_bootloader_serial_gccarmemb_nrf52840_xxAA.dir/src/mesh_packet.c.obj
                                0xb4f (size before relaxing)
 .debug_str     0x00004196       0xc9 mesh/bootloader/CMakeFiles/mesh_bootloader_serial_gccarmemb_nrf52840_xxAA.dir/src/nrf_flash.c.obj
                                0x4ae (size before relaxing)
 .debug_str     0x0000425f      0x57c mesh/bootloader/CMakeFiles/mesh_bootloader_serial_gccarmemb_nrf52840_xxAA.dir/src/radio_control.c.obj
                               0x1080 (size before relaxing)
 .debug_str     0x000047db       0x7d mesh/bootloader/CMakeFiles/mesh_bootloader_serial_gccarmemb_nrf52840_xxAA.dir/src/rand.c.obj
                                0x31b (size before relaxing)
 .debug_str     0x00004858      0x1b3 mesh/bootloader/CMakeFiles/mesh_bootloader_serial_gccarmemb_nrf52840_xxAA.dir/src/transport.c.obj
                               0x17ee (size before relaxing)
 .debug_str     0x00004a0b      0x2a3 mesh/bootloader/CMakeFiles/mesh_bootloader_serial_gccarmemb_nrf52840_xxAA.dir/src/uECC.c.obj
                                0x4df (size before relaxing)
 .debug_str     0x00004cae       0x7d mesh/bootloader/CMakeFiles/mesh_bootloader_serial_gccarmemb_nrf52840_xxAA.dir/C_/nordic/nRF5_SDK/nRF5_SDK_17.0.2_d674dde/components/libraries/sha256/sha256.c.obj
                                0x713 (size before relaxing)
 .debug_str     0x00004d2b      0x60e mesh/bootloader/CMakeFiles/mesh_bootloader_serial_gccarmemb_nrf52840_xxAA.dir/src/serial_handler_uart.c.obj
                               0x1908 (size before relaxing)
 .debug_str     0x00005339      0x2e1 mesh/bootloader/CMakeFiles/mesh_bootloader_serial_gccarmemb_nrf52840_xxAA.dir/src/mesh_aci.c.obj
                               0x27d1 (size before relaxing)
 .debug_str     0x0000561a      0x199 mesh/bootloader/CMakeFiles/mesh_bootloader_serial_gccarmemb_nrf52840_xxAA.dir/C_/nordic/nRF5_SDK/nRF5_SDK_17.0.2_d674dde/modules/nrfx/mdk/system_nrf52840.c.obj
                                0x96e (size before relaxing)

.debug_frame    0x00000000     0x1630
 .debug_frame   0x00000000      0x14c mesh/bootloader/CMakeFiles/mesh_bootloader_serial_gccarmemb_nrf52840_xxAA.dir/src/bootloader.c.obj
 .debug_frame   0x0000014c       0xf8 mesh/bootloader/CMakeFiles/mesh_bootloader_serial_gccarmemb_nrf52840_xxAA.dir/src/bootloader_app_bridge.c.obj
 .debug_frame   0x00000244      0x230 mesh/bootloader/CMakeFiles/mesh_bootloader_serial_gccarmemb_nrf52840_xxAA.dir/src/bootloader_info.c.obj
 .debug_frame   0x00000474       0x40 mesh/bootloader/CMakeFiles/mesh_bootloader_serial_gccarmemb_nrf52840_xxAA.dir/src/bootloader_rtc.c.obj
 .debug_frame   0x000004b4       0x30 mesh/bootloader/CMakeFiles/mesh_bootloader_serial_gccarmemb_nrf52840_xxAA.dir/src/bootloader_util.c.obj
 .debug_frame   0x000004e4       0xbc mesh/bootloader/CMakeFiles/mesh_bootloader_serial_gccarmemb_nrf52840_xxAA.dir/src/dfu_bank.c.obj
 .debug_frame   0x000005a0      0x280 mesh/bootloader/CMakeFiles/mesh_bootloader_serial_gccarmemb_nrf52840_xxAA.dir/src/dfu_mesh.c.obj
 .debug_frame   0x00000820       0xf0 mesh/bootloader/CMakeFiles/mesh_bootloader_serial_gccarmemb_nrf52840_xxAA.dir/src/dfu_transfer_mesh.c.obj
 .debug_frame   0x00000910      0x1a0 mesh/bootloader/CMakeFiles/mesh_bootloader_serial_gccarmemb_nrf52840_xxAA.dir/src/dfu_util.c.obj
 .debug_frame   0x00000ab0       0xc8 mesh/bootloader/CMakeFiles/mesh_bootloader_serial_gccarmemb_nrf52840_xxAA.dir/src/fifo.c.obj
 .debug_frame   0x00000b78       0x58 mesh/bootloader/CMakeFiles/mesh_bootloader_serial_gccarmemb_nrf52840_xxAA.dir/src/main.c.obj
 .debug_frame   0x00000bd0      0x154 mesh/bootloader/CMakeFiles/mesh_bootloader_serial_gccarmemb_nrf52840_xxAA.dir/src/mesh_packet.c.obj
 .debug_frame   0x00000d24       0x50 mesh/bootloader/CMakeFiles/mesh_bootloader_serial_gccarmemb_nrf52840_xxAA.dir/src/nrf_flash.c.obj
 .debug_frame   0x00000d74       0xac mesh/bootloader/CMakeFiles/mesh_bootloader_serial_gccarmemb_nrf52840_xxAA.dir/src/radio_control.c.obj
 .debug_frame   0x00000e20       0x5c mesh/bootloader/CMakeFiles/mesh_bootloader_serial_gccarmemb_nrf52840_xxAA.dir/src/rand.c.obj
 .debug_frame   0x00000e7c      0x1e0 mesh/bootloader/CMakeFiles/mesh_bootloader_serial_gccarmemb_nrf52840_xxAA.dir/src/transport.c.obj
 .debug_frame   0x0000105c      0x22c mesh/bootloader/CMakeFiles/mesh_bootloader_serial_gccarmemb_nrf52840_xxAA.dir/src/uECC.c.obj
 .debug_frame   0x00001288       0x94 mesh/bootloader/CMakeFiles/mesh_bootloader_serial_gccarmemb_nrf52840_xxAA.dir/C_/nordic/nRF5_SDK/nRF5_SDK_17.0.2_d674dde/components/libraries/sha256/sha256.c.obj
 .debug_frame   0x0000131c       0xf4 mesh/bootloader/CMakeFiles/mesh_bootloader_serial_gccarmemb_nrf52840_xxAA.dir/src/serial_handler_uart.c.obj
 .debug_frame   0x00001410       0x80 mesh/bootloader/CMakeFiles/mesh_bootloader_serial_gccarmemb_nrf52840_xxAA.dir/src/mesh_aci.c.obj
 .debug_frame   0x00001490       0x58 mesh/bootloader/CMakeFiles/mesh_bootloader_serial_gccarmemb_nrf52840_xxAA.dir/C_/nordic/nRF5_SDK/nRF5_SDK_17.0.2_d674dde/modules/nrfx/mdk/system_nrf52840.c.obj
 .debug_frame   0x000014e8       0x2c c:/nordic/gcc-arm-none-eabi-9-2019-q4-major/bin/../lib/gcc/arm-none-eabi/9.2.1/thumb/v7e-m+fp/hard\libgcc.a(_aeabi_uldivmod.o)
 .debug_frame   0x00001514       0x34 c:/nordic/gcc-arm-none-eabi-9-2019-q4-major/bin/../lib/gcc/arm-none-eabi/9.2.1/thumb/v7e-m+fp/hard\libgcc.a(_udivmoddi4.o)
 .debug_frame   0x00001548       0x28 c:/nordic/gcc-arm-none-eabi-9-2019-q4-major/bin/../lib/gcc/arm-none-eabi/9.2.1/../../../../arm-none-eabi/lib/thumb/v7e-m+fp/hard\libg_nano.a(lib_a-exit.o)
 .debug_frame   0x00001570       0x2c c:/nordic/gcc-arm-none-eabi-9-2019-q4-major/bin/../lib/gcc/arm-none-eabi/9.2.1/../../../../arm-none-eabi/lib/thumb/v7e-m+fp/hard\libg_nano.a(lib_a-init.o)
 .debug_frame   0x0000159c       0x2c c:/nordic/gcc-arm-none-eabi-9-2019-q4-major/bin/../lib/gcc/arm-none-eabi/9.2.1/../../../../arm-none-eabi/lib/thumb/v7e-m+fp/hard\libg_nano.a(lib_a-memcmp.o)
 .debug_frame   0x000015c8       0x28 c:/nordic/gcc-arm-none-eabi-9-2019-q4-major/bin/../lib/gcc/arm-none-eabi/9.2.1/../../../../arm-none-eabi/lib/thumb/v7e-m+fp/hard\libg_nano.a(lib_a-memcpy-stub.o)
 .debug_frame   0x000015f0       0x20 c:/nordic/gcc-arm-none-eabi-9-2019-q4-major/bin/../lib/gcc/arm-none-eabi/9.2.1/../../../../arm-none-eabi/lib/thumb/v7e-m+fp/hard\libg_nano.a(lib_a-memset.o)
 .debug_frame   0x00001610       0x20 c:/nordic/gcc-arm-none-eabi-9-2019-q4-major/bin/../lib/gcc/arm-none-eabi/9.2.1/../../../../arm-none-eabi/lib/thumb/v7e-m+fp/hard\libnosys.a(_exit.o)
