:0200000270008C
:1080000000FD0120E1C4070009C50700BDAC070061
:108010000DC507000FC5070011C5070000000000CF
:1080200000000000000000000000000013C5070071
:1080300015C507000000000017C5070019C5070097
:108040001BC50700BDB407001BC507001BC5070003
:108050001BC507001BC507001BC507001BC5070084
:108060001BC507001BC507001BC50700399107008A
:108070001BC507001BC507001BC507001BC5070064
:108080001BC507001BC507001BC507001BC5070054
:1080900065B507001BC507001BC50700198307004E
:1080A0001BC507001BC507001BC507001BC5070034
:1080B0001BC507001BC507000000000000000000F2
:1080C0001BC507001BC507001BC507001BC5070014
:1080D0001BC507001BC507001BC507001BC5070004
:1080E0001BC50700000000000000000000000000A9
:1080F000000000001BC50700000000001BC50700B2
:10810000000000000000000000000000000000006F
:10811000000000000000000000000000000000005F
:10812000000000000000000000000000000000004F
:10813000000000000000000000000000000000003F
:10814000000000000000000000000000000000002F
:10815000000000000000000000000000000000001F
:10816000000000000000000000000000000000000F
:1081700000000000000000000000000000000000FF
:1081800000000000000000000000000000000000EF
:1081900000000000000000000000000000000000DF
:1081A00000000000000000000000000000000000CF
:1081B00000000000000000000000000000000000BF
:1081C00000000000000000000000000000000000AF
:1081D000000000000000000000000000000000009F
:1081E000000000000000000000000000000000008F
:1081F000000000000000000000000000000000007F
:1082000010B5054C237833B9044B13B10448AFF3D0
:1082100000800123237010BD7800002000000000C2
:1082200080CA070008B5034B1BB103490348AFF3ED
:10823000008008BD000000007C00002080CA07000C
:10824000154B002B08BF134B9D46A3F5803A002128
:108250008B460F461348144A121A04F02FFB0F4B9B
:10826000002B00D098470E4B002B00D098470020E1
:10827000002104000D000D48002802D00C48AFF387
:10828000008004F0DBFA2000290002F01BFD04F05E
:10829000C1FA00BF0000080000FD0120000000003E
:1082A0000000000078000020080800200000000006
:1082B0000000000013DF704718DF7047084A0023F2
:1082C000C2F84431D2F80435184420F07F404FF40E
:1082D0000033C2F84405C2F80433024B19707047EA
:1082E00000B000402D0100207FB502F0CDFD78B137
:1082F00082884FF6EF739A420AD902238DF8003034
:10830000031D019303786846033B029300F0B2FA21
:1083100007B05DF804FB0000F0B5324E8BB00025CD
:1083200061276946304602F06DFC0446A8B12DB1C4
:10833000622304A88DF8103000F09CFA294802F05E
:10834000B4FC40B1284B1B782BB1122000F08EFDFD
:10835000006800F02DFF0BB0F0BD9DF80020019BE0
:10836000012A05F101052CD1990701D002F0A3FCE7
:10837000039B9A0702D0002002F09DFC029B9B0702
:1083800002D0002002F097FC0198B0F1005F12D3F8
:10839000DDE90223A34208D860238DF81030029B48
:1083A000059304A800F066FABBE7135D025D134075
:1083B00003550134ECE7DDE90212002302F0B2FDBF
:1083C000EAE7B3F1005F029A07D3FF21184604F0F1
:1083D00075FA019B8DF81070E2E71146184602F01D
:1083E00071FDF6E7940000202C01002010B5224C0E
:1083F00088B000F0C5FE00211822204604F05EFA85
:108400001E4B2360102208232046C4E9012302F0FA
:10841000C3FB1B4B602283F817234FF400021A6042
:1084200000F0ECFA08B102F046FC01228DF80C20B5
:10843000144A0492002340F6010202A88DF8083085
:10844000ADF814208DF8163000F014FA08B102F0DF
:1084500032FC0D490D4803F035F80DF1070001F02D
:1084600021F89DF8073023B14FF080430022C3F874
:108470001C2508B010BD00BF94000020AC000020F7
:1084800000E100E0F9850700D6BE898EE982070089
:1084900070B58AB0012304A88DF8103000F0EAF915
:1084A00003F056F801F0EBFE30B103214FF4A020A9
:1084B000FFF704FF0AB070BD042000F0D7FC0546AA
:1084C000122000F0D3FC0646102000F0CFFC04463A
:1084D000022001F00DF80028ECD04FF0FF3300939C
:1084E0002B78590706D533681B68013304BF6FF03A
:1084F000040300932A78009BD2070DD522681268E6
:10850000013209D162683AB123F001030093694650
:10851000042000F0B0FC01E00133F8D101F080FE4E
:1085200005460028C6D000F0E3FF0528C2D102208E
:1085300000F09CFC044608B902F0BDFB012D05D0FB
:10854000042D0DD00B2002F0B6FB02E02388ADF81D
:1085500004304FF0FF3201A9284601F0B1FCA9E731
:10856000043494E8070001AB03C31A80F1E700F07C
:1085700081B9000030B5054685B0122000F076FCC8
:1085800004460A2D32D8DFE805F0060631313131D4
:1085900006312D310600F8B101F071FEE0B114484A
:1085A00002F083FBD0B102F0E1FA02F0A5FD002356
:1085B000CDE901330393684602230093FFF77CFE65
:1085C00008B102F078FB2068FFF774FE08B102F0F2
:1085D00072FB206800F0ECFD05B030BD054B0122B8
:1085E0001A70F9E7002002F066FBF5E772B6FEE7C5
:1085F000940000202C01002030B50378252B87B093
:10860000054611D81F2B05D8022B00F0B580062097
:1086100007B030BD213B042B3AD8DFE813F07600D9
:10862000B800DA00DE00E200602B38D021D8502BF1
:1086300000F0E580512BEAD14368990740F0DB80D8
:1086400083689A0740F0D780C3689B0740F0D580C5
:108650000123291D0C2201A88DF8003004F020F917
:108660006B48694602F0A7FA002800F0CA8004208F
:10867000CEE7622B45D0702BC9D18168654AC8030B
:108680000023490C03F04AFF0221FFF717FE04E024
:108690000079FFF76FFF01F0A3FB0020B8E700238C
:1086A0006846009302F062FB0028E0D0009802F0D8
:1086B000D7FB009B1A78022161F303021A70AB68A2
:1086C000009A0A335370009816238372E423C3720E
:1086D000FE230373AB6803334372D5E901120D30F7
:1086E00004F0DEF82B7B6A7BA97B009802F060FF28
:1086F0000446009802F07CFB002C14BF00200320ED
:1087000086E7007902F08CFFC7E7434B4FF4003255
:10871000C3F80823414B00221A700379022B28D199
:10872000232368468DF80030FFF721FF01232B71CA
:10873000AC1D6979204602F0FEF80028ADD0022079
:1087400000F094FB08B902F0B6FA35482023037014
:108750004FF0FF3303616B7903712368C0F8053074
:108760006368C0F809302389A0F80D3000F082F862
:108770004EE7012B91D1DBE70579022D8DD101F078
:108780007EFD002889D1284600F0B2FE85E70379F6
:10879000022B82D1204B4FF40032C3F808231F4B29
:1087A00000241C7021238DF80030034653F8072F56
:1087B000CDF805205A681B89ADF80D3083798DF806
:1087C00004304369CDF8092068460493FFF7CFFED3
:1087D00063E701214FF4202057E701214FF4702077
:1087E00053E74379042B02D0012B7FF456AF0020CE
:1087F000FFF7C0FE51E710200AE7092008E702232F
:1088000027E7084B4FF40002C3F8002100E700BF40
:108810009400002040420F0000B000402D010020D5
:108820003001002000E100E010B5114C2278022A4E
:1088300086B007D0032A11D0012A14D123238DF842
:10884000003005E003238DF8003000238DF804305C
:10885000002368462370FFF78AFE02E00020FFF73E
:1088600089FE06B010BD082002F025FAF0E700BF2F
:108870002D01002030B50378322B8BB005463CD853
:108880001F2B06D8042B31D9062002F014FA062437
:108890005BE0203B122BF7D801A252F823F000BF77
:1088A00087890700938907008F8807009F89070041
:1088B000A58907008988070089880700898807003B
:1088C0008988070089880700898807008988070048
:1088D0008988070089880700898807008988070038
:1088E000AD890700BD890700D1890700013B032B33
:1088F00011D8DFE803F02D31383B612B6CD0622BAF
:108900006DD0602BC0D1406801F0AEFF69680120D6
:1089100000F066FB1EE0374B82681A60837B364AA4
:1089200083F001031370037B002B5FD0437B012B8B
:108930005CD94FF4FC214FF4FE2000F037FA0446D6
:10894000002855D1687B01F029FA20460BB030BDD4
:1089500001F046FA0024F8E701894068012201F09D
:10896000EFFA0446F1E701F04BFDF3E70023011DA8
:10897000102202A88DF8043003F092FF1D4B01A8CD
:108980001B689847EDE70269411D007901F098FAEC
:10899000E7E70269411D007901F0ACFAE1E701F077
:1089A0009BFDD7E7007900F0A3FDDAE7808800F0AF
:1089B0005DFAA8600028CDD10524C6E7D0E90212EF
:1089C000808800F093FAB0F5FE2FC3D21024BCE7E4
:1089D000808800F065FAC4E74168022098E700F05B
:1089E0008BFB00F0A9FD01F079FDB3E70724ACE7AC
:1089F0000324AAE708FD01200CFD01204FF080535D
:108A0000064AD3F80C3103F500239B02002043F8FB
:108A1000042C034B01221A70704700BF75880700B1
:108A20000CFD0120024B1B6803B11847082070475A
:108A300008FD012000B58BB020238DF8080001A8A7
:108A40008DF80430FFF7EEFF0BB05DF804FB70B556
:108A50008AB006460D4614460021242201A803F0E0
:108A60002DFF512301A8CDE902658DF8043004944F
:108A7000FFF7D8FF0AB070BD30B58BB005460C4685
:108A80002422002101A803F019FF502301A8CDE9F9
:108A900002548DF80430FFF7C5FF0BB030BD00B5B0
:108AA0008BB062238DF8080001A88DF80430FFF721
:108AB000B9FF0BB05DF804FB024B187880F00100A1
:108AC000704700BF0CFD012030B50278FF2A19D095
:108AD000024440F6010300F5805047F6FF745588C4
:108AE0008D4201D1101D30BD158802EB85029042E8
:108AF00008D35588A54201D1A14203D1013BEED153
:108B00001846F0E70020EEE748B1B0F5002F05D099
:108B1000034B1B685B78A0EB830070470020704715
:108B200034FD012008B547F6FF71FFF7CDFF18B1FE
:108B3000BDE80840FFF7E8BF08BD0000830710B597
:108B4000044602D0102002F0B6F820460249BDE8E3
:108B500010400422FFF77BBFE8C8070010B5064CA1
:108B60000223D4E9010104222370FFF770FF08B14A
:108B70000123237610BD00BF10FD0120F8B51B4F67
:108B80004FF6FF763C46D7E9023203F580539A420E
:108B900004D30123237604232370F8BD5388B34202
:108BA000F7D0E3B1158847F6FF729342236914BFEB
:108BB000AD0004255A19636803F580539A4202D91F
:108BC000032002F078F8D4E903102A46FFF73FFFAC
:108BD0000028E2D12269E36863612A442261E368E4
:108BE0001A8803EB8203E360CDE700BF10FD01208C
:108BF00010B50A4C22787AB901232370084B1B78F0
:108C0000C4E9010123B94FF48051FFF735FF10B1DA
:108C100001232376002010BD0820FCE710FD012071
:108C20002DFD0120038800EB83000B4B03F1800234
:108C3000904208BF1846094B1860094B1B689842C0
:108C400008D0A3EB0003C3F38F0388BF2033038056
:108C500000234380704700BF38FD0120B8FD01208C
:108C6000BCFD012013B50C4B1B78012B044604D02E
:108C70000020019102F01FF801992046FFF724FF20
:108C8000FFF742FF20B102B0BDE81040FFF756BF2A
:108C9000052002B010BD00BF2CFD01202DE9F74FCB
:108CA0009DF83090019103334FEA890823F00305C2
:108CB00008F10403064617462B44EFF3108A72B6F8
:108CC000DFF8E4C0DCF800402288B3EB820F4FEA03
:108CD000820E01D8608828B1BAF1000F00D162B6C7
:108CE000042338E02E4A11688C422E4937D1CCF843
:108CF000001011609B0848800B800846FFF792FF28
:108D0000BAF1000F4AD162B60C46B9F1000F0AD091
:108D100004EB05090822FF21484603F0CFFD47F682
:108D2000FF73A9F8063005F107094FEA990323807C
:108D3000019B63802A463946201D03F0B1FD29F0CE
:108D40000302424421463046FFF781FE034610B13C
:108D500001F0B1FF0023184603B0BDE8F08F01F128
:108D6000800BABEB040293420DD9A4EB0B0BF34445
:108D70005B45B1D847F6FF7E9208A4F802E0228056
:108D8000CCF80010B6E79B08608023802046FFF7F0
:108D900049FFBAF1000FB8D162B6B6E7014CB4E7AB
:108DA000BCFD012038FD0120B8FD01202DE9F04176
:108DB000254E40EA01040023C4F30B043370002C59
:108DC0003ED1224FDFF8A080214DC8F8000080225C
:108DD00029603846214603F071FD1E4BD8F800008B
:108DE0001F601D4B1F6020233B80FFF79BFE1B4F26
:108DF0001C22386021461A4803F060FD194B1C7094
:108E00003B68C3B92868FFF78DFE0746D0B1D8F894
:108E100000004FF48051FFF72FFE08B101F04BFF27
:108E20002968D8F80000C1F104023A44FFF70FFEA8
:108E300008B101F040FF012333702046BDE8F08106
:108E40001024FAE70B24F8E72CFD012038FD01205F
:108E500030FD0120B8FD0120BCFD0120C0FD012036
:108E600010FD01202DFD012034FD012001464FF4AD
:108E7000FE20FFF729BE1FB504460391FFF7F6FF5A
:108E8000FFF742FE50B10388039A00219B00009136
:108E9000043B2146FFF702FF04B010BD0520FBE7AD
:108EA00001464FF4FE20FFF7DDBE000010B50B4C6D
:108EB0002378012B02D0002001F0FDFE0423237053
:108EC000074B1968074B0A1D1A60074B1868FFF714
:108ED0008FFE08B90323237010BD00BF2CFD0120B5
:108EE00034FD0120C0FD012030FD01202DE9F347B4
:108EF0002F4B1B78012B81468A46144602D0002056
:108F000001F0D9FE542C02D9002001F0D4FE294EE4
:108F100033689B0702D0002001F0CDFE3368B3F523
:108F2000FE2F02D8002001F0C6FE356835B90E20AC
:108F300001F0C1FE284602B0BDE8F0871E4F3B6835
:108F400005F10802224403F580539A4204D3082015
:108F500001F0B1FE0025EDE74846FFF787FFFFF778
:108F6000D3FD164A012313708046009352462346D0
:108F700049462846FFF792FE08B10420E8E7336827
:108F8000073424F003041C443460B8F1000F04D00B
:108F90004046FFF7D3FD0028EFD132683B685832D6
:108FA00003F580539A4201D3FFF780FF0435C1E7F0
:108FB0002CFD0120C0FD012034FD01202DFD0120EC
:108FC000054B1B78012B05BF044B1878002080F05F
:108FD000010000F0010070472CFD01202DFD012053
:108FE00001282DE9F04106460C4632D13A4FB942EC
:108FF0002FD307F18003994298462AD2374D2B6828
:10900000994202D0102001F056FEEFF3108272B6A2
:109010002B6819884FF6FF739942314B18BF20888F
:1090200019680B8814BF1B1801330B80238804EBCD
:109030008303434508BF3B466FF0004019682B602F
:10904000814204D10433434508BF3B462B6002B93B
:1090500062B6244D2B78013B032B0AD8DFE803F0DE
:10906000021A2629022E04D16B689C4201D1FFF717
:1090700075FD2B7863B91C4C2378032B21D11B4B36
:1090800019681B4B1868FFF7B3FD08B90523237057
:10909000BDE8F081012EECD1AB689C42E9D10323FD
:1090A0002B706B6804340433EC602B61FFF766FDB2
:1090B000DFE7012EDDD16B699C4204BF00232B70DA
:1090C000D7E7052BE4D10A4B1868FFF72BFD094BB6
:1090D00018600123DBE700BF38FD0120BCFD012043
:1090E000B8FD012010FD01202CFD012030FD0120E4
:1090F00034FD0120C0FD01200C4B002119700C4BE8
:109100001B6859800B4B1A7872B1187E60B1012A26
:10911000197602D0022A05D0704758684FF4805162
:10912000FFF7AABCFFF71ABD704700BF2DFD012055
:10913000B8FD012010FD012010B5104CD4F84031CD
:1091400043B1D4F80433DA0304D50023C4F8403122
:1091500002F08AFAD4F8443173B1D4F804339B0393
:109160000AD50023C4F844314FF40033C4F808335F
:10917000BDE81040FFF758BB10BD00BF00B0004075
:10918000094B0022C3F808254FF44032C3F84423AA
:1091900001229A601A60054B202283F80B234FF4BA
:1091A00000621A60704700BF00B0004000E100E0BC
:1091B000F0B50346186880F308885868FF2464B245
:1091C000EFF30585002D01D1A6460047254606464A
:1091D00021273FBAF0B40024002500260027F0B470
:1091E000F92040B2004700BFF0BD00BF18DF704754
:1091F0002DE9F041A64F3C68C0B0002C5BD0EFF3E6
:10920000108672B65422214601A803F049FBE37C84
:10921000F83B072B4DD8DFE813F031014C004C0030
:109220004C00B9004C00150008009A4B01221A703E
:10923000FE238DF81730984B187801A92030FFF7DE
:109240001AFE36E0944FDFF84C82012388F8003094
:109250003B7816A9DB4304201693FFF70CFE3D78FC
:10926000022D0CD0042D3CD0012D40F08B8010201D
:10927000FFF7FCFD10BB0E2001F01DFD19E01120D1
:109280002568FFF7F3FD62680168284603F0FAFAE3
:10929000002872D001F06AFC62B600232B93236889
:1092A0002C9363689B082BA82D93FFF79FFF002842
:1092B000E2D106B962B640B0BDE8F08101686268EB
:1092C000206803F0DFFA002857D001F04FFC62B6A7
:1092D0002B9523682C9363689B082E934FF480533F
:1092E000E1E7FFF7E9FBB8B101F040FC4FF0804344
:1092F0004FF00F12C3F800240022C3F81C25BFF35F
:109300004F8F6649664BCA6802F4E0621343CB6034
:10931000BFF34F8F00BFFDE71220FFF7A7FD054603
:1093200008B901F0C8FC2B68C3F30B0313B100208C
:1093300001F0C1FC50238DF8AC302B682C9363688E
:1093400003F6FF7323F47F6323F00F032BA82D9301
:10935000FFF768FB18B1012388F80030A9E7512313
:109360008DF8AC3023682D9363682E932B682C9373
:109370002BA8FFF757FB0028EDD1FC2338788DF898
:1093800017305AE70B2001F096FCF6E70220FFF7B2
:109390006DFD05460420FFF769FD804615B9284696
:1093A00001F089FC0E22294616A803F079FA04225E
:1093B000B8F1000F20D1FF212BA803F07FFA364D22
:1093C0002B78022B1DD0042B27D0012B37D12389DA
:1093D000ADF858309DF8AC3043F001038DF8AC3057
:1093E0004FF01A080E2216A90220FFF77FFD60BB7E
:1093F000284B01221A705CE741462BA803F050FA73
:10940000DDE72389ADF85A309DF8AC3043F0020314
:109410008DF8AC304FF01B08E4E7A3681793A389DD
:10942000ADF86030D4F80E30CDF862309DF8AC3035
:1094300043F004038DF8AC304FF01C08D2E70B204A
:1094400001F039FC4FF00008CCE7A37C3BB140228F
:1094500004F114014046FFF749FD0028C8D004225A
:109460002BA91046FFF742FD0028C1D02878F82329
:1094700001A920308DF81730FFF7FDFC064B187856
:109480002030FFF70DFD0028B2D1386011E700BF92
:10949000B4FE0120B1FE0120B0FE012000ED00E08D
:1094A0000400FA0570B504460325012606F12000E4
:1094B00080B2FFF7DBFC60B1C37CFF2B09D00A4B05
:1094C0001E700A4B1860FFF793FE0CB10123237046
:1094D00070BD013D4FEA4606E8D1044B1D60002CEB
:1094E000F6D02570F4E700BFB0FE0120B4FE0120E5
:1094F000431E012B70B5054601D9042812D10C4E2C
:1095000034688CB905F12000FFF7B0FC70B1036836
:109510001B6801330AD0074B30601D70FFF768FEEF
:10952000204670BD0720FCE70820FAE70520F8E791
:10953000B4FE0120B0FE0120054B1B6833B1054B82
:109540001A781AB100221A70FFF752BE704700BF96
:10955000B4FE0120B1FE0120024B1868003818BF8C
:1095600001207047B4FE01208268531CC36808BF05
:1095700000229B0002F00F02013B1344028A1B09E8
:1095800001330AB103EB12134FF6FF70984228BF64
:109590001846704710B50420FFF768FC174C20618F
:1095A0000220FFF763FC20601220FFF75FFCE06001
:1095B0001120FFF75BFCA0601020FFF757FC6060F4
:1095C0000120FFF753FC23696061B3F5FE2F0FD331
:1095D0002368B3F5FE2F0BD3E368B3F5FE2F07D353
:1095E0006368B3F5FE2F03D3A368B3F5FE2F04D24F
:1095F000BDE810400820FFF71DBA10BDC4FD0120D2
:1096000030B591B001AD044618220021284603F080
:1096100055F94CB3384B1A791968029102F00701D9
:109620004FF6FD7242EA0162344993F871000978FD
:1096300042EAC062C81F4142414142EA01723049D8
:10964000019811402F4A024053F8660F11430191CF
:1096500059681B8903AA03C21380631E022B47D8D3
:10966000DFE803F028333D004FF6FE73ADF8043019
:10967000254B1B680DF1060203F10C0153F8040B96
:1096800042F8040B8B42F9D11B8813800F2402236C
:10969000102260218DF8283007A80023CDE9085258
:1096A0008DF81C108DF829408DF82A30FFF7BAF993
:1096B00011B030BD9DF80630042262F303038DF82B
:1096C0000630122223460324E3E79DF806200123F7
:1096D00063F303028DF8062003240A22D9E79DF8DC
:1096E0000630022262F303038DF806300123F4E70B
:1096F000012303240022CCE704FE012000FD012009
:10970000FDFF001F0000FFE0C4FD012008B50020A0
:10971000FFF776FF044B054801221A70BDE80840A8
:109720007422002103F0CAB800FD012004FE0120CC
:1097300000B58BB0827821238DF80430C2F3030387
:109740008DF80930084B00F108011B788DF80830BE
:1097500002F00F020DF10A0001F092F801A8FFF7E4
:1097600061F90BB05DF804FB00FD012030B5104C31
:10977000104D23782D789D428BB000D90BB9012371
:10978000237060238DF804300023CDE902018DF8A9
:10979000103001A823788DF811208DF81230FFF7D2
:1097A00041F910B92378013323700BB030BD00BFED
:1097B00001FD012078FE012038B502884FF6FC73C8
:1097C0009A4204460ED14388002B14BF032206227E
:1097D0002046FFF7CBFF054610B9204601F092F96D
:1097E000284638BD0322F3E738B505461148002462
:1097F0004FF6FF73047184618460A0F86230A0F8B2
:10980000644080F87040C461046045712A46663047
:10981000013D01F035F8EDB2074B032D4FF0020288
:109820001A7096BF054B2046585DBDE83840FFF7DB
:10983000E7BE00BF04FE012000FD0120ECC80700C8
:109840002DE9F04FB64C426823689A42A9B005460C
:109850000F4640F09A8201F03FF9824608B1002697
:109860006CE0B04A1378033B9046052B00F28981E7
:10987000DFE813F0060089018701870149027802B9
:109880006B88A94A002B40F06C8113706379022B1E
:109890004DD0042B04D0012B4CD1A44B5E6801E0C9
:1098A000A24BDE68AB682361A968481C284608BF44
:1098B0003168FFF759FE80B2A4F86200A4F8640092
:1098C000A160EB689A489B00A3612B8AE361AB7CA3
:1098D0000021C3F3C003102284F87030616184F862
:1098E000601002F0EBFF01F021F9E3685A1C2BD164
:1098F0006379022B26D18D4BDA68D2E900321A4403
:109900004FF0102359698A4288BF5A69A169894B6F
:1099100023EA01031344E360D4E90202904221D018
:10992000A369194601F010F9E0B10D2014E07F4B56
:109930009E68B7E7062001F0BEF90626304629B03A
:10994000BDE8F08FA368E6E74FF01022A1695269E5
:109950000B449342E0D90C20FFF76CF80926FFF77F
:10996000D5FEEBE7A26833689A42C0F0EF80A169A8
:109970000A4471680B449A4200F2E8800422FF21F5
:1099800013A888F8002002F099FF6379022B1ED0FB
:10999000042B17D0012B1FD19DF84C306FF300031F
:1099A0008DF84C30D4E902329A4219D15F4E3369B6
:1099B000002B40F0AA80042213A91046FFF796FA64
:1099C00030614AE09DF84C306FF38203E8E79DF880
:1099D0004C306FF34103E3E7072001F06CF9E1E756
:1099E000554B0A932423ADF82C300DF1280A4FF083
:1099F000FF384FF000094FF0010B3AF8020BFFF768
:109A000035FA064698B1D0E90001A369E26801F091
:109A10009BF840B10BFA09F0203080B2FFF740FA12
:109A200008B101F048F93368984528BF984609F114
:109A30000109B9F1030FE0D13C4BE268A169D3F809
:109A40000CE0D3E9016C01EB020913464B4501D24E
:109A500043452AD3A3689A42A8D0D4E9020194F8D6
:109A60007030A269354E00F06FFD002868D1622386
:109A70008DF8080001A88DF80430FEF7D3FF2323EA
:109A80008DF8283001238DF82C3063798DF82D3036
:109A90003368CDF82E307368CDF832303389ADF8A5
:109AA00036300AA8FEF7BEFF4EE0186801302AD013
:109AB0003068984209D271680844984282BF9DF884
:109AC0004C006FF300008DF84C00DCF80000984269
:109AD0000AD2DCF804100844984282BF9DF84C007A
:109AE0006FF341008DF84C00DEF8000098420AD276
:109AF000DEF804100844984282BF9DF84C006FF3D2
:109B000082008DF84C000433A0E713A90420FFF76E
:109B1000B2F90028A1D009496079FFF765FE9CE7FA
:109B200004FE012000FD0120EEFD0120C4FD012006
:109B3000F0FD012000F0FFFF210022006AFE01205D
:109B400060793146FFF750FE002600E1686800F0BA
:109B500083FF8F496079FFF747FE284600F0D2FF68
:109B60007DE613780133DBB2092B01D8137076E65A
:109B700020680023137000F06FFF85496079FFF7BC
:109B800033FE0826DAE66B88002B00F0A580B4F8D7
:109B900064209A42C0F0A0807E4E32889A4209D159
:109BA0000023622213A833808DF84C208DF85030AA
:109BB000FEF738FFE369B4F8641068881A09A1EB6E
:109BC0001313984265D8A16800F0ABFE072F01D8A7
:109BD000002682E0A7F1080292B205F1080100F028
:109BE000EFFC0028F4D1B4F864306A88ADF8523044
:109BF000242113A88DF84C10ADF85020FEF712FF69
:109C0000B4F86230B6F800A0013BA4F86230BAF1B3
:109C1000000F3BD16069B5F8029001AA6946CDE911
:109C200000AA00F0D3FD88B3A168009B21F00F00CB
:109C30001B1A6AEB4A021B0943EA0273013309F15A
:109C4000FF32934203D3B4F864204A451ED1ADF8E5
:109C50002A3023680B9360238DF84C300AAB1493A1
:109C6000082315934FF602734FF6FB72ADF8583088
:109C700013A80023ADF828208DF85A30FEF7D2FE45
:109C800020B9009B6361BDF82A3033804FF0010A90
:109C90009EE702F1FF39A9EB010981444A4597D9B2
:109CA00094F8603043FA09F3DB0791D4A7F1080276
:109CB00093B2102B8CD804EB091005F10801203069
:109CC00002F0EEFD012000FA09F094F8609049EAF4
:109CD000000984F8609086E70B26B4F862305BB91F
:109CE00070228DF84C202C4A13A8CDE91432FEF7CF
:109CF00099FE052388F80030BAF1000F27D1002E15
:109D00003FF42BAF1AE66B8823B92846FFF72CFCEB
:109D1000A4F864000823002088F80030FEF7BFFE96
:109D200023238DF84C3002238DF85030184B1A68DD
:109D3000CDF852205A681B89ADF85A3013A86379C0
:109D4000CDF856208DF85130FEF76CFE06463946A8
:109D50002846FFF731FD002E7FF4F0AD00283FF4D8
:109D60007EADFAE66B8823B92846FFF7FDFBA4F821
:109D700064006A88B4F86430ADF8502024218DF86E
:109D80004C10ADF8523013A88CE60B26D6E500BF78
:109D90006AFE0120ECFD012080C3C90138B5002412
:109DA0000A4B05462146742209481C7002F086FDC4
:109DB00021460848102202F081FD074B1C70074B1A
:109DC0001D70BDE83840FFF7E5BB00BF00FD012076
:109DD00004FE0120F0FD012000FE012078FE01209C
:109DE0002DE9F043742291B000212E4802F066FD67
:109DF000102200212C4802F061FD2C4B00241C7025
:109E00002B4B1C80FFF7C6FB2A4B02932423ADF893
:109E10000C304FF48173ADF8043004238DF8063014
:109E2000254B1B689A1CCDE904230433069302AF2B
:109E30004FF002080DF1040937F8020BFFF716F88E
:109E40000546E8B114F809608DF81C8000F108019E
:109E500032460DF122008DF8206000F011FD04ABB8
:109E60000BA853F82410324600F00AFD2B680E931D
:109E70006B680F93AB7C8DF8213007A8FEF7D2FDFD
:109E80000134032CD8D100F051FEFFF765FB20B957
:109E9000FFF73CFC11B0BDE8F083084B00221A70BC
:109EA000F8E700BF04FE0120F0FD012000FE0120C4
:109EB000ECFD012022002100C4FD012000FD012055
:109EC00008B50A4B1B78012B0CD14FF010235B69AE
:109ED0009A4201D3531C07D1054BDA60FFF784FC8B
:109EE000002008BD0820FCE71020FAE700FD012053
:109EF00004FE012010B50F4C0346207801380128DC
:109F000015D8072020700C4C2046637140F8662B52
:109F10001A4600F0B5FC6379013BDBB2032B96BF18
:109F2000064A0020D05CFFF76BFB002010BD082024
:109F3000FCE700BF00FD012004FE0120ECC8070083
:109F4000F0B50388A3F57F43FA3B8DB00446042B9C
:109F50002CD8DFE813F03801DD0055014F00050073
:109F6000A94D2E78012E4CD10379407943EA002087
:109F700000F049FD98B121238DF80C3002238DF8B3
:109F8000113023798DF8123063798DF813302B78E6
:109F90008DF8103003A8FEF745FD0DB0F0BDA11DF2
:109FA0000846019100F014FD019908B90B20F4E76F
:109FB00062882B7890B24FF6FE74A0420CD0934C7E
:109FC00024682488844207D021218DF80C108DF854
:109FD0001160ADF81220DBE721228DF80C2004225D
:109FE0008DF811200DF112000A228DF8103002F0C8
:109FF00057FCCFE7844F3B78032B04D8012B24D8A0
:10A000007BD00820C9E7072BFBD1814D82786B7983
:10A0100002F00F029A422AD100F1080105F1660010
:10A0200000F03DFC18B3E3782A7903F007039A4265
:10A0300004D31CD163682A689A4218D263682B60E3
:10A04000E378C3F302032B7143E0714E717906F19B
:10A05000660200F01FFD354606F16601002843D078
:10A06000E378327903F00703934206DC01D0002045
:10A0700093E7626833689A42F9D9A378C3F303027D
:10A080006A71224603F00F0352F8080FC5F8660004
:10A090005068486012890A8121884FF6FD7291420A
:10A0A00007D1E278520704D0A27802F00F029A4258
:10A0B00002D0072000F0FFFD63682B60E378C3F354
:10A0C00002032B71E378C3F3C00385F871300323D7
:10A0D0003B706B79013BDBB2032B96BF4D4A0020EE
:10A0E000D05CFFF78DFAC2E7A278737902F00F0215
:10A0F0009A4206D0E3785B07B9D02046FFF718FBF9
:10A100004BE704F1080000F0E0FB0028AFD1F1E7D5
:10A110003F4A4168136899427FF448AF3A4B1D7833
:10A12000082D08D100F0D8FC0028A0D129462046EF
:10A13000FFF742FB31E7384D418800232E4635F8C2
:10A140002300884236D105EB83056B88591C072B09
:10A1500069808CD963889068012B1EBF03F1FF339F
:10A1600020F00F0000EB0310102205A900F0F2FA16
:10A1700028B34FF6FA73ADF80C30E278A37843EACF
:10A180000223ADF80E30636804930322182103A85C
:10A19000FFF7ECFAA0B955B9204B1D786A1C1A706C
:10A1A00005F00303628826F8232006EB83050023CD
:10A1B0006B80F2E60133042BC1D10025CAE70520EC
:10A1C000002DF4D1E9E6104B1B78082B18D1019132
:10A1D00000F082FC00287FF44AAF0D48B0F86420FC
:10A1E000B0F86200ADF81220531C1B1A24208DF821
:10A1F0000C0003A8ADF81030FEF714FC019996E7A7
:10A200002046FFF71DFBC8E600FD0120C4FD01202C
:10A2100004FE0120ECC80700F0FD012000FE012033
:10A2200070B50220FEF722FE06460420FEF71EFE51
:10A2300004461020FEF71AFE05461220FEF716FE11
:10A2400076B1328862B1BCB12278D20703D4012042
:10A2500011E004200FE025B12A6812680132F6D01F
:10A2600014B122785307F4D528B103681B68013371
:10A2700014BF0020042070BD002DEDD1F4E710B50F
:10A280000220FEF7F3FD04461220FEF7EFFD74B145
:10A2900050B103685A1C0AD01B68013307D0D4F8A8
:10A2A0000A0008B100F0C9FB00F0010010BD002059
:10A2B000FAE7000030B54D4D4D4C2968ABB00E2289
:10A2C000684602F0EDFAD4E902329A4241D05422B3
:10A2D000FF210DEB020002F0F1FA627904F1660150
:10A2E00017A800F0CDFAA3691693E36815934FF40D
:10A2F0007F43ADF86630E3699BB1402204F1200151
:10A300001AA802F0CDFA01238DF866305422637941
:10A31000022B17D0042B06D0012B16D115A9212012
:10A3200003E01422F3E715A92420FEF7DFFD314BEB
:10A3300006221A70FEF7BAFD034638B100F0BBFCE6
:10A34000002303E015A92220EFE70B2318462BB0CA
:10A3500030BD2B6913B90E2000F0ADFC0422296931
:10A3600015A802F09DFA6279022A31D0042A15D08C
:10A37000012A20D00020E3691BB11F494022FEF7CB
:10A38000B5FD0E2269460220FEF7B0FD04222860CA
:10A3900015A91046FEF7AAFD2861C8E717490A2249
:10A3A00001A802F07DFA9DF8543043F004038DF8C3
:10A3B00054301C20DFE711490222684602F070FA8F
:10A3C0009DF8543043F001038DF854301A20D2E741
:10A3D0000A490DF1020002F063FA9DF8543043F08F
:10A3E00002038DF854301B20C5E700BFC4FD0120D7
:10A3F00004FE012000FD012024FE01206AFE012050
:10A4000030B5314B1B78013BA7B0072B11D8DFE8E3
:10A4100003F00408080A121059590120FEF70AFB3C
:10A4200007E00520FAE7294B587903F16601FFF7A9
:10A43000DBF927B030BD264D6A69002A32D0234CA3
:10A44000E369002B3CD00AA801F0C4FE0122611D83
:10A450000AA801F0EFFE042204F110010AA801F09D
:10A46000E9FE042204F118010AA801F0E3FE00232A
:10A4700001220DF107010AA88DF8073001F0DAFE7C
:10A480006379022B11D8CBB90AA800F0DDF90022BC
:10A4900002A90AA801F0F1FE0E4A686902A901F0BA
:10A4A0006DFC68B1FFF706FFC3E7042BECD10A226D
:10A4B00004F166010AA801F0BDFEE5E70222F7E714
:10A4C0000420ABE70020A9E700FD012004FE0120E5
:10A4D000C4FD012024FE0120FFF718B900B5114B7F
:10A4E0001B78062B8BB01AD1FEF76AFDB8B10E4966
:10A4F00025234A798DF80430663101230DF10A00D5
:10A500008DF808308DF8092000F0BAF901A8FEF79F
:10A5100089FA00F0A7F9FFF73DF8FFF761FC0BB0EF
:10A520005DF804FB00FD012004FE012010B5054C80
:10A5300030220021204602F0C1F94FF6FF73238537
:10A5400010BD00BF80FE01202DE9F04104460D46FC
:10A550001E461746FFF7EAFF45EA0403C3F30B0361
:10A560002BBB1448DFF85480002D08BF254607F6A2
:10A57000FF7101402840C8F80450FEF77DFAE11948
:10A58000C8F8004021F00F0124F00F0400230C1B39
:10A590000022C8E904232409074BA8F8084088F8DA
:10A5A0000A60C8F80C70C8F82830BDE8F0811020A7
:10A5B000FBE700BF00F0FFFF0000FFFF80FE01206F
:10A5C0002DE9F74F9246624A138D4FF6FF77BB4253
:10A5D0008346104638D01BF00F0F40F0B28015684C
:10A5E0005D4500F2AE80D4680AEB0B062C44A6420F
:10A5F00000F2A780BAF1100F00F2A5801AF0030C48
:10A6000040F0A180B2F82AE0BE4540F09E8025F0DF
:10A610000F04ABEB040424090134A4B2A34215D304
:10A620001B1B402B10DCD2E90472C3F1200CA3F1F8
:10A63000200627FA03F502FA0CFC45EA0C0522FA7B
:10A6400006F63543ED0767D4082036E0E31A9BB2DF
:10A650000120A3F12008C3F1200600FA08F520FA32
:10A6600006F600FA03F717F1FF3745EA060545F14C
:10A67000FF30C3F1400CC3F12009D2E9046507FAA9
:10A6800009F9019000FA0CF040EA090027FA08F8ED
:10A6900040EA080007FA0CFC0CEA060800EA050983
:10A6A00058EA0900A3F1200CC3F1200008D00320D0
:10A6B000A2F828E0FEF7BEF9052003B0BDE8F08F50
:10A6C0009D4006FA0CFC06FA03F31F4345EA0C050D
:10A6D000019B148526FA00F005431D4327F001076E
:10A6E000C2E904751A4D524605F118006C8502F056
:10A6F000D7F82946686851F8183BC01A52465844A2
:10A70000FEF7A5F90028D8D04FF6FF7307202B8558
:10A71000FEF790F90320D0E79BB20126A3F12005B4
:10A72000C3F1200C06FA05F526FA0CFC45EA0C05E7
:10A7300006FA03F327EA030322EA0502C0E904321A
:10A74000D0E71020B9E70920B7E71120B5E700BF2F
:10A7500080FE0120F8B50E461B490C8D03464FF6CE
:10A76000FF7084420F464FF000002CD00D6825F09A
:10A770000F0CA3EB0C031B0901339BB29C4222D3A9
:10A78000E41A402C10DCD1E9045EC4F1200CA4F1E1
:10A7900020010EFA0CFC25FA04F42EFA01F144EA29
:10A7A0000C040C43E1070ED466B15AB17968012B51
:10A7B0001EBF03F1FF3321F00F0101EB03113046FF
:10A7C00002F06EF80120F8BD80FE01202DE9F74F60
:10A7D0001C4B1F8D4FF6FF74A74230D0D3F800C03A
:10A7E0001C69D3F814E001942CF00F083F234FF0BC
:10A7F0000009019CC3F12006A3F12005DC400EFAFC
:10A8000006F634432EFA05F52C4304F0010ACB4634
:10A810005AEA0B0411D0FC1AA4B2012C1ABF04F19D
:10A82000FF3408EB04146446A04206D810230C60E1
:10A830000120136003B0BDE8F08F013BD9D20020A6
:10A84000F8E700BF80FE0120054B198D4FF6FF721F
:10A85000914203D0DA68596801F0ECBC08207047D7
:10A8600080FE0120FFF762BE044B03F11802824212
:10A8700004BF4FF6FF725A85704700BF80FE01206B
:10A88000022A30B408D0042A05D0012A01D10B884D
:10A89000038030BC70470A2230BC02F001B8022AA3
:10A8A00038B506D0042A03D0012A08D0002038BDCC
:10A8B0000A2201F0E7FFB0FA80F04009F7E70088CC
:10A8C0000B88C31A58425841F1E7022A12D0042AD1
:10A8D00003D0012A0BD00020704782888B889A42CF
:10A8E000F9D100680B68C31A584258417047008874
:10A8F0000B88F8E700780B78F5E7022A0ED0042AD7
:10A9000003D0012A07D000207047D0F80600D1F804
:10A910000630C01A704700880B88FAE700780B7879
:10A92000F7E701281EBF00F1FF3021F00F0101EB16
:10A9300000110846704770B5054602200E46FEF726
:10A9400095FA04460420FEF791FA022E1CD0042E3C
:10A9500003D0012E2CD0002015E0002CFBD0A988BC
:10A9600022899142F7D1296862689142F3D1D5F8E2
:10A970000610D4F80A20914218D820B1007880F04F
:10A980000400C0F3800070BD002CE4D02978A278C8
:10A990009142E0D16978E278914207D80028F2D05C
:10A9A000007880F00200C0F34000ECE70120EAE705
:10A9B00064B129882288914208D120B1007800F042
:10A9C0000100C0F1010000F00100DCE70020FAE71F
:10A9D00010B504460220FEF749FA90B1A288038917
:10A9E0009A420CD1226843689A4208D1D0F80A00F2
:10A9F000D4F80630834294BF0020012010BD00200F
:10AA0000FCE70120FAE707B5ADF804000220FEF7E5
:10AA10002DFA80B19DF8042083789A4209D1C0783C
:10AA20009DF80530834294BF0020012003B05DF8FB
:10AA300004FB0020FAE70120F8E708B50420FEF740
:10AA400015FA30B1007800F00700C31F5842584192
:10AA500008BD0120FCE70000044A1378591C11705E
:10AA600003F00703024A42F8230070471CFF01204D
:10AA7000FCFE0120064A002352F8041B814204D048
:10AA80000133082BF8D1002070470120704700BF28
:10AA9000FCFE012037B583780D4603F00F03AB426F
:10AAA0000446114600D0A5B901916068FFF7E2FFA6
:10AAB00078B9083401992A462046FFF706FF30B1DD
:10AAC00001992A462046FFF718FFC043C00F03B084
:10AAD00030BD0020FBE7000030B5094B01880022A3
:10AAE0001C888C4203D15D884488A54206D001327F
:10AAF000102A03F10403F3D1002030BD0120FCE74C
:10AB0000B8FE012030B50749074A0B68058803F0F5
:10AB10000F04013322F8245002EB84024088508055
:10AB20000B6030BDF8FE0120B8FE012008B54022C0
:10AB30000348002101F0C2FE024B00221A6008BD4A
:10AB4000B8FE0120F8FE0120904204D31344834252
:10AB500007D8904207D10144914234BF0020012020
:10AB600070470120704700207047000010B5094A67
:10AB700010680023012404FA03F1014205D0C2F851
:10AB80008010BFF34F8FBFF36F8F0133202BF2D1B3
:10AB900010BD00BF00E100E081682023013B21FAE5
:10ABA00003F2D207FAD5012202FA03F383600023ED
:10ABB000C0E90333704770B50446F9B1EFF310856F
:10ABC00072B6D0E9020622690244B24203D105B945
:10ABD00062B604250DE0236862680138304002FB4C
:10ABE000003063693BB19847E3680133E3603DB9E6
:10ABF00062B6284670BD01F053FEF5E70E25F8E772
:10AC00000025F6E738B504460846EFF3108572B61E
:10AC1000D4E90331994203D105B962B60E250FE09C
:10AC200048B1D4E90123013B0B40216802FB031129
:10AC300063693BB198472369013323612DB962B63B
:10AC4000284638BD01F02CFEF5E70025F8E7F8B5F9
:10AC50000446084611B90E252846F8BDEFF31085C5
:10AC600072B6D4E90376BF1BBA4203D3002DF2D1EA
:10AC700062B6F0E7D4E901732168013B1644334022
:10AC800007FB031163691BB198472DB962B6E3E76F
:10AC90003A4601F005FEF8E70025DDE70022FFF760
:10ACA000D6BFD0E90320101A7047D0E90302131A67
:10ACB00058425841704772B600BEFEE772B600BEF9
:10ACC000FEE7000008B54FF08043D3F8082442B9EE
:10ACD00001221A60D3F80021002AFBD00022C3F819
:10ACE00000214FF08043D3F8142442B901229A6026
:10ACF000D3F80421002AFBD00022C3F804214FF02E
:10AD0000804301221A61D3F80C21002AFBD00022D3
:10AD1000C3F80C210E4B402283F816234FF4800217
:10AD20001A6062B6FDF762FBFEF716FC70B94FF0D1
:10AD300080431C46D3F81C250AB9FDF71BFC0023F1
:10AD4000C4F81C35FDF7A4FB20BFFDE720BFEBE7EF
:10AD500000E100E00023044A19460133202B02F8E9
:10AD6000011BFAD1704700BF480600200D4A30B5DC
:10AD7000014600231546EFF3108472B612F8010B5A
:10AD800048B9094A0120E854282505FB03230B6034
:10AD900004B962B630BD04B962B60133202BEAD1E2
:10ADA0000020F7E7480600204801002070B50E4C4F
:10ADB000001BB0F5A06F15D22824B0FBF4F4EFF31C
:10ADC000108672B6094D2B5D013BDBB2FD2B02D91B
:10ADD0000420FFF770FF2B5D01332B5506B962B6D7
:10ADE000012000E0002070BD48010020480600203E
:10ADF000104BC01AB0F5A06F10B501D3002010BDE4
:10AE00002823B0FBF3F0EFF3108472B60A4B1A5C00
:10AE100032B90820FFF74FFF002CEFD162B6EDE703
:10AE2000013A1A5404B962B6185C003818BF012000
:10AE3000E5E700BF4801002048060020064BC01A85
:10AE4000B0F5A06F3FBF2823B0FBF3F0034B185CB5
:10AE500028BF0020704700BF48010020480600209E
:10AE600010B5084904460622033001F019FD4FF0E1
:10AE700080530020D3F8A020237862F38613237038
:10AE800010BD00BFA400001010B5034660B14278A9
:10AE9000D11F1E2908D80332093013444FF6E4614C
:10AEA000984201D202780AB9002010BD4478162CCD
:10AEB00005D1141F1B2C02D844888C42F5D00132D6
:10AEC0001044EDE7F0B54FF0805402262369226963
:10AED0009BB2013B0B4492B20021B3FBF2F3104A48
:10AEE000DBB20F46CDB2AB4200D8F0BDC2F804656C
:10AEF000D2F80054002DFBD0C2F80805D2F8005457
:10AF0000002DFBD0C2F80475D2F80054002DFBD000
:10AF10002569C5F38D0500EB85000131E2E700BF2F
:10AF200000E0014023F003032DE9F0411844002420
:10AF3000164F174B0A442646A6464FF00108914289
:10AF400001D1BDE8F08111F801CB07F806C0751CEE
:10AF5000EDB264EA0C04042DE4B215D18CB1C3F84F
:10AF60000485D3F80044002CFBD03C680460D3F87F
:10AF70000044002CFBD0C3F804E5D3F80044002CB7
:10AF8000FBD00024043025462E46D8E76806002072
:10AF900000E00140384B2DE9F04700240F46904671
:10AFA00001210322C3F8FC4FC3F8FC1FC3F80C4572
:10AFB000C3F810250222C3F808252522C3F854251A
:10AFC0008E22C3F8242506462C4A2D48C3F81C259A
:10AFD0000568D3F82425280E42EA0022C3F8242568
:10AFE0002D02284AC3F82055C3F82C45C3F8301564
:10AFF000C3F81425244AC3F8182540F25B62C3F84D
:10B00000382540F20312C3F83425204AC3F83C2502
:10B010001F4D9422C3F844252A78032A08D11D48DD
:10B020001D4A44610823C0E900238360FFF7B4FD93
:10B0300002242C70104B194D0022C3F80C21C5F8C6
:10B0400080412C60164BDFF860901F60154B114853
:10B05000C9F80060C3F80080FFF727FE20B1D9F8D7
:10B060000030BDE8F047184700F02AFA08B1C5F8EB
:10B070000041BDE8F08700BF0010004000D6BE8947
:10B08000040000200601020025000302555555006A
:10B0900008000020700600208806002000E100E083
:10B0A000C8060020CC0600206C06002038B50146FA
:10B0B000C0B1437913B90379012B15D80C48FFF7B8
:10B0C0007AFD044690B9EFF3108572B600F0F8F9F6
:10B0D00018B1084B0222C3F800210DB962B62C4604
:10B0E000204638BD0E24FBE71024F9E70424F7E7D7
:10B0F0007006002000E100E0074B00224FF0FF3116
:10B10000C3F80022C3F8081301211961C3F804250C
:10B11000024B02221A707047001000400800002005
:10B120002DE9F041624CD4F80C3186B02146002B59
:10B130006DD0D4F80064D4F80C74D4F81C31002B12
:10B140005FD00023C4F81C31D4F84845E4B2002392
:10B15000C1F80C31574803A9FFF754FD08B1FFF7B8
:10B16000AAFD9DF811300398013B012B4BD8524B9F
:10B17000311E1D683A46234618BF0121A8474F4B90
:10B1800002221A704B4801A9FFF788FD002840F001
:10B190008A80474C1323C4F800329DF80A300A2BEA
:10B1A00064D89A1C5200C4F8082503F07F02404B73
:10B1B0004349C3F85425019AC3F804250822C3F86B
:10B1C00004230022C3F80C210968D3F82425080EB3
:10B1D00042EA0022C3F824250A02C3F820259DF87C
:10B1E000094036481A46002C4ED19DF80820C3F875
:10B1F0002C259DF80B20C3F80C2501221A60027043
:10B2000013E06424A3E72F4B1B689847B7E729484E
:10B21000284F294EFFF745FDA0460546012D07D8CA
:10B22000264B1B78023B012BACD906B0BDE8F08160
:10B2300003A93846FFF732FD01460028F0D19DF8FA
:10B240001130022BECD13846FFF7DCFCFFF754FF3E
:10B25000D8F850150029FBD1C8F80C1103983468B0
:10B2600064234FF0FF32A047013DD7E7242B01D8DC
:10B27000DA1C97E7144A07CA06AD05E9070005EB93
:10B28000830252F8A02C8EE7104B994218BF03217D
:10B290004FF001030CBFC2F83035C2F830155360CF
:10B2A00000230370C1E70A4B1B689847BDE700BF46
:10B2B0000010004070060020C80600200800002092
:10B2C00004000020CC060020F0C80700D6BE898EFE
:10B2D0006C06002010B5D0E900238468C168A2EB99
:10B2E000731283EAF43303600C4413441144446042
:10B2F0008160C360184610BD0A4B012210B51A6068
:10B30000002219B901225A60084610BDD3F8004145
:10B31000002CFBD0013989B2D3F808454454C3F856
:10B320000021EEE700D0004037B504210023054698
:10B330000DEB01000193FFF7DFFF044658B9074BFF
:10B340002B60019BEB60C5E9013314242846FFF70D
:10B35000C1FF013CFAD1204603B030BDED5EEAF1F9
:10B36000F0B5164B1648D3F80425531E23F07F433F
:10B3700019460024056855B147688D1ABE1A26F093
:10B380007F4625F07F45AE4238BF27F07F4101342C
:10B39000082C00F11000EDD19942084B4FF4803099
:10B3A0001FBFC3F804030020C3F84001C3F84015D1
:10B3B00016BF044BC3F808031A60F0BD00B000408C
:10B3C0008407002080070020FFF712BD07B5019019
:10B3D00061B1084801A9FFF7EEFB38B9064B4FF4FD
:10B3E0008012C3F8002103B05DF804FB0198FFF759
:10B3F000FFFCF8E7E806002000E100E007B50223C3
:10B4000068468DF80530FFF7B1FC78B100238DF860
:10B410000430684625238DF80630FFF747FE10B14B
:10B420006846FFF7E5FC03B05DF804FB014B1870BC
:10B43000F9E700BFE0060020024B1B780BB1FFF7D5
:10B44000DDBF7047E0060020F8B5837B8768457B49
:10B450000646C3B940F6CD4303FA05F20135AB40C9
:10B460009D1A1548A2F6CD421744FFF733FFC5F3E6
:10B470005603B0FBF3F202FB13023B44134423F0E8
:10B480007F437360F8BD022B0B480CBF0A240124D4
:10B49000FFF720FF40F6CD4161430F4441F69A1378
:10B4A0006C4303FB0474B0FBF1F303FB11010C4488
:10B4B00024F07F447460E5E7D0060020FFF730BE3B
:10B4C00001207047174B10B500241C70164B1860F4
:10B4D000164B17481C802146802201F0EFF91548D1
:10B4E000154B036004222023C0E901234461FFF7C8
:10B4F00053FBFFF72FFC1148FFF716FF08B1FFF7CA
:10B50000DAFB0F4B402283F814234FF480121A60A9
:10B51000002283F80123BDE810400A4A0A490B487B
:10B52000FFF738BDE0060020E406002004080020F4
:10B5300084070020E806002000070020D006002035
:10B5400000E100E0C9B30700CDB3070039B407003C
:10B55000034B1A781AB901221A70FFF74FBF7047D0
:10B56000E006002073B50F4D0F4E01A92846FFF7E6
:10B5700049FB044630B10D4B1B780BB9FFF7E8FFD0
:10B5800002B070BD0198FFF759FC012802D0204697
:10B59000FFF791FB0198336898470198FFF728FC63
:10B5A000E3E700BFE8060020E4060020E0060020F4
:10B5B0002DE9F047044617461E460BB90C2A28D839
:10B5C0003CB3072925D8EFF3108872B6124B0D0152
:10B5D00003EB011958599A4608B1FFF709FC2046B8
:10B5E000FFF7E4FB0AEB050300225A734AF8054013
:10B5F0000A4A1F73D2F804259A609E734846FFF7E3
:10B6000023FFFFF7ADFEB8F1000F00D162B60120B5
:10B6100000E00020BDE8F0878407002000B0004073
:10B6200038B50F4B4FF400620446C3F88020BFF3D7
:10B630004F8FBFF36F8F07280CD80301094DE858CF
:10B64000FFF7D6FB1022002105EB041001F036F9BC
:10B65000FFF786FE024B4FF400621A6038BD00BF50
:10B6600000E100E0840700202DE9F7432D4B2E4C2C
:10B67000D3F80465DFF8B480002502362F464FF07A
:10B680002509216849B36368F31A23F07F42D8F88B
:10B690000030F31A23F07F439A421ED8E37B0091D7
:10B6A000022BADF804708DF8077020D9637BE77327
:10B6B0005A1CD2B2FF2B627307D1A36803F5CC13D7
:10B6C00003F5D05323F07F43A360237B9A4201D339
:10B6D000FF2B1ED12046FFF7B7FE0135082D04F1E0
:10B6E0001004CED1FFF73CFE03B0BDE8F0838DF827
:10B6F00006906846FFF7DAFC10B92068FFF756FBA2
:10B700009DF806300133DBB2272B8DF80630F0D9D7
:10B71000CCE72068FFF76CFB10220021204601F0E7
:10B72000CDF8DAE700B00040840700208007002051
:10B73000031F00221C3043F8042F8342FBD17047C3
:10B74000031F1C3053F8042F1AB98342FAD1012089
:10B750007047002070474A11012350F8220001F081
:10B760001F0103FA01F108407047002351F823201C
:10B7700040F823200133082BF8D1704710B500F1B1
:10B780002003203153F8044D51F8042D944204D87D
:10B7900005D38342F6D1002010BD0120FCE74FF015
:10B7A000FF30F9E700F120030022834200D1704707
:10B7B00053F8041D42EA51021A60CA07F5E7002354
:10B7C00070B50546184651F8236052F823403444BA
:10B7D0000444A64202D08CBF0120002045F823403B
:10B7E0000133082BEFD170BD0023F0B50546184694
:10B7F00051F8236052F82370341AE41BA64202D099
:10B8000034BF0120002045F823400133082BEFD13D
:10B81000F0BD01F11C0304381A688B4212BA40F8DB
:10B82000042FA3F10403F7D1704770B50646A0B00A
:10B8300008461446FFF784FF20B13046FFF778FF33
:10B8400020B070BD6846FFF790FF214608A8FFF7BB
:10B850008CFF10A8FFF76CFF012318A81093FFF7C7
:10B8600067FF08A96846FFF789FF20B910A930468D
:10B87000FFF77BFFE4E7009BDA0716D46846FFF783
:10B8800091FF109810F0010505D010A92246084636
:10B89000FFF795FF054610A8FFF784FF002DE0D0C5
:10B8A000179B43F000431793DBE7089BDB0716D495
:10B8B00008A8FFF777FF189810F0010505D018A920
:10B8C00022460846FFF77BFF054618A8FFF76AFFE8
:10B8D000002DC6D01F9B43F000431F93C1E70028F3
:10B8E0001BDD08AA69466846FFF77EFF6846FFF73A
:10B8F00059FF18A910A8FFF741FF002804DA10A982
:10B9000022460846FFF75BFF10A918AA0846FFF772
:10B910006BFF109B13F00105B6E708A96A460846BD
:10B92000FFF762FF08A8FFF73DFF10A918A8FFF76F
:10B9300025FF002804DA18A922460846FFF73FFF32
:10B9400018A910AA0846FFF74FFF189B13F001052E
:10B95000B4E7000010B50446FFF746FF30B12146BA
:10B960002046034ABDE81040FFF729BF10BD00BFC5
:10B970005CC9070010B50446FFF721FF28B9074945
:10B980002046FFF7FBFE002806DB21462046034A3F
:10B99000BDE81040FFF728BF10BD00BF5CC907001D
:10B9A0000246072352F8230028B1024600202AB994
:10B9B00000EB431001E0013BF4D270475208013024
:10B9C000F5E72DE9F04F002487B08E462546234643
:10B9D00002EB8306AA46A1F1040C25460196002439
:10B9E000CDE902A5019E56F804790196DDE902AB86
:10B9F0005CF8046FA7FB066716EB0A0857EB0B0908
:10BA00002CBF01250025E6452C44C2464D46E7D112
:10BA100040F823800133082B0EF1040ED8D102F137
:10BA20002006AE46A3F1070C25460196002451F8E6
:10BA30002C600296CDE904E5019E56F8047D01963E
:10BA4000DDE904AB029EA6FB076716EB0A0857EB7D
:10BA50000B090CF1010C2CBF01250025BCF1080FCE
:10BA60002C44C6464D46E2D140F8238001330F2BCB
:10BA7000D5D1C0F83C9007B0BDE8F08F2DE9304239
:10BA800098B0814608A8FFF79CFF08A94846FFF731
:10BA90006CFE139B0393149B0493159B0593169BB9
:10BAA00006930025179B07936A4669466846CDE9C9
:10BAB00001550095FFF783FE6A460446494648460D
:10BAC000FFF77DFE149B0393159B0493169B059330
:10BAD000179B04446A4669466846CDE90635FFF778
:10BAE0006EFE494604446A464846FFF768FE109BCE
:10BAF0000093119B0193129B0293169B069304449F
:10BB0000179B07936A464846CDE904550395FFF70E
:10BB100056FE119B0093129B169A0193139B02935E
:10BB20000492159B179A0393CDE905230444109BB7
:10BB300007936A464846FFF742FE139B0093149B07
:10BB40000193159B0293109B06930444129B079349
:10BB50006A464846CDE904550395FFF745FE149B18
:10BB60000093159B0193169B0293179B0393119BC4
:10BB70000693241A139B07936A464846CDE9045559
:10BB8000FFF732FE159B0093169B0193179B0293C0
:10BB9000109B0393119B0493129B241ACDE9053546
:10BBA0006A46149B07934846FFF71EFE169B0093B8
:10BBB000179BCDE90135119B0393129B0493139BB3
:10BBC000241ACDE905356A46159B07934846FFF7C9
:10BBD0000BFE241A0ED40C4D2CB949462846FFF70B
:10BBE000CDFD01280DD02A4649464846FFF7FCFD09
:10BBF000241AF1E7044A49464846FFF7E0FD2418B5
:10BC0000F9D418B0BDE830825CC9070070B588B0BF
:10BC100006460D46684611461446FFF72FFF6A4652
:10BC200031463046FFF72AFF224669466846FFF74D
:10BC300025FF6A4629462846FFF720FF08B070BD59
:10BC4000F0B5144689B006460F46024621466846BE
:10BC50001D46FFF77FFE6A4669466846FFF70EFFFE
:10BC60006A4631463046FFF709FF6A4621462046BC
:10BC7000FFF704FF3A4629462846FFF76BFE2A469F
:10BC800029466846FFF7FAFE324669466846FFF7DE
:10BC900061FE224669466846FFF75CFE3246214651
:10BCA0002046FFF757FE224639463846FFF7E6FEA4
:10BCB0006A4631462046FFF74DFE22462946284671
:10BCC000FFF7DCFE3A4629462846FFF743FE694661
:10BCD0002046FFF74AFD09B0F0BD00002DE9F04114
:10BCE000B2B022AB054602A800930190FFF769FEAF
:10BCF00021491AA8FFF739FD12A8FFF719FD40F2F4
:10BD00000116012432AAC4F1010302EB830312A835
:10BD100053F8C8CC02EB8403002253F8C8EC134656
:10BD20005EF8237050F8048BB91AA1EB08018F421A
:10BD300002D034BF012200224CF823100133102B13
:10BD4000EED1131B5C4212A85C41FFF72BFDDDE92D
:10BD500019321AA843EAC2731993FFF723FD013E73
:10BD6000D0D132AB03EB8404284654F8C81CFFF74B
:10BD7000FCFC32B0BDE8F0813CC907002DE9F0477A
:10BD8000ADF5067D46AF0DF5CC79064600258A4611
:10BD9000014648461446FD615595FFF73AFD06F108
:10BDA00020016EA8FFF735FD21463846FFF731FD2B
:10BDB00004F120014EA8FFF72CFD3846FFF7C0FC28
:10BDC0000646002840F05E814EA8FFF7B9FC044605
:10BDD000002840F05981AD483946FFF7CFFC0128D3
:10BDE00040F09C80A9484EA9FFF7C8FC0128804676
:10BDF00040F09480A54AA64E4EA916A8FFF715FD5F
:10BE0000514606A80D94FFF704FD06A9084616AA98
:10BE1000FFF764FF76AD16AA39460EA8FFF75EFF5E
:10BE200049462846FFF7A1FC6EA97EA8FFF79DFCB6
:10BE300031462EA8FFF799FC06F1200136A8FFF73E
:10BE400094FC29462EAA16A8FFF784FD7EAB2A464D
:10BE500036A92EA8FFF7F4FE16A908468D4AFFF76B
:10BE6000E4FC16AA7EA92846FFF7D0FE06A8CDE975
:10BE70000495CDE90246FFF793FD05460EA8FFF7AE
:10BE80008FFD8542B8BF0546691E06A80191FFF7E0
:10BE900062FC0199DFF8FC91061E0EA818BF01266E
:10BEA000FFF759FC002814BF0220002002AB064314
:10BEB0001EA853F82610FFF758FC26AE2031304656
:10BEC000FFF753FC16A8FFF733FC023DCDF858806E
:10BED000002D28DA16A908466E4A1EADFFF7A5FC0C
:10BEE00016AA26A92846FFF791FE68482946FFF7BB
:10BEF00045FC012804D0654A29462846FFF774FC12
:10BF0000072355F8232057F82310013B82EA01024A
:10BF100044EA0204F5D2B4FA84F4640920460DF52B
:10BF2000067DBDE8F08716A8FFF70AFC002870D14F
:10BF30003246314656A8FFF7A1FD56AA1EA95EA8B3
:10BF4000FFF79CFD56AA11461046FFF797FD16AA6B
:10BF500031463046FFF792FD16AA11461046FFF70C
:10BF60008DFD1EA9084616AAFFF704FD16AA114664
:10BF70001046FFF7FFFC16AA10461EA9FFF7EAFCC1
:10BF80001EA9084616AAFFF779FD1EAA114616A893
:10BF9000FFF7F0FC1EA916AA0846FFF7EBFC1E9B54
:10BFA000DB076BD51EA94A460846FFF708FC80460A
:10BFB0001EA8FFF7F7FB259B43EAC87325931EAA2B
:10BFC000114616A8FFF75AFD16A908465EAAFFF704
:10BFD000C1FC16A908465EAAFFF7BCFC5EA908468C
:10BFE00016AAFFF7B7FC1EA908465EAAFFF746FD92
:10BFF00056AA10461EA9FFF7ADFC16A91EA8FFF70A
:10C00000B4FB314616A8FFF7B0FB56A93046FFF740
:10C01000ACFB294606A8FFF79EFB2946B0F10008B5
:10C020000EA818BF4FF00108FFF795FB002814BFBA
:10C030000220002048EA000802AB53F82810D9B1CA
:10C040002EA8FFF792FB36A82031FFF78EFB16AA29
:10C0500036A92EA8FFF7DAFD2EAA1EA93EA8FFF7E3
:10C0600079FC1EAA36A92EA83346FFF7E9FD16A9CA
:10C070003EAA0846FFF702FD013D29E71EA8FFF78B
:10C0800091FB9CE72C4649E7344647E73CC907004B
:10C09000FCC807005CC907002DE9F04FC9B008AA29
:10C0A00001F1400514464B780E781B0443EA066301
:10C0B000CE7833438E78043143EA06238D4244F828
:10C0C000043BF0D11024916B16464FEAF14383EA0A
:10C0D000714383EA9123716A366852F8045F3144F0
:10C0E0000B444FEAB54181EAF51181EAD5010134EB
:10C0F0000B44402CD363E6D1D0E914E30093836D65
:10C100000193C36D0293036E0393436E0493836E96
:10C110000593C36E0693DDE9057BDDE9031CDDE9CC
:10C1200001592B4B009E079374464FF00008079B64
:10C1300053F8042B07934FEAF12383EAB11383EA00
:10C14000716A08AB53F828301A440AEB020327EA55
:10C15000010A01EA0C028AEA02021A444FEA743A1E
:10C1600086EA05035A448AEAB40A06EA050B234024
:10C1700083EA0B038AEAB45A08F101089A44B8F139
:10C18000400F02EB0903BB465244A94619D1724441
:10C190000265009A22444265019A32448265029AFD
:10C1A0002A44C265039A1A44049B02660B44436600
:10C1B000059B63448366069B3B44C36649B0BDE868
:10C1C000F08F674635468C46264619461446AEE73C
:10C1D0007CC9070030B5E0B10F4A104900240025A2
:10C1E000C0E91245C0E914120D4C0E4A0E4DC0E9CB
:10C1F00016420E4AC0E918520D4A826602F1745284
:10C20000A2F523020023A2F692420364C2661846F6
:10C2100030BD0E20FCE700BF85AE67BB67E6096A4C
:10C2200072F36E3C3AF54FA57F520E518C68059B18
:10C23000ABD9831F70B5F0B1DAB900201CE00C4611
:10C240008D180026AC42F8D0036C14F8012BC254B0
:10C250000133402B0364F5D10146FFF71DFFD0E900
:10C26000123213F5007342F10002C0E91232066483
:10C27000E8E70029E3D10E2070BD70B50D461646E3
:10C280000446002875D0002973D0026C8021372A1B
:10C29000815402F101034FF0000240D8382B39D10C
:10C2A000D4E91201226C0823E3FB020103BAE36321
:10C2B0000B0A84F83A300B0C84F839300B0EC4E9C1
:10C2C000120184F83B1084F8383021462046FFF7ED
:10C2D000E3FE691E76B30023E26EDA4001F8012F17
:10C2E000A26EDA400A71626EDA400A72226EDA4099
:10C2F0000A73E26DDA400A74A26DDA400A75626D63
:10C30000DA400A76226DDA400833202B0A77E3D12F
:10C31000002070BDE2540133C0E7E25401333F2BEB
:10C32000FBD921462046FFF7B7FE3822002100F056
:10C33000C5FAB5E71823226DDA4001F8012F626DC6
:10C34000DA400A71A26DDA400A72E26DDA400A73CD
:10C35000226EDA400A74626EDA400A75A26EDA4022
:10C360000A76E26EDA40083B13F1080F0A77E2D151
:10C37000CEE70E20CDE70000524B1B680D2B57D1A6
:10C380004FF080414FF080520023C1F80C31C1F8CA
:10C390001031C1F838354C4BD2F80404C3F82005ED
:10C3A000D2F80804C3F82405D2F80C04C3F8280511
:10C3B000D2F81004C3F82C05D2F81404C3F83005E1
:10C3C000D2F81804C3F83405D2F81C04C3F84005A9
:10C3D000D2F82004C3F84405D2F82404C3F8480571
:10C3E000D2F82804C3F84C05D2F82C04C3F8500541
:10C3F000D2F83004C3F85405D2F83404C3F8600509
:10C40000D2F83804C3F86405D2F83C04C3F86805D0
:10C41000D2F84004C3F86C05D2F84424C3F8702560
:10C42000D1F80034DB0744BF6FF00103C1F80034DA
:10C43000264AD2F8883043F47003C2F88830BFF33C
:10C440004F8FBFF36F8F4FF01023D3F80022002AD5
:10C4500003DBD3F80432002B2FDA1D4B0122C3F883
:10C460000425D3F80024002AFBD04FF0102212211B
:10C47000C2F80012D3F80024002AFBD04FF010239A
:10C480001222C3F80422124B1A46D3F800140029D2
:10C49000FBD00021C3F80415D2F80034002BFBD0E8
:10C4A000BFF34F8F09490B4BCA6802F4E062134394
:10C4B000CB60BFF34F8F00BFFDE7074B074A1A6001
:10C4C000704700BF3001001000C0004000ED00E0E8
:10C4D00000E001400400FA050C0000200090D003A9
:10C4E0000649074A074B9B1A03DD043BC858D05046
:10C4F000FBDCFFF741FFFBF7A3FE00008CCA07003F
:10C500000400002078000020FEE7FEE7FEE7FEE7DB
:10C51000FEE7FEE7FEE7FEE7FEE7FEE753B94AB9AE
:10C52000002908BF00281CBF4FF0FF314FF0FF303B
:10C5300000F06EB9ADF1080C6DE904CE00F006F81C
:10C54000DDF804E0DDE9022304B070472DE9F0478F
:10C55000089D04468C46002B40F083808A42174693
:10C5600047D9B2FA82F242B1C2F1200024FA00F0B7
:10C570009140974040EA010C94404FEA1748230C41
:10C58000BCFBF8F61FFA87FE08FB16C143EA01431D
:10C5900006FB0EF1994209D9FB1806F1FF3080F035
:10C5A0001981994240F21681023E3B445B1AA4B2C3
:10C5B000B3FBF8F008FB103344EA034400FB0EFE23
:10C5C000A64509D93C1900F1FF3380F00581A64545
:10C5D00040F2028102383C4440EA0640A4EB0E04DB
:10C5E00000261DB1D4400023C5E900433146BDE813
:10C5F000F08702B9FFDEB2FA82F2002A50D1CB1BDB
:10C600004FEA174E1FFA87F80126B3FBFEFC210CF8
:10C610000EFB1C3341EA034108FB0CF38B4207D9A4
:10C6200079180CF1FF3002D28B4200F2E980844687
:10C63000C91AA3B2B1FBFEF00EFB101143EA01448C
:10C6400008FB00F8A04507D93C1900F1FF3302D2DE
:10C65000A04500F2D9801846A4EB080440EA0C403B
:10C66000BFE78B4209D9002D00F0B1800026C5E953
:10C67000000130463146BDE8F087B3FA83F6002E5C
:10C680004AD18B4202D3824200F2B880841A61EB15
:10C69000030101208C46002DA8D0C5E9004CA5E778
:10C6A000C2F1200320FA03F6974001FA02F04FEAA4
:10C6B000174ED9403043030CB1FBFEF61FFA87F842
:10C6C0000EFB161143EA014306FB08F1994204FAF6
:10C6D00002F409D9FB1806F1FF3C80F08D809942E5
:10C6E00040F28A80023E3B445B1A81B2B3FBFEF00B
:10C6F0000EFB103341EA034100FB08F38B4207D9DC
:10C70000791800F1FF3C73D28B4271D90238394459
:10C71000CB1A40EA064678E7C6F1200C03FA06F485
:10C7200022FA0CF31C4320FA0CF701FA06F34FEA45
:10C73000144E21FA0CF11F433B0CB1FBFEF91FFA1A
:10C7400084F80EFB191143EA014109FB08FA8A45F6
:10C7500002FA06F200FA06F308D9611809F1FF306F
:10C7600048D28A4546D9A9F102092144A1EB0A0120
:10C77000BFB2B1FBFEF00EFB101147EA014700FB10
:10C7800008F8B84507D9E71900F1FF312ED2B845AE
:10C790002CD90238274440EA0940A7EB0807A0FB40
:10C7A00002894F45C64649461AD317D05DB1B3EB4F
:10C7B0000E0267EB010707FA0CFCF2404CEA02029A
:10C7C000F740C5E9002700263146BDE8F0872E4630
:10C7D00028460BE70646E9E61846FDE64345E5D25E
:10C7E000B8EB020E69EB04010138DFE70846D2E737
:10C7F00060468DE78146B9E7664675E730464AE709
:10C80000ACF1020C394413E702383C4424E700BF82
:10C81000704700BF08B5074B044613B10021AFF3C2
:10C820000080054B1868836A03B19847204600F0E2
:10C830004DF800BF000000007CCA070070B50D4D28
:10C840000D4C641BA4100026A64209D10B4D0C4CC4
:10C8500000F03EF8641BA4100026A64205D170BD6E
:10C8600055F8043B98470136EEE755F8043B9847E6
:10C870000136F2E7700000207000002070000020F8
:10C880007400002030B501390024A24201D10020FB
:10C8900005E0035D01340D5DAB42F6D0581B30BDA1
:10C8A0000A44914200F1FF3300D1704710B511F8EE
:10C8B000014B03F8014F9142F9D110BD02440346E8
:10C8C000934200D1704703F8011BF9E7FEE700BF70
:10C8D000F8B500BFF8BC08BC9E467047F8B500BF6D
:10C8E000F8BC08BC9E467047FFFF00000203000131
:10C8F000020000001A0000005000000096C298D804
:10C900004539A1F4A033EB2D817D0377F240A46378
:10C91000E5E6BCF847422CE1F2D1176BF551BF3781
:10C920006840B6CBCE5E316B5733CE2B169E0F7C54
:10C930004AEBE78E9B7F1AFEE242E34F512563FCF0
:10C94000C2CAB9F3849E17A7ADFAE6BCFFFFFFFF8A
:10C95000FFFFFFFF00000000FFFFFFFFFFFFFFFFE3
:10C96000FFFFFFFFFFFFFFFF0000000000000000CF
:10C970000000000001000000FFFFFFFF982F8A4227
:10C9800091443771CFFBC0B5A5DBB5E95BC2563921
:10C99000F111F159A4823F92D55E1CAB98AA07D839
:10C9A000015B8312BE853124C37D0C55745DBE725C
:10C9B000FEB1DE80A706DC9B74F19BC1C1699BE4DC
:10C9C0008647BEEFC69DC10FCCA10C246F2CE92D6C
:10C9D000AA84744ADCA9B05CDA88F97652513E9890
:10C9E0006DC631A8C82703B0C77F59BFF30BE0C697
:10C9F0004791A7D55163CA0667292914850AB72725
:10CA000038211B2EFC6D2C4D130D385354730A65C1
:10CA1000BB0A6A762EC9C281852C7292A1E8BFA298
:10CA20004B661AA8708B4BC2A3516CC719E892D100
:10CA3000240699D685350EF470A06A1016C1A41983
:10CA4000086C371E4C774827B5BCB034B30C1C3982
:10CA50004AAAD84E4FCA9C5BF36F2E68EE828F7441
:10CA60006F63A5781478C8840802C78CFAFFBE905B
:10CA7000EB6C50A4F7A3F9BEF27871C61000002049
:04CA800000000000B2
:08CA8400BCB7FF7F01000000B8
:10CA8C00D6BE898E030000000090D0030000000089
:10CA9C00000000000000000000000000000000008A
:10CAAC00000000000000000000000000000000007A
:10CABC00000000000000000000000000000000006A
:10CACC00000000000000000000000000000000005A
:10CADC00000000000000000000000000000000004A
:10CAEC00000000000000000000000000258207008C
:04CAFC0001820700AC
:020000020000FC
:020000041000EA
:041014000080070051
:04101800007007005D
:040000037000C4E1E4
:00000001FF
