:0200000270008C
:1080000000FD0120B5CA0700DDCA07003DAD07002D
:10801000E1CA0700E3CA0700E5CA07000000000044
:10802000000000000000000000000000E7CA070098
:10803000E9CA070000000000EBCA0700EDCA07000C
:10804000EFCA070039B50700F1C50700EFCA0700FE
:10805000EFCA0700EFCA0700EFCA0700EFCA070020
:10806000EFCA0700EFCA0700EFCA070079910700BF
:10807000EFCA0700EFCA0700EFCA0700EFCA070000
:10808000EFCA0700EFCA0700EFCA0700EFCA0700F0
:10809000E1B50700A1C40700178307001D8307008F
:1080A000EFCA0700EFCA0700EFCA0700EFCA0700D0
:1080B000EFCA0700EFCA0700000000000000000040
:1080C000EFCA0700EFCA0700EFCA0700EFCA0700B0
:1080D000EFCA0700EFCA0700EFCA0700EFCA0700A0
:1080E000EFCA0700000000000000000000000000D0
:1080F00000000000EFCA070000000000EFCA070000
:10810000000000000000000000000000000000006F
:10811000000000000000000000000000000000005F
:10812000000000000000000000000000000000004F
:10813000000000000000000000000000000000003F
:10814000000000000000000000000000000000002F
:10815000000000000000000000000000000000001F
:10816000000000000000000000000000000000000F
:1081700000000000000000000000000000000000FF
:1081800000000000000000000000000000000000EF
:1081900000000000000000000000000000000000DF
:1081A00000000000000000000000000000000000CF
:1081B00000000000000000000000000000000000BF
:1081C00000000000000000000000000000000000AF
:1081D000000000000000000000000000000000009F
:1081E000000000000000000000000000000000008F
:1081F000000000000000000000000000000000007F
:1082000010B5054C237833B9044B13B10448AFF3D0
:1082100000800123237010BD7C00002000000000BE
:1082200068D0070008B5034B1BB103490348AFF3FF
:10823000008008BD000000008000002068D007001A
:10824000154B002B08BF134B9D46A3F5803A002128
:108250008B460F461348144A121A04F019FE0F4BAE
:10826000002B00D098470E4B002B00D098470020E1
:10827000002104000D000D48002802D00C48AFF387
:10828000008004F0C5FD2000290002F05BFD04F031
:10829000ABFD00BF0000080000FD01200000000051
:1082A000000000007C000020D00900200000000039
:1082B0000000000013DF704718DF7047084A0023F2
:1082C000C2F84431D2F80435184420F07F404FF40E
:1082D0000033C2F84405C2F80433024B19707047EA
:1082E00000B00040310100207FB502F00DFE78B1F2
:1082F00082884FF6EF739A420AD902238DF8003034
:10830000031D019303786846033B029300F0D2FA01
:1083100007B05DF804FB04F065BA0000F0B5344E18
:108320008BB0002561276946304602F0A3FC044665
:10833000C0B12DB1622304A88DF8103000F0BAFA54
:108340002B4802F0F2FC58B12A4B1B7843B11220A3
:1083500000F0ACFD044604F001FA206800F048FF8C
:108360000BB0F0BD9DF80020019B012A05F101052D
:108370002CD1990701D002F0DEFC039B9A0702D0B2
:10838000002002F0D8FC029B9B0702D0002002F0E4
:10839000D2FC0198B0F1005F12D3DDE90223A342C1
:1083A00008D860238DF81030029B059304A800F0D4
:1083B00081FAB8E7135D025D134003550134ECE721
:1083C000DDE90212002302F0EDFDEAE7B3F1005F00
:1083D000029A07D3FF21184604F05AFD019B8DF83D
:1083E0001070E2E71146184602F0ACFDF6E700BF58
:1083F000980000203001002010B5234C88B000F018
:10840000DFFE00211822204604F042FD1F4B2360AE
:10841000102208232046C4E9012302F0F5FB1C4B7F
:10842000602283F817234FF400021A6000F006FB65
:1084300008B102F080FC01228DF80C20154A04924C
:10844000002340F6010202A88DF80830ADF8142090
:108450008DF8163000F02EFA08B102F06CFC04F032
:1084600095F90D490D4803F06BF80DF1070001F087
:1084700039F89DF8073023B14FF080430022C3F84C
:108480001C2508B010BD00BF98000020B0000020DF
:1084900000E100E011860700D6BE898EE982070060
:1084A00070B58AB004F07EF9012304A88DF810306D
:1084B00000F000FA03F08AF801F019FF30B103214F
:1084C0004FF4A020FFF7FAFE0AB070BD042000F0C0
:1084D000EDFC0546122000F0E9FC0646102000F0F5
:1084E000E5FC0446022001F023F80028ECD04FF010
:1084F000FF3300932B78590706D533681B68013387
:1085000004BF6FF0040300932A78009BD2070DD5B7
:1085100022681268013209D162683AB123F001037E
:1085200000936946042000F0C6FC01E00133F8D155
:1085300001F0AEFE05460028C6D000F0F9FF052880
:10854000C2D1022000F0B2FC044608B902F0F3FBED
:10855000012D05D0042D0DD00B2002F0ECFB02E024
:108560002388ADF804304FF0FF3201A9284601F00E
:10857000CFFCA9E7043494E8070001AB03C31A80D9
:10858000F1E700F097B9000030B5054685B012203C
:1085900000F08CFC04460A2D34D8DFE805F006060E
:1085A0003333333306332F33060008B301F09FFE15
:1085B000F0B1154802F0B9FBE0B102F00FFB02F098
:1085C000DBFD0023CDE901330393684602230093CA
:1085D000FFF772FE08B102F0AEFB2068FFF76AFEFB
:1085E00008B102F0A8FB04F0B9F8206800F000FE22
:1085F00005B030BD054B01221A70F9E7002002F0EA
:108600009AFBF5E772B6FEE79800002030010020E3
:1086100030B50378252B89B0054611D81F2B05D816
:10862000022B00F0B080062009B030BD213B042BA6
:1086300021D8DFE813F07000B500D800DC00E000BE
:10864000612B56D008D8512B00F0DF80602B19D059
:10865000502BE8D10223E2E0622B46D0702BE2D10E
:1086600081687B4AC8030023490C04F041FA0221C7
:10867000FFF724FE04E00079FFF786FF01F0D8FB46
:108680000020D1E700236846009302F0AFFB0028EA
:1086900000F0D180009802F023FC009B1A780221A0
:1086A00061F303021A70AB68009A0A3353700098A2
:1086B00016238372E423C372FE230373AB68033370
:1086C0004372D5E901120D3004F0D4FB2B7B6A7B99
:1086D000A97B009802F0AAFF0446009802F0C8FBAC
:1086E000002C14BF002003209EE7007902F0D6FF83
:1086F000C6E7D0E9011278230DF102008DF80130B0
:1087000004F0B8FBAB68684601338DF8003003F025
:108710004DFF0028E5E74F4B4FF40032C3F8082324
:108720004D4B00221A700379022B28D1232368466F
:108730008DF80030FFF725FF01232B71AC1D6979FF
:10874000204602F030F900289AD0022000F0AEFB5B
:1087500008B902F0F0FA4148202303704FF0FF33CC
:1087600003616B7903712368C0F805306368C0F852
:1087700009302389A0F80D3000F09CF854E7012B54
:108780007FF47EAFDAE70579022D7FF479AF01F04F
:10879000AEFD00287FF474AF284600F0C9FE6FE7F5
:1087A0000379022B7FF46CAF2A4B4FF40032C3F8ED
:1087B0000823294B00241C7021238DF80030034628
:1087C00053F8072FCDF805205A681B89ADF80D30F6
:1087D00083798DF804304369CDF809206846049305
:1087E000FFF7CFFE4CE701214FF4202040E70121A5
:1087F0004FF470203CE74379042B02D0012B7FF427
:108800003FAF0020FFF7C0FE3AE74368990714D155
:1088100083689A0711D1C3689B0710D10123291DD2
:108820000C2201A88DF8003004F024FB0C486946A6
:1088300002F0F9F928B10420F6E61020F4E6092048
:10884000F2E6084B4FF40002C3F80021ECE600BF4B
:1088500040420F0000B000403101002034010020F0
:108860009800002000E100E010B5114C2278022AA7
:1088700086B007D0032A11D0012A14D123238DF802
:10888000003005E003238DF8003000238DF804301C
:10889000002368462370FFF774FE02E00020FFF714
:1088A00073FE06B010BD082002F045FAF0E700BFE5
:1088B0003101002030B50378322B8BB005463CD80F
:1088C0001F2B06D8042B31D9062002F034FA0624D7
:1088D0005BE0203B122BF7D801A252F823F000BF37
:1088E000C7890700D3890700CF880700DF89070001
:1088F000E5890700C9880700C9880700C9880700FB
:10890000C9880700C9880700C9880700C988070007
:10891000C9880700C9880700C9880700C9880700F7
:10892000ED890700FD890700118A0700013B032B31
:1089300011D8DFE803F02D31383B612B6CD0622B6E
:108940006DD0602BC0D1406801F0C6FF696801207E
:1089500000F066FB1EE0374B82681A60837B364A64
:1089600083F001031370037B002B5FD0437B012B4B
:108970005CD94FF4FC214FF4FE2000F037FA044696
:10898000002855D1687B01F031FA20460BB030BD8C
:1089900001F04EFA0024F8E701894068012201F055
:1089A000F7FA0446F1E701F063FDF3E70023011D48
:1089B000102202A88DF8043004F05CFA1D4B01A8C7
:1089C0001B689847EDE70269411D007901F0A0FAA4
:1089D000E7E70269411D007901F0B4FAE1E701F02F
:1089E000B3FDD7E7007900F0A3FDDAE7808800F057
:1089F0005DFAA8600028CDD10524C6E7D0E90212AF
:108A0000808800F093FAB0F5FE2FC3D21024BCE7A3
:108A1000808800F065FAC4E74168022098E700F01A
:108A20008BFB00F0A9FD01F091FDB3E70724ACE753
:108A30000324AAE708FD01200CFD01204FF080531C
:108A4000064AD3F80C3103F500239B02002043F8BB
:108A5000042C034B01221A70704700BFB588070031
:108A60000CFD0120024B1B6803B11847082070471A
:108A700008FD012000B58BB020238DF8080001A867
:108A80008DF80430FFF7EEFF0BB05DF804FB70B516
:108A90008AB006460D4614460021242201A804F09F
:108AA000F7F9512301A8CDE902658DF8043004944B
:108AB000FFF7D8FF0AB070BD30B58BB005460C4645
:108AC0002422002101A804F0E3F9502301A8CDE9F4
:108AD00002548DF80430FFF7C5FF0BB030BD00B570
:108AE0008BB062238DF8080001A88DF80430FFF7E1
:108AF000B9FF0BB05DF804FB024B187880F0010061
:108B0000704700BF0CFD012030B50278FF2A19D054
:108B1000024440F6010300F5805047F6FF74558883
:108B20008D4201D1101D30BD158802EB85029042A7
:108B300008D35588A54201D1A14203D1013BEED112
:108B40001846F0E70020EEE748B1B0F5002F05D059
:108B5000034B1B685B78A0EB8300704700207047D5
:108B600034FD012008B547F6FF71FFF7CDFF18B1BE
:108B7000BDE80840FFF7E8BF08BD0000830710B557
:108B8000044602D0102002F0D6F820460249BDE883
:108B900010400422FFF77BBFBCCE070010B5064C87
:108BA0000223D4E9010104222370FFF770FF08B10A
:108BB0000123237610BD00BF10FD0120F8B51B4F27
:108BC0004FF6FF763C46D7E9023203F580539A42CE
:108BD00004D30123237604232370F8BD5388B342C2
:108BE000F7D0E3B1158847F6FF729342236914BFAB
:108BF000AD0004255A19636803F580539A4202D9DF
:108C0000032002F098F8D4E903102A46FFF73FFF4B
:108C10000028E2D12269E36863612A442261E368A3
:108C20001A8803EB8203E360CDE700BF10FD01204B
:108C300010B50A4C22787AB901232370084B1B78AF
:108C4000C4E9010123B94FF48051FFF735FF10B19A
:108C500001232376002010BD0820FCE710FD012031
:108C60002DFD0120038800EB83000B4B03F18002F4
:108C7000904208BF1846094B1860094B1B68984280
:108C800008D0A3EB0003C3F38F0388BF2033038016
:108C900000234380704700BF38FD0120B8FD01204C
:108CA000BCFD012013B50C4B1B78012B044604D0EE
:108CB0000020019102F03FF801992046FFF724FFC0
:108CC000FFF742FF20B102B0BDE81040FFF756BFEA
:108CD000052002B010BD00BF2CFD01202DE9F74F8B
:108CE0009DF83090019103334FEA890823F0030582
:108CF00008F10403064617462B44EFF3108A72B6B8
:108D0000DFF8E4C0DCF800402288B3EB820F4FEAC2
:108D1000820E01D8608828B1BAF1000F00D162B686
:108D2000042338E02E4A11688C422E4937D1CCF802
:108D3000001011609B0848800B800846FFF792FFE7
:108D4000BAF1000F4AD162B60C46B9F1000F0AD051
:108D500004EB05090822FF21484604F099F847F67C
:108D6000FF73A9F8063005F107094FEA990323803C
:108D7000019B63802A463946201D04F07BF829F0C8
:108D80000302424421463046FFF781FE034610B1FC
:108D900001F0D1FF0023184603B0BDE8F08F01F1C8
:108DA000800BABEB040293420DD9A4EB0B0BF34405
:108DB0005B45B1D847F6FF7E9208A4F802E0228016
:108DC000CCF80010B6E79B08608023802046FFF7B0
:108DD00049FFBAF1000FB8D162B6B6E7014CB4E76B
:108DE000BCFD012038FD0120B8FD01202DE9F04136
:108DF000254E40EA01040023C4F30B043370002C19
:108E00003ED1224FDFF8A080214DC8F8000080221B
:108E100029603846214604F03BF81E4BD8F8000084
:108E20001F601D4B1F6020233B80FFF79BFE1B4FE5
:108E30001C22386021461A4804F02AF8194B1C708D
:108E40003B68C3B92868FFF78DFE0746D0B1D8F854
:108E500000004FF48051FFF72FFE08B101F06BFFC7
:108E60002968D8F80000C1F104023A44FFF70FFE68
:108E700008B101F060FF012333702046BDE8F081A6
:108E80001024FAE70B24F8E72CFD012038FD01201F
:108E900030FD0120B8FD0120BCFD0120C0FD0120F6
:108EA00010FD01202DFD012034FD012001464FF46D
:108EB000FE20FFF729BE1FB504460391FFF7F6FF1A
:108EC000FFF742FE50B10388039A00219B000091F6
:108ED000043B2146FFF702FF04B010BD0520FBE76D
:108EE00001464FF4FE20FFF7DDBE000010B50B4C2D
:108EF0002378012B02D0002001F01DFF04232370F2
:108F0000074B1968074B0A1D1A60074B1868FFF7D3
:108F10008FFE08B90323237010BD00BF2CFD012074
:108F200034FD0120C0FD012030FD01202DE9F34773
:108F30002F4B1B78012B81468A46144602D0002015
:108F400001F0F9FE542C02D9002001F0F4FE294E64
:108F500033689B0702D0002001F0EDFE3368B3F5C3
:108F6000FE2F02D8002001F0E6FE356835B90E204C
:108F700001F0E1FE284602B0BDE8F0871E4F3B68D5
:108F800005F10802224403F580539A4204D30820D5
:108F900001F0D1FE0025EDE74846FFF787FFFFF718
:108FA000D3FD164A01231370804600935246234690
:108FB00049462846FFF792FE08B10420E8E73368E7
:108FC000073424F003041C443460B8F1000F04D0CB
:108FD0004046FFF7D3FD0028EFD132683B68583296
:108FE00003F580539A4201D3FFF780FF0435C1E7B0
:108FF0002CFD0120C0FD012034FD01202DFD0120AC
:10900000054B1B78012B05BF044B1878002080F01E
:10901000010000F0010070472CFD01202DFD012012
:1090200001282DE9F04106460C4632D13A4FB942AB
:109030002FD307F18003994298462AD2374D2B68E7
:10904000994202D0102001F076FEEFF3108272B642
:109050002B6819884FF6FF739942314B18BF20884F
:1090600019680B8814BF1B1801330B80238804EB8D
:109070008303434508BF3B466FF0004019682B60EF
:10908000814204D10433434508BF3B462B6002B9FB
:1090900062B6244D2B78013B032B0AD8DFE803F09E
:1090A000021A2629022E04D16B689C4201D1FFF7D7
:1090B00075FD2B7863B91C4C2378032B21D11B4BF6
:1090C00019681B4B1868FFF7B3FD08B90523237017
:1090D000BDE8F081012EECD1AB689C42E9D10323BD
:1090E0002B706B6804340433EC602B61FFF766FD72
:1090F000DFE7012EDDD16B699C4204BF00232B709A
:10910000D7E7052BE4D10A4B1868FFF72BFD094B75
:1091100018600123DBE700BF38FD0120BCFD012002
:10912000B8FD012010FD01202CFD012030FD0120A3
:1091300034FD0120C0FD01200C4B002119700C4BA7
:109140001B6859800B4B1A7872B1187E60B1012AE6
:10915000197602D0022A05D0704758684FF4805122
:10916000FFF7AABCFFF71ABD704700BF2DFD012015
:10917000B8FD012010FD012010B5104CD4F840318D
:1091800043B1D4F80433DA0304D50023C4F84031E2
:1091900002F0A8FAD4F8443173B1D4F804339B0335
:1091A0000AD50023C4F844314FF40033C4F808331F
:1091B000BDE81040FFF758BB10BD00BF00B0004035
:1091C000094B0022C3F808254FF44032C3F844236A
:1091D00001229A601A60054B202283F80B234FF47A
:1091E00000621A60704700BF00B0004000E100E07C
:1091F000F0B50346186880F308885868FF2464B205
:10920000EFF30585002D01D1A64600472546064609
:1092100021273FBAF0B40024002500260027F0B42F
:10922000F92040B2004700BFF0BD00BF18DF704713
:109230002DE9F041A64F3C68C0B0002C5BD0EFF3A5
:10924000108672B65422214601A803F013FEE37C77
:10925000F83B072B4DD8DFE813F031014C004C00F0
:109260004C00B9004C00150008009A4B01221A70FE
:10927000FE238DF81730984B187801A92030FFF79E
:109280001AFE36E0944FDFF84C82012388F8003054
:109290003B7816A9DB4304201693FFF70CFE3D78BC
:1092A000022D0CD0042D3CD0012D40F08B801020DD
:1092B000FFF7FCFD10BB0E2001F03DFD19E0112071
:1092C0002568FFF7F3FD62680168284603F0C4FDD6
:1092D000002872D001F082FC62B600232B93236831
:1092E0002C9363689B082BA82D93FFF79FFF002802
:1092F000E2D106B962B640B0BDE8F08101686268AB
:10930000206803F0A9FD002857D001F067FC62B681
:109310002B9523682C9363689B082E934FF48053FE
:10932000E1E7FFF7E9FBB8B101F058FC4FF08043EB
:109330004FF00F12C3F800240022C3F81C25BFF31E
:109340004F8F6649664BCA6802F4E0621343CB60F4
:10935000BFF34F8F00BFFDE71220FFF7A7FD0546C3
:1093600008B901F0E8FC2B68C3F30B0313B100202C
:1093700001F0E1FC50238DF8AC302B682C9363682E
:1093800003F6FF7323F47F6323F00F032BA82D93C1
:10939000FFF768FB18B1012388F80030A9E75123D3
:1093A0008DF8AC3023682D9363682E932B682C9333
:1093B0002BA8FFF757FB0028EDD1FC2338788DF858
:1093C00017305AE70B2001F0B6FCF6E70220FFF752
:1093D0006DFD05460420FFF769FD804615B9284656
:1093E00001F0A9FC0E22294616A803F043FD042231
:1093F000B8F1000F20D1FF212BA803F049FD364D15
:109400002B78022B1DD0042B27D0012B37D1238999
:10941000ADF858309DF8AC3043F001038DF8AC3016
:109420004FF01A080E2216A90220FFF77FFD60BB3D
:10943000284B01221A705CE741462BA803F01AFD65
:10944000DDE72389ADF85A309DF8AC3043F00203D4
:109450008DF8AC304FF01B08E4E7A3681793A3899D
:10946000ADF86030D4F80E30CDF862309DF8AC30F5
:1094700043F004038DF8AC304FF01C08D2E70B200A
:1094800001F059FC4FF00008CCE7A37C3BB140222F
:1094900004F114014046FFF749FD0028C8D004221A
:1094A0002BA91046FFF742FD0028C1D02878F823E9
:1094B00001A920308DF81730FFF7FDFC064B187816
:1094C0002030FFF70DFD0028B2D1386011E700BF52
:1094D000B4FE0120B1FE0120B0FE012000ED00E04D
:1094E0000400FA0570B504460325012606F12000A4
:1094F00080B2FFF7DBFC60B1C37CFF2B09D00A4BC5
:109500001E700A4B1860FFF793FE0CB10123237005
:1095100070BD013D4FEA4606E8D1044B1D60002CAA
:10952000F6D02570F4E700BFB0FE0120B4FE0120A4
:10953000431E012B70B5054601D9042812D10C4EEB
:1095400034688CB905F12000FFF7B0FC70B10368F6
:109550001B6801330AD0074B30601D70FFF768FEAF
:10956000204670BD0720FCE70820FAE70520F8E751
:10957000B4FE0120B0FE0120054B1B6833B1054B42
:109580001A781AB100221A70FFF752BE704700BF56
:10959000B4FE0120B1FE0120024B1868003818BF4C
:1095A00001207047B4FE01208268531CC36808BFC5
:1095B00000229B0002F00F02013B1344028A1B09A8
:1095C00001330AB103EB12134FF6FF70984228BF24
:1095D0001846704710B50420FFF768FC174C20614F
:1095E0000220FFF763FC20601220FFF75FFCE060C1
:1095F0001120FFF75BFCA0601020FFF757FC6060B4
:109600000120FFF753FC23696061B3F5FE2F0FD3F0
:109610002368B3F5FE2F0BD3E368B3F5FE2F07D312
:109620006368B3F5FE2F03D3A368B3F5FE2F04D20E
:10963000BDE810400820FFF71DBA10BDC4FD012091
:1096400070B590B001AD044618220021284603F001
:109650001FFC4CB33C4B1A791968029102F00701C8
:109660004FF6FD7242EA0162384993F871000978B9
:1096700042EAC062C81F4142414142EA0172344994
:1096800001981140334A024053F8660F114301918B
:1096900059681B8903AA03C21380631E022B4FD88B
:1096A000DFE803F0303B45004FF6FE73ADF80430C1
:1096B000294B1B680DF1060203F10C0153F8040B52
:1096C00042F8040B8B42F9D11B8813800F2402232C
:1096D000102660228DF8283007A800238DF81C2062
:1096E0008DF82A30CDE908568DF82940FFF7BAF9F0
:1096F000612307A8CDE908568DF81C30FFF7B2F9B1
:1097000010B070BD9DF80630042262F303038DF89B
:109710000630122623460324DBE79DF806200123AA
:1097200063F303028DF8062003240A26D1E79DF88F
:109730000630022262F303038DF806300123F4E7BA
:10974000012303240026C4E704FE012000FD0120BC
:10975000FDFF001F0000FFE0C4FD012008B5002050
:10976000FFF76EFF044B054801221A70BDE8084060
:109770007422002103F08CBB00FD012004FE0120B7
:1097800000B58BB0827821238DF80430C2F3030337
:109790008DF80930084B00F108011B788DF808306E
:1097A00002F00F020DF10A0001F0A2F801A8FFF784
:1097B00059F90BB05DF804FB00FD012030B5104CE9
:1097C000104D23782D789D428BB000D90BB9012321
:1097D000237060238DF804300023CDE902018DF859
:1097E000103001A823788DF811208DF81230FFF782
:1097F00039F910B92378013323700BB030BD00BFA5
:1098000001FD012078FE012038B502884FF6FC7377
:109810009A4204460ED14388002B14BF032206222D
:109820002046FFF7CBFF054610B9204601F0A2F90C
:10983000284638BD0322F3E738B505461148002411
:109840004FF6FF73047184618460A0F86230A0F861
:10985000644080F87040C461046045712A466630F7
:10986000013D01F045F8EDB2074B032D4FF0020228
:109870001A7096BF054B2046585DBDE83840FFF78B
:10988000DFBE00BF04FE012000FD0120C0CE0700A6
:109890002DE9F04FB64C426823689A42A9B00546BC
:1098A0000F4640F09A8201F04FF9824608B1002637
:1098B0006CE0B04A1378033B9046052B00F2898197
:1098C000DFE813F006008901870187014902780269
:1098D0006B88A94A002B40F06C8113706379022BCE
:1098E0004DD0042B04D0012B4CD1A44B5E6801E079
:1098F000A24BDE68AB682361A968481C284608BFF4
:109900003168FFF751FE80B2A4F86200A4F8640049
:10991000A160EB689A489B00A3612B8AE361AB7C52
:109920000021C3F3C003102284F87030616184F811
:10993000601003F0ADFA01F031F9E3685A1C2BD145
:109940006379022B26D18D4BDA68D2E900321A44B2
:109950004FF0102359698A4288BF5A69A169894B1F
:1099600023EA01031344E360D4E90202904221D0C8
:10997000A369194601F020F9E0B10D2014E07F4BF6
:109980009E68B7E7062001F0D6F90626304629B0D2
:10999000BDE8F08FA368E6E74FF01022A169526995
:1099A0000B449342E0D90C20FFF764F80926FFF737
:1099B000D5FEEBE7A26833689A42C0F0EF80A16958
:1099C0000A4471680B449A4200F2E8800422FF21A5
:1099D00013A888F8002003F05BFA6379022B1ED0ED
:1099E000042B17D0012B1FD19DF84C306FF30003CF
:1099F0008DF84C30D4E902329A4219D15F4E336966
:109A0000002B40F0AA80042213A91046FFF78EFA1B
:109A100030614AE09DF84C306FF38203E8E79DF82F
:109A20004C306FF34103E3E7072001F084F9E1E7ED
:109A3000554B0A932423ADF82C300DF1280A4FF032
:109A4000FF384FF000094FF0010B3AF8020BFFF717
:109A50002DFA064698B1D0E90001A369E26801F049
:109A6000ABF840B10BFA09F0203080B2FFF738FABA
:109A700008B101F060F93368984528BF984609F1AC
:109A80000109B9F1030FE0D13C4BE268A169D3F8B9
:109A90000CE0D3E9016C01EB020913464B4501D2FE
:109AA00043452AD3A3689A42A8D0D4E9020194F886
:109AB0007030A269354E00F07FFD002868D1622326
:109AC0008DF8080001A88DF80430FEF7CBFF2323A2
:109AD0008DF8283001238DF82C3063798DF82D30E6
:109AE0003368CDF82E307368CDF832303389ADF855
:109AF00036300AA8FEF7B6FF4EE0186801302AD0CB
:109B00003068984209D271680844984282BF9DF833
:109B10004C006FF300008DF84C00DCF80000984218
:109B20000AD2DCF804100844984282BF9DF84C0029
:109B30006FF341008DF84C00DEF8000098420AD225
:109B4000DEF804100844984282BF9DF84C006FF381
:109B500082008DF84C000433A0E713A90420FFF71E
:109B6000AAF90028A1D009496079FFF765FE9CE7B2
:109B700004FE012000FD0120EEFD0120C4FD0120B6
:109B8000F0FD012000F0FFFF210022006AFE01200D
:109B900060793146FFF750FE002600E1686800F06A
:109BA00093FF8F496079FFF747FE284600F0E2FFF8
:109BB0007DE613780133DBB2092B01D8137076E60A
:109BC00020680023137000F07FFF85496079FFF75C
:109BD00033FE0826DAE66B88002B00F0A580B4F887
:109BE00064209A42C0F0A0807E4E32889A4209D109
:109BF0000023622213A833808DF84C208DF850305A
:109C0000FEF730FFE369B4F8641068881A09A1EB25
:109C10001313984265D8A16800F0BBFE072F01D846
:109C2000002682E0A7F1080292B205F1080100F0D7
:109C3000FFFC0028F4D1B4F864306A88ADF85230E3
:109C4000242113A88DF84C10ADF85020FEF70AFF20
:109C5000B4F86230B6F800A0013BA4F86230BAF163
:109C6000000F3BD16069B5F8029001AA6946CDE9C1
:109C700000AA00F0E3FD88B3A168009B21F00F006B
:109C80001B1A6AEB4A021B0943EA0273013309F10A
:109C9000FF32934203D3B4F864204A451ED1ADF895
:109CA0002A3023680B9360238DF84C300AAB149351
:109CB000082315934FF602734FF6FB72ADF8583038
:109CC00013A80023ADF828208DF85A30FEF7CAFEFD
:109CD00020B9009B6361BDF82A3033804FF0010A40
:109CE0009EE702F1FF39A9EB010981444A4597D962
:109CF00094F8603043FA09F3DB0791D4A7F1080226
:109D000093B2102B8CD804EB091005F10801203018
:109D100003F0B0F8012000FA09F094F8609049EAE5
:109D2000000984F8609086E70B26B4F862305BB9CE
:109D300070228DF84C202C4A13A8CDE91432FEF77E
:109D400091FE052388F80030BAF1000F27D1002ECC
:109D50003FF42BAF1AE66B8823B92846FFF724FCA3
:109D6000A4F864000823002088F80030FEF7B7FE4E
:109D700023238DF84C3002238DF85030184B1A688D
:109D8000CDF852205A681B89ADF85A3013A8637970
:109D9000CDF856208DF85130FEF764FE0646394660
:109DA0002846FFF731FD002E7FF4F0AD00283FF488
:109DB0007EADFAE66B8823B92846FFF7F5FBA4F8D9
:109DC00064006A88B4F86430ADF8502024218DF81E
:109DD0004C10ADF8523013A88CE60B26D6E500BF28
:109DE0006AFE0120ECFD012080C3C90138B50024C2
:109DF0000A4B05462146742209481C7003F048F8B6
:109E000021460848102203F043F8074B1C70074B0B
:109E10001D70BDE83840FFF7DDBB00BF00FD01202D
:109E200004FE0120F0FD012000FE012078FE01204B
:109E30002DE9F043742291B000212E4803F028F858
:109E4000102200212C4803F023F82C4B00241C7016
:109E50002B4B1C80FFF7BEFB2A4B02932423ADF84B
:109E60000C304FF48173ADF8043004238DF80630C4
:109E7000254B1B689A1CCDE904230433069302AFDB
:109E80004FF002080DF1040937F8020BFFF70EF846
:109E90000546E8B114F809608DF81C8000F108014E
:109EA00032460DF122008DF8206000F021FD04AB58
:109EB0000BA853F82410324600F01AFD2B680E93BD
:109EC0006B680F93AB7C8DF8213007A8FEF7CAFDB5
:109ED0000134032CD8D100F061FEFFF75DFB20B9FF
:109EE000FFF73CFC11B0BDE8F083084B00221A706C
:109EF000F8E700BF04FE0120F0FD012000FE012074
:109F0000ECFD012022002100C4FD012000FD012004
:109F100008B50A4B1B78012B0CD14FF010235B695D
:109F20009A4201D3531C07D1054BDA60FFF784FC3A
:109F3000002008BD0820FCE71020FAE700FD012002
:109F400004FE012010B50F4C03462078013801288B
:109F500015D8072020700C4C2046637140F8662B02
:109F60001A4600F0C5FC6379013BDBB2032B96BFB8
:109F7000064A0020D05CFFF763FB002010BD0820DC
:109F8000FCE700BF00FD012004FE0120C0CE070059
:109F9000F0B50388A3F57F43FA3B8DB00446042B4C
:109FA0002CD8DFE813F04401DD0064014F00050008
:109FB000B14D2E78012E4CD10379407943EA00202F
:109FC00000F059FD98B121238DF80C3002238DF853
:109FD000113023798DF8123063798DF813302B7896
:109FE0008DF8103003A8FEF73DFD0546D3E0A11D16
:109FF0000846019100F024FD019908B90B25CAE03B
:10A0000062882B7890B24FF6FE74A0420CD09B4C25
:10A0100024682488844207D021218DF80C108DF803
:10A020001160ADF81220DBE721228DF80C2004220C
:10A030008DF811200DF112000A228DF8103002F077
:10A0400019FFCFE78C4F3B78032B04D8012B24D882
:10A050007BD008259FE0072BFBD1894D82786B7957
:10A0600002F00F029A422AD100F1080105F16600C0
:10A0700000F04DFC18B3E3782A7903F007039A4205
:10A0800004D31CD163682A689A4218D263682B6093
:10A09000E378C3F302032B7143E0794E717906F143
:10A0A000660200F02FFD354606F16601002843D018
:10A0B000E378327903F00703934206DC01D00025F0
:10A0C00069E0626833689A42F9D9A378C3F303025E
:10A0D0006A71224603F00F0352F8080FC5F86600B4
:10A0E0005068486012890A8121884FF6FD729142BA
:10A0F00007D1E278520704D0A27802F00F029A4208
:10A1000002D0072000F017FE63682B60E378C3F3EA
:10A1100002032B71E378C3F3C00385F87130032386
:10A120003B706B79013BDBB2032B96BF554A002095
:10A13000D05CFFF785FAC2E7A278737902F00F02CC
:10A140009A4206D0E3785B07B9D02046FFF718FBA8
:10A150004BE704F1080000F0F0FB0028AFD1F1E775
:10A16000474A4168136899427FF448AF424B1E78D2
:10A17000082E13D100F0E8FC0028A0D1314620467B
:10A18000FFF742FB6123054603A8CDE904468DF89D
:10A190000C30FEF767FC28460DB0F0BD3A4E418802
:10A1A0000023374636F82300884237D106EB830672
:10A1B0007388591C072B718081D963889068012BA3
:10A1C0001EBF03F1FF3320F00F0000EB031010223D
:10A1D00005A900F0F7FA30B34FF6FA73ADF80C307A
:10A1E000E278A37843EA0223ADF80E306368049363
:10A1F0000322182103A8FFF7E1FA0546A0B956B9D2
:10A20000224B1E78721C1A7006F00303628827F82E
:10A21000232007EB830600237380BCE70133042B64
:10A22000C0D10026C9E70525002EF4D1B3E7124BB3
:10A230001B78082B1BD1019100F086FC00287FF4CD
:10A240003EAF0F48B0F86420B0F86200ADF81220BD
:10A25000531C1B1A24208DF80C0003A8ADF81030F5
:10A26000FEF700FC01992046FFF7CEFABDE6204636
:10A27000FFF70EFBB9E600BF00FD0120C4FD012081
:10A2800004FE0120C0CE0700F0FD012000FE0120E9
:10A2900070B50220FEF70AFE06460420FEF706FE11
:10A2A00004461020FEF702FE05461220FEF7FEFDD2
:10A2B00076B1328862B1BCB12278D20703D40120D2
:10A2C00011E004200FE025B12A6812680132F6D0AF
:10A2D00014B122785307F4D528B103681B68013301
:10A2E00014BF0020042070BD002DEDD1F4E710B59F
:10A2F0000220FEF7DBFD04461220FEF7D7FD74B105
:10A3000050B103685A1C0AD01B68013307D0D4F837
:10A310000A0008B100F0C9FB00F0010010BD0020E8
:10A32000FAE7000030B54D4D4D4C2968ABB00E2218
:10A33000684602F09FFDD4E902329A4241D054228D
:10A34000FF210DEB020002F0A3FD627904F166012A
:10A3500017A800F0CDFAA3691693E36815934FF49C
:10A360007F43ADF86630E3699BB1402204F12001E0
:10A370001AA802F07FFD01238DF86630542263791C
:10A38000022B17D0042B06D0012B16D115A92120A2
:10A3900003E01422F3E715A92420FEF7C7FD314B93
:10A3A00006221A70FEF7A2FD034638B100F0C3FC86
:10A3B000002303E015A92220EFE70B2318462BB05A
:10A3C00030BD2B6913B90E2000F0B5FC04222969B9
:10A3D00015A802F04FFD6279022A31D0042A15D067
:10A3E000012A20D00020E3691BB11F494022FEF75B
:10A3F0009DFD0E2269460220FEF798FD042228608A
:10A4000015A91046FEF792FD2861C8E717490A22F0
:10A4100001A802F02FFD9DF8543043F004038DF89D
:10A4200054301C20DFE711490222684602F022FD69
:10A430009DF8543043F001038DF854301A20D2E7D0
:10A440000A490DF1020002F015FD9DF8543043F069
:10A4500002038DF854301B20C5E700BFC4FD012066
:10A4600004FE012000FD012024FE01206AFE0120DF
:10A4700030B5314B1B78013BA7B0072B11D8DFE873
:10A4800003F00408080A121059590120FEF7F2FAE5
:10A4900007E00520FAE7294B587903F16601FFF739
:10A4A000CBF927B030BD264D6A69002A32D0234C43
:10A4B000E369002B3CD00AA801F00AFF0122611DCC
:10A4C0000AA801F035FF042204F110010AA801F0E6
:10A4D0002FFF042204F118010AA801F029FF00232C
:10A4E00001220DF107010AA88DF8073001F020FFC5
:10A4F0006379022B11D8CBB90AA800F0DDF900224C
:10A5000002A90AA801F037FF0E4A686902A901F002
:10A51000B3FC68B1FFF706FFC3E7042BECD10A22B6
:10A5200004F166010AA801F003FFE5E70222F7E75C
:10A530000420ABE70020A9E700FD012004FE012074
:10A54000C4FD012024FE0120FFF708B900B5114B1E
:10A550001B78062B8BB01AD1FEF752FDB8B10E490D
:10A5600025234A798DF80430663101230DF10A0064
:10A570008DF808308DF8092000F0BAF901A8FEF72F
:10A5800071FA00F0A7F9FFF725F8FFF751FC0BB0BF
:10A590005DF804FB00FD012004FE012010B5054C10
:10A5A00030220021204602F073FC4FF6FF73238512
:10A5B00010BD00BF80FE01202DE9F04104460D468C
:10A5C0001E461746FFF7EAFF45EA0403C3F30B03F1
:10A5D0002BBB1448DFF85480002D08BF254607F632
:10A5E000FF7101402840C8F80450FEF765FAE119F0
:10A5F000C8F8004021F00F0124F00F0400230C1BC9
:10A600000022C8E904232409074BA8F8084088F869
:10A610000A60C8F80C70C8F82830BDE8F081102036
:10A62000FBE700BF00F0FFFF0000FFFF80FE0120FE
:10A630002DE9F74F9246624A138D4FF6FF77BB42E2
:10A640008346104638D01BF00F0F40F0B2801568DB
:10A650005D4500F2AE80D4680AEB0B062C44A6429E
:10A6600000F2A780BAF1100F00F2A5801AF0030CD7
:10A6700040F0A180B2F82AE0BE4540F09E8025F06F
:10A680000F04ABEB040424090134A4B2A34215D394
:10A690001B1B402B10DCD2E90472C3F1200CA3F188
:10A6A000200627FA03F502FA0CFC45EA0C0522FA0B
:10A6B00006F63543ED0767D4082036E0E31A9BB26F
:10A6C0000120A3F12008C3F1200600FA08F520FAC2
:10A6D00006F600FA03F717F1FF3745EA060545F1DC
:10A6E000FF30C3F1400CC3F12009D2E9046507FA39
:10A6F00009F9019000FA0CF040EA090027FA08F87D
:10A7000040EA080007FA0CFC0CEA060800EA050912
:10A7100058EA0900A3F1200CC3F1200008D003205F
:10A72000A2F828E0FEF7A6F9052003B0BDE8F08FF7
:10A730009D4006FA0CFC06FA03F31F4345EA0C059C
:10A74000019B148526FA00F005431D4327F00107FD
:10A75000C2E904751A4D524605F118006C8502F0E5
:10A7600089FB2946686851F8183BC01A524658447C
:10A77000FEF78DF90028D8D04FF6FF7307202B8500
:10A78000FEF778F90320D0E79BB20126A3F120055C
:10A79000C3F1200C06FA05F526FA0CFC45EA0C0577
:10A7A00006FA03F327EA030322EA0502C0E90432AA
:10A7B000D0E71020B9E70920B7E71120B5E700BFBF
:10A7C00080FE0120F8B50E461B490C8D03464FF65E
:10A7D000FF7084420F464FF000002CD00D6825F02A
:10A7E0000F0CA3EB0C031B0901339BB29C4222D339
:10A7F000E41A402C10DCD1E9045EC4F1200CA4F171
:10A8000020010EFA0CFC25FA04F42EFA01F144EAB8
:10A810000C040C43E1070ED466B15AB17968012BE0
:10A820001EBF03F1FF3321F00F0101EB031130468E
:10A8300002F020FB0120F8BD80FE01202DE9F74F3A
:10A840001C4B1F8D4FF6FF74A74230D0D3F800C0C9
:10A850001C69D3F814E001942CF00F083F234FF04B
:10A860000009019CC3F12006A3F12005DC400EFA8B
:10A8700006F634432EFA05F52C4304F0010ACB46C4
:10A880005AEA0B0411D0FC1AA4B2012C1ABF04F12D
:10A89000FF3408EB04146446A04206D810230C6071
:10A8A0000120136003B0BDE8F08F013BD9D2002036
:10A8B000F8E700BF80FE0120054B198D4FF6FF72AF
:10A8C000914203D0DA68596801F032BD0820704720
:10A8D00080FE0120FFF762BE044B03F118028242A2
:10A8E00004BF4FF6FF725A85704700BF80FE0120FB
:10A8F000022A30B408D0042A05D0012A01D10B88DD
:10A90000038030BC70470A2230BC02F0B3BA022A7E
:10A9100038B506D0042A03D0012A08D0002038BD5B
:10A920000A2202F099FAB0FA80F04009F7E70088AD
:10A930000B88C31A58425841F1E7022A12D0042A60
:10A9400003D0012A0BD00020704782888B889A425E
:10A95000F9D100680B68C31A584258417047008803
:10A960000B88F8E700780B78F5E7022A0ED0042A66
:10A9700003D0012A07D000207047D0F80600D1F894
:10A980000630C01A704700880B88FAE700780B7809
:10A99000F7E701281EBF00F1FF3021F00F0101EBA6
:10A9A00000110846704770B5054602200E46FEF7B6
:10A9B0007DFA04460420FEF779FA022E1CD0042EFC
:10A9C00003D0012E2CD0002015E0002CFBD0A9884C
:10A9D00022899142F7D1296862689142F3D1D5F872
:10A9E0000610D4F80A20914218D820B1007880F0DF
:10A9F0000400C0F3800070BD002CE4D02978A27858
:10AA00009142E0D16978E278914207D80028F2D0EB
:10AA1000007880F00200C0F34000ECE70120EAE794
:10AA200064B129882288914208D120B1007800F0D1
:10AA30000100C0F1010000F00100DCE70020FAE7AE
:10AA400010B504460220FEF731FA90B1A2880389BE
:10AA50009A420CD1226843689A4208D1D0F80A0081
:10AA6000D4F80630834294BF0020012010BD00209E
:10AA7000FCE70120FAE707B5ADF804000220FEF775
:10AA800015FA80B19DF8042083789A4209D1C078E4
:10AA90009DF80530834294BF0020012003B05DF88B
:10AAA00004FB0020FAE70120F8E708B50420FEF7D0
:10AAB000FDF930B1007800F00700C31F584258413B
:10AAC00008BD0120FCE70000044A1378591C1170EE
:10AAD00003F00703024A42F8230070471CFF0120DD
:10AAE000FCFE0120064A002352F8041B814204D0D8
:10AAF0000133082BF8D1002070470120704700BFB8
:10AB0000FCFE012037B583780D4603F00F03AB42FE
:10AB10000446114600D0A5B901916068FFF7E2FF35
:10AB200078B9083401992A462046FFF706FF30B16C
:10AB300001992A462046FFF718FFC043C00F03B013
:10AB400030BD0020FBE7000030B5094B0188002232
:10AB50001C888C4203D15D884488A54206D001320E
:10AB6000102A03F10403F3D1002030BD0120FCE7DB
:10AB7000B8FE012030B50749074A0B68058803F085
:10AB80000F04013322F8245002EB840240885080E5
:10AB90000B6030BDF8FE0120B8FE012008B5402250
:10ABA0000348002102F074F9024B00221A6008BD2C
:10ABB000B8FE0120F8FE0120904204D313448342E2
:10ABC00007D8904207D10144914234BF00200120B0
:10ABD00070470120704700207047000010B5094AF7
:10ABE00010680023012404FA03F1014205D0C2F8E1
:10ABF0008010BFF34F8FBFF36F8F0133202BF2D143
:10AC000010BD00BF00E100E081682023013B21FA74
:10AC100003F2D207FAD5012202FA03F3836000237C
:10AC2000C0E90333704770B50446F9B1EFF31085FE
:10AC300072B6D0E9020622690244B24203D105B9D4
:10AC400062B604250DE0236862680138304002FBDB
:10AC5000003063693BB19847E3680133E3603DB975
:10AC600062B6284670BD02F005F9F5E70E25F8E753
:10AC70000025F6E738B504460846EFF3108572B6AE
:10AC8000D4E90331994203D105B962B60E250FE02C
:10AC900048B1D4E90123013B0B40216802FB0311B9
:10ACA00063693BB198472369013323612DB962B6CB
:10ACB000284638BD02F0DEF8F5E70025F8E7F8B5DC
:10ACC0000446084611B90E252846F8BDEFF3108555
:10ACD00072B6D4E90376BF1BBA4203D3002DF2D17A
:10ACE00062B6F0E7D4E901732168013B16443340B2
:10ACF00007FB031163691BB198472DB962B6E3E7FF
:10AD00003A4602F0B7F8F8E70025DDE70022FFF742
:10AD1000D6BFD0E90320101A704703698268C06863
:10AD200013441B1A584258417047D0E90302131AC2
:10AD300058425841704772B600BEFEE772B600BE78
:10AD4000FEE7000008B54FF08043D3F8082442B96D
:10AD500001221A60D3F80021002AFBD00022C3F898
:10AD600000214FF08043D3F8142442B901229A60A5
:10AD7000D3F80421002AFBD00022C3F804214FF0AD
:10AD8000804301221A61D3F80C21002AFBD0002253
:10AD9000C3F80C210E4B402283F816234FF4800297
:10ADA0001A6062B6FDF728FBFEF7F6FB70B94FF0AC
:10ADB00080431C46D3F81C250AB9FDF7E5FB0023A8
:10ADC000C4F81C35FDF76CFB20BFFDE720BFEBE7A7
:10ADD00000E100E00023044A19460133202B02F869
:10ADE000011BFAD1704700BF4C0600200D4A30B558
:10ADF000014600231546EFF3108472B612F8010BDA
:10AE000048B9094A0120E854282505FB03230B60B3
:10AE100004B962B630BD04B962B60133202BEAD161
:10AE20000020F7E74C0600204C01002070B50E4CC6
:10AE3000001BB0F5A06F15D22824B0FBF4F4EFF39B
:10AE4000108672B6094D2B5D013BDBB2FD2B02D99A
:10AE50000420FFF770FF2B5D01332B5506B962B656
:10AE6000012000E0002070BD4C0100204C060020B5
:10AE7000104BC01AB0F5A06F10B501D3002010BD63
:10AE80002823B0FBF3F0EFF3108472B60A4B1A5C80
:10AE900032B90820FFF74FFF002CEFD162B6EDE783
:10AEA000013A1A5404B962B6185C003818BF012080
:10AEB000E5E700BF4C0100204C060020064BC01AFD
:10AEC000B0F5A06F3FBF2823B0FBF3F0034B185C35
:10AED00028BF0020704700BF4C0100204C06002016
:10AEE00010B5084904460622033001F0C3FF4FF0B5
:10AEF00080530020D3F8A020237862F386132370B8
:10AF000010BD00BFA400001010B5034660B1427828
:10AF1000D11F1E2908D80332093013444FF6E461CB
:10AF2000984201D202780AB9002010BD4478162C4C
:10AF300005D1141F1B2C02D844888C42F5D0013255
:10AF40001044EDE7F0B54FF08054022623692269E2
:10AF50009BB2013B0B4492B20021B3FBF2F3104AC7
:10AF6000DBB20F46CDB2AB4200D8F0BDC2F80465EB
:10AF7000D2F80054002DFBD0C2F80805D2F80054D6
:10AF8000002DFBD0C2F80475D2F80054002DFBD080
:10AF90002569C5F38D0500EB85000131E2E700BFAF
:10AFA00000E0014023F003032DE9F04118440024A0
:10AFB000164F174B0A442646A6464FF00108914209
:10AFC00001D1BDE8F08111F801CB07F806C0751C6E
:10AFD000EDB264EA0C04042DE4B215D18CB1C3F8CF
:10AFE0000485D3F80044002CFBD03C680460D3F8FF
:10AFF0000044002CFBD0C3F804E5D3F80044002C37
:10B00000FBD00024043025462E46D8E76C060020ED
:10B0100000E00140384B2DE9F04700240F469046F0
:10B0200001210322C3F8FC4FC3F8FC1FC3F80C45F1
:10B03000C3F810250222C3F808252522C3F8542599
:10B040008E22C3F8242506462C4A2D48C3F81C2519
:10B050000568D3F82425280E42EA0022C3F82425E7
:10B060002D02284AC3F82055C3F82C45C3F83015E3
:10B07000C3F81425244AC3F8182540F25B62C3F8CC
:10B08000382540F20312C3F83425204AC3F83C2582
:10B090001F4D9422C3F844252A78032A08D11D485D
:10B0A0001D4A44610823C0E900238360FFF7ACFD1B
:10B0B00002242C70104B194D0022C3F80C21C5F846
:10B0C00080412C60164BDFF860901F60154B1148D3
:10B0D000C9F80060C3F80080FFF727FE20B1D9F857
:10B0E0000030BDE8F047184700F028FA08B1C5F86D
:10B0F0000041BDE8F08700BF0010004000D6BE89C7
:10B1000004000020060102002500030255555500E9
:10B1100008000020740600208C06002000E100E0FA
:10B12000CC060020D00600207006002038B501466D
:10B13000C0B1437913B90379012B15D80C48FFF737
:10B1400072FD044690B9EFF3108572B600F0F6F97F
:10B1500018B1084B0222C3F800210DB962B62C4683
:10B16000204638BD0E24FBE71024F9E70424F7E756
:10B170007406002000E100E0074B00224FF0FF3191
:10B18000C3F80022C3F8081301211961C3F804258C
:10B19000024B02221A707047001000400800002085
:10B1A0002DE9F041624CD4F80C3186B02146002BD9
:10B1B0006DD0D4F80064D4F80C74D4F81C31002B92
:10B1C0005FD00023C4F81C31D4F84845E4B2002312
:10B1D000C1F80C31574803A9FFF74CFD08B1FFF740
:10B1E000AAFD9DF811300398013B012B4BD8524B1F
:10B1F000311E1D683A46234618BF0121A8474F4B10
:10B2000002221A704B4801A9FFF780FD002840F088
:10B210008A80474C1323C4F800329DF80A300A2B69
:10B2200064D89A1C5200C4F8082503F07F02404BF2
:10B230004349C3F85425019AC3F804250822C3F8EA
:10B2400004230022C3F80C210968D3F82425080E32
:10B2500042EA0022C3F824250A02C3F820259DF8FB
:10B26000094036481A46002C4ED19DF80820C3F8F4
:10B270002C259DF80B20C3F80C2501221A600270C2
:10B2800013E06424A3E72F4B1B689847B7E72948CE
:10B29000284F294EFFF73DFDA0460546012D07D852
:10B2A000264B1B78023B012BACD906B0BDE8F081E0
:10B2B00003A93846FFF72AFD01460028F0D19DF882
:10B2C0001130022BECD13846FFF7D4FCFFF754FFC6
:10B2D000D8F850150029FBD1C8F80C110398346830
:10B2E00064234FF0FF32A047013DD7E7242B01D85C
:10B2F000DA1C97E7144A07CA06AD05E9070005EB13
:10B30000830252F8A02C8EE7104B994218BF0321FC
:10B310004FF001030CBFC2F83035C2F8301553604E
:10B3200000230370C1E70A4B1B689847BDE700BFC5
:10B330000010004074060020CC0600200800002009
:10B3400004000020D0060020C4CE0700D6BE898E9F
:10B350007006002010B5D0E900238468C168A2EB14
:10B36000731283EAF43303600C44134411444460C1
:10B370008160C360184610BD0A4B012210B51A60E7
:10B38000002219B901225A60084610BDD3F80041C5
:10B39000002CFBD0013989B2D3F808454454C3F8D6
:10B3A0000021EEE700D0004037B504210023054618
:10B3B0000DEB01000193FFF7DFFF044658B9074B7F
:10B3C0002B60019BEB60C5E9013314242846FFF78D
:10B3D000C1FF013CFAD1204603B030BDED5EEAF179
:10B3E000F0B5164B1648D3F80425531E23F07F43BF
:10B3F00019460024056855B147688D1ABE1A26F013
:10B400007F4625F07F45AE4238BF27F07F410134AB
:10B41000082C00F11000EDD19942084B4FF4803018
:10B420001FBFC3F804030020C3F84001C3F8401550
:10B4300016BF044BC3F808031A60F0BD00B000400B
:10B44000880700208407002007B5019061B10848F3
:10B4500001A9FFF7E8FB38B9064B4FF48012C3F897
:10B46000002103B05DF804FB0198FFF701FDF8E748
:10B47000EC06002000E100E007B5022368468DF8E5
:10B480000530FFF7B3FC78B100238DF8043068462F
:10B4900025238DF80630FFF749FE10B16846FFF707
:10B4A000E7FC03B05DF804FB014B1870F9E700BF3F
:10B4B000E4060020024B1B780BB1FFF7DDBF70479D
:10B4C000E4060020F8B5837B8768457B0646C3B950
:10B4D00040F6CD4303FA05F20135AB409D1A1548FD
:10B4E000A2F6CD421744FFF735FFC5F35603B0FB74
:10B4F000F3F202FB13023B44134423F07F437360D7
:10B50000F8BD022B0B480CBF0A240124FFF722FFD1
:10B5100040F6CD4161430F4441F69A136C4303FB5F
:10B520000474B0FBF1F303FB11010C4424F07F44DD
:10B530007460E5E7D4060020FFF732BE01207047B3
:10B54000174B10B500241C70164B1860164B17488B
:10B550001C802146802201F09BFC1548154B03609E
:10B5600004222023C0E901234461FFF74DFBFFF7CC
:10B5700031FC1148FFF718FF08B1FFF7DCFB0F4B58
:10B58000402283F814234FF480121A60002283F8BB
:10B590000123BDE810400A4A0A490B48FFF73ABDAB
:10B5A000E4060020E8060020CC09002088070020DF
:10B5B000EC06002004070020D406002000E100E093
:10B5C000F5B7070049B40700B5B40700034B1A7874
:10B5D0001AB901221A70FFF74FBF7047E406002026
:10B5E00073B50F4D0F4E01A92846FFF743FB0446E4
:10B5F00030B10D4B1B780BB9FFF7E8FF02B070BDFF
:10B600000198FFF75BFC012802D02046FFF793FB6F
:10B610000198336898470198FFF72AFCE3E700BFD9
:10B62000EC060020E8060020E40600202DE9F047A3
:10B63000044617461E460BB90C2A28D83CB30729E6
:10B6400025D8EFF3108872B6124B0D0103EB0119E8
:10B6500058599A4608B1FFF70BFC2046FFF7E6FB66
:10B660000AEB050300225A734AF805400A4A1F7381
:10B67000D2F804259A609E734846FFF723FFFFF730
:10B68000AFFEB8F1000F00D162B6012000E000204B
:10B69000BDE8F0878807002000B0004038B50F4BA8
:10B6A0004FF400620446C3F88020BFF34F8FBFF30E
:10B6B0006F8F07280CD80301094DE858FFF7D8FB16
:10B6C0001022002105EB041001F0E2FBFFF788FED9
:10B6D000024B4FF400621A6038BD00BF00E100E089
:10B6E000880700202DE9F7432D4B2E4CD3F8046535
:10B6F000DFF8B480002502362F464FF02509216877
:10B7000049B36368F31A23F07F42D8F80030F31A84
:10B7100023F07F439A421ED8E37B0091022BADF8C1
:10B7200004708DF8077020D9637BE7735A1CD2B27E
:10B73000FF2B627307D1A36803F5CC1303F5D05335
:10B7400023F07F43A360237B9A4201D3FF2B1ED1BA
:10B750002046FFF7B7FE0135082D04F11004CED1C5
:10B76000FFF73EFE03B0BDE8F0838DF80690684613
:10B77000FFF7DCFC10B92068FFF758FB9DF8063096
:10B780000133DBB2272B8DF80630F0D9CCE72068E7
:10B79000FFF76EFB10220021204601F079FBDAE76B
:10B7A00000B000408807002084070020074AA0F569
:10B7B0007F400123F03803FA00F0138819B10343E6
:10B7C0009BB21380704723EA0003FAE7CC090020FC
:10B7D0004FF6EF73984281BF054BA0F57F401B8861
:10B7E000F03886BF43FA00F000F0010000207047F7
:10B7F000CC09002010B588B00446FFF785FB88B15E
:10B8000082884FF6EF7390B298420BD9FFF7E0FFB2
:10B8100040B14BF203636846ADF80220ADF800304A
:10B8200000F0C4FE2046FFF723FB08B010BD031F45
:10B8300000221C3043F8042F8342FBD17047031FC2
:10B840001C3053F8042F1AB98342FAD101207047F3
:10B85000002070474A11012350F8220001F01F0117
:10B8600003FA01F108407047002351F8232040F803
:10B8700023200133082BF8D1704710B500F12003C5
:10B88000203153F8044D51F8042D944204D805D3C7
:10B890008342F6D1002010BD0120FCE74FF0FF30BD
:10B8A000F9E700F120030022834200D1704753F8EA
:10B8B000041D42EA51021A60CA07F5E7002370B579
:10B8C0000546184651F8236052F823403444044496
:10B8D000A64202D08CBF0120002045F8234001334E
:10B8E000082BEFD170BD0023F0B50546184651F87E
:10B8F000236052F82370341AE41BA64202D034BFEE
:10B900000120002045F823400133082BEFD1F0BD82
:10B9100001F11C0304381A688B4212BA40F8042F54
:10B92000A3F10403F7D1704770B50646A0B00846EE
:10B930001446FFF784FF20B13046FFF778FF20B0B0
:10B9400070BD6846FFF790FF214608A8FFF78CFFFF
:10B9500010A8FFF76CFF012318A81093FFF767FFEB
:10B9600008A96846FFF789FF20B910A93046FFF7FC
:10B970007BFFE4E7009BDA0716D46846FFF791FFE8
:10B98000109810F0010505D010A922460846FFF7CF
:10B9900095FF054610A8FFF784FF002DE0D0179B08
:10B9A00043F000431793DBE7089BDB0716D408A896
:10B9B000FFF777FF189810F0010505D018A9224667
:10B9C0000846FFF77BFF054618A8FFF76AFF002D22
:10B9D000C6D01F9B43F000431F93C1E700281BDD27
:10B9E00008AA69466846FFF77EFF6846FFF759FFD9
:10B9F00018A910A8FFF741FF002804DA10A9224671
:10BA00000846FFF75BFF10A918AA0846FFF76BFF6F
:10BA1000109B13F00105B6E708A96A460846FFF730
:10BA200062FF08A8FFF73DFF10A918A8FFF725FF40
:10BA3000002804DA18A922460846FFF73FFF18A994
:10BA400010AA0846FFF74FFF189B13F00105B4E753
:10BA500010B50446FFF747FF30B121462046034AA0
:10BA6000BDE81040FFF72ABF10BD00BF30CF070070
:10BA700010B50446FFF722FF28B907492046FFF713
:10BA8000FCFE002806DB21462046034ABDE81040A4
:10BA9000FFF729BF10BD00BF30CF070002460723C4
:10BAA00052F8230028B1024600202AB900EB4310C7
:10BAB00001E0013BF4D2704752080130F5E72DE96F
:10BAC000F04F002487B08E462546234602EB8306BE
:10BAD000AA46A1F1040C254601960024CDE902A551
:10BAE000019E56F804790196DDE902AB5CF8046F1B
:10BAF000A7FB066716EB0A0857EB0B092CBF0125BD
:10BB00000025E6452C44C2464D46E7D140F8238047
:10BB10000133082B0EF1040ED8D102F12006AE46F7
:10BB2000A3F1070C25460196002451F82C600296DB
:10BB3000CDE904E5019E56F8047D0196DDE904ABEC
:10BB4000029EA6FB076716EB0A0857EB0B090CF1E0
:10BB5000010C2CBF01250025BCF1080F2C44C64662
:10BB60004D46E2D140F8238001330F2BD5D1C0F8E8
:10BB70003C9007B0BDE8F08F2DE9304298B0814687
:10BB800008A8FFF79CFF08A94846FFF76DFE139B26
:10BB90000393149B0493159B0593169B0693002512
:10BBA000179B07936A4669466846CDE9015500959B
:10BBB000FFF784FE6A46044649464846FFF77EFE84
:10BBC000149B0393159B0493169B0593179B0444A6
:10BBD0006A4669466846CDE90635FFF76FFE494675
:10BBE00004446A464846FFF769FE109B0093119B88
:10BBF0000193129B0293169B06930444179B079391
:10BC00006A464846CDE904550395FFF757FE119B58
:10BC10000093129B169A0193139B02930492159B17
:10BC2000179A0393CDE905230444109B07936A46B2
:10BC30004846FFF743FE139B0093149B0193159B0B
:10BC40000293109B06930444129B07936A4648464E
:10BC5000CDE904550395FFF746FE149B0093159B11
:10BC60000193169B0293179B0393119B0693241A2F
:10BC7000139B07936A464846CDE90455FFF733FE08
:10BC8000159B0093169B0193179B0293109B0393A4
:10BC9000119B0493129B241ACDE905356A46149B27
:10BCA00007934846FFF71FFE169B0093179BCDE9AD
:10BCB0000135119B0393129B0493139B241ACDE926
:10BCC00005356A46159B07934846FFF70CFE241A74
:10BCD0000ED40C4D2CB949462846FFF7CEFD01285D
:10BCE0000DD02A4649464846FFF7FDFD241AF1E7E4
:10BCF000044A49464846FFF7E1FD2418F9D418B034
:10BD0000BDE8308230CF070070B588B006460D46DA
:10BD1000684611461446FFF72FFF6A463146304603
:10BD2000FFF72AFF224669466846FFF725FF6A4665
:10BD300029462846FFF720FF08B070BDF0B514462D
:10BD400089B006460F460246214668461D46FFF763
:10BD50007FFE6A4669466846FFF70EFF6A4631462F
:10BD60003046FFF709FF6A4621462046FFF704FFE9
:10BD70003A4629462846FFF76BFE2A46294668467A
:10BD8000FFF7FAFE324669466846FFF761FE224633
:10BD900069466846FFF75CFE324621462046FFF7BB
:10BDA00057FE224639463846FFF7E6FE6A463146D8
:10BDB0002046FFF74DFE224629462846FFF7DCFEC7
:10BDC0003A4629462846FFF743FE69462046FFF7D4
:10BDD0004BFD09B0F0BD00002DE9F041B2B022AB3F
:10BDE000054602A800930190FFF769FE21491AA8B1
:10BDF000FFF73AFD12A8FFF71AFD40F201160124E1
:10BE000032AAC4F1010302EB830312A853F8C8CC91
:10BE100002EB8403002253F8C8EC13465EF823704B
:10BE200050F8048BB91AA1EB08018F4202D034BF3D
:10BE3000012200224CF823100133102BEED1131BEA
:10BE40005C4212A85C41FFF72CFDDDE919321AA80B
:10BE500043EAC2731993FFF724FD013ED0D132AB00
:10BE600003EB8404284654F8C81CFFF7FDFC32B0ED
:10BE7000BDE8F08110CF07002DE9F047ADF5067D54
:10BE800046AF0DF5CC79064600258A460146484660
:10BE90001446FD615595FFF73BFD06F120016EA8A4
:10BEA000FFF736FD21463846FFF732FD04F1200149
:10BEB0004EA8FFF72DFD3846FFF7C1FC06460028C7
:10BEC00040F05E814EA8FFF7BAFC0446002840F01F
:10BED0005981AD483946FFF7D0FC012840F09C80DD
:10BEE000A9484EA9FFF7C9FC0128804640F094807C
:10BEF000A54AA64E4EA916A8FFF716FD514606A85C
:10BF00000D94FFF705FD06A9084616AAFFF764FF82
:10BF100076AD16AA39460EA8FFF75EFF49462846B9
:10BF2000FFF7A2FC6EA97EA8FFF79EFC31462EA863
:10BF3000FFF79AFC06F1200136A8FFF795FC294689
:10BF40002EAA16A8FFF784FD7EAB2A4636A92EA896
:10BF5000FFF7F4FE16A908468D4AFFF7E5FC16AA7E
:10BF60007EA92846FFF7D0FE06A8CDE90495CDE9C5
:10BF70000246FFF793FD05460EA8FFF78FFD8542A9
:10BF8000B8BF0546691E06A80191FFF763FC019939
:10BF9000DFF8FC91061E0EA818BF0126FFF75AFC19
:10BFA000002814BF0220002002AB06431EA853F84D
:10BFB0002610FFF759FC26AE20313046FFF754FC1F
:10BFC00016A8FFF734FC023DCDF85880002D28DA82
:10BFD00016A908466E4A1EADFFF7A6FC16AA26A9AA
:10BFE0002846FFF791FE68482946FFF746FC0128DE
:10BFF00004D0654A29462846FFF775FC072355F803
:10C00000232057F82310013B82EA010244EA02048C
:10C01000F5D2B4FA84F4640920460DF5067DBDE836
:10C02000F08716A8FFF70BFC002870D13246314686
:10C0300056A8FFF7A1FD56AA1EA95EA8FFF79CFD12
:10C0400056AA11461046FFF797FD16AA314630460C
:10C05000FFF792FD16AA11461046FFF78DFD1EA9A7
:10C06000084616AAFFF704FD16AA11461046FFF768
:10C07000FFFC16AA10461EA9FFF7EAFC1EA90846F7
:10C0800016AAFFF779FD1EAA114616A8FFF7F0FCC5
:10C090001EA916AA0846FFF7EBFC1E9BDB076BD513
:10C0A0001EA94A460846FFF709FC80461EA8FFF76E
:10C0B000F8FB259B43EAC87325931EAA114616A8D0
:10C0C000FFF75AFD16A908465EAAFFF7C1FC16A99C
:10C0D00008465EAAFFF7BCFC5EA9084616AAFFF751
:10C0E000B7FC1EA908465EAAFFF746FD56AA1046F1
:10C0F0001EA9FFF7ADFC16A91EA8FFF7B5FB314638
:10C1000016A8FFF7B1FB56A93046FFF7ADFB29464D
:10C1100006A8FFF79FFB2946B0F100080EA818BF3C
:10C120004FF00108FFF796FB002814BF0220002003
:10C1300048EA000802AB53F82810D9B12EA8FFF73F
:10C1400093FB36A82031FFF78FFB16AA36A92EA83D
:10C15000FFF7DAFD2EAA1EA93EA8FFF779FC1EAA5A
:10C1600036A92EA83346FFF7E9FD16A93EAA0846D0
:10C17000FFF702FD013D29E71EA8FFF792FB9CE7B0
:10C180002C4649E7344647E710CF0700D0CE0700DA
:10C1900030CF07002DE9F04FC9B008AA01F14005E2
:10C1A00014464B780E781B0443EA0663CE7833437B
:10C1B0008E78043143EA06238D4244F8043BF0D1E3
:10C1C0001024916B16464FEAF14383EA714383EAE8
:10C1D0009123716A366852F8045F31440B444FEA88
:10C1E000B54181EAF51181EAD50101340B44402CB7
:10C1F000D363E6D1D0E914E30093836D0193C36D5B
:10C200000293036E0393436E0493836E0593C36E90
:10C210000693DDE9057BDDE9031CDDE901592B4BC4
:10C22000009E079374464FF00008079B53F8042BB9
:10C2300007934FEAF12383EAB11383EA716A08ABEB
:10C2400053F828301A440AEB020327EA010A01EAEC
:10C250000C028AEA02021A444FEA743A86EA05039B
:10C260005A448AEAB40A06EA050B234083EA0B0320
:10C270008AEAB45A08F101089A44B8F1400F02EB77
:10C280000903BB465244A94619D172440265009A7B
:10C2900022444265019A32448265029A2A44C26568
:10C2A000039A1A44049B02660B444366059B63444D
:10C2B0008366069B3B44C36649B0BDE8F08F674682
:10C2C00035468C46264619461446AEE750CF070041
:10C2D00030B5E0B10F4A104900240025C0E91245ED
:10C2E000C0E914120D4C0E4A0E4DC0E916420E4A1A
:10C2F000C0E918520D4A826602F17452A2F5230277
:10C300000023A2F692420364C266184630BD0E2096
:10C31000FCE700BF85AE67BB67E6096A72F36E3C57
:10C320003AF54FA57F520E518C68059BABD9831F00
:10C3300070B5F0B1DAB900201CE00C468D1800266B
:10C34000AC42F8D0036C14F8012BC2540133402BDB
:10C350000364F5D10146FFF71DFFD0E9123213F552
:10C36000007342F10002C0E912320664E8E70029D6
:10C37000E3D10E2070BD70B50D4616460446002868
:10C3800075D0002973D0026C8021372A815402F1C4
:10C3900001034FF0000240D8382B39D1D4E9120103
:10C3A000226C0823E3FB020103BAE3630B0A84F85F
:10C3B0003A300B0C84F839300B0EC4E9120184F8C2
:10C3C0003B1084F8383021462046FFF7E3FE691E13
:10C3D00076B30023E26EDA4001F8012FA26EDA4054
:10C3E0000A71626EDA400A72226EDA400A73E26DF6
:10C3F000DA400A74A26DDA400A75626DDA400A7694
:10C40000226DDA400833202B0A77E3D1002070BD7B
:10C41000E2540133C0E7E25401333F2BFBD92146FC
:10C420002046FFF7B7FE3822002100F031FDB5E7C6
:10C430001823226DDA4001F8012F626DDA400A718B
:10C44000A26DDA400A72E26DDA400A73226EDA40B7
:10C450000A74626EDA400A75A26EDA400A76E26EFB
:10C46000DA40083B13F1080F0A77E2D1CEE70E203D
:10C47000CDE70000074B1B7853B9074B1A78022A07
:10C4800006D002221A70054B4FF40012C3F80021A7
:10C49000704700BFBD080020BC08002000E100E09C
:10C4A00010B50A4C0A482146FEF7E4FB60B9094B77
:10C4B00062781A60084B0121C3F81C019960074992
:10C4C00002340C60C3F81C2510BD00BFBE0800205C
:10C4D000E80800209C09002000200040A00900205E
:10C4E0002748284B70B50024042527268560036063
:10C4F00046604461FEF788FB2348244B8560C0E911
:10C5000000364461FEF780FB214B22491C704FF03E
:10C51000A0434FF48072C3F81C258022C3F81C2569
:10C520000C22C3F82027C3F81C274022C3F8082593
:10C53000C3F818252022C3F81825174B0622C3F884
:10C540000C250822C3F814250722C3F8102505225C
:10C55000C3F808250122C3F86C25C3F824158421EB
:10C56000C3F80055C3F80413C3F80841C3F81C41CD
:10C570001A600A4BE02283F802231D6070BD00BFE1
:10C58000E8080020000900200808002020080020FA
:10C59000BD08002000E0D7010020004000E100E0DD
:10C5A0000148FEF7B6BB00BF0808002010B50446DE
:10C5B0008AB00D48FEF7B1FBA0B922788DF80000D3
:10C5C000013221460DF1010000F054FC0648694695
:10C5D000FEF729FB054B1B780BB9FFF74BFF01203A
:10C5E0000AB010BD0020FBE7E8080020BC080020CE
:10C5F00070B5334C88B0661C324BD3F808219AB919
:10C60000D3F81C1171B13049C3F81C210A68501EBF
:10C610000860002A44D02D490A68501C127808602E
:10C62000C3F81C2508B070BD294D0022C3F80821AD
:10C63000D3F808212A68D3F818151170531C6278B2
:10C640002B60272A01D92E60D6E79B1B262B04D806
:10C65000012BD1D901329342CED31E482146FEF799
:10C66000E2FAB8B148F20343ADF80030A3788DF890
:10C670000230684686238DF80330FFF797FF154890
:10C68000FEF74BFB0028DED0134A012313700D4A3E
:10C690005360D8E7114B4FF48002C3F80021EEE756
:10C6A0000121D9600C4B0E481978012918BF1A7066
:10C6B000FEF73BFB0028B5D1FFF7DCFEB2E700BF79
:10C6C000A4090020002000409C090020A0090020AF
:10C6D0000C00002008080020BC08002000E100E059
:10C6E000E808002070B5EFF3108572B6064C074ECF
:10C6F0000122227033781BB9237005B962B670BD70
:10C70000FFF776FFF6E700BFBD080020BC08002059
:10C7100010B58AB0044669460D48FEF7ABFA90B9E9
:10C720009DF801202AB101320DF10101204600F0EF
:10C73000A1FB084B1878012807D100221A70064B7C
:10C7400018600AB010BD0020FBE70120F9E700BF28
:10C7500008080020BC08002000200040094B0422EB
:10C76000C3F88020BFF34F8FBFF36F8F064B4FF09E
:10C77000FF32C3F8082301225A60DA600022C3F8AE
:10C780000025704700E100E000200040044B6022DB
:10C7900083F815234FF400121A60FFF7A1BE00BF03
:10C7A00000E100E000B589B048F20413ADF80030B4
:10C7B00001238DF802304FF08043D3F80034C3F3E7
:10C7C000C0038DF80330FFF7EBFE8DF804006846D8
:10C7D000FFF7ECFE00280CBF0420002009B05DF834
:10C7E00004FB000030B5564C97B0842506A8FFF72F
:10C7F0008FFF08B917B030BD9DF81930762B3CD0AB
:10C800001BD8022B25D00E2B1BD1FFF76BFF4FF04F
:10C8100080434FF0FF32C3F800240122C3F81C25E7
:10C82000BFF34F8F4749484BCA6802F4E062134395
:10C83000CB60BFF34F8F00BFFDE7772B3ED0782B47
:10C8400061D08DF83A3048F20343ADF83830822396
:10C850002FE09DF818208DF838208223012A8DF8CA
:10C86000393006D9013A0DF11A010DF13A0000F004
:10C8700001FB0EA8FFF79AFEB8E78DF83A309DF855
:10C88000183048F20342052BADF8382002D08DF85D
:10C890003B50EEE79DF81C30012B0DD19DF81D108B
:10C8A000BDF81A00003918BF0121FEF77FFF0023F1
:10C8B000E35C8DF83B30DCE70723F9E78DF83A308D
:10C8C0009DF8183048F20742042BADF83820DED12D
:10C8D0009DF81C00A8B101280FD1BDF81A00FEF781
:10C8E00077FF0023BDF81A20ADF83C209DF81C20EE
:10C8F0008DF83E208DF83F00DAE703238DF83830BD
:10C9000000200723EEE78DF83A3002238DF800303F
:10C910000DF11A0301939DF8183048F20542013BCE
:10C9200068460293ADF83820FBF72BFEBDF81A30AD
:10C93000ADF83C30112894BF235C8023B9E700BFD9
:10C9400050D0070000ED00E00400FA05524B1B68D0
:10C950000D2B57D14FF080414FF080520023C1F88A
:10C960000C31C1F81031C1F838354C4BD2F8040401
:10C97000C3F82005D2F80804C3F82405D2F80C0443
:10C98000C3F82805D2F81004C3F82C05D2F8140413
:10C99000C3F83005D2F81804C3F83405D2F81C04E3
:10C9A000C3F84005D2F82004C3F84405D2F82404A3
:10C9B000C3F84805D2F82804C3F84C05D2F82C0473
:10C9C000C3F85005D2F83004C3F85405D2F8340443
:10C9D000C3F86005D2F83804C3F86405D2F83C0403
:10C9E000C3F86805D2F84004C3F86C05D2F84424B3
:10C9F000C3F87025D1F80034DB0744BF6FF00103A2
:10CA0000C1F80034264AD2F8883043F47003C2F8E3
:10CA10008830BFF34F8FBFF36F8F4FF01023D3F8E1
:10CA20000022002A03DBD3F80432002B2FDA1D4B3F
:10CA30000122C3F80425D3F80024002AFBD04FF0CC
:10CA400010221221C2F80012D3F80024002AFBD0D1
:10CA50004FF010231222C3F80422124B1A46D3F8C7
:10CA600000140029FBD00021C3F80415D2F80034CB
:10CA7000002BFBD0BFF34F8F09490B4BCA6802F460
:10CA8000E0621343CB60BFF34F8F00BFFDE7074B5E
:10CA9000074A1A60704700BF3001001000C0004014
:10CAA00000ED00E000E001400400FA051000002065
:10CAB0000090D0030649074A074B9B1A03DD043B4D
:10CAC000C858D050FBDCFFF741FFFBF7B9FB000073
:10CAD00074D00700040000207C000020FEE7FEE781
:10CAE000FEE7FEE7FEE7FEE7FEE7FEE7FEE7FEE71E
:10CAF00053B94AB9002908BF00281CBF4FF0FF31C5
:10CB00004FF0FF3000F06EB9ADF1080C6DE904CEC6
:10CB100000F006F8DDF804E0DDE9022304B0704718
:10CB20002DE9F047089D04468C46002B40F0838099
:10CB30008A42174647D9B2FA82F242B1C2F12000C6
:10CB400024FA00F09140974040EA010C94404FEAEB
:10CB50001748230CBCFBF8F61FFA87FE08FB16C12A
:10CB600043EA014306FB0EF1994209D9FB1806F18D
:10CB7000FF3080F01981994240F21681023E3B4419
:10CB80005B1AA4B2B3FBF8F008FB103344EA034489
:10CB900000FB0EFEA64509D93C1900F1FF3380F0D9
:10CBA0000581A64540F2028102383C4440EA064035
:10CBB000A4EB0E0400261DB1D4400023C5E90043B8
:10CBC0003146BDE8F08702B9FFDEB2FA82F2002AF0
:10CBD00050D1CB1B4FEA174E1FFA87F80126B3FB43
:10CBE000FEFC210C0EFB1C3341EA034108FB0CF355
:10CBF0008B4207D979180CF1FF3002D28B4200F238
:10CC0000E9808446C91AA3B2B1FBFEF00EFB1011F5
:10CC100043EA014408FB00F8A04507D93C1900F19C
:10CC2000FF3302D2A04500F2D9801846A4EB0804D5
:10CC300040EA0C40BFE78B4209D9002D00F0B180DB
:10CC40000026C5E9000130463146BDE8F087B3FA59
:10CC500083F6002E4AD18B4202D3824200F2B88082
:10CC6000841A61EB030101208C46002DA8D0C5E990
:10CC7000004CA5E7C2F1200320FA03F6974001FA21
:10CC800002F04FEA174ED9403043030CB1FBFEF6D9
:10CC90001FFA87F80EFB161143EA014306FB08F161
:10CCA000994204FA02F409D9FB1806F1FF3C80F01E
:10CCB0008D80994240F28A80023E3B445B1A81B2E9
:10CCC000B3FBFEF00EFB103341EA034100FB08F317
:10CCD0008B4207D9791800F1FF3C73D28B4271D98E
:10CCE00002383944CB1A40EA064678E7C6F1200CF0
:10CCF00003FA06F422FA0CF31C4320FA0CF701FAAB
:10CD000006F34FEA144E21FA0CF11F433B0CB1FB22
:10CD1000FEF91FFA84F80EFB191143EA014109FBE1
:10CD200008FA8A4502FA06F200FA06F308D96118F1
:10CD300009F1FF3048D28A4546D9A9F102092144B8
:10CD4000A1EB0A01BFB2B1FBFEF00EFB101147EAE6
:10CD5000014700FB08F8B84507D9E71900F1FF3192
:10CD60002ED2B8452CD90238274440EA0940A7EB17
:10CD70000807A0FB02894F45C64649461AD317D07B
:10CD80005DB1B3EB0E0267EB010707FA0CFCF24052
:10CD90004CEA0202F740C5E9002700263146BDE80B
:10CDA000F0872E4628460BE70646E9E61846FDE6DC
:10CDB0004345E5D2B8EB020E69EB04010138DFE729
:10CDC0000846D2E760468DE78146B9E7664675E7D3
:10CDD00030464AE7ACF1020C394413E702383C44D0
:10CDE00024E700BF704700BF08B5074B044613B1E6
:10CDF0000021AFF30080054B1868836A03B19847A0
:10CE0000204600F04DF800BF0000000064D007008D
:10CE100070B50D4D0D4C641BA4100026A64209D11F
:10CE20000B4D0C4C00F03EF8641BA4100026A642EB
:10CE300005D170BD55F8043B98470136EEE755F82B
:10CE4000043B98470136F2E774000020740000208C
:10CE5000740000207800002030B501390024A2427F
:10CE600001D1002005E0035D01340D5DAB42F6D039
:10CE7000581B30BD0A44914200F1FF3300D1704786
:10CE800010B511F8014B03F8014F9142F9D110BDD3
:10CE900002440346934200D1704703F8011BF9E7AF
:10CEA000FEE700BFF8B500BFF8BC08BC9E4670475F
:10CEB000F8B500BFF8BC08BC9E467047FFFF0000F5
:10CEC00002030001020000001A00000050000000F0
:10CED00096C298D84539A1F4A033EB2D817D037714
:10CEE000F240A463E5E6BCF847422CE1F2D1176BAF
:10CEF000F551BF376840B6CBCE5E316B5733CE2B82
:10CF0000169E0F7C4AEBE78E9B7F1AFEE242E34FB0
:10CF1000512563FCC2CAB9F3849E17A7ADFAE6BCDB
:10CF2000FFFFFFFFFFFFFFFF00000000FFFFFFFF0D
:10CF3000FFFFFFFFFFFFFFFFFFFFFFFF00000000FD
:10CF4000000000000000000001000000FFFFFFFFE4
:10CF5000982F8A4291443771CFFBC0B5A5DBB5E964
:10CF60005BC25639F111F159A4823F92D55E1CABD8
:10CF700098AA07D8015B8312BE853124C37D0C5566
:10CF8000745DBE72FEB1DE80A706DC9B74F19BC1AE
:10CF9000C1699BE48647BEEFC69DC10FCCA10C249E
:10CFA0006F2CE92DAA84744ADCA9B05CDA88F97682
:10CFB00052513E986DC631A8C82703B0C77F59BFEC
:10CFC000F30BE0C64791A7D55163CA066729291418
:10CFD000850AB72738211B2EFC6D2C4D130D3853B5
:10CFE00054730A65BB0A6A762EC9C281852C729277
:10CFF000A1E8BFA24B661AA8708B4BC2A3516CC7A5
:10D0000019E892D1240699D685350EF470A06A10DD
:10D0100016C1A419086C371E4C774827B5BCB0342C
:10D02000B30C1C394AAAD84E4FCA9C5BF36F2E68CA
:10D03000EE828F746F63A5781478C8840802C78C59
:10D04000FAFFBE90EB6C50A4F7A3F9BEF27871C65C
:10D05000008383808690828583848585848085860D
:0CD0600085860000140000200000000085
:08D06C00D4B1FF7F01000000B8
:10D07400D6BE898E03000000A50900200090D003CD
:10D08400000000000000000000000000000000009C
:10D09400000000000000000000000000000000008C
:10D0A400000000000000000000000000000000007C
:10D0B400000000000000000000000000000000006C
:10D0C400000000000000000000000000000000005C
:10D0D400000000000000000000000000000000004C
:08D0E40025820700018207000C
:020000020000FC
:020000041000EA
:041014000080070051
:04101800007007005D
:040000037000CAB50A
:00000001FF
